{
  "_format": "hh-sol-artifact-1",
  "contractName": "UniswapV2Library",
  "sourceName": "contracts/UniswapRoute02.sol",
  "abi": [
    {
      "inputs": [
        {
          "internalType": "uint256",
          "name": "amountOut",
          "type": "uint256"
        },
        {
          "internalType": "uint256",
          "name": "reserveOut",
          "type": "uint256"
        },
        {
          "internalType": "uint256",
          "name": "reserveIn",
          "type": "uint256"
        }
      ],
      "name": "getAmountIn",
      "outputs": [
        {
          "internalType": "uint256",
          "name": "amountIn",
          "type": "uint256"
        }
      ],
      "stateMutability": "pure",
      "type": "function"
    },
    {
      "inputs": [
        {
          "internalType": "uint256",
          "name": "amountIn",
          "type": "uint256"
        },
        {
          "internalType": "uint256",
          "name": "reserveIn",
          "type": "uint256"
        },
        {
          "internalType": "uint256",
          "name": "reserveOut",
          "type": "uint256"
        }
      ],
      "name": "getAmountOut",
      "outputs": [
        {
          "internalType": "uint256",
          "name": "amountOut",
          "type": "uint256"
        }
      ],
      "stateMutability": "pure",
      "type": "function"
    },
    {
      "inputs": [
        {
          "internalType": "address",
          "name": "_factory",
          "type": "address"
        },
        {
          "internalType": "uint256",
          "name": "amountOut",
          "type": "uint256"
        },
        {
          "internalType": "address[]",
          "name": "path",
          "type": "address[]"
        }
      ],
      "name": "getAmountsIn",
      "outputs": [
        {
          "internalType": "uint256[]",
          "name": "amounts",
          "type": "uint256[]"
        }
      ],
      "stateMutability": "view",
      "type": "function"
    },
    {
      "inputs": [
        {
          "internalType": "address",
          "name": "_factory",
          "type": "address"
        },
        {
          "internalType": "uint256",
          "name": "amountIn",
          "type": "uint256"
        },
        {
          "internalType": "address[]",
          "name": "path",
          "type": "address[]"
        }
      ],
      "name": "getAmountsOut",
      "outputs": [
        {
          "internalType": "uint256[]",
          "name": "amounts",
          "type": "uint256[]"
        }
      ],
      "stateMutability": "view",
      "type": "function"
    },
    {
      "inputs": [
        {
          "internalType": "address",
          "name": "factory",
          "type": "address"
        },
        {
          "internalType": "address",
          "name": "token0",
          "type": "address"
        },
        {
          "internalType": "address",
          "name": "token1",
          "type": "address"
        }
      ],
      "name": "getReserves",
      "outputs": [
        {
          "internalType": "uint256",
          "name": "",
          "type": "uint256"
        },
        {
          "internalType": "uint256",
          "name": "",
          "type": "uint256"
        }
      ],
      "stateMutability": "view",
      "type": "function"
    },
    {
      "inputs": [
        {
          "internalType": "address",
          "name": "factory",
          "type": "address"
        },
        {
          "internalType": "address",
          "name": "token0",
          "type": "address"
        },
        {
          "internalType": "address",
          "name": "token1",
          "type": "address"
        }
      ],
      "name": "pairFor",
      "outputs": [
        {
          "internalType": "address",
          "name": "pair",
          "type": "address"
        }
      ],
      "stateMutability": "pure",
      "type": "function"
    },
    {
      "inputs": [
        {
          "internalType": "uint256",
          "name": "amountA",
          "type": "uint256"
        },
        {
          "internalType": "uint256",
          "name": "reserveA",
          "type": "uint256"
        },
        {
          "internalType": "uint256",
          "name": "reserveB",
          "type": "uint256"
        }
      ],
      "name": "quote",
      "outputs": [
        {
          "internalType": "uint256",
          "name": "amountB",
          "type": "uint256"
        }
      ],
      "stateMutability": "pure",
      "type": "function"
    },
    {
      "inputs": [
        {
          "internalType": "address",
          "name": "token0",
          "type": "address"
        },
        {
          "internalType": "address",
          "name": "token1",
          "type": "address"
        }
      ],
      "name": "sortTokens",
      "outputs": [
        {
          "internalType": "address",
          "name": "tokenA",
          "type": "address"
        },
        {
          "internalType": "address",
          "name": "tokenB",
          "type": "address"
        }
      ],
      "stateMutability": "pure",
      "type": "function"
    }
  ],
  "bytecode": "0x612de4610053600b82828239805160001a607314610046577f4e487b7100000000000000000000000000000000000000000000000000000000600052600060045260246000fd5b30600052607381538281f3fe73000000000000000000000000000000000000000030146080604052600436106100925760003560e01c80636d91c0e2116100655780636d91c0e21461015957806385f8c25914610189578063ad615dec146101b9578063bb7b9c76146101e957610092565b8063054d50d414610097578063192128b2146100c757806332749461146100f7578063544caa5614610128575b600080fd5b6100b160048036038101906100ac9190612084565b610219565b6040516100be91906120e6565b60405180910390f35b6100e160048036038101906100dc91906121c4565b61060c565b6040516100ee91906122f6565b60405180910390f35b610111600480360381019061010c9190612318565b610a5e565b60405161011f92919061236b565b60405180910390f35b610142600480360381019061013d9190612394565b610cb1565b6040516101509291906123e3565b60405180910390f35b610173600480360381019061016e9190612318565b610fc1565b604051610180919061240c565b60405180910390f35b6101a3600480360381019061019e9190612084565b611172565b6040516101b091906120e6565b60405180910390f35b6101d360048036038101906101ce9190612084565b61151a565b6040516101e091906120e6565b60405180910390f35b61020360048036038101906101fe91906121c4565b6117b9565b60405161021091906122f6565b60405180910390f35b60006102477fc88d6b76bda2773451c7066ed2d9c11ae5885d54784da197815638a5c76fc6af60001b611bf9565b6102737f04ca47f6929c3820908ed97ef25afd865422791c9b748d6d996dfd3114cd31ea60001b611bf9565b61029f7f975e70f37c86efd9f76a00755645698206f47703c3cdbf79188178dd15de2a0e60001b611bf9565b6102cb7f4587a20bd9fd42b50525a70d921952c6627a13a0be46d74707062e78e4a632cf60001b611bf9565b6000841161030e576040517f08c379a0000000000000000000000000000000000000000000000000000000008152600401610305906124aa565b60405180910390fd5b61033a7f53caf039311a0be6c15fedd0e153a202813e56a51648fdc6106eac85e989ee1260001b611bf9565b6103667f175106b542bb0c5d168cf1f1a5aeed09d07f70cacb5c07bde67fe22fbadc9c5d60001b611bf9565b6103927f3d8f0dea4630a688f6a0d25b362a3c61bfaaebeda50abccd12556781ae8e116b60001b611bf9565b6103be7f20f3e746729862bbde6925273745a147d9c18e81c7471973bbacd9370fbb81fa60001b611bf9565b6000831180156103ce5750600082115b61040d576040517f08c379a00000000000000000000000000000000000000000000000000000000081526004016104049061253c565b60405180910390fd5b6104397f7edd8aa33f33ecb92a9bec66eae5dc02604f8442cfa8ec021b6c24a55c6b159160001b611bf9565b6104657f492fcfd7f79e1e0a9a6e46fcfc9263c6ff4fc298070f36518a6e343d55f7109160001b611bf9565b6104917f306adc2262f9218dff9161759f71903c9284457f7f9111959fbd8e310f8a497460001b611bf9565b60006104a86103e586611bfc90919063ffffffff16565b90506104d67f61c09146ac4cd1d8e5fe1e2c179703ab3a1ad80f18042dfb97ad013242ae898260001b611bf9565b6105027f82cc73fe29f33e14dc72cdefea91e8db6074a85249574fdc33c25e8e31fcd4df60001b611bf9565b60006105178483611bfc90919063ffffffff16565b90506105457fa3b4d7e5e257b22c4b0a5215fcf77c27b0aa0bc1f3eef7b9fa43849b5033220c60001b611bf9565b6105717f22905627bdc3a8a4298ec5fbc18c1d6e03b10206016a4d6975e67a2097bbe98c60001b611bf9565b600061059a8361058c6103e889611bfc90919063ffffffff16565b611d4690919063ffffffff16565b90506105c87f1d9f34b04a70d5249668d85b32615909a3768fe2008e3ec1f138d1a0075a5e9560001b611bf9565b6105f47f8f0777bb1f731e5e6d7ed9f572bdbbb277de6afddbe3e0d610665315aba2460f60001b611bf9565b808261060091906125ba565b93505050509392505050565b606061063a7f1c4dd8e455fc55859b3156ac5972bd7f59709961cee46f09481c4be6f7c2636b60001b611bf9565b6106667f7202cd50a66b4a0102ab1059c11e6e9a34b5c683a6aca01f136a907b1812487a60001b611bf9565b6106927f7a0356d2116303c95a19c25ebb8b1e06ef3f0a5071195889fa2199ebbfee811260001b611bf9565b6106be7fea179bbafcf3dc861189a5ee1265ea82e49638aff3d3d26fec4d7b1e4f8b776260001b611bf9565b6002838390501015610705576040517f08c379a00000000000000000000000000000000000000000000000000000000081526004016106fc90612637565b60405180910390fd5b6107317f36d117c119054485092c081457a184eee2e8eecc0314e4ce078a8b29bbe5a62f60001b611bf9565b61075d7fd18c5d1447fb996ecf6ecc62c3468a85c00ea3ca2fbafffe54a89159426796fd60001b611bf9565b6107897f94ddaf6ca1d28515ed845f2bb3c3c49b866044236f30299f9716c135bb4b3cc860001b611bf9565b8282905067ffffffffffffffff8111156107a6576107a5612657565b5b6040519080825280602002602001820160405280156107d45781602001602082028036833780820191505090505b5090506108037f2c71ba06aa800062fe505fb53fba74c6f4fd86ed00627addfaf20fd4d23052a860001b611bf9565b61082f7fe7dcb44ca8e6a75348cc73c34089903829397eff5cb1c58195b96485ecf716b260001b611bf9565b83816001858590506108419190612686565b81518110610852576108516126ba565b5b60200260200101818152505061088a7fd453434cb8bf81619f5b872a70cbc44cb6e0b4d52106e94ff930f9685731eeea60001b611bf9565b6108b67f2c539212335c642ce95f2683d951a1c4784358306a4a36a8305f666fbfa3b2be60001b611bf9565b60006001848490506108c89190612686565b90505b6000811115610a55576109007fc3d6bf459bffbd0dc8bd5f59b7a9a0bdb8234f97e15e52d0d956850157ed3c7760001b611bf9565b61092c7fa3950cc984613e1acac5b6b0300381c58240689051ff8f363a5adbdfb7cdfbbb60001b611bf9565b6000806109948887876001876109429190612686565b818110610952576109516126ba565b5b905060200201602081019061096791906126e9565b88888781811061097a576109796126ba565b5b905060200201602081019061098f91906126e9565b610a5e565b915091506109c47f076564f896c2819512e7e908d74e3b094c538c16053a9f8ac49c2ebc2aa4730560001b611bf9565b6109f07fff1d2b9210698b51a2fcd402255e522c9a9c0964e8bb4f0b5f5b3c8e585f645260001b611bf9565b610a15848481518110610a0657610a056126ba565b5b60200260200101518284611172565b84600185610a239190612686565b81518110610a3457610a336126ba565b5b60200260200101818152505050508080610a4d90612716565b9150506108cb565b50949350505050565b600080610a8d7f7513c9ea5db0acb222f64cd8960c459d664bf0e4f7bd15ff541c025320022ede60001b611bf9565b610ab97fe5e495408658dcb0912ae3ed013ea2cc45eed479b7da534da946bd68ba7c512560001b611bf9565b610ae57fc9a96fc16d9bd0069220ef1af5e99d42a251728b8f5672a0a680ffbcd46a965760001b611bf9565b6000610af18585610cb1565b509050610b207fcabdb249800892bb239fd403128a25e14fa77aa02b702ac9717fcae3ffceda9660001b611bf9565b610b4c7f57439497897ed0ec1ea3f19c70f7bc1b4efc5e01fe4651b58041e86d28f1cab260001b611bf9565b600080610b5a888888610fc1565b73ffffffffffffffffffffffffffffffffffffffff16630902f1ac6040518163ffffffff1660e01b8152600401606060405180830381865afa158015610ba4573d6000803e3d6000fd5b505050506040513d601f19601f82011682018060405250810190610bc891906127c1565b5091509150610bf97f7c661821c0f1a6ecf5a12ad8c563d5d56c6bb9b58a2c3a7216c49e1515054d3c60001b611bf9565b610c257f37d9439b37accd034238e469710ae98c8b1896b7959f41b30bd17962cd4dc54160001b611bf9565b8673ffffffffffffffffffffffffffffffffffffffff168373ffffffffffffffffffffffffffffffffffffffff1614610c7f57806dffffffffffffffffffffffffffff16826dffffffffffffffffffffffffffff16610ca2565b816dffffffffffffffffffffffffffff16816dffffffffffffffffffffffffffff165b94509450505050935093915050565b600080610ce07ff6546b8ac6e9feb108af2eb71ddbf35f8fc75e087299f300c7fc9d5befa9a62760001b611bf9565b610d0c7f2c9da162820e6a41d9ed2d158333549471c43f791f25c9d048712debb4e62f4b60001b611bf9565b610d387f537f0bc28d4a5b7c9d6d8f0217d7d02d7fd5a98e32ced08b5dad784489242a6b60001b611bf9565b610d647fe6b4d7a99ade86b2139903b31824e5344b306f83ca9e3520632dea09809cc13d60001b611bf9565b8373ffffffffffffffffffffffffffffffffffffffff168373ffffffffffffffffffffffffffffffffffffffff1603610dd2576040517f08c379a0000000000000000000000000000000000000000000000000000000008152600401610dc990612860565b60405180910390fd5b610dfe7f3879fd142b35a96d345213e20052ab9593e2509f433405e15fbf3fe0abf66c7c60001b611bf9565b610e2a7fef5c63879cde8a2ad1c6a88b7a3227d0080b1ff0d95e698518c704e63803211260001b611bf9565b610e567f59116007c06bc984a9968bebabc01fc4a434c6ed38617f9114f6ae872cd667eb60001b611bf9565b8273ffffffffffffffffffffffffffffffffffffffff168473ffffffffffffffffffffffffffffffffffffffff1610610e90578284610e93565b83835b8092508193505050610ec77f7954137df8fa2eee324986a627b1f3b5089e737cf1362b16ae812255c05476fa60001b611bf9565b610ef37f43b7bf0f8c3a41901bd460414a8d1581604822d1641cd393010ddc06617a275060001b611bf9565b610f1f7fc82c3035f75041b97311d088547a8dedf72dd4eb66ebc0b1fdf38cb75a5715ca60001b611bf9565b600073ffffffffffffffffffffffffffffffffffffffff168273ffffffffffffffffffffffffffffffffffffffff1603610f8e576040517f08c379a0000000000000000000000000000000000000000000000000000000008152600401610f85906128cc565b60405180910390fd5b610fba7f8bba235b3f11c754b9b4d359a7afa94c13a0c96fc2fd616199e290186143effc60001b611bf9565b9250929050565b6000610fef7f68f2f75880df06164f4ee69eefde4e08d488414470bd09ae39f4ee0242d5408d60001b611bf9565b61101b7f96110bc2848d2c60d7e8206f620b79cacb92618a709928cb040a348b801f66eb60001b611bf9565b6110477ff1931be4eaba36acf90bdcc16bb0dec5ecba86114f5b66193fc393a87a01977a60001b611bf9565b6000806110548585610cb1565b915091506110847f893d5c4259e097351f93e9ab38e2df5cc0edc9430b2da84e2388e7b3a494841060001b611bf9565b6110b07faac4abed6b2ab966962388909adc86bdd7f229fc12322b95924bf065b751cd7b60001b611bf9565b60008683836040516020016110c6929190612934565b604051602081830303815290604052805190602001206040516020016110ed929190612a2e565b6040516020818303038152906040528051906020012090506111317f9e03e037e1f33a49ac22bb5fb40e65c788dcb8e4dca6641a4ff54e377314536f60001b611bf9565b61115d7f9fba44a5e6e76918118b08eb80be22b1f47b8aa66b5e86aea5221ba61dc9315060001b611bf9565b61116681611e7b565b93505050509392505050565b60006111a07f1dbaa49dbfedb6956459e38503d2d82e6c3c58d7d60942ec77effd666e6753db60001b611bf9565b6111cc7ffbc2ce3f663552058544efaeea435a74a88fe09a27a04d447be144305b067e7460001b611bf9565b6111f87f029ab865b9abb325a2d880bd9d5aad5cbe6031c7c932f3416db2c298831e834b60001b611bf9565b6112247f766bfaee72f1b2aa3ad7510a579c252a2332a2aa7fce5ad26055bf0c62e8066f60001b611bf9565b60008411611267576040517f08c379a000000000000000000000000000000000000000000000000000000000815260040161125e90612ae2565b60405180910390fd5b6112937f49f48f5578f928577cfe2010152062237b1ea0673ec9b9e2e75565c3561a34ac60001b611bf9565b6112bf7fafeee6cea251fc0367992aaa39ac4878e01c38f3581932eb32b08bee31b30d3460001b611bf9565b6112eb7fbfc4f17122190f2a353bdb78831d0950a313562c53e83ee5663695f7cb41eb9260001b611bf9565b6113177fbc1ee49a1cc55f730339509746123b2c6debc407c05d229198610eb485ed241b60001b611bf9565b6000821180156113275750600083115b611366576040517f08c379a000000000000000000000000000000000000000000000000000000000815260040161135d9061253c565b60405180910390fd5b6113927fbcb0ba76f30f9ae42f17890c1f06d594b2b60b895ad2bf2a11a380ec6ccc361660001b611bf9565b6113be7ffd516f36e744460b397b9684a9cc5a7b56e6c3e70152166724f06967d6a02d0560001b611bf9565b6113ea7fc8277723fdb4be29e7a7033cfcd2864e7331b285c8c37adfa331d44d8e752b4a60001b611bf9565b60006114136103e86114058786611bfc90919063ffffffff16565b611bfc90919063ffffffff16565b90506114417f140355bd85ee64f6e2e11288e4bff82f1ea4d874f36b0af2734089872769247560001b611bf9565b61146d7f023a7969c8b9e9dffd969866cbc4aee104b0ebd414b4946f2fbaf06d8e845a9d60001b611bf9565b60006114966103e56114888888611f0c90919063ffffffff16565b611bfc90919063ffffffff16565b90506114c47f708b9243c61e537fa97e746ad81ad5e27571f76ab656167d6025bb39206ec1c760001b611bf9565b6114f07feafb4bbeb074a38542fc606f38446e42f92d74b8dbf0f05d82d9b32cffb5870060001b611bf9565b61150f6001828461150191906125ba565b611d4690919063ffffffff16565b925050509392505050565b60006115487f35fbd750db3715c2d28f4b79d598570cad5d6752561bdc97c1f31c5383347e5760001b611bf9565b6115747f28598e52551728ee17e011d95a9cc380983b6088ae5f3915a49bd1244576de7060001b611bf9565b6115a07fe5699655c2ccf0abb2599e2b60e53f4b908fcfafe266aa16db6f1e1b15fedf4e60001b611bf9565b6115cc7fe2ac181cf1fcaeddbfb4bd751155b629b54acfb92efc1cdd69ff4024cd5e32c660001b611bf9565b6000841161160f576040517f08c379a000000000000000000000000000000000000000000000000000000000815260040161160690612b74565b60405180910390fd5b61163b7f9632e95b7401e257fcd2d9a91f4875404b202664b5443b9459765c917c86de6d60001b611bf9565b6116677fddeeafc11e8a0d6451b15de619b4830466f076d06d7b058ad673841b78569a6460001b611bf9565b6116937f7452b60746bbeaeaf6b1084bb5b72d2f1af0f999bf86ad0eb965a64d806bd6a260001b611bf9565b6116bf7f7933add8ef2a8956221c095bc6e2acbe8bd84f09b6ebc9dcafa62ed4506a095760001b611bf9565b6000831180156116cf5750600082115b61170e576040517f08c379a00000000000000000000000000000000000000000000000000000000081526004016117059061253c565b60405180910390fd5b61173a7f4702e5b13c9e6996aebbb3efd886fb2ae88c42044e8d72633532ebb9cd4ce8d260001b611bf9565b6117667fe38be0bc0d6c19f6bd16422c338b7b0c23016340795d8e66af3a6806c0511bcb60001b611bf9565b6117927f86981b22da69f3f6d3743c0a8bcaa6e459553480c94ef0db33d719fbf491218160001b611bf9565b826117a68386611bfc90919063ffffffff16565b6117b091906125ba565b90509392505050565b60606117e77f43f62d60cd09022f1a6ae921dcc08102a8fec4e3e1aeb0c50c8bd34eceee2fb960001b611bf9565b6118137fd783ca70162c64b9832dacd40a0eb2edc281827b708478751f7c3bdaf7b2882e60001b611bf9565b61183f7f0907cd9666d13191863fb3f6fc6a7b9e88e0879bf67db0c8fdf907713bcf8a9060001b611bf9565b61186b7f91347926ee217ec8b218486c78917b24b4def747439dd1a4921d42dfe1b9f02460001b611bf9565b60028383905010156118b2576040517f08c379a00000000000000000000000000000000000000000000000000000000081526004016118a990612637565b60405180910390fd5b6118de7f6617196f3a823a926924504af68ada0b59609e3dd1552a11039c5bbde9c196b560001b611bf9565b61190a7ffe234b649832ae2a524cbd622ee5dc3170f727daf309f245e6688498913be83060001b611bf9565b6119367fe0b81f7e10c250a5977d88aff98ffd65b68dfb2c31303ecafb7883a7806c547960001b611bf9565b8282905067ffffffffffffffff81111561195357611952612657565b5b6040519080825280602002602001820160405280156119815781602001602082028036833780820191505090505b5090506119b07f44e35550cc15ae26a4218096e27080fa58f82b45355d4144440908ded802cdde60001b611bf9565b6119dc7f78a1e64382516dfa1996dd1cb35536b47a5b7306be5b8e3b1e07ee5b2f69329a60001b611bf9565b83816000815181106119f1576119f06126ba565b5b602002602001018181525050611a297fd808133bbb89f7ae9211fc70f98f902947adcdd745b53efdc4cfdc234e2f42c860001b611bf9565b611a557f3b8233d435ebda6fb132730c8fe168734ecae4e90bb70b7a87cef05d2990982b60001b611bf9565b60005b600184849050611a689190612686565b811015611bf057611a9b7f534a73dfc6676d1b8240263d3bc147a2fcb5734d30d380380541f82cbb79666860001b611bf9565b611ac77f6ac990b3375d3b471ecf11cc5002b00b54ab515c0500837aacf22a8c18816b2260001b611bf9565b600080611b2f88878786818110611ae157611ae06126ba565b5b9050602002016020810190611af691906126e9565b8888600188611b059190612b94565b818110611b1557611b146126ba565b5b9050602002016020810190611b2a91906126e9565b610a5e565b91509150611b5f7f6ddded9eb991df208cde9b33deab99c74a35299ccf2fcb319c349f11c9c8da8260001b611bf9565b611b8b7f1f57cda83da29a2bca80896b15c08e6afa21c19ab0bf27da79b07d236e589dea60001b611bf9565b611bb0848481518110611ba157611ba06126ba565b5b60200260200101518383610219565b84600185611bbe9190612b94565b81518110611bcf57611bce6126ba565b5b60200260200101818152505050508080611be890612bc8565b915050611a58565b50949350505050565b50565b6000611c2a7fe2d966d392ab478e407122f84a310040e15aed30771548c539078d9c560b7c2760001b612041565b611c567f534aa230e8775e3f9a3c63606e10e3dd4501ae49abfe8f6d39457db52d5057d260001b612041565b611c827fe2e52d594995912cf1e237d1ad5002841f579146336d793e43542c66e6c23e3260001b612041565b611cae7fb8178f53b23c3fb0d5b22ff6f97e72666e0b757a03335d2c71dba25e28e0abbc60001b612041565b6000821480611cd5575082828385611cc69190612c10565b925082611cd391906125ba565b145b611d14576040517f08c379a0000000000000000000000000000000000000000000000000000000008152600401611d0b90612cb6565b60405180910390fd5b611d407f877708902d0373d2a8bf04d16963971f45fc8650ef0893bcd4c6e024177b003a60001b612041565b92915050565b6000611d747fe976e3b1ab5b47948b7b46c0060d3100aa9612bddbac51056ac80c13b62f562360001b612041565b611da07fb5003e0703deb9dd46e647e50fb026cc459f247098c770bef51c28c5a4f1380c60001b612041565b611dcc7fa839dfec5ba3a44553d1035b15d26e1cb3437717b20133e5ffd4c0a2f612710f60001b612041565b611df87f28d00b99a2aec99189e90bd77f23c1e61f333033b2050820a8eb2e6487a7a33960001b612041565b828284611e059190612b94565b9150811015611e49576040517f08c379a0000000000000000000000000000000000000000000000000000000008152600401611e4090612d22565b60405180910390fd5b611e757ffd851a76596272214ad39c7cba275683ad441a9fa07837f147c91694d425bba960001b612041565b92915050565b6000611ea97f5eb330c98397af75e7f35b0e3d51c194f41f3247b0b4104bc1e100403a9cf0a960001b611bf9565b611ed57fa6e042b3c959af55af99291fb3cb3a5f7c0cf01a387c1c041b03d5d90509dc2c60001b611bf9565b611f017fe9315862a695200f02355c4275484ac966a45b07656bbcc0974dab8664e3cc4b60001b611bf9565b8160001c9050919050565b6000611f3a7ff9462e2946628777cf3f2c3a53addab1c7eeda19565d3ff90690e305a7e6594360001b612041565b611f667f249914a413d90547d21b39e2064dc3e615234d376222c95054e1bee3c1293f7d60001b612041565b611f927f6f8897041ac63bcba63042cbc9f5159b57856a7f2c39b16aa515b5fce017af9160001b612041565b611fbe7f4a07db7649423caffc57c990dbba2d111c53aa554b628fd0b820f2f639d5b40a60001b612041565b828284611fcb9190612686565b915081111561200f576040517f08c379a000000000000000000000000000000000000000000000000000000000815260040161200690612d8e565b60405180910390fd5b61203b7f5e85eef731132f4fbc85560dd821d3a87aac3930d6ea68abc4bdae3a85de8d8d60001b612041565b92915050565b50565b600080fd5b600080fd5b6000819050919050565b6120618161204e565b811461206c57600080fd5b50565b60008135905061207e81612058565b92915050565b60008060006060848603121561209d5761209c612044565b5b60006120ab8682870161206f565b93505060206120bc8682870161206f565b92505060406120cd8682870161206f565b9150509250925092565b6120e08161204e565b82525050565b60006020820190506120fb60008301846120d7565b92915050565b600073ffffffffffffffffffffffffffffffffffffffff82169050919050565b600061212c82612101565b9050919050565b61213c81612121565b811461214757600080fd5b50565b60008135905061215981612133565b92915050565b600080fd5b600080fd5b600080fd5b60008083601f8401126121845761218361215f565b5b8235905067ffffffffffffffff8111156121a1576121a0612164565b5b6020830191508360208202830111156121bd576121bc612169565b5b9250929050565b600080600080606085870312156121de576121dd612044565b5b60006121ec8782880161214a565b94505060206121fd8782880161206f565b935050604085013567ffffffffffffffff81111561221e5761221d612049565b5b61222a8782880161216e565b925092505092959194509250565b600081519050919050565b600082825260208201905092915050565b6000819050602082019050919050565b61226d8161204e565b82525050565b600061227f8383612264565b60208301905092915050565b6000602082019050919050565b60006122a382612238565b6122ad8185612243565b93506122b883612254565b8060005b838110156122e95781516122d08882612273565b97506122db8361228b565b9250506001810190506122bc565b5085935050505092915050565b600060208201905081810360008301526123108184612298565b905092915050565b60008060006060848603121561233157612330612044565b5b600061233f8682870161214a565b93505060206123508682870161214a565b92505060406123618682870161214a565b9150509250925092565b600060408201905061238060008301856120d7565b61238d60208301846120d7565b9392505050565b600080604083850312156123ab576123aa612044565b5b60006123b98582860161214a565b92505060206123ca8582860161214a565b9150509250929050565b6123dd81612121565b82525050565b60006040820190506123f860008301856123d4565b61240560208301846123d4565b9392505050565b600060208201905061242160008301846123d4565b92915050565b600082825260208201905092915050565b7f556e697377617056324c6962726172793a20494e53554646494349454e545f4960008201527f4e5055545f414d4f554e54000000000000000000000000000000000000000000602082015250565b6000612494602b83612427565b915061249f82612438565b604082019050919050565b600060208201905081810360008301526124c381612487565b9050919050565b7f556e697377617056324c6962726172793a20494e53554646494349454e545f4c60008201527f4951554944495459000000000000000000000000000000000000000000000000602082015250565b6000612526602883612427565b9150612531826124ca565b604082019050919050565b6000602082019050818103600083015261255581612519565b9050919050565b7f4e487b7100000000000000000000000000000000000000000000000000000000600052601260045260246000fd5b7f4e487b7100000000000000000000000000000000000000000000000000000000600052601160045260246000fd5b60006125c58261204e565b91506125d08361204e565b9250826125e0576125df61255c565b5b828204905092915050565b7f556e697377617056324c6962726172793a20494e56414c49445f504154480000600082015250565b6000612621601e83612427565b915061262c826125eb565b602082019050919050565b6000602082019050818103600083015261265081612614565b9050919050565b7f4e487b7100000000000000000000000000000000000000000000000000000000600052604160045260246000fd5b60006126918261204e565b915061269c8361204e565b92508282039050818111156126b4576126b361258b565b5b92915050565b7f4e487b7100000000000000000000000000000000000000000000000000000000600052603260045260246000fd5b6000602082840312156126ff576126fe612044565b5b600061270d8482850161214a565b91505092915050565b60006127218261204e565b9150600082036127345761273361258b565b5b600182039050919050565b60006dffffffffffffffffffffffffffff82169050919050565b6127628161273f565b811461276d57600080fd5b50565b60008151905061277f81612759565b92915050565b600063ffffffff82169050919050565b61279e81612785565b81146127a957600080fd5b50565b6000815190506127bb81612795565b92915050565b6000806000606084860312156127da576127d9612044565b5b60006127e886828701612770565b93505060206127f986828701612770565b925050604061280a868287016127ac565b9150509250925092565b7f746f6b656e2073686f756c64206e6f742062652073616d650000000000000000600082015250565b600061284a601883612427565b915061285582612814565b602082019050919050565b600060208201905081810360008301526128798161283d565b9050919050565b7f696e76616c696420746f6b656e20616464726573730000000000000000000000600082015250565b60006128b6601583612427565b91506128c182612880565b602082019050919050565b600060208201905081810360008301526128e5816128a9565b9050919050565b60008160601b9050919050565b6000612904826128ec565b9050919050565b6000612916826128f9565b9050919050565b61292e61292982612121565b61290b565b82525050565b6000612940828561291d565b601482019150612950828461291d565b6014820191508190509392505050565b600081905092915050565b7fff00000000000000000000000000000000000000000000000000000000000000600082015250565b60006129a1600183612960565b91506129ac8261296b565b600182019050919050565b6000819050919050565b6000819050919050565b6129dc6129d7826129b7565b6129c1565b82525050565b7f958fd6f0a8d8b8e424e8328de68f015a344ea5ddf90f658f81b626c6d886ec1c600082015250565b6000612a18602083612960565b9150612a23826129e2565b602082019050919050565b6000612a3982612994565b9150612a45828561291d565b601482019150612a5582846129cb565b602082019150612a6482612a0b565b91508190509392505050565b7f556e697377617056324c6962726172793a20494e53554646494349454e545f4f60008201527f55545055545f414d4f554e540000000000000000000000000000000000000000602082015250565b6000612acc602c83612427565b9150612ad782612a70565b604082019050919050565b60006020820190508181036000830152612afb81612abf565b9050919050565b7f556e697377617056324c6962726172793a20494e53554646494349454e545f4160008201527f4d4f554e54000000000000000000000000000000000000000000000000000000602082015250565b6000612b5e602583612427565b9150612b6982612b02565b604082019050919050565b60006020820190508181036000830152612b8d81612b51565b9050919050565b6000612b9f8261204e565b9150612baa8361204e565b9250828201905080821115612bc257612bc161258b565b5b92915050565b6000612bd38261204e565b91507fffffffffffffffffffffffffffffffffffffffffffffffffffffffffffffffff8203612c0557612c0461258b565b5b600182019050919050565b6000612c1b8261204e565b9150612c268361204e565b9250817fffffffffffffffffffffffffffffffffffffffffffffffffffffffffffffffff0483118215151615612c5f57612c5e61258b565b5b828202905092915050565b7f64732d6d6174682d6d756c2d6f766572666c6f77000000000000000000000000600082015250565b6000612ca0601483612427565b9150612cab82612c6a565b602082019050919050565b60006020820190508181036000830152612ccf81612c93565b9050919050565b7f64732d6d6174682d6164642d6f766572666c6f77000000000000000000000000600082015250565b6000612d0c601483612427565b9150612d1782612cd6565b602082019050919050565b60006020820190508181036000830152612d3b81612cff565b9050919050565b7f64732d6d6174682d7375622d756e646572666c6f770000000000000000000000600082015250565b6000612d78601583612427565b9150612d8382612d42565b602082019050919050565b60006020820190508181036000830152612da781612d6b565b905091905056fea26469706673582212201499bc65f26f38db4865c85984647d371cc84e147f4a944ca94e60b53f689b4564736f6c63430008100033",
  "linkReferences": {},
  "deployedLinkReferences": {}
}