{
  "_format": "hh-sol-artifact-1",
  "contractName": "UniswapV2Router02",
  "sourceName": "contracts/UniswapRoute02.sol",
  "abi": [
    {
      "inputs": [
        {
          "internalType": "address",
          "name": "f",
          "type": "address"
        },
        {
          "internalType": "address",
          "name": "w",
          "type": "address"
        }
      ],
      "stateMutability": "nonpayable",
      "type": "constructor"
    },
    {
      "inputs": [],
      "name": "WETH",
      "outputs": [
        {
          "internalType": "address",
          "name": "",
          "type": "address"
        }
      ],
      "stateMutability": "view",
      "type": "function"
    },
    {
      "inputs": [],
      "name": "_WETH",
      "outputs": [
        {
          "internalType": "address",
          "name": "",
          "type": "address"
        }
      ],
      "stateMutability": "view",
      "type": "function"
    },
    {
      "inputs": [],
      "name": "_factory",
      "outputs": [
        {
          "internalType": "address",
          "name": "",
          "type": "address"
        }
      ],
      "stateMutability": "view",
      "type": "function"
    },
    {
      "inputs": [
        {
          "internalType": "address",
          "name": "tokenA",
          "type": "address"
        },
        {
          "internalType": "address",
          "name": "tokenB",
          "type": "address"
        },
        {
          "internalType": "uint256",
          "name": "amountADesired",
          "type": "uint256"
        },
        {
          "internalType": "uint256",
          "name": "amountBDesired",
          "type": "uint256"
        },
        {
          "internalType": "uint256",
          "name": "amountAMin",
          "type": "uint256"
        },
        {
          "internalType": "uint256",
          "name": "amountBMin",
          "type": "uint256"
        },
        {
          "internalType": "address",
          "name": "to",
          "type": "address"
        },
        {
          "internalType": "uint256",
          "name": "deadline",
          "type": "uint256"
        }
      ],
      "name": "addLiquidity",
      "outputs": [
        {
          "internalType": "uint256",
          "name": "amountA",
          "type": "uint256"
        },
        {
          "internalType": "uint256",
          "name": "amountB",
          "type": "uint256"
        },
        {
          "internalType": "uint256",
          "name": "liquidity",
          "type": "uint256"
        }
      ],
      "stateMutability": "nonpayable",
      "type": "function"
    },
    {
      "inputs": [
        {
          "internalType": "address",
          "name": "token",
          "type": "address"
        },
        {
          "internalType": "uint256",
          "name": "amountTokenDesired",
          "type": "uint256"
        },
        {
          "internalType": "uint256",
          "name": "amountTokenMin",
          "type": "uint256"
        },
        {
          "internalType": "uint256",
          "name": "amountETHMin",
          "type": "uint256"
        },
        {
          "internalType": "address",
          "name": "to",
          "type": "address"
        },
        {
          "internalType": "uint256",
          "name": "deadline",
          "type": "uint256"
        }
      ],
      "name": "addLiquidityETH",
      "outputs": [
        {
          "internalType": "uint256",
          "name": "amountToken",
          "type": "uint256"
        },
        {
          "internalType": "uint256",
          "name": "amountETH",
          "type": "uint256"
        },
        {
          "internalType": "uint256",
          "name": "liquidity",
          "type": "uint256"
        }
      ],
      "stateMutability": "payable",
      "type": "function"
    },
    {
      "inputs": [],
      "name": "factory",
      "outputs": [
        {
          "internalType": "address",
          "name": "",
          "type": "address"
        }
      ],
      "stateMutability": "view",
      "type": "function"
    },
    {
      "inputs": [
        {
          "internalType": "uint256",
          "name": "amountOut",
          "type": "uint256"
        },
        {
          "internalType": "uint256",
          "name": "reserveIn",
          "type": "uint256"
        },
        {
          "internalType": "uint256",
          "name": "reserveOut",
          "type": "uint256"
        }
      ],
      "name": "getAmountIn",
      "outputs": [
        {
          "internalType": "uint256",
          "name": "amountIn",
          "type": "uint256"
        }
      ],
      "stateMutability": "pure",
      "type": "function"
    },
    {
      "inputs": [
        {
          "internalType": "uint256",
          "name": "amountIn",
          "type": "uint256"
        },
        {
          "internalType": "uint256",
          "name": "reserveIn",
          "type": "uint256"
        },
        {
          "internalType": "uint256",
          "name": "reserveOut",
          "type": "uint256"
        }
      ],
      "name": "getAmountOut",
      "outputs": [
        {
          "internalType": "uint256",
          "name": "amountOut",
          "type": "uint256"
        }
      ],
      "stateMutability": "pure",
      "type": "function"
    },
    {
      "inputs": [
        {
          "internalType": "uint256",
          "name": "amountOut",
          "type": "uint256"
        },
        {
          "internalType": "address[]",
          "name": "path",
          "type": "address[]"
        }
      ],
      "name": "getAmountsIn",
      "outputs": [
        {
          "internalType": "uint256[]",
          "name": "amounts",
          "type": "uint256[]"
        }
      ],
      "stateMutability": "view",
      "type": "function"
    },
    {
      "inputs": [
        {
          "internalType": "uint256",
          "name": "amountIn",
          "type": "uint256"
        },
        {
          "internalType": "address[]",
          "name": "path",
          "type": "address[]"
        }
      ],
      "name": "getAmountsOut",
      "outputs": [
        {
          "internalType": "uint256[]",
          "name": "amounts",
          "type": "uint256[]"
        }
      ],
      "stateMutability": "view",
      "type": "function"
    },
    {
      "inputs": [
        {
          "internalType": "uint256",
          "name": "amountA",
          "type": "uint256"
        },
        {
          "internalType": "uint256",
          "name": "reserveA",
          "type": "uint256"
        },
        {
          "internalType": "uint256",
          "name": "reserveB",
          "type": "uint256"
        }
      ],
      "name": "quote",
      "outputs": [
        {
          "internalType": "uint256",
          "name": "amountB",
          "type": "uint256"
        }
      ],
      "stateMutability": "pure",
      "type": "function"
    },
    {
      "inputs": [
        {
          "internalType": "address",
          "name": "tokenA",
          "type": "address"
        },
        {
          "internalType": "address",
          "name": "tokenB",
          "type": "address"
        },
        {
          "internalType": "uint256",
          "name": "liquidity",
          "type": "uint256"
        },
        {
          "internalType": "uint256",
          "name": "amountAMin",
          "type": "uint256"
        },
        {
          "internalType": "uint256",
          "name": "amountBMin",
          "type": "uint256"
        },
        {
          "internalType": "address",
          "name": "to",
          "type": "address"
        },
        {
          "internalType": "uint256",
          "name": "deadline",
          "type": "uint256"
        }
      ],
      "name": "removeLiquidity",
      "outputs": [
        {
          "internalType": "uint256",
          "name": "amountA",
          "type": "uint256"
        },
        {
          "internalType": "uint256",
          "name": "amountB",
          "type": "uint256"
        }
      ],
      "stateMutability": "nonpayable",
      "type": "function"
    },
    {
      "inputs": [
        {
          "internalType": "address",
          "name": "token",
          "type": "address"
        },
        {
          "internalType": "uint256",
          "name": "liquidity",
          "type": "uint256"
        },
        {
          "internalType": "uint256",
          "name": "amountTokenMin",
          "type": "uint256"
        },
        {
          "internalType": "uint256",
          "name": "amountETHMin",
          "type": "uint256"
        },
        {
          "internalType": "address",
          "name": "to",
          "type": "address"
        },
        {
          "internalType": "uint256",
          "name": "deadline",
          "type": "uint256"
        }
      ],
      "name": "removeLiquidityETH",
      "outputs": [
        {
          "internalType": "uint256",
          "name": "amountToken",
          "type": "uint256"
        },
        {
          "internalType": "uint256",
          "name": "amountETH",
          "type": "uint256"
        }
      ],
      "stateMutability": "nonpayable",
      "type": "function"
    },
    {
      "inputs": [
        {
          "internalType": "address",
          "name": "token",
          "type": "address"
        },
        {
          "internalType": "uint256",
          "name": "liquidity",
          "type": "uint256"
        },
        {
          "internalType": "uint256",
          "name": "amountTokenMin",
          "type": "uint256"
        },
        {
          "internalType": "uint256",
          "name": "amountETHMin",
          "type": "uint256"
        },
        {
          "internalType": "address",
          "name": "to",
          "type": "address"
        },
        {
          "internalType": "uint256",
          "name": "deadline",
          "type": "uint256"
        }
      ],
      "name": "removeLiquidityETHSupportingFeeOnTransferTokens",
      "outputs": [
        {
          "internalType": "uint256",
          "name": "amountETH",
          "type": "uint256"
        }
      ],
      "stateMutability": "nonpayable",
      "type": "function"
    },
    {
      "inputs": [
        {
          "internalType": "address",
          "name": "token",
          "type": "address"
        },
        {
          "internalType": "uint256",
          "name": "liquidity",
          "type": "uint256"
        },
        {
          "internalType": "uint256",
          "name": "amountTokenMin",
          "type": "uint256"
        },
        {
          "internalType": "uint256",
          "name": "amountETHMin",
          "type": "uint256"
        },
        {
          "internalType": "address",
          "name": "to",
          "type": "address"
        },
        {
          "internalType": "uint256",
          "name": "deadline",
          "type": "uint256"
        },
        {
          "internalType": "bool",
          "name": "approveMax",
          "type": "bool"
        },
        {
          "internalType": "uint8",
          "name": "v",
          "type": "uint8"
        },
        {
          "internalType": "bytes32",
          "name": "r",
          "type": "bytes32"
        },
        {
          "internalType": "bytes32",
          "name": "s",
          "type": "bytes32"
        }
      ],
      "name": "removeLiquidityETHWithPermit",
      "outputs": [
        {
          "internalType": "uint256",
          "name": "amountToken",
          "type": "uint256"
        },
        {
          "internalType": "uint256",
          "name": "amountETH",
          "type": "uint256"
        }
      ],
      "stateMutability": "nonpayable",
      "type": "function"
    },
    {
      "inputs": [
        {
          "internalType": "address",
          "name": "token",
          "type": "address"
        },
        {
          "internalType": "uint256",
          "name": "liquidity",
          "type": "uint256"
        },
        {
          "internalType": "uint256",
          "name": "amountTokenMin",
          "type": "uint256"
        },
        {
          "internalType": "uint256",
          "name": "amountETHMin",
          "type": "uint256"
        },
        {
          "internalType": "address",
          "name": "to",
          "type": "address"
        },
        {
          "internalType": "uint256",
          "name": "deadline",
          "type": "uint256"
        },
        {
          "internalType": "bool",
          "name": "approveMax",
          "type": "bool"
        },
        {
          "internalType": "uint8",
          "name": "v",
          "type": "uint8"
        },
        {
          "internalType": "bytes32",
          "name": "r",
          "type": "bytes32"
        },
        {
          "internalType": "bytes32",
          "name": "s",
          "type": "bytes32"
        }
      ],
      "name": "removeLiquidityETHWithPermitSupportingFeeOnTransferTokens",
      "outputs": [
        {
          "internalType": "uint256",
          "name": "amountETH",
          "type": "uint256"
        }
      ],
      "stateMutability": "nonpayable",
      "type": "function"
    },
    {
      "inputs": [
        {
          "internalType": "address",
          "name": "tokenA",
          "type": "address"
        },
        {
          "internalType": "address",
          "name": "tokenB",
          "type": "address"
        },
        {
          "internalType": "uint256",
          "name": "liquidity",
          "type": "uint256"
        },
        {
          "internalType": "uint256",
          "name": "amountAMin",
          "type": "uint256"
        },
        {
          "internalType": "uint256",
          "name": "amountBMin",
          "type": "uint256"
        },
        {
          "internalType": "address",
          "name": "to",
          "type": "address"
        },
        {
          "internalType": "uint256",
          "name": "deadline",
          "type": "uint256"
        },
        {
          "internalType": "bool",
          "name": "approveMax",
          "type": "bool"
        },
        {
          "internalType": "uint8",
          "name": "v",
          "type": "uint8"
        },
        {
          "internalType": "bytes32",
          "name": "r",
          "type": "bytes32"
        },
        {
          "internalType": "bytes32",
          "name": "s",
          "type": "bytes32"
        }
      ],
      "name": "removeLiquidityWithPermit",
      "outputs": [
        {
          "internalType": "uint256",
          "name": "amountA",
          "type": "uint256"
        },
        {
          "internalType": "uint256",
          "name": "amountB",
          "type": "uint256"
        }
      ],
      "stateMutability": "nonpayable",
      "type": "function"
    },
    {
      "inputs": [
        {
          "internalType": "uint256",
          "name": "amountOut",
          "type": "uint256"
        },
        {
          "internalType": "address[]",
          "name": "path",
          "type": "address[]"
        },
        {
          "internalType": "address",
          "name": "to",
          "type": "address"
        },
        {
          "internalType": "uint256",
          "name": "deadline",
          "type": "uint256"
        }
      ],
      "name": "swapETHForExactTokens",
      "outputs": [
        {
          "internalType": "uint256[]",
          "name": "amounts",
          "type": "uint256[]"
        }
      ],
      "stateMutability": "payable",
      "type": "function"
    },
    {
      "inputs": [
        {
          "internalType": "uint256",
          "name": "amountOutMin",
          "type": "uint256"
        },
        {
          "internalType": "address[]",
          "name": "path",
          "type": "address[]"
        },
        {
          "internalType": "address",
          "name": "to",
          "type": "address"
        },
        {
          "internalType": "uint256",
          "name": "deadline",
          "type": "uint256"
        }
      ],
      "name": "swapExactETHForTokens",
      "outputs": [
        {
          "internalType": "uint256[]",
          "name": "amounts",
          "type": "uint256[]"
        }
      ],
      "stateMutability": "payable",
      "type": "function"
    },
    {
      "inputs": [
        {
          "internalType": "uint256",
          "name": "amountOutMin",
          "type": "uint256"
        },
        {
          "internalType": "address[]",
          "name": "path",
          "type": "address[]"
        },
        {
          "internalType": "address",
          "name": "_to",
          "type": "address"
        },
        {
          "internalType": "uint256",
          "name": "deadline",
          "type": "uint256"
        }
      ],
      "name": "swapExactETHForTokensSupportingFeeOnTransferTokens",
      "outputs": [],
      "stateMutability": "payable",
      "type": "function"
    },
    {
      "inputs": [
        {
          "internalType": "uint256",
          "name": "amountIn",
          "type": "uint256"
        },
        {
          "internalType": "uint256",
          "name": "amountOutMin",
          "type": "uint256"
        },
        {
          "internalType": "address[]",
          "name": "path",
          "type": "address[]"
        },
        {
          "internalType": "address",
          "name": "to",
          "type": "address"
        },
        {
          "internalType": "uint256",
          "name": "deadline",
          "type": "uint256"
        }
      ],
      "name": "swapExactTokensForETH",
      "outputs": [
        {
          "internalType": "uint256[]",
          "name": "amounts",
          "type": "uint256[]"
        }
      ],
      "stateMutability": "nonpayable",
      "type": "function"
    },
    {
      "inputs": [
        {
          "internalType": "uint256",
          "name": "amountIn",
          "type": "uint256"
        },
        {
          "internalType": "uint256",
          "name": "amountOutMin",
          "type": "uint256"
        },
        {
          "internalType": "address[]",
          "name": "path",
          "type": "address[]"
        },
        {
          "internalType": "address",
          "name": "_to",
          "type": "address"
        },
        {
          "internalType": "uint256",
          "name": "deadline",
          "type": "uint256"
        }
      ],
      "name": "swapExactTokensForETHSupportingFeeOnTransferTokens",
      "outputs": [],
      "stateMutability": "nonpayable",
      "type": "function"
    },
    {
      "inputs": [
        {
          "internalType": "uint256",
          "name": "amountIn",
          "type": "uint256"
        },
        {
          "internalType": "uint256",
          "name": "amountOutMin",
          "type": "uint256"
        },
        {
          "internalType": "address[]",
          "name": "path",
          "type": "address[]"
        },
        {
          "internalType": "address",
          "name": "to",
          "type": "address"
        },
        {
          "internalType": "uint256",
          "name": "deadline",
          "type": "uint256"
        }
      ],
      "name": "swapExactTokensForTokens",
      "outputs": [
        {
          "internalType": "uint256[]",
          "name": "amounts",
          "type": "uint256[]"
        }
      ],
      "stateMutability": "nonpayable",
      "type": "function"
    },
    {
      "inputs": [
        {
          "internalType": "uint256",
          "name": "amountIn",
          "type": "uint256"
        },
        {
          "internalType": "uint256",
          "name": "amountOutMin",
          "type": "uint256"
        },
        {
          "internalType": "address[]",
          "name": "path",
          "type": "address[]"
        },
        {
          "internalType": "address",
          "name": "_to",
          "type": "address"
        },
        {
          "internalType": "uint256",
          "name": "deadline",
          "type": "uint256"
        }
      ],
      "name": "swapExactTokensForTokensSupportingFeeOnTransferTokens",
      "outputs": [],
      "stateMutability": "nonpayable",
      "type": "function"
    },
    {
      "inputs": [
        {
          "internalType": "uint256",
          "name": "amountOut",
          "type": "uint256"
        },
        {
          "internalType": "uint256",
          "name": "amountInMax",
          "type": "uint256"
        },
        {
          "internalType": "address[]",
          "name": "path",
          "type": "address[]"
        },
        {
          "internalType": "address",
          "name": "to",
          "type": "address"
        },
        {
          "internalType": "uint256",
          "name": "deadline",
          "type": "uint256"
        }
      ],
      "name": "swapTokensForExactETH",
      "outputs": [
        {
          "internalType": "uint256[]",
          "name": "amounts",
          "type": "uint256[]"
        }
      ],
      "stateMutability": "nonpayable",
      "type": "function"
    },
    {
      "inputs": [
        {
          "internalType": "uint256",
          "name": "amountOut",
          "type": "uint256"
        },
        {
          "internalType": "uint256",
          "name": "amountInMax",
          "type": "uint256"
        },
        {
          "internalType": "address[]",
          "name": "path",
          "type": "address[]"
        },
        {
          "internalType": "address",
          "name": "to",
          "type": "address"
        },
        {
          "internalType": "uint256",
          "name": "deadline",
          "type": "uint256"
        }
      ],
      "name": "swapTokensForExactTokens",
      "outputs": [
        {
          "internalType": "uint256[]",
          "name": "amounts",
          "type": "uint256[]"
        }
      ],
      "stateMutability": "nonpayable",
      "type": "function"
    },
    {
      "stateMutability": "payable",
      "type": "receive"
    }
  ],
  "bytecode": "0x60c06040523480156200001157600080fd5b506040516200681a3803806200681a833981810160405281019062000037919062000218565b6200006b7f790ba36a7617457f51a32151e7d4d1468dbe04b0fc67545b14b91c8510a7101f60001b620001ab60201b60201c565b6200009f7f1c8b534165f873ce1cf4debb0a781d76eb9bc2fddc0c81660e4741aa9c36be1860001b620001ab60201b60201c565b620000d37f719a0ee92b85b4dbd2cf58b20967ad48d960a80dd45e88d6c182cd4664fdb83560001b620001ab60201b60201c565b8173ffffffffffffffffffffffffffffffffffffffff1660808173ffffffffffffffffffffffffffffffffffffffff16815250506200013b7f575dadfd1b69880abc6fbd54965923fe37b4ea8c526357313dfaebcaecde200660001b620001ab60201b60201c565b6200016f7fdcb199eaffcc4b3a579eaf1bb8dd7766cbd1bc8c57bf7e132cb4dbe9eb86acbd60001b620001ab60201b60201c565b8073ffffffffffffffffffffffffffffffffffffffff1660a08173ffffffffffffffffffffffffffffffffffffffff168152505050506200025f565b50565b600080fd5b600073ffffffffffffffffffffffffffffffffffffffff82169050919050565b6000620001e082620001b3565b9050919050565b620001f281620001d3565b8114620001fe57600080fd5b50565b6000815190506200021281620001e7565b92915050565b60008060408385031215620002325762000231620001ae565b5b6000620002428582860162000201565b9250506020620002558582860162000201565b9150509250929050565b60805160a0516164df6200033b600039600081816101b801528181611421015281816117b80152818161199e01528181611d060152818161206a015281816122f8015281816123d10152818161244801528181612b65015281816132d70152818161339f0152818161355001526136290152600081816109bd01528181610d67015281816115c701528181612427015281816129ab015281816129d101528181612a9501528181612de70152818161337d01528181613c2d0152818161414e0152818161459a01528181614748015261488e01526164df6000f3fe6080604052600436106101855760003560e01c8063ad5c4648116100d1578063c5cc6b6a1161008a578063e0af361611610064578063e0af3616146106cf578063e8e33700146106fa578063f305d71914610739578063fb3bdb411461076b57610214565b8063c5cc6b6a14610629578063d06ca61f14610654578063ded9382a1461069157610214565b8063ad5c4648146104ff578063ad615dec1461052a578063af2979eb14610567578063b6f9de95146105a4578063baa2abde146105c0578063c45a0155146105fe57610214565b80634a25d94a1161013e578063791ac94711610118578063791ac9471461042c5780637ff36ab51461045557806385f8c259146104855780638803dbee146104c257610214565b80634a25d94a146103895780635b0d5984146103c65780635c11d7951461040357610214565b806302751cec14610219578063054d50d41461025757806318cbafe5146102945780631f00ca74146102d15780632195995c1461030e57806338ed17391461034c57610214565b36610214576101b67f6720ed95d31a0e4605350c014886e49b340ba0040fc2543d7a189876db3442a160001b61079b565b7f000000000000000000000000000000000000000000000000000000000000000073ffffffffffffffffffffffffffffffffffffffff163373ffffffffffffffffffffffffffffffffffffffff16146102125761021161506f565b5b005b600080fd5b34801561022557600080fd5b50610240600480360381019061023b9190615146565b61079e565b60405161024e9291906151e2565b60405180910390f35b34801561026357600080fd5b5061027e6004803603810190610279919061520b565b6107d8565b60405161028b919061525e565b60405180910390f35b3480156102a057600080fd5b506102bb60048036038101906102b691906152de565b6108e3565b6040516102c89190615436565b60405180910390f35b3480156102dd57600080fd5b506102f860048036038101906102f39190615458565b61091b565b6040516103059190615436565b60405180910390f35b34801561031a57600080fd5b506103356004803603810190610330919061555f565b610a4d565b6040516103439291906151e2565b60405180910390f35b34801561035857600080fd5b50610373600480360381019061036e91906152de565b610a8c565b6040516103809190615436565b60405180910390f35b34801561039557600080fd5b506103b060048036038101906103ab91906152de565b610ac4565b6040516103bd9190615436565b60405180910390f35b3480156103d257600080fd5b506103ed60048036038101906103e89190615653565b610afc565b6040516103fa919061525e565b60405180910390f35b34801561040f57600080fd5b5061042a600480360381019061042591906152de565b610b38565b005b34801561043857600080fd5b50610453600480360381019061044e91906152de565b611224565b005b61046f600480360381019061046a9190615732565b611b04565b60405161047c9190615436565b60405180910390f35b34801561049157600080fd5b506104ac60048036038101906104a7919061520b565b611b3b565b6040516104b9919061525e565b60405180910390f35b3480156104ce57600080fd5b506104e960048036038101906104e491906152de565b611c46565b6040516104f69190615436565b60405180910390f35b34801561050b57600080fd5b50610514611c7e565b60405161052191906157c9565b60405180910390f35b34801561053657600080fd5b50610551600480360381019061054c919061520b565b611d2a565b60405161055e919061525e565b60405180910390f35b34801561057357600080fd5b5061058e60048036038101906105899190615146565b611e35565b60405161059b919061525e565b60405180910390f35b6105be60048036038101906105b99190615732565b611e6d565b005b3480156105cc57600080fd5b506105e760048036038101906105e291906157e4565b6128e8565b6040516105f59291906151e2565b60405180910390f35b34801561060a57600080fd5b50610613612923565b60405161062091906157c9565b60405180910390f35b34801561063557600080fd5b5061063e6129cf565b60405161064b91906157c9565b60405180910390f35b34801561066057600080fd5b5061067b60048036038101906106769190615458565b6129f3565b6040516106889190615436565b60405180910390f35b34801561069d57600080fd5b506106b860048036038101906106b39190615653565b612b25565b6040516106c69291906151e2565b60405180910390f35b3480156106db57600080fd5b506106e4612b63565b6040516106f191906157c9565b60405180910390f35b34801561070657600080fd5b50610721600480360381019061071c9190615886565b612b87565b6040516107309392919061593c565b60405180910390f35b610753600480360381019061074e9190615146565b6130fd565b6040516107629392919061593c565b60405180910390f35b61078560048036038101906107809190615732565b613951565b6040516107929190615436565b60405180910390f35b50565b6000806107cd7f23b0246ad30dae2b13e1d186f719c4fb7ec58d70d860e20463488c6c1afd44a560001b61079b565b965096945050505050565b60006108067f2d5b749d3d0d6b04f4d27725220b5a97b1b862c8fb952ab8b3002a554080634b60001b61079b565b6108327f9cf83ef37ef9c674e2016ab0869b13f53fe3ebb7b6ed961953eb8467112b513460001b61079b565b61085e7fa9f7e948a0bfd8d2c3d0f6c28183bc52931b2f356f3dd6eb1acdcf0fa844fdcd60001b61079b565b73__$5126938f6a39bbf3c803a682229eaf36ce$__63054d50d48585856040518463ffffffff1660e01b815260040161089993929190615982565b602060405180830381865af41580156108b6573d6000803e3d6000fd5b505050506040513d601f19601f820116820180604052508101906108da91906159ce565b90509392505050565b60606109117f13914b858bb756be010e3180e490fc92f676d2c9904ac5752dc9697104a00dbe60001b61079b565b9695505050505050565b60606109497fe4199dd03f396090127e59907b7a5e4fc8c149c665c203cdaa9bf6f92b9e736b60001b61079b565b6109757f0d5aa38be908d4031040c4722761ad7c18ec12bfc1e011dc91bbede9bf78987460001b61079b565b6109a17ff6e254fd62f18346c7b4f02460745d37fdca84f9dac6028e8c3b62c941d226dc60001b61079b565b73__$5126938f6a39bbf3c803a682229eaf36ce$__63192128b27f00000000000000000000000000000000000000000000000000000000000000008686866040518563ffffffff1660e01b81526004016109fe9493929190615acd565b600060405180830381865af4158015610a1b573d6000803e3d6000fd5b505050506040513d6000823e3d601f19601f82011682018060405250810190610a449190615c5c565b90509392505050565b600080610a7c7fb1cc3822d8ed94be80abc45f3a17cd68abce3a524e9419905a131daa544508f760001b61079b565b9b509b9950505050505050505050565b6060610aba7f5c7b33d42553f094dc86d6d404b27d5231441c9d1c7300028480cf386a7404f460001b61079b565b9695505050505050565b6060610af27fb6714798c179a564dcc1a2d2f7540fbed996172f6b6d02dbdce6628bbb88763c60001b61079b565b9695505050505050565b6000610b2a7f873b70ea27fc0299b7e3bb025e88c1a1dfc73dfea8a3549e37449634dda8bd7260001b61079b565b9a9950505050505050505050565b80610b657f840c2de19a0674b9f4c92b519d0e950868841432ab529da7de7ffe72869eaabd60001b61079b565b610b917f0d021f891f75b60fe7976675a6a0e480ab823e32c5e9fc453c6336eae1add87660001b61079b565b610bbd7f405584a0d1f2f08447baa2f3986fad83563e805ee7e490f0d84e7cf432c7add160001b61079b565b610be97f912217d841e6fde8add41cf1733ac13ee109134fb251c22993770d5b8c62731f60001b61079b565b428111610c2b576040517f08c379a0000000000000000000000000000000000000000000000000000000008152600401610c2290615d02565b60405180910390fd5b610c577f953ed164349e5815f8f3b7c7493f2ed2adf9a4441ae6ca70ab583ced1392a98b60001b61079b565b610c837f4c56134c9270cd338fcbd866380483cbf4d1dca755661da590f92317e3f3946060001b61079b565b610caf7fdd3d10c1efe9bc732b51d63bfdc94cab5aa98e1d3aa868707fb02fdfb9d0896760001b61079b565b610cdb7f5599ed56105ced0cedc25ca5918d6edc5a3e568815ead16c8150efe383dab4e260001b61079b565b610d077fbde277c4cf45c81b302da11fd7ba84d4204862aaf9ac634c810eec4a81a8a1ec60001b61079b565b73__$b9e62ef5ff9ba70b3b3f7fec2a80b58bcf$__63d9fc4b613387876000818110610d3657610d35615d22565b5b9050602002016020810190610d4b9190615d51565b73__$5126938f6a39bbf3c803a682229eaf36ce$__636d91c0e27f00000000000000000000000000000000000000000000000000000000000000008b8b6000818110610d9a57610d99615d22565b5b9050602002016020810190610daf9190615d51565b8c8c6001818110610dc357610dc2615d22565b5b9050602002016020810190610dd89190615d51565b6040518463ffffffff1660e01b8152600401610df693929190615d7e565b602060405180830381865af4158015610e13573d6000803e3d6000fd5b505050506040513d601f19601f82011682018060405250810190610e379190615dca565b8b6040518563ffffffff1660e01b8152600401610e579493929190615df7565b602060405180830381865af4158015610e74573d6000803e3d6000fd5b505050506040513d601f19601f82011682018060405250810190610e989190615e51565b50610ec57fdf75d87bfefeef82f02a48895418b36d6f8d8986422d332beb48a5bbb485a74f60001b61079b565b610ef17fdb160787a0058b94aeb8098acad72903610f0ebc501122e7e00c0c862e722c7560001b61079b565b60008585600188889050610f059190615ead565b818110610f1557610f14615d22565b5b9050602002016020810190610f2a9190615d51565b73ffffffffffffffffffffffffffffffffffffffff166370a08231856040518263ffffffff1660e01b8152600401610f6291906157c9565b602060405180830381865afa158015610f7f573d6000803e3d6000fd5b505050506040513d601f19601f82011682018060405250810190610fa391906159ce565b9050610fd17f84b8d810276239a4d9e71f13594fcac24953bd5d43459dc3dc0f1e9d1f2883e360001b61079b565b610ffd7f259f88a59185f554e660fb9a3d8cea671f25bbf7dc2458b842d6fe9c0bfd1c4b60001b61079b565b611008868686613988565b6110347ff2bd94a4ba3fe391b93205848bc100a4356a266b18fbf63bbad783574513c58560001b61079b565b6110607f71de763738a2104d3553000bcb7639c30e34c03bdc4ddf848a89b1b068accdbe60001b61079b565b600086866001898990506110749190615ead565b81811061108457611083615d22565b5b90506020020160208101906110999190615d51565b73ffffffffffffffffffffffffffffffffffffffff166370a08231866040518263ffffffff1660e01b81526004016110d191906157c9565b602060405180830381865afa1580156110ee573d6000803e3d6000fd5b505050506040513d601f19601f8201168201806040525081019061111291906159ce565b90506111407fde963b8ee94c17c8b6fb970218048d249eeae2f91b1797105a3d05da9914478960001b61079b565b61116c7f473a6c2298e6e7254b4b7e731e50d43d919d7a2b50b879455fc3b9c09b8d15a960001b61079b565b6111987ffd184e460c19f62e027f06248e5f2ada1c3cad8b3ed6238e94e17ae63ce52c1a60001b61079b565b876111ac83836143da90919063ffffffff16565b10156111ed576040517f08c379a00000000000000000000000000000000000000000000000000000000081526004016111e490615f2d565b60405180910390fd5b6112197f09d27a3e28e071375eae1ecab6e3c6f759d6cd11ace8969a5d6dd15dde6ab2f860001b61079b565b505050505050505050565b806112517f840c2de19a0674b9f4c92b519d0e950868841432ab529da7de7ffe72869eaabd60001b61079b565b61127d7f0d021f891f75b60fe7976675a6a0e480ab823e32c5e9fc453c6336eae1add87660001b61079b565b6112a97f405584a0d1f2f08447baa2f3986fad83563e805ee7e490f0d84e7cf432c7add160001b61079b565b6112d57f912217d841e6fde8add41cf1733ac13ee109134fb251c22993770d5b8c62731f60001b61079b565b428111611317576040517f08c379a000000000000000000000000000000000000000000000000000000000815260040161130e90615d02565b60405180910390fd5b6113437f953ed164349e5815f8f3b7c7493f2ed2adf9a4441ae6ca70ab583ced1392a98b60001b61079b565b61136f7f4c56134c9270cd338fcbd866380483cbf4d1dca755661da590f92317e3f3946060001b61079b565b61139b7f887a72f14fb8cd0dc2a683f311e33163e93680c9c3866b1e12f5cd9ca708bb0360001b61079b565b6113c77fccc54b681324e868edcef4827a70a0ebf3e421f84dc5b5f15b7b18f6280f882160001b61079b565b6113f37f09cb2758081948174bbd668b8b2c790e37b6c185b798846316714ca96bbc8ce560001b61079b565b61141f7ff4e405242d49781d3031857203465b6dc47ebc8c6baa29c65bf67247f8cdb64e60001b61079b565b7f000000000000000000000000000000000000000000000000000000000000000073ffffffffffffffffffffffffffffffffffffffff1685856001888890506114689190615ead565b81811061147857611477615d22565b5b905060200201602081019061148d9190615d51565b73ffffffffffffffffffffffffffffffffffffffff16146114e3576040517f08c379a00000000000000000000000000000000000000000000000000000000081526004016114da90615f99565b60405180910390fd5b61150f7f5ac9be8b2578ce7c26bcacd65cfb1a3917477d3e691b55ca3377e656be56f84060001b61079b565b61153b7fd143c35395b49d949b5ea5baa0aa0282b339674f02686399d119827cedc7de1060001b61079b565b6115677fb3819736450f7e8c7410016ca95c28364704f7040ad6cefd628303f434e0a8bf60001b61079b565b73__$b9e62ef5ff9ba70b3b3f7fec2a80b58bcf$__63d9fc4b61338787600081811061159657611595615d22565b5b90506020020160208101906115ab9190615d51565b73__$5126938f6a39bbf3c803a682229eaf36ce$__636d91c0e27f00000000000000000000000000000000000000000000000000000000000000008b8b60008181106115fa576115f9615d22565b5b905060200201602081019061160f9190615d51565b8c8c600181811061162357611622615d22565b5b90506020020160208101906116389190615d51565b6040518463ffffffff1660e01b815260040161165693929190615d7e565b602060405180830381865af4158015611673573d6000803e3d6000fd5b505050506040513d601f19601f820116820180604052508101906116979190615dca565b8b6040518563ffffffff1660e01b81526004016116b79493929190615df7565b602060405180830381865af41580156116d4573d6000803e3d6000fd5b505050506040513d601f19601f820116820180604052508101906116f89190615e51565b506117257fb26453d474bf0a912f6c8ec435b597eac3e721fe7f6f58edc24d4a0184a0169f60001b61079b565b6117517f1ea4ed15003c7026ed77d01eb7eeb3147886c5044d96489a32c3b210c7ae2f4b60001b61079b565b61175c858530613988565b6117887f6492d981ab4d312eb326a76939c5fed39ffde8a795b82ce48b2b7f4c281bdd4660001b61079b565b6117b47f3b387c6d59c1a5210bdc057083df346509b006e82f68569b765b0c6bc3fc08e860001b61079b565b60007f000000000000000000000000000000000000000000000000000000000000000073ffffffffffffffffffffffffffffffffffffffff166370a08231306040518263ffffffff1660e01b815260040161180f91906157c9565b602060405180830381865afa15801561182c573d6000803e3d6000fd5b505050506040513d601f19601f8201168201806040525081019061185091906159ce565b905061187e7fcfa85a7627e17b5e822526aca30539dc1eb82695ef692acbb00f69f8015c525460001b61079b565b6118aa7fa35ab9abc2a7452d49148c23fc0edfa37ad9b520865d25a8cc9818508365bf2f60001b61079b565b6118d67f7123e1adba6c16dad3dec216d8a293eedb4447ce3974a396bea6faf76ea2983c60001b61079b565b868111611918576040517f08c379a000000000000000000000000000000000000000000000000000000000815260040161190f90616005565b60405180910390fd5b6119447f53a01e0743dbf19892ae5ca159cd5c816462cc1ae99ec94c120cedb193439cc760001b61079b565b6119707fbcf1a3e558a53a1c1f4c4d9f09b9954a62f4ffe015adb7a4e6b3db90fe717a4560001b61079b565b61199c7f19e1efc1dc5001f14464d1765814acd475201ff055110bb7ebe0b0ccec53285060001b61079b565b7f000000000000000000000000000000000000000000000000000000000000000073ffffffffffffffffffffffffffffffffffffffff16632e1a7d4d826040518263ffffffff1660e01b81526004016119f5919061525e565b600060405180830381600087803b158015611a0f57600080fd5b505af1158015611a23573d6000803e3d6000fd5b50505050611a537fcfe363ee456f84b1b2a544ad3655825e9461f406902227cd0cbf4bc7637bf36a60001b61079b565b611a7f7fe329bab83f2d33809bd32f2d4b023a12b047ebec8714e8b916cc6b745cc0858d60001b61079b565b73__$b9e62ef5ff9ba70b3b3f7fec2a80b58bcf$__637c4368c185836040518363ffffffff1660e01b8152600401611ab8929190616025565b602060405180830381865af4158015611ad5573d6000803e3d6000fd5b505050506040513d601f19601f82011682018060405250810190611af99190615e51565b505050505050505050565b6060611b327f7d49c78b90fca3dbc00cccd60d05b505b1fe780527430e3fec5b2f490aa4608960001b61079b565b95945050505050565b6000611b697f98c0b8bd14930b9b74060cb0acc36e6ab6a661016225d59a7e631747ed5b85f060001b61079b565b611b957f2b5c1a5522ce863d00d0d8eeff09559401e3c28398dd80b7c8778d611997c1d260001b61079b565b611bc17fd928d8f892ebc308343d900864ad1ef69847b49c82fac64ccd58cb4daafb832e60001b61079b565b73__$5126938f6a39bbf3c803a682229eaf36ce$__6385f8c2598584866040518463ffffffff1660e01b8152600401611bfc93929190615982565b602060405180830381865af4158015611c19573d6000803e3d6000fd5b505050506040513d601f19601f82011682018060405250810190611c3d91906159ce565b90509392505050565b6060611c747f553d6ba82afffcc4ec8cc910b5d69ddebad1b55045eb503e13bb6b107d57952a60001b61079b565b9695505050505050565b6000611cac7f25504364fe1a87c41cfdad484fd863a67a3365152d08a71bd24d4d666f01b20960001b61079b565b611cd87fb88508bd3205c6cbbac4706c2660f3122581b3c09ac57362ee84a8be770e424660001b61079b565b611d047f9b33b1623582339fc739227842db317f1ac4bf902561d3333f8408416da5847360001b61079b565b7f0000000000000000000000000000000000000000000000000000000000000000905090565b6000611d587f72208e91c35bb70142bb51fe104406966dbd300e63add8027b1ff7cc66f2842560001b61079b565b611d847f3fb8c8c1094b236881ea864b70c03ae1aaa8de04e614ed5225fb1ecb4104435a60001b61079b565b611db07fa01fe7c182985515380719d1873fa6f4df597d81c6782f463429defc4ec2368460001b61079b565b73__$5126938f6a39bbf3c803a682229eaf36ce$__63ad615dec8585856040518463ffffffff1660e01b8152600401611deb93929190615982565b602060405180830381865af4158015611e08573d6000803e3d6000fd5b505050506040513d601f19601f82011682018060405250810190611e2c91906159ce565b90509392505050565b6000611e637f9a8d28bb17a6bda7a5f16e6045aa7cfd60e3453fd9a350733bf6cc4448d8904760001b61079b565b9695505050505050565b80611e9a7f840c2de19a0674b9f4c92b519d0e950868841432ab529da7de7ffe72869eaabd60001b61079b565b611ec67f0d021f891f75b60fe7976675a6a0e480ab823e32c5e9fc453c6336eae1add87660001b61079b565b611ef27f405584a0d1f2f08447baa2f3986fad83563e805ee7e490f0d84e7cf432c7add160001b61079b565b611f1e7f912217d841e6fde8add41cf1733ac13ee109134fb251c22993770d5b8c62731f60001b61079b565b428111611f60576040517f08c379a0000000000000000000000000000000000000000000000000000000008152600401611f5790615d02565b60405180910390fd5b611f8c7f953ed164349e5815f8f3b7c7493f2ed2adf9a4441ae6ca70ab583ced1392a98b60001b61079b565b611fb87f4c56134c9270cd338fcbd866380483cbf4d1dca755661da590f92317e3f3946060001b61079b565b611fe47fc7bd968ca4f67177d44b1c132db20af90bb123211e8d02d66cf51422feba64c660001b61079b565b6120107fe5cf790306de535b474caa198f975e7f5a52482fe391981675246f58eedbd03f60001b61079b565b61203c7feeaccc20362f4d7ca500a6c9073818062bb5cb4fa2fa214fb027a1d3d9cc870660001b61079b565b6120687fbeece99f3e4b8c4c60dfb8ddf9a24d66e254c526915d35afd2cd3b393e00853b60001b61079b565b7f000000000000000000000000000000000000000000000000000000000000000073ffffffffffffffffffffffffffffffffffffffff16858560008181106120b3576120b2615d22565b5b90506020020160208101906120c89190615d51565b73ffffffffffffffffffffffffffffffffffffffff161461211e576040517f08c379a000000000000000000000000000000000000000000000000000000000815260040161211590615f99565b60405180910390fd5b61214a7f6e7ef681d8bd8200cc6eca37f66b2ded50a085e214d0b34fd34f3b2b5ebcaadc60001b61079b565b6121767f39246548099324d68a147bfe51bcf284e4614eae1336db1c51c45cff6efec20b60001b61079b565b6121a27fcb56499693dccb09d456f07da1621f5b29a01cbbeb4c3c28392c6a12b9ee04dc60001b61079b565b6121ce7f4086325c4dcaec76b0dd8f1e20b87ff25af899fe8c4a4d71d5df607ce6ded7e360001b61079b565b6002858590501015612215576040517f08c379a000000000000000000000000000000000000000000000000000000000815260040161220c9061609a565b60405180910390fd5b6122417f315fe1835f28536703e6795de7e789d965c6bd7de0483ed7a13ac45d07ce4c0160001b61079b565b61226d7f77fc1528b4fdddc663a4d2791064136e83ecf6ce001f3beea14bad7dadffda7360001b61079b565b6122997fae3523216b71315c60da7b69f41f1ccc1204848461e362b8d096b524c8fb833660001b61079b565b60003490506122ca7f0d3b465b7bd4d2d9cf5c6190daf08a80c05f43ac28d41ad67d6a8098872d95c460001b61079b565b6122f67fa8be3f2bb2791e50279c7d2ccaca076b8e7b2aaadb1db31f3f33889942a374a660001b61079b565b7f000000000000000000000000000000000000000000000000000000000000000073ffffffffffffffffffffffffffffffffffffffff1663d0e30db0346040518263ffffffff1660e01b81526004016000604051808303818588803b15801561235e57600080fd5b505af1158015612372573d6000803e3d6000fd5b50505050506123a37fdbd808ceb4c82704fd237069dd74d43b7274aaad314d490527e866be74e338b060001b61079b565b6123cf7f13f7d8d5cc63a4534a5640f496fc603f2df047c5b212741325686fa181fffbfb60001b61079b565b7f000000000000000000000000000000000000000000000000000000000000000073ffffffffffffffffffffffffffffffffffffffff1663a9059cbb73__$5126938f6a39bbf3c803a682229eaf36ce$__636d91c0e27f00000000000000000000000000000000000000000000000000000000000000007f00000000000000000000000000000000000000000000000000000000000000008b8b600181811061247b5761247a615d22565b5b90506020020160208101906124909190615d51565b6040518463ffffffff1660e01b81526004016124ae93929190615d7e565b602060405180830381865af41580156124cb573d6000803e3d6000fd5b505050506040513d601f19601f820116820180604052508101906124ef9190615dca565b836040518363ffffffff1660e01b815260040161250d9291906160ba565b6020604051808303816000875af115801561252c573d6000803e3d6000fd5b505050506040513d601f19601f820116820180604052508101906125509190615e51565b61255d5761255c61506f565b5b6125897f2dc3cae6743a81bbd0bf3f0721cbd371d436a18dd142813e1eb89c732524a67060001b61079b565b6125b57f87a851921afe0f8ac915fa9cbec38055cb43047eab77e03ae4ca9a2f6b12ae4960001b61079b565b600086866001898990506125c99190615ead565b8181106125d9576125d8615d22565b5b90506020020160208101906125ee9190615d51565b73ffffffffffffffffffffffffffffffffffffffff166370a08231866040518263ffffffff1660e01b815260040161262691906157c9565b602060405180830381865afa158015612643573d6000803e3d6000fd5b505050506040513d601f19601f8201168201806040525081019061266791906159ce565b90506126957f528199d031a4d017222ee7cef724a673bda2ced57e33427f54ab1a9fb7c3217860001b61079b565b6126c17f9566d68139cbd7461ee82f7f50be74a9b376a710cf94bbbad348f9d8aebda8a560001b61079b565b6126cc878787613988565b6126f87f714bb4dec5949b537ed591adbe9df57aaa7c95fc1c39d6976d7cdd2095d8354260001b61079b565b6127247fd216135021fc440005b83f0fd876d3d6952a6b38e9d33ff23e7fa18b21245b8860001b61079b565b6000878760018a8a90506127389190615ead565b81811061274857612747615d22565b5b905060200201602081019061275d9190615d51565b73ffffffffffffffffffffffffffffffffffffffff166370a08231876040518263ffffffff1660e01b815260040161279591906157c9565b602060405180830381865afa1580156127b2573d6000803e3d6000fd5b505050506040513d601f19601f820116820180604052508101906127d691906159ce565b90506128047fc93196aa30b3685449c738478195e9281b8c59b6be606c746963e68efa45c85d60001b61079b565b6128307fea4efd74715e512daa443516286f6aef0c3cce81deaa57d9d17ae39ad6e478ec60001b61079b565b61285c7f567841a934f6ab8aed884820601f87664290a28c68e238299254b600a7c3c98460001b61079b565b8861287083836143da90919063ffffffff16565b10156128b1576040517f08c379a00000000000000000000000000000000000000000000000000000000081526004016128a890615f2d565b60405180910390fd5b6128dd7f7bd654ea8aebb6e4a7bc9a40f50989ed9d370700f4aa43d0524c9960790266dd60001b61079b565b505050505050505050565b6000806129177fb482cf1fe3466ef6dae2ebd2247ad07b6d79ab939f27c0d9265c7103d29933a260001b61079b565b97509795505050505050565b60006129517f4e2a4ee784c421873d71c0c7effdb49fef3de3c0333cf6ec8e764b2af05000b160001b61079b565b61297d7fcacadc51e0c593cc95091e5d1abea1b9565343057a1b9fd1960ba1f6bb329ea060001b61079b565b6129a97fad60cb95a7e9fce1ac3710ac354aa89f6028c621311fce75ba518232352c733960001b61079b565b7f0000000000000000000000000000000000000000000000000000000000000000905090565b7f000000000000000000000000000000000000000000000000000000000000000081565b6060612a217fb6b6a14353b0957e15039d3a6045ed08013760eae7195019160ea61ba744d47160001b61079b565b612a4d7f69b8eb72f2b2c1b33298b6c14ee4f2709b1e81964958999b9965d068763a31f060001b61079b565b612a797fd0cd22631f504f9219d2e5ddbaccbae5900b4c157a0be3344bb61854cf5f548c60001b61079b565b73__$5126938f6a39bbf3c803a682229eaf36ce$__63bb7b9c767f00000000000000000000000000000000000000000000000000000000000000008686866040518563ffffffff1660e01b8152600401612ad69493929190615acd565b600060405180830381865af4158015612af3573d6000803e3d6000fd5b505050506040513d6000823e3d601f19601f82011682018060405250810190612b1c9190615c5c565b90509392505050565b600080612b547fca16d1b30d76d00bf846d11174664808dab96c35571f13809607f8d96aa7c99760001b61079b565b9a509a98505050505050505050565b7f000000000000000000000000000000000000000000000000000000000000000081565b600080600083612bb97f840c2de19a0674b9f4c92b519d0e950868841432ab529da7de7ffe72869eaabd60001b61079b565b612be57f0d021f891f75b60fe7976675a6a0e480ab823e32c5e9fc453c6336eae1add87660001b61079b565b612c117f405584a0d1f2f08447baa2f3986fad83563e805ee7e490f0d84e7cf432c7add160001b61079b565b612c3d7f912217d841e6fde8add41cf1733ac13ee109134fb251c22993770d5b8c62731f60001b61079b565b428111612c7f576040517f08c379a0000000000000000000000000000000000000000000000000000000008152600401612c7690615d02565b60405180910390fd5b612cab7f953ed164349e5815f8f3b7c7493f2ed2adf9a4441ae6ca70ab583ced1392a98b60001b61079b565b612cd77f4c56134c9270cd338fcbd866380483cbf4d1dca755661da590f92317e3f3946060001b61079b565b612d037fea1da08cf08eb7d60bc67aa6a3f0516068446eceab8861018dce404b98d4637e60001b61079b565b612d2f7f4ab2df7e762f49a6fb3088b8a35424f395ce4a756aef337d808ad69041fa9c0960001b61079b565b612d5b7f9199cdbeb536216b071fe2ed89b654b198d88b0640fa3d338746425e249b16e560001b61079b565b612d698c8c8c8c8c8c61450f565b8094508195505050612d9d7f4f23da4f9c1b2e781df746d104d0d5aed237e29e21b115cc01f6ec0882649c5760001b61079b565b612dc97f890207a47d86b412006dce4b0dc4c0e3a792e85cf249a5379c5975806c5d761c60001b61079b565b600073__$5126938f6a39bbf3c803a682229eaf36ce$__636d91c0e27f00000000000000000000000000000000000000000000000000000000000000008f8f6040518463ffffffff1660e01b8152600401612e2693929190615d7e565b602060405180830381865af4158015612e43573d6000803e3d6000fd5b505050506040513d601f19601f82011682018060405250810190612e679190615dca565b9050612e957fb6e5e850dd12bc6369e4c062eb3ab63b77224cd417dfec22492078f4801f48b560001b61079b565b612ec17f82400989d2816045693cbb5baf6e5910b6603dafdf0df2a6428136210421e11560001b61079b565b73__$b9e62ef5ff9ba70b3b3f7fec2a80b58bcf$__63d9fc4b61338f84896040518563ffffffff1660e01b8152600401612efe9493929190615df7565b602060405180830381865af4158015612f1b573d6000803e3d6000fd5b505050506040513d601f19601f82011682018060405250810190612f3f9190615e51565b50612f6c7f065b8096769144ce785eb78392cb860b74c7a072602cb15ddd40dd3c21ecc7c360001b61079b565b612f987f11799496a659585e019d35581efbf4c180a0bdd49edf36dcecc4f209fe8cb5a760001b61079b565b73__$b9e62ef5ff9ba70b3b3f7fec2a80b58bcf$__63d9fc4b61338e84886040518563ffffffff1660e01b8152600401612fd59493929190615df7565b602060405180830381865af4158015612ff2573d6000803e3d6000fd5b505050506040513d601f19601f820116820180604052508101906130169190615e51565b506130437f3300a0dff97dc04dfe8d5a1eaf1296654f2ca9b1fea1dad70c537ebc29c0c6b060001b61079b565b61306f7ffdfb437523d6ad8b6943e6c40ed97993ec01970565b89798392d0f032f371cb260001b61079b565b8073ffffffffffffffffffffffffffffffffffffffff16636a627842886040518263ffffffff1660e01b81526004016130a891906157c9565b6020604051808303816000875af11580156130c7573d6000803e3d6000fd5b505050506040513d601f19601f820116820180604052508101906130eb91906159ce565b92505050985098509895505050505050565b60008060008361312f7f840c2de19a0674b9f4c92b519d0e950868841432ab529da7de7ffe72869eaabd60001b61079b565b61315b7f0d021f891f75b60fe7976675a6a0e480ab823e32c5e9fc453c6336eae1add87660001b61079b565b6131877f405584a0d1f2f08447baa2f3986fad83563e805ee7e490f0d84e7cf432c7add160001b61079b565b6131b37f912217d841e6fde8add41cf1733ac13ee109134fb251c22993770d5b8c62731f60001b61079b565b4281116131f5576040517f08c379a00000000000000000000000000000000000000000000000000000000081526004016131ec90615d02565b60405180910390fd5b6132217f953ed164349e5815f8f3b7c7493f2ed2adf9a4441ae6ca70ab583ced1392a98b60001b61079b565b61324d7f4c56134c9270cd338fcbd866380483cbf4d1dca755661da590f92317e3f3946060001b61079b565b6132797fbb6559afc5218e4329f260bfd641c66670422fe04fb342f1b8302416f346df0e60001b61079b565b6132a57f67eee726e799dd889097222e03528b39c3947d95ec25dffe878ffa7b6908f66b60001b61079b565b6132d17f8723d47a5082541e8a5dbfb803acabd74efc86392a66e24b32d83e020b3278b060001b61079b565b6132ff8a7f00000000000000000000000000000000000000000000000000000000000000008b348c8c61450f565b80945081955050506133337fe30a212b6f2e09016025ab20092cb3e1686b899c6aaad1ad1cb683348de89e5460001b61079b565b61335f7f3d36f201d79436c1e819b6f603246b3edcdbeabc4a5123f6ceed73de89d41bf360001b61079b565b600073__$5126938f6a39bbf3c803a682229eaf36ce$__636d91c0e27f00000000000000000000000000000000000000000000000000000000000000008d7f00000000000000000000000000000000000000000000000000000000000000006040518463ffffffff1660e01b81526004016133dc93929190615d7e565b602060405180830381865af41580156133f9573d6000803e3d6000fd5b505050506040513d601f19601f8201168201806040525081019061341d9190615dca565b905061344b7fbfb5ef1281e5f9e789dff4f5aabd642093ad6e52da71dcd14df52a205cbe4d1d60001b61079b565b6134777fb2568a2cb3e90ee207ae899eb49400a2d99bcb5af0b8916fed2f2ffea0cf8d5d60001b61079b565b73__$b9e62ef5ff9ba70b3b3f7fec2a80b58bcf$__63d9fc4b61338d84896040518563ffffffff1660e01b81526004016134b49493929190615df7565b602060405180830381865af41580156134d1573d6000803e3d6000fd5b505050506040513d601f19601f820116820180604052508101906134f59190615e51565b506135227f755cfc7bf8110ad59b9ed9da61db7aee608e2480ef0b4a5074cabdd2fd029bbb60001b61079b565b61354e7f388f26238df724bc3094ca986dfac1f0b4a3ab51ea5bd4d7a1cf785b55314dc060001b61079b565b7f000000000000000000000000000000000000000000000000000000000000000073ffffffffffffffffffffffffffffffffffffffff1663d0e30db0856040518263ffffffff1660e01b81526004016000604051808303818588803b1580156135b657600080fd5b505af11580156135ca573d6000803e3d6000fd5b50505050506135fb7f98a5b8e2c7fac546bcce4117fd42fce85186fd52c1c43348accaacb5aeef218360001b61079b565b6136277fd8a44c65a34d52542a762b35fba35101ce93555fc98fa4519f40b4c6d7b43b9b60001b61079b565b7f000000000000000000000000000000000000000000000000000000000000000073ffffffffffffffffffffffffffffffffffffffff1663a9059cbb82866040518363ffffffff1660e01b81526004016136829291906160ba565b6020604051808303816000875af11580156136a1573d6000803e3d6000fd5b505050506040513d601f19601f820116820180604052508101906136c59190615e51565b6136d2576136d161506f565b5b6136fe7f89ae38b933e6ea64bf518b7f2b40be410a5a611455265b7e0dfbc197f5d1174b60001b61079b565b61372a7f34fc69efb8c1429984a97c0b82b136132ec486be5f41e9dce15ed149d437325960001b61079b565b8073ffffffffffffffffffffffffffffffffffffffff16636a627842886040518263ffffffff1660e01b815260040161376391906157c9565b6020604051808303816000875af1158015613782573d6000803e3d6000fd5b505050506040513d601f19601f820116820180604052508101906137a691906159ce565b506137d37f42ce4fe7daa1fe347c0ad6945efd106d2edac5bf111ad305b709ade33333c4e260001b61079b565b6137ff7fa37795f6b1e7ef6e96317e7a1cfc41f0ee9f1dad0c652e25a16896a830909ef060001b61079b565b34841015613916576138337f680770f485f57cd1fc736ece075e13b700459bbc7321d229cf746298d8b3351660001b61079b565b61385f7f5e3bdc23eac29fd19ddf4c99bd0c4f24670fdb2d293b188104f0ab5bd85e727b60001b61079b565b61388b7f14b8cbd7dc8fbfd341e1e49f78f34e12e51ace7b1c0572186e9cf119553e708b60001b61079b565b73__$b9e62ef5ff9ba70b3b3f7fec2a80b58bcf$__637c4368c13386346138b29190615ead565b6040518363ffffffff1660e01b81526004016138cf929190616025565b602060405180830381865af41580156138ec573d6000803e3d6000fd5b505050506040513d601f19601f820116820180604052508101906139109190615e51565b50613943565b6139427f19954058f7f5814e7563b336ab1c040b16c18a1b0041d2dc36b2d3dd13b6cada60001b61079b565b5b505096509650969350505050565b606061397f7f1f91a32bea065acd3178e3da86bc64b09323701d580e9893333e4390de71f41260001b61079b565b95945050505050565b6139b47f8d98335c684f05decbfd1d34472620d6cfdb900a1dc06fc6b0a5d2db10343f8c60001b61079b565b6139e07ff9f2ca306ad8b6e5607c64272d8d5f66a2058fbe875e9fe26e96eba66e55963360001b61079b565b613a0c7fb64faab234693792a005c1683cf74339e58e0860062f900b88c4e975b462323960001b61079b565b60005b600184849050613a1f9190615ead565b8110156143d457613a527f96e315e2db160cd6b01457a19e98f36449d7b9e50e16fa774e4a46e46ab7583960001b61079b565b613a7e7f2991673c092e069619ba5e80d6355d3740d0126500edad0377945a4a43d5bd3d60001b61079b565b600080858584818110613a9457613a93615d22565b5b9050602002016020810190613aa99190615d51565b8686600186613ab891906160e3565b818110613ac857613ac7615d22565b5b9050602002016020810190613add9190615d51565b91509150613b0d7f68c90ac96e0cd5e5fc1ffbcda97b9e3b628f48d15e42317cec7e6c2b260c744360001b61079b565b613b397fde50287504fb6cf88cd97e40eb4473ae7e72a30fe309ca6a2c7e4870779d289360001b61079b565b600073__$5126938f6a39bbf3c803a682229eaf36ce$__63544caa5684846040518363ffffffff1660e01b8152600401613b74929190616117565b6040805180830381865af4158015613b90573d6000803e3d6000fd5b505050506040513d601f19601f82011682018060405250810190613bb49190616140565b509050613be37f9ac2feefc1094697ad6db225c3d6a54d98bafb2e4e8b896d743fb558cc65a42e60001b61079b565b613c0f7fd0b04f58bd863809558f1a591966e59b7e3d4262bf60cd7686d59c065015d86a60001b61079b565b600073__$5126938f6a39bbf3c803a682229eaf36ce$__636d91c0e27f00000000000000000000000000000000000000000000000000000000000000008a8a89818110613c5f57613c5e615d22565b5b9050602002016020810190613c749190615d51565b8b8b60018b613c8391906160e3565b818110613c9357613c92615d22565b5b9050602002016020810190613ca89190615d51565b6040518463ffffffff1660e01b8152600401613cc693929190615d7e565b602060405180830381865af4158015613ce3573d6000803e3d6000fd5b505050506040513d601f19601f82011682018060405250810190613d079190615dca565b9050613d357fa8ae8cb124642d3c5edbd587cc9a0e0a11058515b632dbceb78145360e70e16d60001b61079b565b613d617f83a35345566430bb3fb967be042a3fe8b36cc2ec6e56adc62a7eb7834bb4462260001b61079b565b6000613d8f7f6d079e753c7f5ad3e96f6f39023854fd7b9b2d3c63ba4b4284020e50e74d715960001b61079b565b613dbb7fa512e4be242b7c9d0547b16f5ee368f89599a70c9bb15519f36a8e996573543060001b61079b565b6000613de97f75c2904cc63e8088fd89e2264e0b39b4a7284f27ecc6a26b478aee404af6bc2d60001b61079b565b613e157f238f60f9c2a18e103f95c1e245df82a8a6af9cc77430e70102a0ebe26252a3a860001b61079b565b613e417f65b481dd9ce91180c23035b00aa535fcab1d3ef56827f47967186d426dba411160001b61079b565b6000808473ffffffffffffffffffffffffffffffffffffffff16630902f1ac6040518163ffffffff1660e01b8152600401606060405180830381865afa158015613e8f573d6000803e3d6000fd5b505050506040513d601f19601f82011682018060405250810190613eb39190616202565b506dffffffffffffffffffffffffffff1691506dffffffffffffffffffffffffffff169150613f047f55e688b8c5b50ec45ece0a796253b815e8e28a17bdc6944453d9a16cbd58826060001b61079b565b613f307f14ffa4d53871da15dd3fa17b0dc51137757b35e3431c62c6dbbe328cf4acc8f060001b61079b565b6000808773ffffffffffffffffffffffffffffffffffffffff168a73ffffffffffffffffffffffffffffffffffffffff1614613f6d578284613f70565b83835b91509150613fa07fd4f553818c65cac7429c2582b2cbbef1d1f97fc5f601ee6d14f0aadf137b20a560001b61079b565b613fcc7ff61e98adf81075b3c97215e0d6651f6fc29012f3f292bbe4aad4495a874eb54e60001b61079b565b818a73ffffffffffffffffffffffffffffffffffffffff166370a08231896040518263ffffffff1660e01b815260040161400691906157c9565b602060405180830381865afa158015614023573d6000803e3d6000fd5b505050506040513d601f19601f8201168201806040525081019061404791906159ce565b6140519190615ead565b955061407f7fa42c1d2546d49b7d43886cebb6d3e8c738c5df7504311c086cc6505a0432354a60001b61079b565b6140ab7f243b24b70a7cf6a353e8382605d8f540c9587040b0944d5c7204e2ce38d25c2b60001b61079b565b6140b68683836107d8565b9450505050506140e87f9d5ae27f99f924b60a27b3d2296734ddeda60fe0f8735eca415bc0ab06f649b960001b61079b565b6141147f68accc275a4202c64e16a2d4371871d8dc84d0e8b12b1ddf6cd594e994374cc560001b61079b565b600060028b8b90506141269190615ead565b88106141325788614202565b73__$5126938f6a39bbf3c803a682229eaf36ce$__636d91c0e27f0000000000000000000000000000000000000000000000000000000000000000888e8e60028e61417d91906160e3565b81811061418d5761418c615d22565b5b90506020020160208101906141a29190615d51565b6040518463ffffffff1660e01b81526004016141c093929190615d7e565b602060405180830381865af41580156141dd573d6000803e3d6000fd5b505050506040513d601f19601f820116820180604052508101906142019190615dca565b5b90506142307fffab0b888578e87b138ea3471baef6fa65a5c86558e2d142813e5bc06b7a166060001b61079b565b61425c7fe38992a6cd67103de8315707530917c818a8b4fdd316f46b3db2f4d0e4b2550060001b61079b565b6000808673ffffffffffffffffffffffffffffffffffffffff168973ffffffffffffffffffffffffffffffffffffffff161461429a5783600061429e565b6000845b915091506142ce7f2a322ab144c0df80e0fcc5d3d1995cf28bd37c9ddcaecddc20c3c475b0d9309360001b61079b565b6142fa7f3ab9285449767d7f5c4dcbb419c588493126cdd898df511359f311528acb17c560001b61079b565b8573ffffffffffffffffffffffffffffffffffffffff1663022c0d9f838386600067ffffffffffffffff81111561433457614333615b1e565b5b6040519080825280601f01601f1916602001820160405280156143665781602001600182028036833780820191505090505b506040518563ffffffff1660e01b815260040161438694939291906162d4565b600060405180830381600087803b1580156143a057600080fd5b505af11580156143b4573d6000803e3d6000fd5b5050505050505050505050505080806143cc90616320565b915050613a0f565b50505050565b60006144087ff9462e2946628777cf3f2c3a53addab1c7eeda19565d3ff90690e305a7e6594360001b61506c565b6144347f249914a413d90547d21b39e2064dc3e615234d376222c95054e1bee3c1293f7d60001b61506c565b6144607f6f8897041ac63bcba63042cbc9f5159b57856a7f2c39b16aa515b5fce017af9160001b61506c565b61448c7f4a07db7649423caffc57c990dbba2d111c53aa554b628fd0b820f2f639d5b40a60001b61506c565b8282846144999190615ead565b91508111156144dd576040517f08c379a00000000000000000000000000000000000000000000000000000000081526004016144d4906163b4565b60405180910390fd5b6145097f5e85eef731132f4fbc85560dd821d3a87aac3930d6ea68abc4bdae3a85de8d8d60001b61506c565b92915050565b60008061453e7fb3da8f1f2ffbd5d3c7b42498e6379b28198a1d1c62b7a3e2d9773fbcaaf8b72160001b61079b565b61456a7f2aee4f67aa97fb0fe8c1dd8aa66c45064059a25227c7dd5ab67a338e5406383c60001b61079b565b6145967f8e6dd7cd318070a539847c632185194b858fcadcca5e83c5a24a1565fc84ae4c60001b61079b565b60007f000000000000000000000000000000000000000000000000000000000000000073ffffffffffffffffffffffffffffffffffffffff1663e6a439058a8a6040518363ffffffff1660e01b81526004016145f39291906163d4565b602060405180830381865afa158015614610573d6000803e3d6000fd5b505050506040513d601f19601f820116820180604052508101906146349190615dca565b90506146627fb80692a35fa1c0eaf09bf86e8b3f2a09f86787789e88a2f3a57063e0c778e5b360001b61079b565b61468e7f2c7e3536df84ff56b93bad169a017fbafb171f8c79b8810c41a464b36937b13b60001b61079b565b600073ffffffffffffffffffffffffffffffffffffffff168173ffffffffffffffffffffffffffffffffffffffff16036147ea576146ee7f746c8fc0828d163586be6bf1c5d0d363796a2eb819e7c0ce03f9fe558aec4adf60001b61079b565b61471a7f50ce9f03d1e84596c72d0394d3bfc12e122ad06771dba89906ca9b9fbb74498a60001b61079b565b6147467f4da6e141e5be39c56502e2353ece6f138b0617276943cbe282d7f855335d067b60001b61079b565b7f000000000000000000000000000000000000000000000000000000000000000073ffffffffffffffffffffffffffffffffffffffff1663c9c653968a8a6040518363ffffffff1660e01b81526004016147a19291906163d4565b6020604051808303816000875af11580156147c0573d6000803e3d6000fd5b505050506040513d601f19601f820116820180604052508101906147e49190615dca565b50614817565b6148167fe13e671ac7d796bba8d7446dfe7828d52b24eda7967f37497c52a6bc909d2bc260001b61079b565b5b6148437f08378acd2bc1694ccb3a865189b88832fdb4b57a14e8451962b0efc339dd805560001b61079b565b61486f7f4deb683e1759e09e85aaf4eb614b8d194e6ca31748cbe29e65b97e2a3f37417260001b61079b565b60008073__$5126938f6a39bbf3c803a682229eaf36ce$__63327494617f00000000000000000000000000000000000000000000000000000000000000008d8d6040518463ffffffff1660e01b81526004016148cd93929190615d7e565b6040805180830381865af41580156148e9573d6000803e3d6000fd5b505050506040513d601f19601f8201168201806040525081019061490d91906163fd565b9150915061493d7f879b7d9fb1844f3258e6e54a7edb303082097254b2c5af0366731bbebbc38f3160001b61079b565b6149697f7b20418b725eae63d6521865171f4045ce8d11d5b8c5cc6119e1d8a306238a1260001b61079b565b6000821480156149795750600081145b15614a65576149aa7ff2646006e1c8ec759d7f58904fa7b147f4924cd95ae1b38de0973ead602ff7bc60001b61079b565b6149d67fe72cfcdc94cfc3d7febec1f9a7248d266005648dd357f40ce929b84a05eeb2db60001b61079b565b614a027fef062156063b7e7a53c19d8d5d9f52eb68a1620c745bea089f7e44520842518560001b61079b565b889450614a317f76d73137e9616bb5a7048ce2485bb9f30177e227629dc03b3ae70f739e3d552160001b61079b565b614a5d7f9bdada05b8fda2e9b8eaf95ade01bbc2de739c88eea4f283548f303cd6cbaf9060001b61079b565b87935061505e565b614a917f66b3ff45eb93472d2373edc5bba015d11dc36cbf656bf0f2550f45e244c94a1460001b61079b565b614abd7fe17b8e157c29891426d6e557e3d3c9f46e0b81906da6b754dc4c9abb9ea7e9e360001b61079b565b614ae97fd2bbb646f15a61ffca0d0897e2968338beb5a7fc632597f12cd43654265882a260001b61079b565b600073__$5126938f6a39bbf3c803a682229eaf36ce$__63ad615dec8b85856040518463ffffffff1660e01b8152600401614b2693929190615982565b602060405180830381865af4158015614b43573d6000803e3d6000fd5b505050506040513d601f19601f82011682018060405250810190614b6791906159ce565b9050614b957f77593255719560ee4f67a53efcbca94fd502fb52520efbf0b2e73ea66677567660001b61079b565b614bc17f2adf419b1f904ca2701458e09cb05a3c3a2a93f905b4f98bca26e16d0b05717660001b61079b565b888111614da257614bf47f165948ed08f380c1083b198348e0d21a184789ec637d5d0b285d25d672e5121b60001b61079b565b614c207f432f2c907488acf5c29227823eb0e997ff9d9ebecadf9b406d97eb6796fdc0eb60001b61079b565b614c4c7f840abf8424d1827d9f761c1c65aa167f7c6a378c46db7423c5770904ea2e051c60001b61079b565b614c787f24936d283cc83dabfc99cc201af09a0a780a2378113687373b317ba70c422c2a60001b61079b565b86811015614cbb576040517f08c379a0000000000000000000000000000000000000000000000000000000008152600401614cb290616489565b60405180910390fd5b614ce77fb1d827fcceff87f6c986b2baea70de24b2ede22b83b84a0290d73d8721c7628160001b61079b565b614d137f9d088ab2ae53ca922555e39e7168b59350fc3411c1c272ea8c8cdf4ed98fe64760001b61079b565b614d3f7f869f66f19366fd20abb30666625f1ee78bdd19b98227bf180590a01dd549e32b60001b61079b565b809450614d6e7f29a2671f93f3c09eb92a13fd97c9a4f4f3da89a7455018345e0ea2ee6521344360001b61079b565b614d9a7fc0c9d4b38504f50b361e73b7c97650782cd509bacef0030156578731305d3c1360001b61079b565b89955061505c565b614dce7fd49cb8eade87ff456c2a04956494b119bf6887598f251c9828f5336126fe9a3b60001b61079b565b614dfa7fea8bdf8a3e8f7fdfcd05c545d5b0fb93fe216fe91a5f64e0cb0f62ada93214c660001b61079b565b614e267f9014fab3a8bfbf5a2d738e1e9d266447563edbc5acb13925dc87a7a776be286960001b61079b565b73__$5126938f6a39bbf3c803a682229eaf36ce$__63ad615dec8a85856040518463ffffffff1660e01b8152600401614e6193929190615982565b602060405180830381865af4158015614e7e573d6000803e3d6000fd5b505050506040513d601f19601f82011682018060405250810190614ea291906159ce565b9550614ed07f50ddf9270be2108d21a252c7f1a32ddfca7990aabe6592d16ac905d64e54964360001b61079b565b614efc7fb8574d0b6fd17ff8b184efb9797c901cdb53ff1270f154b6094295698416729560001b61079b565b89861115614f0d57614f0c61506f565b5b614f397fe2c678e107bed33b1abed6f74173efa8ea30865678f3ebd1de6f85ce6cf442d960001b61079b565b614f657f7ca95801474090302ce2598d1149d31bbda4a68b28bb2d027ccdd576b8f0698860001b61079b565b614f917fb0a3f23f40a75c83b36bcb585b198a118b4c3bf9ff6642a363731b30c41430f660001b61079b565b87861015614fd4576040517f08c379a0000000000000000000000000000000000000000000000000000000008152600401614fcb90616489565b60405180910390fd5b6150007ffa6fac78f4b6f101cf8a4dd91fd14ccc0b3008499ff412a53a61530c0fd5856c60001b61079b565b61502c7f9696e5586fbaef32613fb10f0d926a323bbcd36deb4812c1473af21b88da3bc560001b61079b565b6150587fc010451714114a1c9db243d900f02ef4b773d6b9ca009376e5f66580dae567f660001b61079b565b8894505b505b505050965096945050505050565b50565b7f4e487b7100000000000000000000000000000000000000000000000000000000600052600160045260246000fd5b6000604051905090565b600080fd5b600080fd5b600073ffffffffffffffffffffffffffffffffffffffff82169050919050565b60006150dd826150b2565b9050919050565b6150ed816150d2565b81146150f857600080fd5b50565b60008135905061510a816150e4565b92915050565b6000819050919050565b61512381615110565b811461512e57600080fd5b50565b6000813590506151408161511a565b92915050565b60008060008060008060c08789031215615163576151626150a8565b5b600061517189828a016150fb565b965050602061518289828a01615131565b955050604061519389828a01615131565b94505060606151a489828a01615131565b93505060806151b589828a016150fb565b92505060a06151c689828a01615131565b9150509295509295509295565b6151dc81615110565b82525050565b60006040820190506151f760008301856151d3565b61520460208301846151d3565b9392505050565b600080600060608486031215615224576152236150a8565b5b600061523286828701615131565b935050602061524386828701615131565b925050604061525486828701615131565b9150509250925092565b600060208201905061527360008301846151d3565b92915050565b600080fd5b600080fd5b600080fd5b60008083601f84011261529e5761529d615279565b5b8235905067ffffffffffffffff8111156152bb576152ba61527e565b5b6020830191508360208202830111156152d7576152d6615283565b5b9250929050565b60008060008060008060a087890312156152fb576152fa6150a8565b5b600061530989828a01615131565b965050602061531a89828a01615131565b955050604087013567ffffffffffffffff81111561533b5761533a6150ad565b5b61534789828a01615288565b9450945050606061535a89828a016150fb565b925050608061536b89828a01615131565b9150509295509295509295565b600081519050919050565b600082825260208201905092915050565b6000819050602082019050919050565b6153ad81615110565b82525050565b60006153bf83836153a4565b60208301905092915050565b6000602082019050919050565b60006153e382615378565b6153ed8185615383565b93506153f883615394565b8060005b8381101561542957815161541088826153b3565b975061541b836153cb565b9250506001810190506153fc565b5085935050505092915050565b6000602082019050818103600083015261545081846153d8565b905092915050565b600080600060408486031215615471576154706150a8565b5b600061547f86828701615131565b935050602084013567ffffffffffffffff8111156154a05761549f6150ad565b5b6154ac86828701615288565b92509250509250925092565b60008115159050919050565b6154cd816154b8565b81146154d857600080fd5b50565b6000813590506154ea816154c4565b92915050565b600060ff82169050919050565b615506816154f0565b811461551157600080fd5b50565b600081359050615523816154fd565b92915050565b6000819050919050565b61553c81615529565b811461554757600080fd5b50565b60008135905061555981615533565b92915050565b60008060008060008060008060008060006101608c8e031215615585576155846150a8565b5b60006155938e828f016150fb565b9b505060206155a48e828f016150fb565b9a505060406155b58e828f01615131565b99505060606155c68e828f01615131565b98505060806155d78e828f01615131565b97505060a06155e88e828f016150fb565b96505060c06155f98e828f01615131565b95505060e061560a8e828f016154db565b94505061010061561c8e828f01615514565b93505061012061562e8e828f0161554a565b9250506101406156408e828f0161554a565b9150509295989b509295989b9093969950565b6000806000806000806000806000806101408b8d031215615677576156766150a8565b5b60006156858d828e016150fb565b9a505060206156968d828e01615131565b99505060406156a78d828e01615131565b98505060606156b88d828e01615131565b97505060806156c98d828e016150fb565b96505060a06156da8d828e01615131565b95505060c06156eb8d828e016154db565b94505060e06156fc8d828e01615514565b93505061010061570e8d828e0161554a565b9250506101206157208d828e0161554a565b9150509295989b9194979a5092959850565b60008060008060006080868803121561574e5761574d6150a8565b5b600061575c88828901615131565b955050602086013567ffffffffffffffff81111561577d5761577c6150ad565b5b61578988828901615288565b9450945050604061579c888289016150fb565b92505060606157ad88828901615131565b9150509295509295909350565b6157c3816150d2565b82525050565b60006020820190506157de60008301846157ba565b92915050565b600080600080600080600060e0888a031215615803576158026150a8565b5b60006158118a828b016150fb565b97505060206158228a828b016150fb565b96505060406158338a828b01615131565b95505060606158448a828b01615131565b94505060806158558a828b01615131565b93505060a06158668a828b016150fb565b92505060c06158778a828b01615131565b91505092959891949750929550565b600080600080600080600080610100898b0312156158a7576158a66150a8565b5b60006158b58b828c016150fb565b98505060206158c68b828c016150fb565b97505060406158d78b828c01615131565b96505060606158e88b828c01615131565b95505060806158f98b828c01615131565b94505060a061590a8b828c01615131565b93505060c061591b8b828c016150fb565b92505060e061592c8b828c01615131565b9150509295985092959890939650565b600060608201905061595160008301866151d3565b61595e60208301856151d3565b61596b60408301846151d3565b949350505050565b61597c81615110565b82525050565b60006060820190506159976000830186615973565b6159a46020830185615973565b6159b16040830184615973565b949350505050565b6000815190506159c88161511a565b92915050565b6000602082840312156159e4576159e36150a8565b5b60006159f2848285016159b9565b91505092915050565b615a04816150d2565b82525050565b600082825260208201905092915050565b6000819050919050565b615a2e816150d2565b82525050565b6000615a408383615a25565b60208301905092915050565b6000615a5b60208401846150fb565b905092915050565b6000602082019050919050565b6000615a7c8385615a0a565b9350615a8782615a1b565b8060005b85811015615ac057615a9d8284615a4c565b615aa78882615a34565b9750615ab283615a63565b925050600181019050615a8b565b5085925050509392505050565b6000606082019050615ae260008301876159fb565b615aef6020830186615973565b8181036040830152615b02818486615a70565b905095945050505050565b6000601f19601f8301169050919050565b7f4e487b7100000000000000000000000000000000000000000000000000000000600052604160045260246000fd5b615b5682615b0d565b810181811067ffffffffffffffff82111715615b7557615b74615b1e565b5b80604052505050565b6000615b8861509e565b9050615b948282615b4d565b919050565b600067ffffffffffffffff821115615bb457615bb3615b1e565b5b602082029050602081019050919050565b6000615bd8615bd384615b99565b615b7e565b90508083825260208201905060208402830185811115615bfb57615bfa615283565b5b835b81811015615c245780615c1088826159b9565b845260208401935050602081019050615bfd565b5050509392505050565b600082601f830112615c4357615c42615279565b5b8151615c53848260208601615bc5565b91505092915050565b600060208284031215615c7257615c716150a8565b5b600082015167ffffffffffffffff811115615c9057615c8f6150ad565b5b615c9c84828501615c2e565b91505092915050565b600082825260208201905092915050565b7f556e69737761705632526f7574657230323a74696d6520657870697265640000600082015250565b6000615cec601e83615ca5565b9150615cf782615cb6565b602082019050919050565b60006020820190508181036000830152615d1b81615cdf565b9050919050565b7f4e487b7100000000000000000000000000000000000000000000000000000000600052603260045260246000fd5b600060208284031215615d6757615d666150a8565b5b6000615d75848285016150fb565b91505092915050565b6000606082019050615d9360008301866159fb565b615da060208301856159fb565b615dad60408301846159fb565b949350505050565b600081519050615dc4816150e4565b92915050565b600060208284031215615de057615ddf6150a8565b5b6000615dee84828501615db5565b91505092915050565b6000608082019050615e0c60008301876159fb565b615e1960208301866159fb565b615e2660408301856159fb565b615e336060830184615973565b95945050505050565b600081519050615e4b816154c4565b92915050565b600060208284031215615e6757615e666150a8565b5b6000615e7584828501615e3c565b91505092915050565b7f4e487b7100000000000000000000000000000000000000000000000000000000600052601160045260246000fd5b6000615eb882615110565b9150615ec383615110565b9250828203905081811115615edb57615eda615e7e565b5b92915050565b7f526f75746530323a696e73756666696369656e7420616d6f756e74206f757400600082015250565b6000615f17601f83615ca5565b9150615f2282615ee1565b602082019050919050565b60006020820190508181036000830152615f4681615f0a565b9050919050565b7f696e76616c696420706174680000000000000000000000000000000000000000600082015250565b6000615f83600c83615ca5565b9150615f8e82615f4d565b602082019050919050565b60006020820190508181036000830152615fb281615f76565b9050919050565b7f696e73756666696369656e74206f757470757400000000000000000000000000600082015250565b6000615fef601383615ca5565b9150615ffa82615fb9565b602082019050919050565b6000602082019050818103600083015261601e81615fe2565b9050919050565b600060408201905061603a60008301856159fb565b6160476020830184615973565b9392505050565b7f7061746820746f6f2073686f7274000000000000000000000000000000000000600082015250565b6000616084600e83615ca5565b915061608f8261604e565b602082019050919050565b600060208201905081810360008301526160b381616077565b9050919050565b60006040820190506160cf60008301856157ba565b6160dc60208301846151d3565b9392505050565b60006160ee82615110565b91506160f983615110565b925082820190508082111561611157616110615e7e565b5b92915050565b600060408201905061612c60008301856159fb565b61613960208301846159fb565b9392505050565b60008060408385031215616157576161566150a8565b5b600061616585828601615db5565b925050602061617685828601615db5565b9150509250929050565b60006dffffffffffffffffffffffffffff82169050919050565b6161a381616180565b81146161ae57600080fd5b50565b6000815190506161c08161619a565b92915050565b600063ffffffff82169050919050565b6161df816161c6565b81146161ea57600080fd5b50565b6000815190506161fc816161d6565b92915050565b60008060006060848603121561621b5761621a6150a8565b5b6000616229868287016161b1565b935050602061623a868287016161b1565b925050604061624b868287016161ed565b9150509250925092565b600081519050919050565b600082825260208201905092915050565b60005b8381101561628f578082015181840152602081019050616274565b60008484015250505050565b60006162a682616255565b6162b08185616260565b93506162c0818560208601616271565b6162c981615b0d565b840191505092915050565b60006080820190506162e960008301876151d3565b6162f660208301866151d3565b61630360408301856157ba565b8181036060830152616315818461629b565b905095945050505050565b600061632b82615110565b91507fffffffffffffffffffffffffffffffffffffffffffffffffffffffffffffffff820361635d5761635c615e7e565b5b600182019050919050565b7f64732d6d6174682d7375622d756e646572666c6f770000000000000000000000600082015250565b600061639e601583615ca5565b91506163a982616368565b602082019050919050565b600060208201905081810360008301526163cd81616391565b9050919050565b60006040820190506163e960008301856157ba565b6163f660208301846157ba565b9392505050565b60008060408385031215616414576164136150a8565b5b6000616422858286016159b9565b9250506020616433858286016159b9565b9150509250929050565b7f6661696c00000000000000000000000000000000000000000000000000000000600082015250565b6000616473600483615ca5565b915061647e8261643d565b602082019050919050565b600060208201905081810360008301526164a281616466565b905091905056fea2646970667358221220b94ba3612c95a6d4f23134ce67610c92289e4c3614074d7ff2f22912a4ead78164736f6c63430008100033",
  "linkReferences": {
    "contracts/UniswapRoute02.sol": {
      "TransferHelper": [
        {
          "length": 20,
          "start": 4164
        },
        {
          "length": 20,
          "start": 6308
        },
        {
          "length": 20,
          "start": 7612
        },
        {
          "length": 20,
          "start": 12798
        },
        {
          "length": 20,
          "start": 13013
        },
        {
          "length": 20,
          "start": 14260
        },
        {
          "length": 20,
          "start": 15304
        }
      ],
      "UniswapV2Library": [
        {
          "length": 20,
          "start": 2971
        },
        {
          "length": 20,
          "start": 3294
        },
        {
          "length": 20,
          "start": 4232
        },
        {
          "length": 20,
          "start": 6376
        },
        {
          "length": 20,
          "start": 7934
        },
        {
          "length": 20,
          "start": 8429
        },
        {
          "length": 20,
          "start": 10056
        },
        {
          "length": 20,
          "start": 11702
        },
        {
          "length": 20,
          "start": 12552
        },
        {
          "length": 20,
          "start": 13982
        },
        {
          "length": 20,
          "start": 15992
        },
        {
          "length": 20,
          "start": 16206
        },
        {
          "length": 20,
          "start": 17519
        },
        {
          "length": 20,
          "start": 19375
        },
        {
          "length": 20,
          "start": 20008
        },
        {
          "length": 20,
          "start": 20835
        }
      ]
    }
  },
  "deployedLinkReferences": {
    "contracts/UniswapRoute02.sol": {
      "TransferHelper": [
        {
          "length": 20,
          "start": 3337
        },
        {
          "length": 20,
          "start": 5481
        },
        {
          "length": 20,
          "start": 6785
        },
        {
          "length": 20,
          "start": 11971
        },
        {
          "length": 20,
          "start": 12186
        },
        {
          "length": 20,
          "start": 13433
        },
        {
          "length": 20,
          "start": 14477
        }
      ],
      "UniswapV2Library": [
        {
          "length": 20,
          "start": 2144
        },
        {
          "length": 20,
          "start": 2467
        },
        {
          "length": 20,
          "start": 3405
        },
        {
          "length": 20,
          "start": 5549
        },
        {
          "length": 20,
          "start": 7107
        },
        {
          "length": 20,
          "start": 7602
        },
        {
          "length": 20,
          "start": 9229
        },
        {
          "length": 20,
          "start": 10875
        },
        {
          "length": 20,
          "start": 11725
        },
        {
          "length": 20,
          "start": 13155
        },
        {
          "length": 20,
          "start": 15165
        },
        {
          "length": 20,
          "start": 15379
        },
        {
          "length": 20,
          "start": 16692
        },
        {
          "length": 20,
          "start": 18548
        },
        {
          "length": 20,
          "start": 19181
        },
        {
          "length": 20,
          "start": 20008
        }
      ]
    }
  }
}