{
  "_format": "hh-sol-artifact-1",
  "contractName": "UniswapV2Router02",
  "sourceName": "contracts/UniswapRoute02.sol",
  "abi": [
    {
      "inputs": [
        {
          "internalType": "address",
          "name": "f",
          "type": "address"
        },
        {
          "internalType": "address",
          "name": "w",
          "type": "address"
        }
      ],
      "stateMutability": "nonpayable",
      "type": "constructor"
    },
    {
      "inputs": [],
      "name": "WETH",
      "outputs": [
        {
          "internalType": "address",
          "name": "",
          "type": "address"
        }
      ],
      "stateMutability": "view",
      "type": "function"
    },
    {
      "inputs": [],
      "name": "_WETH",
      "outputs": [
        {
          "internalType": "address",
          "name": "",
          "type": "address"
        }
      ],
      "stateMutability": "view",
      "type": "function"
    },
    {
      "inputs": [],
      "name": "_factory",
      "outputs": [
        {
          "internalType": "address",
          "name": "",
          "type": "address"
        }
      ],
      "stateMutability": "view",
      "type": "function"
    },
    {
      "inputs": [
        {
          "internalType": "address",
          "name": "tokenA",
          "type": "address"
        },
        {
          "internalType": "address",
          "name": "tokenB",
          "type": "address"
        },
        {
          "internalType": "uint256",
          "name": "amountADesired",
          "type": "uint256"
        },
        {
          "internalType": "uint256",
          "name": "amountBDesired",
          "type": "uint256"
        },
        {
          "internalType": "uint256",
          "name": "amountAMin",
          "type": "uint256"
        },
        {
          "internalType": "uint256",
          "name": "amountBMin",
          "type": "uint256"
        },
        {
          "internalType": "address",
          "name": "to",
          "type": "address"
        },
        {
          "internalType": "uint256",
          "name": "deadline",
          "type": "uint256"
        }
      ],
      "name": "addLiquidity",
      "outputs": [
        {
          "internalType": "uint256",
          "name": "amountA",
          "type": "uint256"
        },
        {
          "internalType": "uint256",
          "name": "amountB",
          "type": "uint256"
        },
        {
          "internalType": "uint256",
          "name": "liquidity",
          "type": "uint256"
        }
      ],
      "stateMutability": "nonpayable",
      "type": "function"
    },
    {
      "inputs": [
        {
          "internalType": "address",
          "name": "token",
          "type": "address"
        },
        {
          "internalType": "uint256",
          "name": "amountTokenDesired",
          "type": "uint256"
        },
        {
          "internalType": "uint256",
          "name": "amountTokenMin",
          "type": "uint256"
        },
        {
          "internalType": "uint256",
          "name": "amountETHMin",
          "type": "uint256"
        },
        {
          "internalType": "address",
          "name": "to",
          "type": "address"
        },
        {
          "internalType": "uint256",
          "name": "deadline",
          "type": "uint256"
        }
      ],
      "name": "addLiquidityETH",
      "outputs": [
        {
          "internalType": "uint256",
          "name": "amountToken",
          "type": "uint256"
        },
        {
          "internalType": "uint256",
          "name": "amountETH",
          "type": "uint256"
        },
        {
          "internalType": "uint256",
          "name": "liquidity",
          "type": "uint256"
        }
      ],
      "stateMutability": "payable",
      "type": "function"
    },
    {
      "inputs": [],
      "name": "factory",
      "outputs": [
        {
          "internalType": "address",
          "name": "",
          "type": "address"
        }
      ],
      "stateMutability": "view",
      "type": "function"
    },
    {
      "inputs": [
        {
          "internalType": "uint256",
          "name": "amountOut",
          "type": "uint256"
        },
        {
          "internalType": "uint256",
          "name": "reserveIn",
          "type": "uint256"
        },
        {
          "internalType": "uint256",
          "name": "reserveOut",
          "type": "uint256"
        }
      ],
      "name": "getAmountIn",
      "outputs": [
        {
          "internalType": "uint256",
          "name": "amountIn",
          "type": "uint256"
        }
      ],
      "stateMutability": "pure",
      "type": "function"
    },
    {
      "inputs": [
        {
          "internalType": "uint256",
          "name": "amountIn",
          "type": "uint256"
        },
        {
          "internalType": "uint256",
          "name": "reserveIn",
          "type": "uint256"
        },
        {
          "internalType": "uint256",
          "name": "reserveOut",
          "type": "uint256"
        }
      ],
      "name": "getAmountOut",
      "outputs": [
        {
          "internalType": "uint256",
          "name": "amountOut",
          "type": "uint256"
        }
      ],
      "stateMutability": "pure",
      "type": "function"
    },
    {
      "inputs": [
        {
          "internalType": "uint256",
          "name": "amountOut",
          "type": "uint256"
        },
        {
          "internalType": "address[]",
          "name": "path",
          "type": "address[]"
        }
      ],
      "name": "getAmountsIn",
      "outputs": [
        {
          "internalType": "uint256[]",
          "name": "amounts",
          "type": "uint256[]"
        }
      ],
      "stateMutability": "view",
      "type": "function"
    },
    {
      "inputs": [
        {
          "internalType": "uint256",
          "name": "amountIn",
          "type": "uint256"
        },
        {
          "internalType": "address[]",
          "name": "path",
          "type": "address[]"
        }
      ],
      "name": "getAmountsOut",
      "outputs": [
        {
          "internalType": "uint256[]",
          "name": "amounts",
          "type": "uint256[]"
        }
      ],
      "stateMutability": "view",
      "type": "function"
    },
    {
      "inputs": [
        {
          "internalType": "uint256",
          "name": "amountA",
          "type": "uint256"
        },
        {
          "internalType": "uint256",
          "name": "reserveA",
          "type": "uint256"
        },
        {
          "internalType": "uint256",
          "name": "reserveB",
          "type": "uint256"
        }
      ],
      "name": "quote",
      "outputs": [
        {
          "internalType": "uint256",
          "name": "amountB",
          "type": "uint256"
        }
      ],
      "stateMutability": "pure",
      "type": "function"
    },
    {
      "inputs": [
        {
          "internalType": "address",
          "name": "tokenA",
          "type": "address"
        },
        {
          "internalType": "address",
          "name": "tokenB",
          "type": "address"
        },
        {
          "internalType": "uint256",
          "name": "liquidity",
          "type": "uint256"
        },
        {
          "internalType": "uint256",
          "name": "amountAMin",
          "type": "uint256"
        },
        {
          "internalType": "uint256",
          "name": "amountBMin",
          "type": "uint256"
        },
        {
          "internalType": "address",
          "name": "to",
          "type": "address"
        },
        {
          "internalType": "uint256",
          "name": "deadline",
          "type": "uint256"
        }
      ],
      "name": "removeLiquidity",
      "outputs": [
        {
          "internalType": "uint256",
          "name": "amountA",
          "type": "uint256"
        },
        {
          "internalType": "uint256",
          "name": "amountB",
          "type": "uint256"
        }
      ],
      "stateMutability": "nonpayable",
      "type": "function"
    },
    {
      "inputs": [
        {
          "internalType": "address",
          "name": "token",
          "type": "address"
        },
        {
          "internalType": "uint256",
          "name": "liquidity",
          "type": "uint256"
        },
        {
          "internalType": "uint256",
          "name": "amountTokenMin",
          "type": "uint256"
        },
        {
          "internalType": "uint256",
          "name": "amountETHMin",
          "type": "uint256"
        },
        {
          "internalType": "address",
          "name": "to",
          "type": "address"
        },
        {
          "internalType": "uint256",
          "name": "deadline",
          "type": "uint256"
        }
      ],
      "name": "removeLiquidityETH",
      "outputs": [
        {
          "internalType": "uint256",
          "name": "amountToken",
          "type": "uint256"
        },
        {
          "internalType": "uint256",
          "name": "amountETH",
          "type": "uint256"
        }
      ],
      "stateMutability": "nonpayable",
      "type": "function"
    },
    {
      "inputs": [
        {
          "internalType": "address",
          "name": "token",
          "type": "address"
        },
        {
          "internalType": "uint256",
          "name": "liquidity",
          "type": "uint256"
        },
        {
          "internalType": "uint256",
          "name": "amountTokenMin",
          "type": "uint256"
        },
        {
          "internalType": "uint256",
          "name": "amountETHMin",
          "type": "uint256"
        },
        {
          "internalType": "address",
          "name": "to",
          "type": "address"
        },
        {
          "internalType": "uint256",
          "name": "deadline",
          "type": "uint256"
        }
      ],
      "name": "removeLiquidityETHSupportingFeeOnTransferTokens",
      "outputs": [
        {
          "internalType": "uint256",
          "name": "amountETH",
          "type": "uint256"
        }
      ],
      "stateMutability": "nonpayable",
      "type": "function"
    },
    {
      "inputs": [
        {
          "internalType": "address",
          "name": "token",
          "type": "address"
        },
        {
          "internalType": "uint256",
          "name": "liquidity",
          "type": "uint256"
        },
        {
          "internalType": "uint256",
          "name": "amountTokenMin",
          "type": "uint256"
        },
        {
          "internalType": "uint256",
          "name": "amountETHMin",
          "type": "uint256"
        },
        {
          "internalType": "address",
          "name": "to",
          "type": "address"
        },
        {
          "internalType": "uint256",
          "name": "deadline",
          "type": "uint256"
        },
        {
          "internalType": "bool",
          "name": "approveMax",
          "type": "bool"
        },
        {
          "internalType": "uint8",
          "name": "v",
          "type": "uint8"
        },
        {
          "internalType": "bytes32",
          "name": "r",
          "type": "bytes32"
        },
        {
          "internalType": "bytes32",
          "name": "s",
          "type": "bytes32"
        }
      ],
      "name": "removeLiquidityETHWithPermit",
      "outputs": [
        {
          "internalType": "uint256",
          "name": "amountToken",
          "type": "uint256"
        },
        {
          "internalType": "uint256",
          "name": "amountETH",
          "type": "uint256"
        }
      ],
      "stateMutability": "nonpayable",
      "type": "function"
    },
    {
      "inputs": [
        {
          "internalType": "address",
          "name": "token",
          "type": "address"
        },
        {
          "internalType": "uint256",
          "name": "liquidity",
          "type": "uint256"
        },
        {
          "internalType": "uint256",
          "name": "amountTokenMin",
          "type": "uint256"
        },
        {
          "internalType": "uint256",
          "name": "amountETHMin",
          "type": "uint256"
        },
        {
          "internalType": "address",
          "name": "to",
          "type": "address"
        },
        {
          "internalType": "uint256",
          "name": "deadline",
          "type": "uint256"
        },
        {
          "internalType": "bool",
          "name": "approveMax",
          "type": "bool"
        },
        {
          "internalType": "uint8",
          "name": "v",
          "type": "uint8"
        },
        {
          "internalType": "bytes32",
          "name": "r",
          "type": "bytes32"
        },
        {
          "internalType": "bytes32",
          "name": "s",
          "type": "bytes32"
        }
      ],
      "name": "removeLiquidityETHWithPermitSupportingFeeOnTransferTokens",
      "outputs": [
        {
          "internalType": "uint256",
          "name": "amountETH",
          "type": "uint256"
        }
      ],
      "stateMutability": "nonpayable",
      "type": "function"
    },
    {
      "inputs": [
        {
          "internalType": "address",
          "name": "tokenA",
          "type": "address"
        },
        {
          "internalType": "address",
          "name": "tokenB",
          "type": "address"
        },
        {
          "internalType": "uint256",
          "name": "liquidity",
          "type": "uint256"
        },
        {
          "internalType": "uint256",
          "name": "amountAMin",
          "type": "uint256"
        },
        {
          "internalType": "uint256",
          "name": "amountBMin",
          "type": "uint256"
        },
        {
          "internalType": "address",
          "name": "to",
          "type": "address"
        },
        {
          "internalType": "uint256",
          "name": "deadline",
          "type": "uint256"
        },
        {
          "internalType": "bool",
          "name": "approveMax",
          "type": "bool"
        },
        {
          "internalType": "uint8",
          "name": "v",
          "type": "uint8"
        },
        {
          "internalType": "bytes32",
          "name": "r",
          "type": "bytes32"
        },
        {
          "internalType": "bytes32",
          "name": "s",
          "type": "bytes32"
        }
      ],
      "name": "removeLiquidityWithPermit",
      "outputs": [
        {
          "internalType": "uint256",
          "name": "amountA",
          "type": "uint256"
        },
        {
          "internalType": "uint256",
          "name": "amountB",
          "type": "uint256"
        }
      ],
      "stateMutability": "nonpayable",
      "type": "function"
    },
    {
      "inputs": [
        {
          "internalType": "uint256",
          "name": "amountOut",
          "type": "uint256"
        },
        {
          "internalType": "address[]",
          "name": "path",
          "type": "address[]"
        },
        {
          "internalType": "address",
          "name": "to",
          "type": "address"
        },
        {
          "internalType": "uint256",
          "name": "deadline",
          "type": "uint256"
        }
      ],
      "name": "swapETHForExactTokens",
      "outputs": [
        {
          "internalType": "uint256[]",
          "name": "amounts",
          "type": "uint256[]"
        }
      ],
      "stateMutability": "payable",
      "type": "function"
    },
    {
      "inputs": [
        {
          "internalType": "uint256",
          "name": "amountOutMin",
          "type": "uint256"
        },
        {
          "internalType": "address[]",
          "name": "path",
          "type": "address[]"
        },
        {
          "internalType": "address",
          "name": "to",
          "type": "address"
        },
        {
          "internalType": "uint256",
          "name": "deadline",
          "type": "uint256"
        }
      ],
      "name": "swapExactETHForTokens",
      "outputs": [
        {
          "internalType": "uint256[]",
          "name": "amounts",
          "type": "uint256[]"
        }
      ],
      "stateMutability": "payable",
      "type": "function"
    },
    {
      "inputs": [
        {
          "internalType": "uint256",
          "name": "amountOutMin",
          "type": "uint256"
        },
        {
          "internalType": "address[]",
          "name": "path",
          "type": "address[]"
        },
        {
          "internalType": "address",
          "name": "_to",
          "type": "address"
        },
        {
          "internalType": "uint256",
          "name": "deadline",
          "type": "uint256"
        }
      ],
      "name": "swapExactETHForTokensSupportingFeeOnTransferTokens",
      "outputs": [],
      "stateMutability": "payable",
      "type": "function"
    },
    {
      "inputs": [
        {
          "internalType": "uint256",
          "name": "amountIn",
          "type": "uint256"
        },
        {
          "internalType": "uint256",
          "name": "amountOutMin",
          "type": "uint256"
        },
        {
          "internalType": "address[]",
          "name": "path",
          "type": "address[]"
        },
        {
          "internalType": "address",
          "name": "to",
          "type": "address"
        },
        {
          "internalType": "uint256",
          "name": "deadline",
          "type": "uint256"
        }
      ],
      "name": "swapExactTokensForETH",
      "outputs": [
        {
          "internalType": "uint256[]",
          "name": "amounts",
          "type": "uint256[]"
        }
      ],
      "stateMutability": "nonpayable",
      "type": "function"
    },
    {
      "inputs": [
        {
          "internalType": "uint256",
          "name": "amountIn",
          "type": "uint256"
        },
        {
          "internalType": "uint256",
          "name": "amountOutMin",
          "type": "uint256"
        },
        {
          "internalType": "address[]",
          "name": "path",
          "type": "address[]"
        },
        {
          "internalType": "address",
          "name": "_to",
          "type": "address"
        },
        {
          "internalType": "uint256",
          "name": "deadline",
          "type": "uint256"
        }
      ],
      "name": "swapExactTokensForETHSupportingFeeOnTransferTokens",
      "outputs": [],
      "stateMutability": "nonpayable",
      "type": "function"
    },
    {
      "inputs": [
        {
          "internalType": "uint256",
          "name": "amountIn",
          "type": "uint256"
        },
        {
          "internalType": "uint256",
          "name": "amountOutMin",
          "type": "uint256"
        },
        {
          "internalType": "address[]",
          "name": "path",
          "type": "address[]"
        },
        {
          "internalType": "address",
          "name": "to",
          "type": "address"
        },
        {
          "internalType": "uint256",
          "name": "deadline",
          "type": "uint256"
        }
      ],
      "name": "swapExactTokensForTokens",
      "outputs": [
        {
          "internalType": "uint256[]",
          "name": "amounts",
          "type": "uint256[]"
        }
      ],
      "stateMutability": "nonpayable",
      "type": "function"
    },
    {
      "inputs": [
        {
          "internalType": "uint256",
          "name": "amountIn",
          "type": "uint256"
        },
        {
          "internalType": "uint256",
          "name": "amountOutMin",
          "type": "uint256"
        },
        {
          "internalType": "address[]",
          "name": "path",
          "type": "address[]"
        },
        {
          "internalType": "address",
          "name": "_to",
          "type": "address"
        },
        {
          "internalType": "uint256",
          "name": "deadline",
          "type": "uint256"
        }
      ],
      "name": "swapExactTokensForTokensSupportingFeeOnTransferTokens",
      "outputs": [],
      "stateMutability": "nonpayable",
      "type": "function"
    },
    {
      "inputs": [
        {
          "internalType": "uint256",
          "name": "amountOut",
          "type": "uint256"
        },
        {
          "internalType": "uint256",
          "name": "amountInMax",
          "type": "uint256"
        },
        {
          "internalType": "address[]",
          "name": "path",
          "type": "address[]"
        },
        {
          "internalType": "address",
          "name": "to",
          "type": "address"
        },
        {
          "internalType": "uint256",
          "name": "deadline",
          "type": "uint256"
        }
      ],
      "name": "swapTokensForExactETH",
      "outputs": [
        {
          "internalType": "uint256[]",
          "name": "amounts",
          "type": "uint256[]"
        }
      ],
      "stateMutability": "nonpayable",
      "type": "function"
    },
    {
      "inputs": [
        {
          "internalType": "uint256",
          "name": "amountOut",
          "type": "uint256"
        },
        {
          "internalType": "uint256",
          "name": "amountInMax",
          "type": "uint256"
        },
        {
          "internalType": "address[]",
          "name": "path",
          "type": "address[]"
        },
        {
          "internalType": "address",
          "name": "to",
          "type": "address"
        },
        {
          "internalType": "uint256",
          "name": "deadline",
          "type": "uint256"
        }
      ],
      "name": "swapTokensForExactTokens",
      "outputs": [
        {
          "internalType": "uint256[]",
          "name": "amounts",
          "type": "uint256[]"
        }
      ],
      "stateMutability": "nonpayable",
      "type": "function"
    },
    {
      "stateMutability": "payable",
      "type": "receive"
    }
  ],
  "bytecode": "0x60c06040523480156200001157600080fd5b506040516200297a3803806200297a833981016040819052620000349162000069565b6001600160a01b039182166080521660a052620000a1565b80516001600160a01b03811681146200006457600080fd5b919050565b600080604083850312156200007d57600080fd5b62000088836200004c565b915062000098602084016200004c565b90509250929050565b60805160a0516127fd6200017d600039600081816101950152818161036f015281816104f10152818161088a01528181610ad201528181610ba201528181610d4801528181610e2601528181610e9a01528181610f04015281816113130152818161139601528181611483015261151801526000818161043a01528181610470015281816106210152818161071c0152818161097f01528181610ee301528181611064015281816110eb01528181611372015281816117c801528181611a0d01528181611bad01528181611c510152611cdf01526127fd6000f3fe6080604052600436106101855760003560e01c8063ad5c4648116100d1578063c5cc6b6a1161008a578063e0af361611610064578063e0af3616146104df578063e8e3370014610513578063f305d7191461054e578063fb3bdb411461032757600080fd5b8063c5cc6b6a1461045e578063d06ca61f14610492578063ded9382a146104b257600080fd5b8063ad5c464814610360578063ad615dec146103a7578063af2979eb146103c7578063b6f9de95146103ee578063baa2abde14610401578063c45a01551461042b57600080fd5b80634a25d94a1161013e578063791ac94711610118578063791ac947146103075780637ff36ab51461032757806385f8c259146103405780638803dbee1461023a57600080fd5b80634a25d94a1461023a5780635b0d5984146102bc5780635c11d795146102e757600080fd5b806302751cec146101c9578063054d50d41461020c57806318cbafe51461023a5780631f00ca741461026e5780632195995c1461028e57806338ed17391461023a57600080fd5b366101c457336001600160a01b037f000000000000000000000000000000000000000000000000000000000000000016146101c2576101c2611f33565b005b600080fd5b3480156101d557600080fd5b506101f26101e4366004611f61565b600080965096945050505050565b604080519283526020830191909152015b60405180910390f35b34801561021857600080fd5b5061022c610227366004611fbf565b610561565b604051908152602001610203565b34801561024657600080fd5b50610261610255366004612037565b60609695505050505050565b60405161020391906120aa565b34801561027a57600080fd5b506102616102893660046120ee565b6105ef565b34801561029a57600080fd5b506101f26102a936600461215e565b6000809b509b9950505050505050505050565b3480156102c857600080fd5b5061022c6102d7366004612208565b60009a9950505050505050505050565b3480156102f357600080fd5b506101c2610302366004612037565b610694565b34801561031357600080fd5b506101c2610322366004612037565b610860565b61026161033536600461229e565b606095945050505050565b34801561034c57600080fd5b5061022c61035b366004611fbf565b610c94565b34801561036c57600080fd5b507f00000000000000000000000000000000000000000000000000000000000000005b6040516001600160a01b039091168152602001610203565b3480156103b357600080fd5b5061022c6103c2366004611fbf565b610cdd565b3480156103d357600080fd5b5061022c6103e2366004611f61565b60009695505050505050565b6101c26103fc36600461229e565b610d26565b34801561040d57600080fd5b506101f261041c366004612305565b60008097509795505050505050565b34801561043757600080fd5b507f000000000000000000000000000000000000000000000000000000000000000061038f565b34801561046a57600080fd5b5061038f7f000000000000000000000000000000000000000000000000000000000000000081565b34801561049e57600080fd5b506102616104ad3660046120ee565b611032565b3480156104be57600080fd5b506101f26104cd366004612208565b6000809a509a98505050505050505050565b3480156104eb57600080fd5b5061038f7f000000000000000000000000000000000000000000000000000000000000000081565b34801561051f57600080fd5b5061053361052e366004612377565b611092565b60408051938452602084019290925290820152606001610203565b61053361055c366004611f61565b6112e8565b604051630153543560e21b815260048101849052602481018390526044810182905260009073__$5126938f6a39bbf3c803a682229eaf36ce$__9063054d50d4906064015b602060405180830381865af41580156105c3573d6000803e3d6000fd5b505050506040513d601f19601f820116820180604052508101906105e791906123f3565b949350505050565b604051630c90945960e11b815260609073__$5126938f6a39bbf3c803a682229eaf36ce$__9063192128b29061064f907f00000000000000000000000000000000000000000000000000000000000000009088908890889060040161240c565b600060405180830381865af415801561066c573d6000803e3d6000fd5b505050506040513d6000823e601f3d908101601f191682016040526105e79190810190612485565b804281116106bd5760405162461bcd60e51b81526004016106b490612543565b60405180910390fd5b73__$b9e62ef5ff9ba70b3b3f7fec2a80b58bcf$__63d9fc4b6133878760008181106106eb576106eb61257a565b90506020020160208101906107009190612590565b73__$5126938f6a39bbf3c803a682229eaf36ce$__636d91c0e27f00000000000000000000000000000000000000000000000000000000000000008b8b600081811061074e5761074e61257a565b90506020020160208101906107639190612590565b8c8c60018181106107765761077661257a565b905060200201602081019061078b9190612590565b6040518463ffffffff1660e01b81526004016107a9939291906125b4565b602060405180830381865af41580156107c6573d6000803e3d6000fd5b505050506040513d601f19601f820116820180604052508101906107ea91906125d7565b8b6040518563ffffffff1660e01b815260040161080a94939291906125f4565b602060405180830381865af4158015610827573d6000803e3d6000fd5b505050506040513d601f19601f8201168201806040525081019061084b919061261e565b506108578585856116ac565b50505050505050565b804281116108805760405162461bcd60e51b81526004016106b490612543565b6001600160a01b037f00000000000000000000000000000000000000000000000000000000000000001685856108b7600182612651565b8181106108c6576108c661257a565b90506020020160208101906108db9190612590565b6001600160a01b0316146109205760405162461bcd60e51b815260206004820152600c60248201526b0d2dcecc2d8d2c840e0c2e8d60a31b60448201526064016106b4565b73__$b9e62ef5ff9ba70b3b3f7fec2a80b58bcf$__63d9fc4b61338787600081811061094e5761094e61257a565b90506020020160208101906109639190612590565b73__$5126938f6a39bbf3c803a682229eaf36ce$__636d91c0e27f00000000000000000000000000000000000000000000000000000000000000008b8b60008181106109b1576109b161257a565b90506020020160208101906109c69190612590565b8c8c60018181106109d9576109d961257a565b90506020020160208101906109ee9190612590565b6040518463ffffffff1660e01b8152600401610a0c939291906125b4565b602060405180830381865af4158015610a29573d6000803e3d6000fd5b505050506040513d601f19601f82011682018060405250810190610a4d91906125d7565b8b6040518563ffffffff1660e01b8152600401610a6d94939291906125f4565b602060405180830381865af4158015610a8a573d6000803e3d6000fd5b505050506040513d601f19601f82011682018060405250810190610aae919061261e565b50610aba8585306116ac565b6040516370a0823160e01b81523060048201526000907f00000000000000000000000000000000000000000000000000000000000000006001600160a01b0316906370a0823190602401602060405180830381865afa158015610b21573d6000803e3d6000fd5b505050506040513d601f19601f82011682018060405250810190610b4591906123f3565b9050868111610b8c5760405162461bcd60e51b81526020600482015260136024820152721a5b9cdd59999a58da595b9d081bdd5d1c1d5d606a1b60448201526064016106b4565b604051632e1a7d4d60e01b8152600481018290527f00000000000000000000000000000000000000000000000000000000000000006001600160a01b031690632e1a7d4d90602401600060405180830381600087803b158015610bee57600080fd5b505af1158015610c02573d6000803e3d6000fd5b5050604051637c4368c160e01b81526001600160a01b03871660048201526024810184905273__$b9e62ef5ff9ba70b3b3f7fec2a80b58bcf$__9250637c4368c19150604401602060405180830381865af4158015610c65573d6000803e3d6000fd5b505050506040513d601f19601f82011682018060405250810190610c89919061261e565b505050505050505050565b6040516385f8c25960e01b815260048101849052602481018290526044810183905260009073__$5126938f6a39bbf3c803a682229eaf36ce$__906385f8c259906064016105a6565b604051632b58577b60e21b815260048101849052602481018390526044810182905260009073__$5126938f6a39bbf3c803a682229eaf36ce$__9063ad615dec906064016105a6565b80428111610d465760405162461bcd60e51b81526004016106b490612543565b7f00000000000000000000000000000000000000000000000000000000000000006001600160a01b031685856000818110610d8357610d8361257a565b9050602002016020810190610d989190612590565b6001600160a01b031614610ddd5760405162461bcd60e51b815260206004820152600c60248201526b0d2dcecc2d8d2c840e0c2e8d60a31b60448201526064016106b4565b6002841015610e1f5760405162461bcd60e51b815260206004820152600e60248201526d1c185d1a081d1bdbc81cda1bdc9d60921b60448201526064016106b4565b60003490507f00000000000000000000000000000000000000000000000000000000000000006001600160a01b031663d0e30db0346040518263ffffffff1660e01b81526004016000604051808303818588803b158015610e7f57600080fd5b505af1158015610e93573d6000803e3d6000fd5b50505050507f00000000000000000000000000000000000000000000000000000000000000006001600160a01b031663a9059cbb73__$5126938f6a39bbf3c803a682229eaf36ce$__636d91c0e27f00000000000000000000000000000000000000000000000000000000000000007f00000000000000000000000000000000000000000000000000000000000000008b8b6001818110610f3657610f3661257a565b9050602002016020810190610f4b9190612590565b6040518463ffffffff1660e01b8152600401610f69939291906125b4565b602060405180830381865af4158015610f86573d6000803e3d6000fd5b505050506040513d601f19601f82011682018060405250810190610faa91906125d7565b6040516001600160e01b031960e084901b1681526001600160a01b039091166004820152602481018490526044016020604051808303816000875af1158015610ff7573d6000803e3d6000fd5b505050506040513d601f19601f8201168201806040525081019061101b919061261e565b61102757611027611f33565b6108578686866116ac565b604051635dbdce3b60e11b815260609073__$5126938f6a39bbf3c803a682229eaf36ce$__9063bb7b9c769061064f907f00000000000000000000000000000000000000000000000000000000000000009088908890889060040161240c565b6000806000834281116110b75760405162461bcd60e51b81526004016106b490612543565b6110c58c8c8c8c8c8c611b7f565b8094508195505050600073__$5126938f6a39bbf3c803a682229eaf36ce$__636d91c0e27f00000000000000000000000000000000000000000000000000000000000000008f8f6040518463ffffffff1660e01b815260040161112a939291906125b4565b602060405180830381865af4158015611147573d6000803e3d6000fd5b505050506040513d601f19601f8201168201806040525081019061116b91906125d7565b905073__$b9e62ef5ff9ba70b3b3f7fec2a80b58bcf$__63d9fc4b61338f84896040518563ffffffff1660e01b81526004016111aa94939291906125f4565b602060405180830381865af41580156111c7573d6000803e3d6000fd5b505050506040513d601f19601f820116820180604052508101906111eb919061261e565b5073__$b9e62ef5ff9ba70b3b3f7fec2a80b58bcf$__63d9fc4b61338e84886040518563ffffffff1660e01b815260040161122994939291906125f4565b602060405180830381865af4158015611246573d6000803e3d6000fd5b505050506040513d601f19601f8201168201806040525081019061126a919061261e565b506040516335313c2160e11b81526001600160a01b038881166004830152821690636a627842906024016020604051808303816000875af11580156112b3573d6000803e3d6000fd5b505050506040513d601f19601f820116820180604052508101906112d791906123f3565b505050985098509895505050505050565b60008060008342811161130d5760405162461bcd60e51b81526004016106b490612543565b61133b8a7f00000000000000000000000000000000000000000000000000000000000000008b348c8c611b7f565b6040516336c8e07160e11b8152919550935060009073__$5126938f6a39bbf3c803a682229eaf36ce$__90636d91c0e2906113be907f0000000000000000000000000000000000000000000000000000000000000000908f907f0000000000000000000000000000000000000000000000000000000000000000906004016125b4565b602060405180830381865af41580156113db573d6000803e3d6000fd5b505050506040513d601f19601f820116820180604052508101906113ff91906125d7565b60405163d9fc4b6160e01b815290915073__$b9e62ef5ff9ba70b3b3f7fec2a80b58bcf$__9063d9fc4b619061143f9033908f9086908b906004016125f4565b602060405180830381865af415801561145c573d6000803e3d6000fd5b505050506040513d601f19601f82011682018060405250810190611480919061261e565b507f00000000000000000000000000000000000000000000000000000000000000006001600160a01b031663d0e30db0856040518263ffffffff1660e01b81526004016000604051808303818588803b1580156114dc57600080fd5b505af11580156114f0573d6000803e3d6000fd5b505060405163a9059cbb60e01b81526001600160a01b038581166004830152602482018990527f000000000000000000000000000000000000000000000000000000000000000016935063a9059cbb925060440190506020604051808303816000875af1158015611565573d6000803e3d6000fd5b505050506040513d601f19601f82011682018060405250810190611589919061261e565b61159557611595611f33565b6040516335313c2160e11b81526001600160a01b038881166004830152821690636a627842906024016020604051808303816000875af11580156115dd573d6000803e3d6000fd5b505050506040513d601f19601f8201168201806040525081019061160191906123f3565b503484101561169e5773__$b9e62ef5ff9ba70b3b3f7fec2a80b58bcf$__637c4368c13361162f8734612651565b6040516001600160e01b031960e085901b1681526001600160a01b0390921660048301526024820152604401602060405180830381865af4158015611678573d6000803e3d6000fd5b505050506040513d601f19601f8201168201806040525081019061169c919061261e565b505b505096509650969350505050565b60005b6116ba600184612651565b811015611b79576000808585848181106116d6576116d661257a565b90506020020160208101906116eb9190612590565b86866116f886600161266a565b8181106117075761170761257a565b905060200201602081019061171c9190612590565b604051632a26552b60e11b81526001600160a01b03808416600483015282166024820152919350915060009073__$5126938f6a39bbf3c803a682229eaf36ce$__9063544caa56906044016040805180830381865af4158015611783573d6000803e3d6000fd5b505050506040513d601f19601f820116820180604052508101906117a7919061267d565b509050600073__$5126938f6a39bbf3c803a682229eaf36ce$__636d91c0e27f00000000000000000000000000000000000000000000000000000000000000008a8a898181106117f9576117f961257a565b905060200201602081019061180e9190612590565b8b8b61181b8b600161266a565b81811061182a5761182a61257a565b905060200201602081019061183f9190612590565b6040518463ffffffff1660e01b815260040161185d939291906125b4565b602060405180830381865af415801561187a573d6000803e3d6000fd5b505050506040513d601f19601f8201168201806040525081019061189e91906125d7565b9050600080600080846001600160a01b0316630902f1ac6040518163ffffffff1660e01b8152600401606060405180830381865afa1580156118e4573d6000803e3d6000fd5b505050506040513d601f19601f8201168201806040525081019061190891906126ce565b506001600160701b031691506001600160701b03169150600080876001600160a01b03168a6001600160a01b031614611942578284611945565b83835b6040516370a0823160e01b81526001600160a01b038a8116600483015292945090925083918c16906370a0823190602401602060405180830381865afa158015611993573d6000803e3d6000fd5b505050506040513d601f19601f820116820180604052508101906119b791906123f3565b6119c19190612651565b95506119ce868383610561565b9450600093506119e59250600291508c9050612651565b88106119f15788611abd565b73__$5126938f6a39bbf3c803a682229eaf36ce$__636d91c0e27f0000000000000000000000000000000000000000000000000000000000000000888e8e611a3a8e600261266a565b818110611a4957611a4961257a565b9050602002016020810190611a5e9190612590565b6040518463ffffffff1660e01b8152600401611a7c939291906125b4565b602060405180830381865af4158015611a99573d6000803e3d6000fd5b505050506040513d601f19601f82011682018060405250810190611abd91906125d7565b9050600080866001600160a01b0316896001600160a01b031614611ae357836000611ae7565b6000845b6040805160008152602081019182905263022c0d9f60e01b90915291935091506001600160a01b0387169063022c0d9f90611b2b908590859088906024810161271e565b600060405180830381600087803b158015611b4557600080fd5b505af1158015611b59573d6000803e3d6000fd5b505050505050505050505050508080611b719061278a565b9150506116af565b50505050565b60405163e6a4390560e01b81526001600160a01b0387811660048301528681166024830152600091829182917f00000000000000000000000000000000000000000000000000000000000000009091169063e6a4390590604401602060405180830381865afa158015611bf6573d6000803e3d6000fd5b505050506040513d601f19601f82011682018060405250810190611c1a91906125d7565b90506001600160a01b038116611cc0576040516364e329cb60e11b81526001600160a01b038a8116600483015289811660248301527f0000000000000000000000000000000000000000000000000000000000000000169063c9c65396906044016020604051808303816000875af1158015611c9a573d6000803e3d6000fd5b505050506040513d601f19601f82011682018060405250810190611cbe91906125d7565b505b60008073__$5126938f6a39bbf3c803a682229eaf36ce$__63327494617f00000000000000000000000000000000000000000000000000000000000000008d8d6040518463ffffffff1660e01b8152600401611d1e939291906125b4565b6040805180830381865af4158015611d3a573d6000803e3d6000fd5b505050506040513d601f19601f82011682018060405250810190611d5e91906127a3565b91509150816000148015611d70575080155b15611d8057889450879350611f25565b604051632b58577b60e21b8152600481018a9052602481018390526044810182905260009073__$5126938f6a39bbf3c803a682229eaf36ce$__9063ad615dec90606401602060405180830381865af4158015611de1573d6000803e3d6000fd5b505050506040513d601f19601f82011682018060405250810190611e0591906123f3565b9050888111611e525786811015611e475760405162461bcd60e51b81526004016106b49060208082526004908201526319985a5b60e21b604082015260600190565b809450899550611f23565b604051632b58577b60e21b8152600481018a9052602481018490526044810183905273__$5126938f6a39bbf3c803a682229eaf36ce$__9063ad615dec90606401602060405180830381865af4158015611eb0573d6000803e3d6000fd5b505050506040513d601f19601f82011682018060405250810190611ed491906123f3565b955089861115611ee657611ee6611f33565b87861015611f1f5760405162461bcd60e51b81526004016106b49060208082526004908201526319985a5b60e21b604082015260600190565b8894505b505b505050965096945050505050565b634e487b7160e01b600052600160045260246000fd5b6001600160a01b0381168114611f5e57600080fd5b50565b60008060008060008060c08789031215611f7a57600080fd5b8635611f8581611f49565b95506020870135945060408701359350606087013592506080870135611faa81611f49565b8092505060a087013590509295509295509295565b600080600060608486031215611fd457600080fd5b505081359360208301359350604090920135919050565b60008083601f840112611ffd57600080fd5b50813567ffffffffffffffff81111561201557600080fd5b6020830191508360208260051b850101111561203057600080fd5b9250929050565b60008060008060008060a0878903121561205057600080fd5b8635955060208701359450604087013567ffffffffffffffff81111561207557600080fd5b61208189828a01611feb565b909550935050606087013561209581611f49565b80925050608087013590509295509295509295565b6020808252825182820181905260009190848201906040850190845b818110156120e2578351835292840192918401916001016120c6565b50909695505050505050565b60008060006040848603121561210357600080fd5b83359250602084013567ffffffffffffffff81111561212157600080fd5b61212d86828701611feb565b9497909650939450505050565b8015158114611f5e57600080fd5b803560ff8116811461215957600080fd5b919050565b60008060008060008060008060008060006101608c8e03121561218057600080fd5b8b3561218b81611f49565b9a5060208c013561219b81611f49565b995060408c0135985060608c0135975060808c0135965060a08c01356121c081611f49565b955060c08c0135945060e08c01356121d78161213a565b93506121e66101008d01612148565b92506101208c013591506101408c013590509295989b509295989b9093969950565b6000806000806000806000806000806101408b8d03121561222857600080fd5b8a3561223381611f49565b995060208b0135985060408b0135975060608b0135965060808b013561225881611f49565b955060a08b0135945060c08b013561226f8161213a565b935061227d60e08c01612148565b92506101008b013591506101208b013590509295989b9194979a5092959850565b6000806000806000608086880312156122b657600080fd5b85359450602086013567ffffffffffffffff8111156122d457600080fd5b6122e088828901611feb565b90955093505060408601356122f481611f49565b949793965091946060013592915050565b600080600080600080600060e0888a03121561232057600080fd5b873561232b81611f49565b9650602088013561233b81611f49565b955060408801359450606088013593506080880135925060a088013561236081611f49565b8092505060c0880135905092959891949750929550565b600080600080600080600080610100898b03121561239457600080fd5b883561239f81611f49565b975060208901356123af81611f49565b965060408901359550606089013594506080890135935060a0890135925060c08901356123db81611f49565b8092505060e089013590509295985092959890939650565b60006020828403121561240557600080fd5b5051919050565b6001600160a01b03858116825260208083018690526060604084018190528301849052600091859160808501845b8781101561246157843561244d81611f49565b84168252938201939082019060010161243a565b509998505050505050505050565b634e487b7160e01b600052604160045260246000fd5b6000602080838503121561249857600080fd5b825167ffffffffffffffff808211156124b057600080fd5b818501915085601f8301126124c457600080fd5b8151818111156124d6576124d661246f565b8060051b604051601f19603f830116810181811085821117156124fb576124fb61246f565b60405291825284820192508381018501918883111561251957600080fd5b938501935b828510156125375784518452938501939285019261251e565b98975050505050505050565b6020808252601e908201527f556e69737761705632526f7574657230323a74696d6520657870697265640000604082015260600190565b634e487b7160e01b600052603260045260246000fd5b6000602082840312156125a257600080fd5b81356125ad81611f49565b9392505050565b6001600160a01b0393841681529183166020830152909116604082015260600190565b6000602082840312156125e957600080fd5b81516125ad81611f49565b6001600160a01b039485168152928416602084015292166040820152606081019190915260800190565b60006020828403121561263057600080fd5b81516125ad8161213a565b634e487b7160e01b600052601160045260246000fd5b818103818111156126645761266461263b565b92915050565b808201808211156126645761266461263b565b6000806040838503121561269057600080fd5b825161269b81611f49565b60208401519092506126ac81611f49565b809150509250929050565b80516001600160701b038116811461215957600080fd5b6000806000606084860312156126e357600080fd5b6126ec846126b7565b92506126fa602085016126b7565b9150604084015163ffffffff8116811461271357600080fd5b809150509250925092565b84815260006020858184015260018060a01b038516604084015260806060840152835180608085015260005b818110156127665785810183015185820160a00152820161274a565b50600060a0828601015260a0601f19601f8301168501019250505095945050505050565b60006001820161279c5761279c61263b565b5060010190565b600080604083850312156127b657600080fd5b50508051602090910151909290915056fea2646970667358221220aa52c0c146023a21a32a124deb533ff1d0c9bf6f375f589a892548df79b9296664736f6c63430008100033",
  "linkReferences": {
    "contracts/UniswapRoute02.sol": {
      "TransferHelper": [
        {
          "length": 20,
          "start": 2108
        },
        {
          "length": 20,
          "start": 2719
        },
        {
          "length": 20,
          "start": 3494
        },
        {
          "length": 20,
          "start": 4844
        },
        {
          "length": 20,
          "start": 4971
        },
        {
          "length": 20,
          "start": 5518
        },
        {
          "length": 20,
          "start": 6025
        }
      ],
      "UniswapV2Library": [
        {
          "length": 20,
          "start": 1797
        },
        {
          "length": 20,
          "start": 1918
        },
        {
          "length": 20,
          "start": 2175
        },
        {
          "length": 20,
          "start": 2786
        },
        {
          "length": 20,
          "start": 3640
        },
        {
          "length": 20,
          "start": 3713
        },
        {
          "length": 20,
          "start": 4166
        },
        {
          "length": 20,
          "start": 4545
        },
        {
          "length": 20,
          "start": 4686
        },
        {
          "length": 20,
          "start": 5327
        },
        {
          "length": 20,
          "start": 6343
        },
        {
          "length": 20,
          "start": 6443
        },
        {
          "length": 20,
          "start": 7024
        },
        {
          "length": 20,
          "start": 7746
        },
        {
          "length": 20,
          "start": 7972
        },
        {
          "length": 20,
          "start": 8179
        }
      ]
    }
  },
  "deployedLinkReferences": {
    "contracts/UniswapRoute02.sol": {
      "TransferHelper": [
        {
          "length": 20,
          "start": 1727
        },
        {
          "length": 20,
          "start": 2338
        },
        {
          "length": 20,
          "start": 3113
        },
        {
          "length": 20,
          "start": 4463
        },
        {
          "length": 20,
          "start": 4590
        },
        {
          "length": 20,
          "start": 5137
        },
        {
          "length": 20,
          "start": 5644
        }
      ],
      "UniswapV2Library": [
        {
          "length": 20,
          "start": 1416
        },
        {
          "length": 20,
          "start": 1537
        },
        {
          "length": 20,
          "start": 1794
        },
        {
          "length": 20,
          "start": 2405
        },
        {
          "length": 20,
          "start": 3259
        },
        {
          "length": 20,
          "start": 3332
        },
        {
          "length": 20,
          "start": 3785
        },
        {
          "length": 20,
          "start": 4164
        },
        {
          "length": 20,
          "start": 4305
        },
        {
          "length": 20,
          "start": 4946
        },
        {
          "length": 20,
          "start": 5962
        },
        {
          "length": 20,
          "start": 6062
        },
        {
          "length": 20,
          "start": 6643
        },
        {
          "length": 20,
          "start": 7365
        },
        {
          "length": 20,
          "start": 7591
        },
        {
          "length": 20,
          "start": 7798
        }
      ]
    }
  }
}