{
  "_format": "hh-sol-artifact-1",
  "contractName": "UniswapV2Library",
  "sourceName": "contracts/UniswapRoute02.sol",
  "abi": [
    {
      "inputs": [
        {
          "internalType": "uint256",
          "name": "amountOut",
          "type": "uint256"
        },
        {
          "internalType": "uint256",
          "name": "reserveOut",
          "type": "uint256"
        },
        {
          "internalType": "uint256",
          "name": "reserveIn",
          "type": "uint256"
        }
      ],
      "name": "getAmountIn",
      "outputs": [
        {
          "internalType": "uint256",
          "name": "amountIn",
          "type": "uint256"
        }
      ],
      "stateMutability": "pure",
      "type": "function"
    },
    {
      "inputs": [
        {
          "internalType": "uint256",
          "name": "amountIn",
          "type": "uint256"
        },
        {
          "internalType": "uint256",
          "name": "reserveIn",
          "type": "uint256"
        },
        {
          "internalType": "uint256",
          "name": "reserveOut",
          "type": "uint256"
        }
      ],
      "name": "getAmountOut",
      "outputs": [
        {
          "internalType": "uint256",
          "name": "amountOut",
          "type": "uint256"
        }
      ],
      "stateMutability": "pure",
      "type": "function"
    },
    {
      "inputs": [
        {
          "internalType": "address",
          "name": "_factory",
          "type": "address"
        },
        {
          "internalType": "uint256",
          "name": "amountOut",
          "type": "uint256"
        },
        {
          "internalType": "address[]",
          "name": "path",
          "type": "address[]"
        }
      ],
      "name": "getAmountsIn",
      "outputs": [
        {
          "internalType": "uint256[]",
          "name": "amounts",
          "type": "uint256[]"
        }
      ],
      "stateMutability": "view",
      "type": "function"
    },
    {
      "inputs": [
        {
          "internalType": "address",
          "name": "_factory",
          "type": "address"
        },
        {
          "internalType": "uint256",
          "name": "amountIn",
          "type": "uint256"
        },
        {
          "internalType": "address[]",
          "name": "path",
          "type": "address[]"
        }
      ],
      "name": "getAmountsOut",
      "outputs": [
        {
          "internalType": "uint256[]",
          "name": "amounts",
          "type": "uint256[]"
        }
      ],
      "stateMutability": "view",
      "type": "function"
    },
    {
      "inputs": [
        {
          "internalType": "address",
          "name": "factory",
          "type": "address"
        },
        {
          "internalType": "address",
          "name": "token0",
          "type": "address"
        },
        {
          "internalType": "address",
          "name": "token1",
          "type": "address"
        }
      ],
      "name": "getReserves",
      "outputs": [
        {
          "internalType": "uint256",
          "name": "",
          "type": "uint256"
        },
        {
          "internalType": "uint256",
          "name": "",
          "type": "uint256"
        }
      ],
      "stateMutability": "view",
      "type": "function"
    },
    {
      "inputs": [
        {
          "internalType": "address",
          "name": "factory",
          "type": "address"
        },
        {
          "internalType": "address",
          "name": "token0",
          "type": "address"
        },
        {
          "internalType": "address",
          "name": "token1",
          "type": "address"
        }
      ],
      "name": "pairFor",
      "outputs": [
        {
          "internalType": "address",
          "name": "pair",
          "type": "address"
        }
      ],
      "stateMutability": "pure",
      "type": "function"
    },
    {
      "inputs": [
        {
          "internalType": "uint256",
          "name": "amountA",
          "type": "uint256"
        },
        {
          "internalType": "uint256",
          "name": "reserveA",
          "type": "uint256"
        },
        {
          "internalType": "uint256",
          "name": "reserveB",
          "type": "uint256"
        }
      ],
      "name": "quote",
      "outputs": [
        {
          "internalType": "uint256",
          "name": "amountB",
          "type": "uint256"
        }
      ],
      "stateMutability": "pure",
      "type": "function"
    },
    {
      "inputs": [
        {
          "internalType": "address",
          "name": "token0",
          "type": "address"
        },
        {
          "internalType": "address",
          "name": "token1",
          "type": "address"
        }
      ],
      "name": "sortTokens",
      "outputs": [
        {
          "internalType": "address",
          "name": "tokenA",
          "type": "address"
        },
        {
          "internalType": "address",
          "name": "tokenB",
          "type": "address"
        }
      ],
      "stateMutability": "pure",
      "type": "function"
    }
  ],
  "bytecode": "0x610e3961003a600b82828239805160001a60731461002d57634e487b7160e01b600052600060045260246000fd5b30600052607381538281f3fe73000000000000000000000000000000000000000030146080604052600436106100925760003560e01c80636d91c0e2116100655780636d91c0e21461013857806385f8c25914610163578063ad615dec14610176578063bb7b9c761461018957600080fd5b8063054d50d414610097578063192128b2146100bd57806332749461146100dd578063544caa5614610105575b600080fd5b6100aa6100a5366004610acd565b61019c565b6040519081526020015b60405180910390f35b6100d06100cb366004610b15565b61027f565b6040516100b49190610b9f565b6100f06100eb366004610be3565b610422565b604080519283526020830191909152016100b4565b610118610113366004610c26565b6104fe565b604080516001600160a01b039384168152929091166020830152016100b4565b61014b610146366004610be3565b6105df565b6040516001600160a01b0390911681526020016100b4565b6100aa610171366004610acd565b6106b8565b6100aa610184366004610acd565b610791565b6100d0610197366004610b15565b610839565b60008084116102065760405162461bcd60e51b815260206004820152602b60248201527f556e697377617056324c6962726172793a20494e53554646494349454e545f4960448201526a1394155517d05353d5539560aa1b60648201526084015b60405180910390fd5b6000831180156102165750600082115b6102325760405162461bcd60e51b81526004016101fd90610c59565b6000610240856103e56109b5565b9050600061024e82856109b5565b9050600061026883610262886103e86109b5565b90610a22565b90506102748183610cb7565b979650505050505050565b606060028210156102d25760405162461bcd60e51b815260206004820152601e60248201527f556e697377617056324c6962726172793a20494e56414c49445f50415448000060448201526064016101fd565b8167ffffffffffffffff8111156102eb576102eb610cd9565b604051908082528060200260200182016040528015610314578160200160208202803683370190505b5090508381610324600185610cef565b8151811061033457610334610d02565b6020908102919091010152600061034c600184610cef565b90505b8015610419576000806103b4888787610369600188610cef565b81811061037857610378610d02565b905060200201602081019061038d9190610d18565b88888781811061039f5761039f610d02565b90506020020160208101906100eb9190610d18565b915091506103dc8484815181106103cd576103cd610d02565b602002602001015182846106b8565b846103e8600186610cef565b815181106103f8576103f8610d02565b6020026020010181815250505050808061041190610d3a565b91505061034f565b50949350505050565b600080600061043185856104fe565b5090506000806104428888886105df565b6001600160a01b0316630902f1ac6040518163ffffffff1660e01b8152600401606060405180830381865afa15801561047f573d6000803e3d6000fd5b505050506040513d601f19601f820116820180604052508101906104a39190610d68565b5091509150866001600160a01b0316836001600160a01b0316146104da57806001600160701b0316826001600160701b03166104ef565b816001600160701b0316816001600160701b03165b94509450505050935093915050565b600080836001600160a01b0316836001600160a01b0316036105625760405162461bcd60e51b815260206004820152601860248201527f746f6b656e2073686f756c64206e6f742062652073616d65000000000000000060448201526064016101fd565b826001600160a01b0316846001600160a01b031610610582578284610585565b83835b90925090506001600160a01b0382166105d85760405162461bcd60e51b8152602060048201526015602482015274696e76616c696420746f6b656e206164647265737360581b60448201526064016101fd565b9250929050565b60008060006105ee85856104fe565b6040516bffffffffffffffffffffffff19606084811b8216602084015283901b16603482015291935091506000908790604801604051602081830303815290604052805190602001206040516020016106999291906001600160f81b0319815260609290921b6bffffffffffffffffffffffff1916600183015260158201527f958fd6f0a8d8b8e424e8328de68f015a344ea5ddf90f658f81b626c6d886ec1c603582015260550190565b6040516020818303038152906040528051906020012090506102748190565b600080841161071e5760405162461bcd60e51b815260206004820152602c60248201527f556e697377617056324c6962726172793a20494e53554646494349454e545f4f60448201526b155514155517d05353d5539560a21b60648201526084016101fd565b60008211801561072e5750600083115b61074a5760405162461bcd60e51b81526004016101fd90610c59565b60006107626103e861075c85886109b5565b906109b5565b905060006107766103e561075c8789610a77565b905061078760016102628385610cb7565b9695505050505050565b60008084116107f05760405162461bcd60e51b815260206004820152602560248201527f556e697377617056324c6962726172793a20494e53554646494349454e545f416044820152641353d5539560da1b60648201526084016101fd565b6000831180156108005750600082115b61081c5760405162461bcd60e51b81526004016101fd90610c59565b8261082785846109b5565b6108319190610cb7565b949350505050565b6060600282101561088c5760405162461bcd60e51b815260206004820152601e60248201527f556e697377617056324c6962726172793a20494e56414c49445f50415448000060448201526064016101fd565b8167ffffffffffffffff8111156108a5576108a5610cd9565b6040519080825280602002602001820160405280156108ce578160200160208202803683370190505b50905083816000815181106108e5576108e5610d02565b60200260200101818152505060005b6108ff600184610cef565b811015610419576000806109508887878681811061091f5761091f610d02565b90506020020160208101906109349190610d18565b8888610941886001610db8565b81811061039f5761039f610d02565b9150915061097884848151811061096957610969610d02565b6020026020010151838361019c565b84610984856001610db8565b8151811061099457610994610d02565b602002602001018181525050505080806109ad90610dcb565b9150506108f4565b60008115806109d9575082826109cb8183610de4565b92506109d79083610cb7565b145b610a1c5760405162461bcd60e51b815260206004820152601460248201527364732d6d6174682d6d756c2d6f766572666c6f7760601b60448201526064016101fd565b92915050565b600082610a2f8382610db8565b9150811015610a1c5760405162461bcd60e51b815260206004820152601460248201527364732d6d6174682d6164642d6f766572666c6f7760601b60448201526064016101fd565b600082610a848382610cef565b9150811115610a1c5760405162461bcd60e51b815260206004820152601560248201527464732d6d6174682d7375622d756e646572666c6f7760581b60448201526064016101fd565b600080600060608486031215610ae257600080fd5b505081359360208301359350604090920135919050565b80356001600160a01b0381168114610b1057600080fd5b919050565b60008060008060608587031215610b2b57600080fd5b610b3485610af9565b935060208501359250604085013567ffffffffffffffff80821115610b5857600080fd5b818701915087601f830112610b6c57600080fd5b813581811115610b7b57600080fd5b8860208260051b8501011115610b9057600080fd5b95989497505060200194505050565b6020808252825182820181905260009190848201906040850190845b81811015610bd757835183529284019291840191600101610bbb565b50909695505050505050565b600080600060608486031215610bf857600080fd5b610c0184610af9565b9250610c0f60208501610af9565b9150610c1d60408501610af9565b90509250925092565b60008060408385031215610c3957600080fd5b610c4283610af9565b9150610c5060208401610af9565b90509250929050565b60208082526028908201527f556e697377617056324c6962726172793a20494e53554646494349454e545f4c604082015267495155494449545960c01b606082015260800190565b634e487b7160e01b600052601160045260246000fd5b600082610cd457634e487b7160e01b600052601260045260246000fd5b500490565b634e487b7160e01b600052604160045260246000fd5b81810381811115610a1c57610a1c610ca1565b634e487b7160e01b600052603260045260246000fd5b600060208284031215610d2a57600080fd5b610d3382610af9565b9392505050565b600081610d4957610d49610ca1565b506000190190565b80516001600160701b0381168114610b1057600080fd5b600080600060608486031215610d7d57600080fd5b610d8684610d51565b9250610d9460208501610d51565b9150604084015163ffffffff81168114610dad57600080fd5b809150509250925092565b80820180821115610a1c57610a1c610ca1565b600060018201610ddd57610ddd610ca1565b5060010190565b6000816000190483118215151615610dfe57610dfe610ca1565b50029056fea2646970667358221220fec38078daa7080afcfb942ebb324e9c6178a4349eb50784fde4978fcb40185964736f6c63430008100033",
  "linkReferences": {},
  "deployedLinkReferences": {}
}