{
  "_format": "hh-sol-artifact-1",
  "contractName": "MasterChef",
  "sourceName": "contracts/MasterChef.sol",
  "abi": [
    {
      "inputs": [
        {
          "internalType": "contract SushiToken",
          "name": "_sushi",
          "type": "address"
        },
        {
          "internalType": "address",
          "name": "_devaddr",
          "type": "address"
        },
        {
          "internalType": "uint256",
          "name": "_sushiPerBlock",
          "type": "uint256"
        },
        {
          "internalType": "uint256",
          "name": "_startBlock",
          "type": "uint256"
        },
        {
          "internalType": "uint256",
          "name": "_bonusEndBlock",
          "type": "uint256"
        }
      ],
      "stateMutability": "nonpayable",
      "type": "constructor"
    },
    {
      "anonymous": false,
      "inputs": [
        {
          "indexed": true,
          "internalType": "address",
          "name": "user",
          "type": "address"
        },
        {
          "indexed": true,
          "internalType": "uint256",
          "name": "pid",
          "type": "uint256"
        },
        {
          "indexed": false,
          "internalType": "uint256",
          "name": "amount",
          "type": "uint256"
        }
      ],
      "name": "Deposit",
      "type": "event"
    },
    {
      "anonymous": false,
      "inputs": [
        {
          "indexed": true,
          "internalType": "address",
          "name": "user",
          "type": "address"
        },
        {
          "indexed": true,
          "internalType": "uint256",
          "name": "pid",
          "type": "uint256"
        },
        {
          "indexed": false,
          "internalType": "uint256",
          "name": "amount",
          "type": "uint256"
        }
      ],
      "name": "EmergencyWithdraw",
      "type": "event"
    },
    {
      "anonymous": false,
      "inputs": [
        {
          "indexed": true,
          "internalType": "address",
          "name": "previousOwner",
          "type": "address"
        },
        {
          "indexed": true,
          "internalType": "address",
          "name": "newOwner",
          "type": "address"
        }
      ],
      "name": "OwnershipTransferred",
      "type": "event"
    },
    {
      "anonymous": false,
      "inputs": [
        {
          "indexed": true,
          "internalType": "address",
          "name": "user",
          "type": "address"
        },
        {
          "indexed": true,
          "internalType": "uint256",
          "name": "pid",
          "type": "uint256"
        },
        {
          "indexed": false,
          "internalType": "uint256",
          "name": "amount",
          "type": "uint256"
        }
      ],
      "name": "Withdraw",
      "type": "event"
    },
    {
      "inputs": [],
      "name": "BONUS_MULTIPLIER",
      "outputs": [
        {
          "internalType": "uint256",
          "name": "",
          "type": "uint256"
        }
      ],
      "stateMutability": "view",
      "type": "function"
    },
    {
      "inputs": [
        {
          "internalType": "uint256",
          "name": "_allocPoint",
          "type": "uint256"
        },
        {
          "internalType": "contract IERC20",
          "name": "_lpToken",
          "type": "address"
        },
        {
          "internalType": "bool",
          "name": "_withUpdate",
          "type": "bool"
        }
      ],
      "name": "add",
      "outputs": [],
      "stateMutability": "nonpayable",
      "type": "function"
    },
    {
      "inputs": [],
      "name": "bonusEndBlock",
      "outputs": [
        {
          "internalType": "uint256",
          "name": "",
          "type": "uint256"
        }
      ],
      "stateMutability": "view",
      "type": "function"
    },
    {
      "inputs": [
        {
          "internalType": "uint256",
          "name": "_pid",
          "type": "uint256"
        },
        {
          "internalType": "uint256",
          "name": "_amount",
          "type": "uint256"
        }
      ],
      "name": "deposit",
      "outputs": [],
      "stateMutability": "nonpayable",
      "type": "function"
    },
    {
      "inputs": [
        {
          "internalType": "address",
          "name": "_devaddr",
          "type": "address"
        }
      ],
      "name": "dev",
      "outputs": [],
      "stateMutability": "nonpayable",
      "type": "function"
    },
    {
      "inputs": [],
      "name": "devaddr",
      "outputs": [
        {
          "internalType": "address",
          "name": "",
          "type": "address"
        }
      ],
      "stateMutability": "view",
      "type": "function"
    },
    {
      "inputs": [
        {
          "internalType": "uint256",
          "name": "_pid",
          "type": "uint256"
        }
      ],
      "name": "emergencyWithdraw",
      "outputs": [],
      "stateMutability": "nonpayable",
      "type": "function"
    },
    {
      "inputs": [
        {
          "internalType": "uint256",
          "name": "_from",
          "type": "uint256"
        },
        {
          "internalType": "uint256",
          "name": "_to",
          "type": "uint256"
        }
      ],
      "name": "getMultiplier",
      "outputs": [
        {
          "internalType": "uint256",
          "name": "",
          "type": "uint256"
        }
      ],
      "stateMutability": "view",
      "type": "function"
    },
    {
      "inputs": [],
      "name": "massUpdatePools",
      "outputs": [],
      "stateMutability": "nonpayable",
      "type": "function"
    },
    {
      "inputs": [
        {
          "internalType": "uint256",
          "name": "_pid",
          "type": "uint256"
        }
      ],
      "name": "migrate",
      "outputs": [],
      "stateMutability": "nonpayable",
      "type": "function"
    },
    {
      "inputs": [],
      "name": "migrator",
      "outputs": [
        {
          "internalType": "contract IMigratorChef",
          "name": "",
          "type": "address"
        }
      ],
      "stateMutability": "view",
      "type": "function"
    },
    {
      "inputs": [],
      "name": "owner",
      "outputs": [
        {
          "internalType": "address",
          "name": "",
          "type": "address"
        }
      ],
      "stateMutability": "view",
      "type": "function"
    },
    {
      "inputs": [
        {
          "internalType": "uint256",
          "name": "_pid",
          "type": "uint256"
        },
        {
          "internalType": "address",
          "name": "_user",
          "type": "address"
        }
      ],
      "name": "pendingSushi",
      "outputs": [
        {
          "internalType": "uint256",
          "name": "",
          "type": "uint256"
        }
      ],
      "stateMutability": "view",
      "type": "function"
    },
    {
      "inputs": [
        {
          "internalType": "uint256",
          "name": "",
          "type": "uint256"
        }
      ],
      "name": "poolInfo",
      "outputs": [
        {
          "internalType": "contract IERC20",
          "name": "lpToken",
          "type": "address"
        },
        {
          "internalType": "uint256",
          "name": "allocPoint",
          "type": "uint256"
        },
        {
          "internalType": "uint256",
          "name": "lastRewardBlock",
          "type": "uint256"
        },
        {
          "internalType": "uint256",
          "name": "accSushiPerShare",
          "type": "uint256"
        }
      ],
      "stateMutability": "view",
      "type": "function"
    },
    {
      "inputs": [],
      "name": "poolLength",
      "outputs": [
        {
          "internalType": "uint256",
          "name": "",
          "type": "uint256"
        }
      ],
      "stateMutability": "view",
      "type": "function"
    },
    {
      "inputs": [],
      "name": "renounceOwnership",
      "outputs": [],
      "stateMutability": "nonpayable",
      "type": "function"
    },
    {
      "inputs": [
        {
          "internalType": "uint256",
          "name": "_pid",
          "type": "uint256"
        },
        {
          "internalType": "uint256",
          "name": "_allocPoint",
          "type": "uint256"
        },
        {
          "internalType": "bool",
          "name": "_withUpdate",
          "type": "bool"
        }
      ],
      "name": "set",
      "outputs": [],
      "stateMutability": "nonpayable",
      "type": "function"
    },
    {
      "inputs": [
        {
          "internalType": "contract IMigratorChef",
          "name": "_migrator",
          "type": "address"
        }
      ],
      "name": "setMigrator",
      "outputs": [],
      "stateMutability": "nonpayable",
      "type": "function"
    },
    {
      "inputs": [],
      "name": "startBlock",
      "outputs": [
        {
          "internalType": "uint256",
          "name": "",
          "type": "uint256"
        }
      ],
      "stateMutability": "view",
      "type": "function"
    },
    {
      "inputs": [],
      "name": "sushi",
      "outputs": [
        {
          "internalType": "contract SushiToken",
          "name": "",
          "type": "address"
        }
      ],
      "stateMutability": "view",
      "type": "function"
    },
    {
      "inputs": [],
      "name": "sushiPerBlock",
      "outputs": [
        {
          "internalType": "uint256",
          "name": "",
          "type": "uint256"
        }
      ],
      "stateMutability": "view",
      "type": "function"
    },
    {
      "inputs": [],
      "name": "totalAllocPoint",
      "outputs": [
        {
          "internalType": "uint256",
          "name": "",
          "type": "uint256"
        }
      ],
      "stateMutability": "view",
      "type": "function"
    },
    {
      "inputs": [
        {
          "internalType": "address",
          "name": "newOwner",
          "type": "address"
        }
      ],
      "name": "transferOwnership",
      "outputs": [],
      "stateMutability": "nonpayable",
      "type": "function"
    },
    {
      "inputs": [
        {
          "internalType": "uint256",
          "name": "_pid",
          "type": "uint256"
        }
      ],
      "name": "updatePool",
      "outputs": [],
      "stateMutability": "nonpayable",
      "type": "function"
    },
    {
      "inputs": [
        {
          "internalType": "uint256",
          "name": "",
          "type": "uint256"
        },
        {
          "internalType": "address",
          "name": "",
          "type": "address"
        }
      ],
      "name": "userInfo",
      "outputs": [
        {
          "internalType": "uint256",
          "name": "amount",
          "type": "uint256"
        },
        {
          "internalType": "uint256",
          "name": "rewardDebt",
          "type": "uint256"
        }
      ],
      "stateMutability": "view",
      "type": "function"
    },
    {
      "inputs": [
        {
          "internalType": "uint256",
          "name": "_pid",
          "type": "uint256"
        },
        {
          "internalType": "uint256",
          "name": "_amount",
          "type": "uint256"
        }
      ],
      "name": "withdraw",
      "outputs": [],
      "stateMutability": "nonpayable",
      "type": "function"
    }
  ],
  "bytecode": "0x608060405260006008553480156200001657600080fd5b506040516200568b3803806200568b83398181016040528101906200003c9190620004f3565b6200005c620000506200033a60201b60201c565b6200034260201b60201c565b620000907f75c8a466387699da7588c0d402863774e3544ecfd333a8c80d58652a70691a5a60001b6200040660201b60201c565b620000c47f42ce4358a2137a126abd0606eb98c9ba1ec84aa5450aad17089acc4d6aecc68b60001b6200040660201b60201c565b620000f87fac173004a562f298f047650940da6e10fad1dcd6b1dccc29c2bd1ec9929d317760001b6200040660201b60201c565b84600160006101000a81548173ffffffffffffffffffffffffffffffffffffffff021916908373ffffffffffffffffffffffffffffffffffffffff1602179055506200016d7f3ea00ee0ce1e0215f657ab04ec437418befb541462724d65f46b61212280cdc560001b6200040660201b60201c565b620001a17fdcb9dcc56c6cd11c40c65529d7c2ed19366e519e945d19136d5903d23ffa11a760001b6200040660201b60201c565b83600260006101000a81548173ffffffffffffffffffffffffffffffffffffffff021916908373ffffffffffffffffffffffffffffffffffffffff160217905550620002167fb31e888eff93a98e58a60ad74f3e6f2ae606524398221ca870dfd7cef79786ee60001b6200040660201b60201c565b6200024a7f94c3ce3ac91fed8b0cfe7863314a3124dfd1b9ddd7a75294777205f6b6f4773160001b6200040660201b60201c565b82600481905550620002857f9e118fc69b5141a0b27c69ab2db67b3fc6e8f28af3d4c0a54980f01e7b31635b60001b6200040660201b60201c565b620002b97f5f6b08a4fb612b285b231cbc8302a2726d9871de4f1bbc8be2cf156a2f2516f460001b6200040660201b60201c565b80600381905550620002f47f1bde6051e1574ee05299d90215e486e32d2c144deb0afe11ddd3ba8c24c19e2360001b6200040660201b60201c565b620003287f121536d3fc6e87379a1bc8d340f2cf89f4963e284a236d8511591b6fd328ccf060001b6200040660201b60201c565b8160098190555050505050506200057b565b600033905090565b60008060009054906101000a900473ffffffffffffffffffffffffffffffffffffffff169050816000806101000a81548173ffffffffffffffffffffffffffffffffffffffff021916908373ffffffffffffffffffffffffffffffffffffffff1602179055508173ffffffffffffffffffffffffffffffffffffffff168173ffffffffffffffffffffffffffffffffffffffff167f8be0079c531659141344cd1fd0a4f28419497f9722a3daafe3b4186f6b6457e060405160405180910390a35050565b50565b600080fd5b600073ffffffffffffffffffffffffffffffffffffffff82169050919050565b60006200043b826200040e565b9050919050565b60006200044f826200042e565b9050919050565b620004618162000442565b81146200046d57600080fd5b50565b600081519050620004818162000456565b92915050565b62000492816200042e565b81146200049e57600080fd5b50565b600081519050620004b28162000487565b92915050565b6000819050919050565b620004cd81620004b8565b8114620004d957600080fd5b50565b600081519050620004ed81620004c2565b92915050565b600080600080600060a0868803121562000512576200051162000409565b5b6000620005228882890162000470565b95505060206200053588828901620004a1565b94505060406200054888828901620004dc565b93505060606200055b88828901620004dc565b92505060806200056e88828901620004dc565b9150509295509295909350565b615100806200058b6000396000f3fe608060405234801561001057600080fd5b506004361061018e5760003560e01c8063630b5ba1116100de5780638da5cb5b11610097578063b0bcf42a11610071578063b0bcf42a1461043b578063d49e77cd14610459578063e2bbb15814610477578063f2fde38b146104935761018e565b80638da5cb5b146103bc5780638dbb1e3a146103da57806393f1a40b1461040a5761018e565b8063630b5ba11461033457806364482f791461033e578063715018a61461035a5780637cd07e47146103645780638aa28550146103825780638d88a90e146103a05761018e565b80631eaaa0451161014b578063454b060811610125578063454b0608146102c257806348cd4cb1146102de57806351eb05a6146102fc5780635312ea8e146103185761018e565b80631eaaa0451461026e57806323cf31181461028a578063441a3e70146102a65761018e565b8063081e3eda146101935780630a087903146101b15780631526fe27146101cf57806317caf6f114610202578063195426ec146102205780631aed655314610250575b600080fd5b61019b6104af565b6040516101a8919061433e565b60405180910390f35b6101b9610540565b6040516101c691906143d8565b60405180910390f35b6101e960048036038101906101e49190614424565b610566565b6040516101f99493929190614472565b60405180910390f35b61020a6105c6565b604051610217919061433e565b60405180910390f35b61023a600480360381019061023591906144f5565b6105cc565b604051610247919061433e565b60405180910390f35b610258610b93565b604051610265919061433e565b60405180910390f35b610288600480360381019061028391906145ab565b610b99565b005b6102a4600480360381019061029f919061463c565b610ef3565b005b6102c060048036038101906102bb9190614669565b610fc3565b005b6102dc60048036038101906102d79190614424565b6115d5565b005b6102e6611cc2565b6040516102f3919061433e565b60405180910390f35b61031660048036038101906103119190614424565b611cc8565b005b610332600480360381019061032d9190614424565b61250e565b005b61033c612883565b005b610358600480360381019061035391906146a9565b6129ea565b005b610362612c6b565b005b61036c612c7f565b604051610379919061471d565b60405180910390f35b61038a612ca5565b604051610397919061433e565b60405180910390f35b6103ba60048036038101906103b59190614738565b612caa565b005b6103c4612eb2565b6040516103d19190614774565b60405180910390f35b6103f460048036038101906103ef9190614669565b612edb565b604051610401919061433e565b60405180910390f35b610424600480360381019061041f91906144f5565b6131f5565b60405161043292919061478f565b60405180910390f35b610443613226565b604051610450919061433e565b60405180910390f35b61046161322c565b60405161046e9190614774565b60405180910390f35b610491600480360381019061048c9190614669565b613252565b005b6104ad60048036038101906104a89190614738565b613832565b005b60006104dd7f03def5ec9e96ccf1484a5bee4de77083837db9369da834a27517d92df5049efb60001b6138b5565b6105097fe5a2279971ea9eb2bdd6b48124942ea0377588f931d88a0da169c5c2688b8acc60001b6138b5565b6105357fcf28fe7d4a6e898e05ffd6929ba77e6bdd0bb1c294153cf367354bcd88c3cbd160001b6138b5565b600680549050905090565b600160009054906101000a900473ffffffffffffffffffffffffffffffffffffffff1681565b6006818154811061057657600080fd5b90600052602060002090600402016000915090508060000160009054906101000a900473ffffffffffffffffffffffffffffffffffffffff16908060010154908060020154908060030154905084565b60085481565b60006105fa7f64938204850f10804019b92528ce245faec1449cb5d8552e20ae5ec595d59b8960001b6138b5565b6106267f58ef8ea8101010dfe6fafd578678390ed4f58d5367afd135852751364057542360001b6138b5565b6106527fb0a4307f7997a533dbf417703fc5f73ea88cd4316cb53920b042065da754a81760001b6138b5565b600060068481548110610668576106676147b8565b5b906000526020600020906004020190506106a47fc548421022c8cc50e348fab0e7a7d044fc07f8fa1eeef648a507ec654911811a60001b6138b5565b6106d07fcfe914f77e7035da69a62466357d63dabc59a1572a418788010f475407e6e8f760001b6138b5565b60006007600086815260200190815260200160002060008573ffffffffffffffffffffffffffffffffffffffff1673ffffffffffffffffffffffffffffffffffffffff16815260200190815260200160002090506107507feefaaf7655f0579edf9f35b49d9d111d6e8f18b7da4f44b828c47c687c27700c60001b6138b5565b61077c7fbeb7824146a10285316dbd2406a12c85b3ddce9d4473a6fe35ee3af1a4279ee360001b6138b5565b6000826003015490506107b17f50e3309251dda6edac949c1b6c8f3ff9ad9b1be606c3c470c7c2f5e199b921de60001b6138b5565b6107dd7fe56faaef5327073a1701e03ef70efd9d6c28b5c6c344650d0f1e77e82a3b169860001b6138b5565b60008360000160009054906101000a900473ffffffffffffffffffffffffffffffffffffffff1673ffffffffffffffffffffffffffffffffffffffff166370a08231306040518263ffffffff1660e01b815260040161083c9190614774565b602060405180830381865afa158015610859573d6000803e3d6000fd5b505050506040513d601f19601f8201168201806040525081019061087d91906147fc565b90506108ab7f258d6374c791911f9c965b1ca925e5c0cfe2b9703c7234b2b63db709344e41f660001b6138b5565b6108d77f4db940b9b43f9c884a57ff2dc4fcde02307696ab969df4efa9e392ac3f997caf60001b6138b5565b8360020154431180156108eb575060008114155b15610abe5761091c7ff84852e51d8b867fcdc860a56904a95a2ba089900b6899ecb9d8471e374e143c60001b6138b5565b6109487f15d4dd32bcc3a7b59e7ecbce18a2c583bd139641d9d0645690a977a84a122f2c60001b6138b5565b6109747f5150dca437b84570d69e68ecf57d76848bfb3a289621ba78514059225277e00d60001b6138b5565b6000610984856002015443612edb565b90506109b27f62c310d2ba82560f30cbe59fef07e0bdf26d051c89c6337c72048be6f472dc0a60001b6138b5565b6109de7f1433ab7c9b622e7b833cf4d6ff9b4926ffe18cb524a36a05673f642c9b76aa8560001b6138b5565b6000610a1f600854610a118860010154610a03600454876138b890919063ffffffff16565b6138b890919063ffffffff16565b6138ce90919063ffffffff16565b9050610a4d7f1e2562da7cc92f1d96b93023c6f5b4d277c84a710ff30a24420244e27b5e31a160001b6138b5565b610a797f5b9da309849ea1935ac96bcac111b01011fb6326a18b6ad0c752b199800b81e260001b6138b5565b610ab5610aa684610a9864e8d4a51000856138b890919063ffffffff16565b6138ce90919063ffffffff16565b856138e490919063ffffffff16565b93505050610aeb565b610aea7fc8d74a5aabf7149e578c16e508546022a1c174b27c3ff1e24bf07f92bbe0da2260001b6138b5565b5b610b177f6996c8db30e391bc7071bd9d2383b43a78adc082e66ed50c7abde4a1f918372960001b6138b5565b610b437f3a9d73a0ace99d32f011f02bac4893946854bc0a2ecd9eed0abb6bb4d9aa011860001b6138b5565b610b878360010154610b7964e8d4a51000610b6b8688600001546138b890919063ffffffff16565b6138ce90919063ffffffff16565b6138fa90919063ffffffff16565b94505050505092915050565b60035481565b610ba1613910565b610bcd7f8a3b9ddffaed4bade32e47947dbb2416875f5fbb501d89b790c5040d3f90f0fc60001b6138b5565b610bf97f87d480c3fb66b3768907e0f95a62195685f517d0e25c4171d10c337f2df9b77a60001b6138b5565b610c257f190e00f0d803c8ec4efae38b497cee3a445350d7f402280673a37e738e84edc660001b6138b5565b8015610cbc57610c577fb798feaef86a5c4febd9a76f91e900ca96ed66bf2dabb6047a0801f99dabe68160001b6138b5565b610c837f9d3aec22a1332462d43b2f6491c2393bdcffd1fd435134523a4494ad18db7e6a60001b6138b5565b610caf7fbd5fdba82821083c71b5bfe47350d5afab9afd6ce8946f1420e7a8ac57a8c31d60001b6138b5565b610cb7612883565b610ce9565b610ce87fab50bc6bea8631d28cf35a5594449e7aab62923df4f011f49e5053ebf82ec54060001b6138b5565b5b610d157f723c589d1c6343821a7376d480f9a620fe54c782ddee2661b31272ab7d61db3f60001b6138b5565b610d417f6c1c0829dd2cf901603a88271ceb097d48342115998aa60bf0619551af03f0b260001b6138b5565b60006009544311610d5457600954610d56565b435b9050610d847f0b5c90bda889914d8540e7cf32d07f90276f4aed8e6b30c5ad1ca412f4ebcc5e60001b6138b5565b610db07fc3fa847b929c24922b959e38d7d37ca8a9709aa47665060edf1ef16cc52e22cf60001b6138b5565b610dc5846008546138e490919063ffffffff16565b600881905550610df77fcd7831c879aee5dc9ce7c23ac2380a67ce9097dec572795ec14f3beff8d9997860001b6138b5565b610e237fc0afe48dd67c71ad206ac89e826cadc16c6c5b8a8a6e8fee2dfb043fc08b587c60001b6138b5565b600660405180608001604052808573ffffffffffffffffffffffffffffffffffffffff1681526020018681526020018381526020016000815250908060018154018082558091505060019003906000526020600020906004020160009091909190915060008201518160000160006101000a81548173ffffffffffffffffffffffffffffffffffffffff021916908373ffffffffffffffffffffffffffffffffffffffff160217905550602082015181600101556040820151816002015560608201518160030155505050505050565b610efb613910565b610f277fd1130a85f961f3e10c69f0051d4041f98dc69fee5218cc1562b60ed146c201d060001b6138b5565b610f537f01ff5b4bb34d162d323463c5f6b815c7fe70b6dfafe88cde80d4d2dc52ce757e60001b6138b5565b610f7f7f67ce04cfff9ef5c48c0da099511ca9b929b22a671daeee60aac473a2353bc2da60001b6138b5565b80600560006101000a81548173ffffffffffffffffffffffffffffffffffffffff021916908373ffffffffffffffffffffffffffffffffffffffff16021790555050565b610fef7f3009979a3aa81c243e3f0d48d77d9458e305113033cdc990c1a1e35c442dde2460001b6138b5565b61101b7faf8439b3de4db3805b9141ab2d796e935e545ead853bcac6e50e9d642740b8d860001b6138b5565b6110477f4a328ab567d5b0868e87eca0e15227c2825d359397432ee6b8cb6eeaa31760a960001b6138b5565b60006006838154811061105d5761105c6147b8565b5b906000526020600020906004020190506110997fb98e6e0071976cc3d46e7d55717c2280d71f68ce35b6d298399aa3da55b1887a60001b6138b5565b6110c57f71f51012a1eb042509fe471b58891475972aefbf408bea0445db2aee5918224460001b6138b5565b60006007600085815260200190815260200160002060003373ffffffffffffffffffffffffffffffffffffffff1673ffffffffffffffffffffffffffffffffffffffff16815260200190815260200160002090506111457f326a1f6ea70e4e63af6853ec8f3f683aab21e0ef46abe3b157fc21ce7aa3657860001b6138b5565b6111717fa4b43dc58490d2616dbd62c26b12e92a41657ae8d42be4923f280684d5747ebc60001b6138b5565b61119d7feead1366a95583dcea5d0c9997d35d42ad7116ef833ec609650b28a25d3030f060001b6138b5565b82816000015410156111e4576040517f08c379a00000000000000000000000000000000000000000000000000000000081526004016111db90614886565b60405180910390fd5b6112107fe2c7a3fe98e2feee099407ccff6987351c976a1c37276ae5fbef5c4fe28fa55b60001b6138b5565b61123c7fc87e5de9cd7c70b2cda30c6171a52c83195c7dd58992bc1a0bf0bead768f089460001b6138b5565b6112687ff63fd7b07421431b69ac17cb9a627876c3662265cf6fa3ccaae9cd827861274b60001b6138b5565b61127184611cc8565b61129d7f407783ad46a9f5cdec32ad7ca9b65e00f731586782e213e256c7cf35995d0b9060001b6138b5565b6112c97fe54604525ec0448a98d84bafb951581078056e538746c685b80fd248fc66123d60001b6138b5565b6000611313826001015461130564e8d4a510006112f7876003015487600001546138b890919063ffffffff16565b6138ce90919063ffffffff16565b6138fa90919063ffffffff16565b90506113417ff7bb7b0cea08a84141a18471d755db2fb71e0a5197ebe853fe755e1bcae5adf060001b6138b5565b61136d7fcd08a5b1badab64eec23225f8785589def0003310fa2465377efddb3c2511cf860001b6138b5565b611377338261398e565b6113a37ffc45e961a5fa0ab443f620a7342e395f3f84688d485ac7d575e267012776b6a860001b6138b5565b6113cf7ffd01ccd01f416a37bfd86267c792ed034948363499f2dd4cab83e8cc4e018eef60001b6138b5565b6113e68483600001546138fa90919063ffffffff16565b826000018190555061141a7fd96801bbfe4d33ce44531c9d3aea2a85065eae13deb31945cfc2ef5880e83f1260001b6138b5565b6114467fa979c0b41bdc582cda6fcc29266bd68fcf0ac795a58f5a663bdac1898f721fd260001b6138b5565b61147864e8d4a5100061146a856003015485600001546138b890919063ffffffff16565b6138ce90919063ffffffff16565b82600101819055506114ac7fc5aca6b0a64a186b25c003539cf40e8a5d754a698006ab3db1b2b4231ac4591660001b6138b5565b6114d87fa079090a346f7ed83409cf3aaf22cd7b4274e94014b27203839ef538e69f382160001b6138b5565b61152733858560000160009054906101000a900473ffffffffffffffffffffffffffffffffffffffff1673ffffffffffffffffffffffffffffffffffffffff16613d679092919063ffffffff16565b6115537f66a9140b69f665e0ca23c5020a77327c6c0b2c4ae5026fab4a3347e4e13e84c760001b6138b5565b61157f7f8a65e5c33fd71a15adcd104a9610bb57289d179b388eb9373b0f5a9cf96b4b5860001b6138b5565b843373ffffffffffffffffffffffffffffffffffffffff167ff279e6a1f5e320cca91135676d9cb6e44ca8a08c0b88342bcdb1144f6511b568866040516115c6919061433e565b60405180910390a35050505050565b6116017fdb585795b626e339e819becebf9473703c8cdb6d7026014454b5c07b4423a4af60001b6138b5565b61162d7f557ab5ad4b9830bc83ba6dba80a93520d1cc90a52c5a686003af3c660450d1f760001b6138b5565b6116597f17541b812983b849c64fa2b44048ea27ebd3bd57ae3e24085c16ee7a31cdc02f60001b6138b5565b6116847ec64996b0049ab7b7203517d3b9c79edb2bfd97813353b896b18b1bf04af4e260001b6138b5565b600073ffffffffffffffffffffffffffffffffffffffff16600560009054906101000a900473ffffffffffffffffffffffffffffffffffffffff1673ffffffffffffffffffffffffffffffffffffffff1603611715576040517f08c379a000000000000000000000000000000000000000000000000000000000815260040161170c906148f2565b60405180910390fd5b6117417fbe9faa214c3c0559b9a67cdffc1e33f01c5262017d1035dcccde01e6d245698960001b6138b5565b61176d7f5454a068c40ae4852dac628f307192e32bf502fb507f51796da3ab254b7055d460001b6138b5565b6117997f4a114ef1cd24abeca17cbe03238ab67350da25518046429db91f336871f6d81360001b6138b5565b6000600682815481106117af576117ae6147b8565b5b906000526020600020906004020190506117eb7f4c0398624743cfbfb3d87ce67e5a92ef2c19a3d19f73b87e9708d6fd7197478a60001b6138b5565b6118177f880dffe1bf788ae87c89118c93f34549eb5dc6ef0d7eb03aed42cb56dcb5b02e60001b6138b5565b60008160000160009054906101000a900473ffffffffffffffffffffffffffffffffffffffff16905061186c7fb21256796518f41c20ca4fdbec52b8d5cd1ff9e4ac2315aba490fed39b4af43060001b6138b5565b6118987ff1add48f39fe0aa551cb4e5ad77a5c1532bbc5cee0d04b8b371b6462fd00cf6460001b6138b5565b60008173ffffffffffffffffffffffffffffffffffffffff166370a08231306040518263ffffffff1660e01b81526004016118d39190614774565b602060405180830381865afa1580156118f0573d6000803e3d6000fd5b505050506040513d601f19601f8201168201806040525081019061191491906147fc565b90506119427f51dfbc4b27d42fdacad9dfa985f2d4578cef4d4c083b5d173f36029864c6c3b060001b6138b5565b61196e7fd4f1ac75775738116320044b51ee694b07ea738af23a1a7ac5551b687ef79ca660001b6138b5565b6119bb600560009054906101000a900473ffffffffffffffffffffffffffffffffffffffff16828473ffffffffffffffffffffffffffffffffffffffff16613ded9092919063ffffffff16565b6119e77fe1200d144e4a5a191dbceed229092996d52e19ac584f92c2692953f8f2048f0660001b6138b5565b611a137fcd4d11c1bf8b80922944eff7cb95495eb67218f692379d641694d639005ce4ab60001b6138b5565b6000600560009054906101000a900473ffffffffffffffffffffffffffffffffffffffff1673ffffffffffffffffffffffffffffffffffffffff1663ce5494bb846040518263ffffffff1660e01b8152600401611a709190614912565b6020604051808303816000875af1158015611a8f573d6000803e3d6000fd5b505050506040513d601f19601f82011682018060405250810190611ab39190614942565b9050611ae17f8731d51fbe2b52b0bc7c7683218d32ebc99ac487874d55d42f64f516a0cf5d9660001b6138b5565b611b0d7ff61154e2eaaf9782e7de08ec4ac57a5a056d863a5010ad4741bf2d019c9c711f60001b6138b5565b611b397f90b2e8976dbe42abd2a00e39e319aff4a0a60c47e894adf7b8a5b36c151d6dd660001b6138b5565b8073ffffffffffffffffffffffffffffffffffffffff166370a08231306040518263ffffffff1660e01b8152600401611b729190614774565b602060405180830381865afa158015611b8f573d6000803e3d6000fd5b505050506040513d601f19601f82011682018060405250810190611bb391906147fc565b8214611bf4576040517f08c379a0000000000000000000000000000000000000000000000000000000008152600401611beb906149bb565b60405180910390fd5b611c207f5f98587f3200fe6a908bdf469cf5ff056e4df541126595aebdb76b3cd173cd2860001b6138b5565b611c4c7f32a069a3dbf1bdc59056ec83ec96733bdef95215cd424047b5ba432dad62dc0560001b6138b5565b611c787fe34bb18a4e06051f6d3ad7d6b907c0e4f0f4ec46f79e88ca8a41878ff5b5024d60001b6138b5565b808460000160006101000a81548173ffffffffffffffffffffffffffffffffffffffff021916908373ffffffffffffffffffffffffffffffffffffffff1602179055505050505050565b60095481565b611cf47faf3082336435c628d8e24e088cb1c1e4b32e147a2c14f4727b27fd49676eb0aa60001b6138b5565b611d207f15f6ca3352517f8cda5202516378b0453c891ea7c9b05c2fa83a7e38db7b253e60001b6138b5565b611d4c7f756694411cf4157b5c02f60266e3293d03ee76bc10466a52c27c2d366daa247a60001b6138b5565b600060068281548110611d6257611d616147b8565b5b90600052602060002090600402019050611d9e7f7e44ec00c7619df98ae0de85b942ad336716a24ddd0602bffb5f081c18e3a22460001b6138b5565b611dca7fc6fe42d4acc0197f36166e362d2c39b44eddb68892abf78fbabbbdf310bdc19b60001b6138b5565b80600201544311611e5f57611e017f3235cc388d6562e4dacb3b6423807e2896ff638b2838e1ace4c345277607ca2460001b6138b5565b611e2d7ff62afabe33e019feb26fa09f28a66a4b4eaab40590fc0dbb35fe462fc3c73e9660001b6138b5565b611e597fde7db7292cd840b4b388387702c9dd7c6d370726d93056b0349cc1b2e953d53660001b6138b5565b5061250b565b611e8b7f11cf4f911795d4cbc427b6fa1df05ba53b04d8ba9d4bae488f93d01378ed8c2e60001b6138b5565b611eb77f8e0bbc3579c6c205db13ed2ac0c8ff6a54cb89517b23a18f44a97e4780ea3eec60001b6138b5565b611ee37f5a3e9543eae07fa7398a68681043adfd703fdc36ee5531ebdb63faf394da51ae60001b6138b5565b60008160000160009054906101000a900473ffffffffffffffffffffffffffffffffffffffff1673ffffffffffffffffffffffffffffffffffffffff166370a08231306040518263ffffffff1660e01b8152600401611f429190614774565b602060405180830381865afa158015611f5f573d6000803e3d6000fd5b505050506040513d601f19601f82011682018060405250810190611f8391906147fc565b9050611fb17f9a6dfaa5722586f4fbc6446f5831b01390611dcce42aebba10aea939743e106c60001b6138b5565b611fdd7f5e77f7f5f2abb40fabdd8fa8a67251ddf7862fb0f90389e02e949db7f1b8311d60001b6138b5565b600081036120d1576120117f2ae4ae3dc5f9ab6637949e322d5b705ccc271677fa2243ce7825419f48d6587b60001b6138b5565b61203d7fd92b049df2e28804a5ff124bd149ea50846301483e4b8596100c3cb0b789067560001b6138b5565b6120697ffe0a9cb54dc59a0bd1757dc75742c93811879530cd4e8d7a6181f5bb0933f62460001b6138b5565b43826002018190555061209e7fd9d81bfdd401b9cdef805b49bb6620c92d82f53016ba1f0e39e009acfbc997da60001b6138b5565b6120ca7ff4fb00f5b0b5511f08213e37a05dcadb3690c9ad0795d063b25f3b1440d7e52960001b6138b5565b505061250b565b6120fd7fc25bd707243df9bae4a56e729793774babf6cdea66ea334d69baa7acb1c66cc660001b6138b5565b6121297f4657aecb9adc129d4e383821a999c1a8922bfc8737057d446c3ecb34204a7aa860001b6138b5565b6121557f0ea895534fbba2ee9c1a352f6cbf8a807d6fa2089aaa176bb6904cf4f82c0a7660001b6138b5565b6000612165836002015443612edb565b90506121937f0cd8ac36bdd41ca7c622286d76a9ec112234a2e8d068c70d0c7710237983c97560001b6138b5565b6121bf7f23eb389c1a2062951a4d1b906463747dfa1e1ef24c708d31828db09dbd4e82b360001b6138b5565b60006122006008546121f286600101546121e4600454876138b890919063ffffffff16565b6138b890919063ffffffff16565b6138ce90919063ffffffff16565b905061222e7f842186c4a698b73b41d48ed9766bcca14cf4872fefe01775bb0d634d016d136760001b6138b5565b61225a7f0eacbe3d9a74ad227da1e5e92a66b0eb1e9631d9727146f610ea44b3a41f3b6460001b6138b5565b600160009054906101000a900473ffffffffffffffffffffffffffffffffffffffff1673ffffffffffffffffffffffffffffffffffffffff166340c10f19600260009054906101000a900473ffffffffffffffffffffffffffffffffffffffff166122cf600a856138ce90919063ffffffff16565b6040518363ffffffff1660e01b81526004016122ec9291906149db565b600060405180830381600087803b15801561230657600080fd5b505af115801561231a573d6000803e3d6000fd5b5050505061234a7f95927b19253372a4281d3fd4514d325589ff14ffc916ee624d01321db681a95360001b6138b5565b6123767ffc81f3ab414f9175b33e4eaccf4183506b4610f5ceac6cedccb11343900f0ac360001b6138b5565b600160009054906101000a900473ffffffffffffffffffffffffffffffffffffffff1673ffffffffffffffffffffffffffffffffffffffff166340c10f1930836040518363ffffffff1660e01b81526004016123d39291906149db565b600060405180830381600087803b1580156123ed57600080fd5b505af1158015612401573d6000803e3d6000fd5b505050506124317fdd7f364657cdc56abe53eb80e38dbe90ba308720db8133ddaaea9901e942b06260001b6138b5565b61245d7f463655cd0c470665119bdc9a6d0e06b674ea6c30469008f9593e4ca25e24465460001b6138b5565b61249d61248a8461247c64e8d4a51000856138b890919063ffffffff16565b6138ce90919063ffffffff16565b85600301546138e490919063ffffffff16565b84600301819055506124d17f35a6fb0e4637bd80800f2dc292e04221d0b55742a6718fe50951b9b610b2505660001b6138b5565b6124fd7f064ee85b75e855c9e8d39a649fcfc1ab006e8fc1bd95cb691f1ccadd830c78eb60001b6138b5565b438460020181905550505050505b50565b61253a7f3c3654a382f9eb168c0e73beea84b15c1608721c7d35b5f22bcb21ce47bd624f60001b6138b5565b6125667f83aae8995b167279491a2b68c0c8c21c4132a8dda823c00d86ebdb6b43ec3b6260001b6138b5565b6125927f332d7fb65ffe47436d42266e408274984ad5ee1154bed100f9dc0ea3ee885f9360001b6138b5565b6000600682815481106125a8576125a76147b8565b5b906000526020600020906004020190506125e47f37999324dfa4c49abbf367617b0dfd44b1dfa68f7043b68e08f886afc782383360001b6138b5565b6126107f04da7f8b5f0c1aaa3cee6a74a29e794e879ba8c955018b2d2840fdc36390e2df60001b6138b5565b60006007600084815260200190815260200160002060003373ffffffffffffffffffffffffffffffffffffffff1673ffffffffffffffffffffffffffffffffffffffff16815260200190815260200160002090506126907f1456431f3a0a3dce0a8a76938417b3b2f43908b05a8a7cfd293dd6ca11a4e01660001b6138b5565b6126bc7fb33892668496868cdf8d60481012e75e0866cee2ad92871512f0860b754deb5760001b6138b5565b61270f3382600001548460000160009054906101000a900473ffffffffffffffffffffffffffffffffffffffff1673ffffffffffffffffffffffffffffffffffffffff16613d679092919063ffffffff16565b61273b7f0354507c7e01af1ebded04c454dd77e154c68db7c90f17a02030830127b6661660001b6138b5565b6127677f3655a3e242fcdd485a1586c2e171a4ed95f71f1ac176ba05cfd138c46cb2b6dd60001b6138b5565b823373ffffffffffffffffffffffffffffffffffffffff167fbb757047c2b5f3974fe26b7c10f732e7bce710b0952a71082702781e62ae059583600001546040516127b2919061433e565b60405180910390a36127e67f27237959fcb875dd80e558d49e6d0426821503458da6310b70e9653c9356c78160001b6138b5565b6128127fc2f2b7a4419597779468606c08e27ad42bf9616eb76a2ce0a98915be91f7778960001b6138b5565b600081600001819055506128487f60a27558b54b900671df37e442c808737880f6080762e253d0deb0dd51a5abd460001b6138b5565b6128747fde911f2363ab9559e81c120b1978a3e4d2822e6da976bf30208ac398ed3101d660001b6138b5565b60008160010181905550505050565b6128af7f03d2ee5277a4b0c38a376d4c29c57cf56d7d1b17a642946ceaa95c458d5ca18360001b6138b5565b6128db7f3cf80d3a7c0fbd7d1772d7f7986bd82bc14f13875ecb3d450bb029849c79121760001b6138b5565b6129077f31186aa9dde1a78e7ada2154b1caacfda5fd9ff43d26d3fda86ac723e93ac8c360001b6138b5565b6000600680549050905061293d7fd1b2141b14357b5d943c5a86e90b3c30370f4505ffc10acaad91413ad2f2e86460001b6138b5565b6129697ff58790c3d4144c6e8e11ba23f09a7a53c61804542e7f8f9a2451beb72b6879ab60001b6138b5565b60005b818110156129e6576129a07fcc11a23c3d07d2a306006ccaaadad77b5c9ffde1c823c51c7d63dedf8a80025760001b6138b5565b6129cc7faeba42238c1ce9d34daa8d414037564c222b7b36911be5a5e0860d1ffb6cad3460001b6138b5565b6129d581611cc8565b806129df90614a33565b905061296c565b5050565b6129f2613910565b612a1e7fc14cb811f038c230dbcab8f67259912e8acecc025620b0f3699d4910d4fbfcdd60001b6138b5565b612a4a7f4fc45df598894874137e14b9dd94cc8314c014ca783f310138b72c7e5dc7eab660001b6138b5565b612a767faf76f41ca98571a11ebd11ce9e1432371360b36fc63dd7f58509ad6235f8dc4260001b6138b5565b8015612b0d57612aa87f682d7ea227c248c60a509e4f9f4873f8dd6ec6eb0eb673ce1e6867ae383b947760001b6138b5565b612ad47f1c517137f080aff406b54c58fee6ec1c8d7a516449731b1ec944d96ff2a81ead60001b6138b5565b612b007f97c11746efb165717a442d5f59827aac73419a72f5ce30fbe84f0311e94730d060001b6138b5565b612b08612883565b612b3a565b612b397f1446896d8aec930fc8e36091d3fb00954ca29f829d9c310b81b7a17b96cb58af60001b6138b5565b5b612b667f563a517cb031cb243b6bdabefd8120d073e06a973dfded9a91781413ac45fc9160001b6138b5565b612b927f06942b476789fdb29db0e2cf16b6d779ed12eb4f9c6a426a283dd1a3555c585260001b6138b5565b612bde82612bd060068681548110612bad57612bac6147b8565b5b9060005260206000209060040201600101546008546138fa90919063ffffffff16565b6138e490919063ffffffff16565b600881905550612c107f96000f9ea7029ad531be6efa8cb5d9a0eb0f50ef3bcb11f14954fcb2e2b69a9360001b6138b5565b612c3c7f81229fff03cf6d8db1f953601fee6a960b0701de03a1d78cff61c3bccf6c953a60001b6138b5565b8160068481548110612c5157612c506147b8565b5b906000526020600020906004020160010181905550505050565b612c73613910565b612c7d6000613f3c565b565b600560009054906101000a900473ffffffffffffffffffffffffffffffffffffffff1681565b600a81565b612cd67f41d40ce34a431cba1ad91f79118ea9731a39b0a05de15f7b3ad0a1c058789e3260001b6138b5565b612d027fb7e9b0654e3a7fff36e0f7b010adffb6c62143a0b53dbcbc0b96932f5211d9e260001b6138b5565b612d2e7fb5fe043ed5f900e702217e64e8a8e896d34539fcd7de245ea9368f1c100fe1f860001b6138b5565b612d5a7fd5bcfc40bc568619b916a1cc3177577d595bea1c8bdc1cb6bc506134a62f992a60001b6138b5565b600260009054906101000a900473ffffffffffffffffffffffffffffffffffffffff1673ffffffffffffffffffffffffffffffffffffffff163373ffffffffffffffffffffffffffffffffffffffff1614612dea576040517f08c379a0000000000000000000000000000000000000000000000000000000008152600401612de190614ac7565b60405180910390fd5b612e167fe538d69f489a2cb0effbfc339b578c7b2b0b400a3daeb66ceab99141832811fe60001b6138b5565b612e427f76773d82f5d3df11c7ad586a03c6fde419b94ef065ccd6502e46645a7cdfe24560001b6138b5565b612e6e7f7017a9645d5ad1f02a7cb35005a3da1090dbe842d091803d79c1c875096997b360001b6138b5565b80600260006101000a81548173ffffffffffffffffffffffffffffffffffffffff021916908373ffffffffffffffffffffffffffffffffffffffff16021790555050565b60008060009054906101000a900473ffffffffffffffffffffffffffffffffffffffff16905090565b6000612f097f920419f0e30e5fe37be8e75969fb1782a4118d7af0450d4191914d9b62af1e9c60001b6138b5565b612f357f8dd37fd1ed4ef96e0011a951a0ceb77a559c711301554985236e57d18151eb3f60001b6138b5565b612f617f3883d8f5a4fb0518b50d54c2e6754d8245a2950915de5a5dfad2d9d86ebdd9c660001b6138b5565b600354821161301b57612f967fddb47f8e74318f5e6a5a5c793b1d687631ccf3eb61aa9fb8529e566e7c42901960001b6138b5565b612fc27f8642a25a4be572aaf6681a0afa091954cfdcdd6cc623c9e2509b509da36618a660001b6138b5565b612fee7f6d7a6f45c847ce745778f01d6b43532a6a82590bf3f163e9d36f8333c9ed68c760001b6138b5565b613014600a61300685856138fa90919063ffffffff16565b6138b890919063ffffffff16565b90506131ef565b6130477f85220e52d6cd7bee5874f8b7a09b96919bac09fc8a1a648238aa94722b283b2260001b6138b5565b6130737f107f8ba2f6feb1dcc12a9a7b29f0a7232df7c51894e7ccfb6ce0475ab73ff6cb60001b6138b5565b600354831061311a576130a87fb327c2c702d5b9e6dcf33e79109c96d3efdede0478b009f8bec76d25aaa64f9960001b6138b5565b6130d47f1718c1091a9e397046183b53f9621e4c848531eecfe6786eeee4ba6476e3dea660001b6138b5565b6131007f9048c0913ec05d70c3487a0978d43d818a8d18712149919204e6b8a452e6f35960001b6138b5565b61311383836138fa90919063ffffffff16565b90506131ef565b6131467f76b45c523a3dde99455a85a20a6529277485c60187f5174c6ab319fad74cf75960001b6138b5565b6131727f5e4b40a29e65cd4e0909a892271a8346a5435b2b20d5baec3b0344c676f069a260001b6138b5565b61319e7fbd6d6a1c699ed80f3030f1a1a200c09a0391ff47a0499884b92d4d162028acfa60001b6138b5565b6131ec6131b6600354846138fa90919063ffffffff16565b6131de600a6131d0876003546138fa90919063ffffffff16565b6138b890919063ffffffff16565b6138e490919063ffffffff16565b90505b92915050565b6007602052816000526040600020602052806000526040600020600091509150508060000154908060010154905082565b60045481565b600260009054906101000a900473ffffffffffffffffffffffffffffffffffffffff1681565b61327e7f81deeb21c3ac1e6879245ba52cc719ee6e52459eb3a7099960af0e85a4fd89da60001b6138b5565b6132aa7f0e89514765a59cb074c7ea2c216a73b264050cd4ea160cfae8137bd42d819bcc60001b6138b5565b6132d67f126f24838d23d5ee78d2fb63de030e75bd6223246869919317ad8856636a21b360001b6138b5565b6000600683815481106132ec576132eb6147b8565b5b906000526020600020906004020190506133287f49570597eab6e575c6a2dbb820490a07d5e3e049876289b6e8f4a3aa0b1ab5aa60001b6138b5565b6133547fc5975a4955b5b7951f3f7dc7419d7b1066d1059d01208bcd2b4ce986e1c9fb5560001b6138b5565b60006007600085815260200190815260200160002060003373ffffffffffffffffffffffffffffffffffffffff1673ffffffffffffffffffffffffffffffffffffffff16815260200190815260200160002090506133d47f18bba06a1218fb6a22a0ce7b4c395973db470fdc69c1232ff8cf3118594a2a7c60001b6138b5565b6134007f54017aaf9c22be44676ddb7a03472b1acffa428bb227787749b344a596f1c7c360001b6138b5565b61340984611cc8565b6134357f75cc0949a3522414961f0d2ca15cd1751687236fbe085ac762b598283bb0bdd860001b6138b5565b6134617fac8a984a512d35b477e1345f65da3c7bc0f7c9ef850216ca41f9da68610fe62760001b6138b5565b6000816000015411156135a65761349a7fa676403699692777723fc16a76c37bd6e1c50635159b2da458cf45bb8cb468ae60001b6138b5565b6134c67f44bcac608fd874b38494a172ce9ed2ab0a5d3f0942329488260e9c151d1e868f60001b6138b5565b6134f27fd7425b7e63d353d2ee97f827d632ec3ab1e43b03a5a96c008f35603f50634e0560001b6138b5565b600061353c826001015461352e64e8d4a51000613520876003015487600001546138b890919063ffffffff16565b6138ce90919063ffffffff16565b6138fa90919063ffffffff16565b905061356a7fcbaa5ce926c40e732922a20f7915f6bb00c54d00b7c73877c6bd393e3e69c40260001b6138b5565b6135967f7c3968817ffa7e74768d7f37c112c66f5e00c57a844abc2af5fa19dc41cc63e260001b6138b5565b6135a0338261398e565b506135d3565b6135d27fba5058e9e6d9833317a3678be7bd7915531af0b8dc5aff61131a29fdf1cfe78460001b6138b5565b5b6135ff7fad41ac115609f52a165e4b929e766f2cadd033e2e64f0aa37739c45bca29e28c60001b6138b5565b61362b7fe838d1724dc90555cea12b388ee54567290e6a7e8b78c08349e75568abcbe16160001b6138b5565b61367c3330858560000160009054906101000a900473ffffffffffffffffffffffffffffffffffffffff1673ffffffffffffffffffffffffffffffffffffffff16614000909392919063ffffffff16565b6136a87f9115aee96865553fcf1809d895fb59ede0a2189b64de5641ecfd2570b1071aed60001b6138b5565b6136d47fcb871920483a19e475436efbfdabefc9e2a7e3bf316ea618edf8b6a8c91dc41260001b6138b5565b6136eb8382600001546138e490919063ffffffff16565b816000018190555061371f7f70df2171b1c89c73a6174872f84c53a830e756d5302abb91a0f4d9962158891960001b6138b5565b61374b7f780d3abfa1941b29391fa0a2d7e63a97a720ce86d2a26648ed5c8a904c792d1560001b6138b5565b61377d64e8d4a5100061376f846003015484600001546138b890919063ffffffff16565b6138ce90919063ffffffff16565b81600101819055506137b17fb766f4c5a47664a40c90665cbfd47c66f8ae8bfa965ed72684d555da2c43548160001b6138b5565b6137dd7fc26efa171da0a87e0909354254d280475dca66a49e1fe0dadf0bc29b9151654160001b6138b5565b833373ffffffffffffffffffffffffffffffffffffffff167f90890809c654f11d6e72a28fa60149770a0d11ec6c92319d6ceb2bb0a4ea1a1585604051613824919061433e565b60405180910390a350505050565b61383a613910565b600073ffffffffffffffffffffffffffffffffffffffff168173ffffffffffffffffffffffffffffffffffffffff16036138a9576040517f08c379a00000000000000000000000000000000000000000000000000000000081526004016138a090614b59565b60405180910390fd5b6138b281613f3c565b50565b50565b600081836138c69190614b79565b905092915050565b600081836138dc9190614c02565b905092915050565b600081836138f29190614c33565b905092915050565b600081836139089190614c67565b905092915050565b613918614089565b73ffffffffffffffffffffffffffffffffffffffff16613936612eb2565b73ffffffffffffffffffffffffffffffffffffffff161461398c576040517f08c379a000000000000000000000000000000000000000000000000000000000815260040161398390614ce7565b60405180910390fd5b565b6139ba7fee0b8ce94f622731bb2b96a10af4673a6438ffec34e963e868294d78d52cafe560001b6138b5565b6139e67fa43a46c3054fe79203f6e9bc657ab6e531fa31fecaec8d5aa36196fc5d52012260001b6138b5565b613a127f0dc9707edccb88de3b58bd796f2816623c334c06f6c5d9dce489edf74ca3575560001b6138b5565b6000600160009054906101000a900473ffffffffffffffffffffffffffffffffffffffff1673ffffffffffffffffffffffffffffffffffffffff166370a08231306040518263ffffffff1660e01b8152600401613a6f9190614774565b602060405180830381865afa158015613a8c573d6000803e3d6000fd5b505050506040513d601f19601f82011682018060405250810190613ab091906147fc565b9050613ade7f03c0261467221b45328972905e2e12f2060ac258fddef1f315922e2d4771e2b260001b6138b5565b613b0a7feaaa759e4f063064d640db1be02c1ca2b66ace555d851ecfcf857a6704c36a0f60001b6138b5565b80821115613c3c57613b3e7fbf10aac00e1342e7bc13be0db8517aea9f96049d07b9e8d33529b8a006e98c5a60001b6138b5565b613b6a7f7aae9f8743b0edae91b65b172c8af79f5de0617c1c0c4237e2f53734a018da0e60001b6138b5565b613b967f515c270462cce809eecb343f82fbc3b4fbec050ddf40aa811d486a63ffb95fce60001b6138b5565b600160009054906101000a900473ffffffffffffffffffffffffffffffffffffffff1673ffffffffffffffffffffffffffffffffffffffff1663a9059cbb84836040518363ffffffff1660e01b8152600401613bf39291906149db565b6020604051808303816000875af1158015613c12573d6000803e3d6000fd5b505050506040513d601f19601f82011682018060405250810190613c369190614d1c565b50613d62565b613c687f224663a6d69a03655dd5d585b0ae041df1adb3ffb6412048d825e57b1e598c4e60001b6138b5565b613c947ffc737013b0064621124ea709fb4d06bfb1d1cf989a840814eb7e224d3b72468060001b6138b5565b613cc07f0e88cb5d14db466fc4331847d2041849ea22c200b2000b5bc8016da86e1b527b60001b6138b5565b600160009054906101000a900473ffffffffffffffffffffffffffffffffffffffff1673ffffffffffffffffffffffffffffffffffffffff1663a9059cbb84846040518363ffffffff1660e01b8152600401613d1d9291906149db565b6020604051808303816000875af1158015613d3c573d6000803e3d6000fd5b505050506040513d601f19601f82011682018060405250810190613d609190614d1c565b505b505050565b613de88363a9059cbb60e01b8484604051602401613d869291906149db565b604051602081830303815290604052907bffffffffffffffffffffffffffffffffffffffffffffffffffffffff19166020820180517bffffffffffffffffffffffffffffffffffffffffffffffffffffffff8381831617835250505050614091565b505050565b6000811480613e77575060008373ffffffffffffffffffffffffffffffffffffffff1663dd62ed3e30856040518363ffffffff1660e01b8152600401613e34929190614d49565b602060405180830381865afa158015613e51573d6000803e3d6000fd5b505050506040513d601f19601f82011682018060405250810190613e7591906147fc565b145b613eb6576040517f08c379a0000000000000000000000000000000000000000000000000000000008152600401613ead90614de4565b60405180910390fd5b613f378363095ea7b360e01b8484604051602401613ed59291906149db565b604051602081830303815290604052907bffffffffffffffffffffffffffffffffffffffffffffffffffffffff19166020820180517bffffffffffffffffffffffffffffffffffffffffffffffffffffffff8381831617835250505050614091565b505050565b60008060009054906101000a900473ffffffffffffffffffffffffffffffffffffffff169050816000806101000a81548173ffffffffffffffffffffffffffffffffffffffff021916908373ffffffffffffffffffffffffffffffffffffffff1602179055508173ffffffffffffffffffffffffffffffffffffffff168173ffffffffffffffffffffffffffffffffffffffff167f8be0079c531659141344cd1fd0a4f28419497f9722a3daafe3b4186f6b6457e060405160405180910390a35050565b614083846323b872dd60e01b85858560405160240161402193929190614e04565b604051602081830303815290604052907bffffffffffffffffffffffffffffffffffffffffffffffffffffffff19166020820180517bffffffffffffffffffffffffffffffffffffffffffffffffffffffff8381831617835250505050614091565b50505050565b600033905090565b60006140f3826040518060400160405280602081526020017f5361666545524332303a206c6f772d6c6576656c2063616c6c206661696c65648152508573ffffffffffffffffffffffffffffffffffffffff166141589092919063ffffffff16565b905060008151111561415357808060200190518101906141139190614d1c565b614152576040517f08c379a000000000000000000000000000000000000000000000000000000000815260040161414990614ead565b60405180910390fd5b5b505050565b60606141678484600085614170565b90509392505050565b6060824710156141b5576040517f08c379a00000000000000000000000000000000000000000000000000000000081526004016141ac90614f3f565b60405180910390fd5b6000808673ffffffffffffffffffffffffffffffffffffffff1685876040516141de9190614fd0565b60006040518083038185875af1925050503d806000811461421b576040519150601f19603f3d011682016040523d82523d6000602084013e614220565b606091505b50915091506142318783838761423d565b92505050949350505050565b6060831561429f57600083510361429757614257856142b2565b614296576040517f08c379a000000000000000000000000000000000000000000000000000000000815260040161428d90615033565b60405180910390fd5b5b8290506142aa565b6142a983836142d5565b5b949350505050565b6000808273ffffffffffffffffffffffffffffffffffffffff163b119050919050565b6000825111156142e85781518083602001fd5b806040517f08c379a000000000000000000000000000000000000000000000000000000000815260040161431c91906150a8565b60405180910390fd5b6000819050919050565b61433881614325565b82525050565b6000602082019050614353600083018461432f565b92915050565b600073ffffffffffffffffffffffffffffffffffffffff82169050919050565b6000819050919050565b600061439e61439961439484614359565b614379565b614359565b9050919050565b60006143b082614383565b9050919050565b60006143c2826143a5565b9050919050565b6143d2816143b7565b82525050565b60006020820190506143ed60008301846143c9565b92915050565b600080fd5b61440181614325565b811461440c57600080fd5b50565b60008135905061441e816143f8565b92915050565b60006020828403121561443a576144396143f3565b5b60006144488482850161440f565b91505092915050565b600061445c826143a5565b9050919050565b61446c81614451565b82525050565b60006080820190506144876000830187614463565b614494602083018661432f565b6144a1604083018561432f565b6144ae606083018461432f565b95945050505050565b60006144c282614359565b9050919050565b6144d2816144b7565b81146144dd57600080fd5b50565b6000813590506144ef816144c9565b92915050565b6000806040838503121561450c5761450b6143f3565b5b600061451a8582860161440f565b925050602061452b858286016144e0565b9150509250929050565b6000614540826144b7565b9050919050565b61455081614535565b811461455b57600080fd5b50565b60008135905061456d81614547565b92915050565b60008115159050919050565b61458881614573565b811461459357600080fd5b50565b6000813590506145a58161457f565b92915050565b6000806000606084860312156145c4576145c36143f3565b5b60006145d28682870161440f565b93505060206145e38682870161455e565b92505060406145f486828701614596565b9150509250925092565b6000614609826144b7565b9050919050565b614619816145fe565b811461462457600080fd5b50565b60008135905061463681614610565b92915050565b600060208284031215614652576146516143f3565b5b600061466084828501614627565b91505092915050565b600080604083850312156146805761467f6143f3565b5b600061468e8582860161440f565b925050602061469f8582860161440f565b9150509250929050565b6000806000606084860312156146c2576146c16143f3565b5b60006146d08682870161440f565b93505060206146e18682870161440f565b92505060406146f286828701614596565b9150509250925092565b6000614707826143a5565b9050919050565b614717816146fc565b82525050565b6000602082019050614732600083018461470e565b92915050565b60006020828403121561474e5761474d6143f3565b5b600061475c848285016144e0565b91505092915050565b61476e816144b7565b82525050565b60006020820190506147896000830184614765565b92915050565b60006040820190506147a4600083018561432f565b6147b1602083018461432f565b9392505050565b7f4e487b7100000000000000000000000000000000000000000000000000000000600052603260045260246000fd5b6000815190506147f6816143f8565b92915050565b600060208284031215614812576148116143f3565b5b6000614820848285016147e7565b91505092915050565b600082825260208201905092915050565b7f77697468647261773a206e6f7420676f6f640000000000000000000000000000600082015250565b6000614870601283614829565b915061487b8261483a565b602082019050919050565b6000602082019050818103600083015261489f81614863565b9050919050565b7f6d6967726174653a206e6f206d69677261746f72000000000000000000000000600082015250565b60006148dc601483614829565b91506148e7826148a6565b602082019050919050565b6000602082019050818103600083015261490b816148cf565b9050919050565b60006020820190506149276000830184614463565b92915050565b60008151905061493c81614547565b92915050565b600060208284031215614958576149576143f3565b5b60006149668482850161492d565b91505092915050565b7f6d6967726174653a206261640000000000000000000000000000000000000000600082015250565b60006149a5600c83614829565b91506149b08261496f565b602082019050919050565b600060208201905081810360008301526149d481614998565b9050919050565b60006040820190506149f06000830185614765565b6149fd602083018461432f565b9392505050565b7f4e487b7100000000000000000000000000000000000000000000000000000000600052601160045260246000fd5b6000614a3e82614325565b91507fffffffffffffffffffffffffffffffffffffffffffffffffffffffffffffffff8203614a7057614a6f614a04565b5b600182019050919050565b7f6465763a207775743f0000000000000000000000000000000000000000000000600082015250565b6000614ab1600983614829565b9150614abc82614a7b565b602082019050919050565b60006020820190508181036000830152614ae081614aa4565b9050919050565b7f4f776e61626c653a206e6577206f776e657220697320746865207a65726f206160008201527f6464726573730000000000000000000000000000000000000000000000000000602082015250565b6000614b43602683614829565b9150614b4e82614ae7565b604082019050919050565b60006020820190508181036000830152614b7281614b36565b9050919050565b6000614b8482614325565b9150614b8f83614325565b9250817fffffffffffffffffffffffffffffffffffffffffffffffffffffffffffffffff0483118215151615614bc857614bc7614a04565b5b828202905092915050565b7f4e487b7100000000000000000000000000000000000000000000000000000000600052601260045260246000fd5b6000614c0d82614325565b9150614c1883614325565b925082614c2857614c27614bd3565b5b828204905092915050565b6000614c3e82614325565b9150614c4983614325565b9250828201905080821115614c6157614c60614a04565b5b92915050565b6000614c7282614325565b9150614c7d83614325565b9250828203905081811115614c9557614c94614a04565b5b92915050565b7f4f776e61626c653a2063616c6c6572206973206e6f7420746865206f776e6572600082015250565b6000614cd1602083614829565b9150614cdc82614c9b565b602082019050919050565b60006020820190508181036000830152614d0081614cc4565b9050919050565b600081519050614d168161457f565b92915050565b600060208284031215614d3257614d316143f3565b5b6000614d4084828501614d07565b91505092915050565b6000604082019050614d5e6000830185614765565b614d6b6020830184614765565b9392505050565b7f5361666545524332303a20617070726f76652066726f6d206e6f6e2d7a65726f60008201527f20746f206e6f6e2d7a65726f20616c6c6f77616e636500000000000000000000602082015250565b6000614dce603683614829565b9150614dd982614d72565b604082019050919050565b60006020820190508181036000830152614dfd81614dc1565b9050919050565b6000606082019050614e196000830186614765565b614e266020830185614765565b614e33604083018461432f565b949350505050565b7f5361666545524332303a204552433230206f7065726174696f6e20646964206e60008201527f6f74207375636365656400000000000000000000000000000000000000000000602082015250565b6000614e97602a83614829565b9150614ea282614e3b565b604082019050919050565b60006020820190508181036000830152614ec681614e8a565b9050919050565b7f416464726573733a20696e73756666696369656e742062616c616e636520666f60008201527f722063616c6c0000000000000000000000000000000000000000000000000000602082015250565b6000614f29602683614829565b9150614f3482614ecd565b604082019050919050565b60006020820190508181036000830152614f5881614f1c565b9050919050565b600081519050919050565b600081905092915050565b60005b83811015614f93578082015181840152602081019050614f78565b60008484015250505050565b6000614faa82614f5f565b614fb48185614f6a565b9350614fc4818560208601614f75565b80840191505092915050565b6000614fdc8284614f9f565b915081905092915050565b7f416464726573733a2063616c6c20746f206e6f6e2d636f6e7472616374000000600082015250565b600061501d601d83614829565b915061502882614fe7565b602082019050919050565b6000602082019050818103600083015261504c81615010565b9050919050565b600081519050919050565b6000601f19601f8301169050919050565b600061507a82615053565b6150848185614829565b9350615094818560208601614f75565b61509d8161505e565b840191505092915050565b600060208201905081810360008301526150c2818461506f565b90509291505056fea2646970667358221220433dcb3f1fb440a7d4c3ec378b84690c04142d84b1e1c6d341b2bf26183c5f8b64736f6c63430008100033",
  "linkReferences": {},
  "deployedLinkReferences": {}
}