{
  "_format": "hh-sol-artifact-1",
  "contractName": "MasterChef",
  "sourceName": "contracts/MasterChef.sol",
  "abi": [
    {
      "inputs": [
        {
          "internalType": "contract SushiToken",
          "name": "_sushi",
          "type": "address"
        },
        {
          "internalType": "address",
          "name": "_devaddr",
          "type": "address"
        },
        {
          "internalType": "uint256",
          "name": "_sushiPerBlock",
          "type": "uint256"
        },
        {
          "internalType": "uint256",
          "name": "_startBlock",
          "type": "uint256"
        },
        {
          "internalType": "uint256",
          "name": "_bonusEndBlock",
          "type": "uint256"
        }
      ],
      "stateMutability": "nonpayable",
      "type": "constructor"
    },
    {
      "anonymous": false,
      "inputs": [
        {
          "indexed": true,
          "internalType": "address",
          "name": "user",
          "type": "address"
        },
        {
          "indexed": true,
          "internalType": "uint256",
          "name": "pid",
          "type": "uint256"
        },
        {
          "indexed": false,
          "internalType": "uint256",
          "name": "amount",
          "type": "uint256"
        }
      ],
      "name": "Deposit",
      "type": "event"
    },
    {
      "anonymous": false,
      "inputs": [
        {
          "indexed": true,
          "internalType": "address",
          "name": "user",
          "type": "address"
        },
        {
          "indexed": true,
          "internalType": "uint256",
          "name": "pid",
          "type": "uint256"
        },
        {
          "indexed": false,
          "internalType": "uint256",
          "name": "amount",
          "type": "uint256"
        }
      ],
      "name": "EmergencyWithdraw",
      "type": "event"
    },
    {
      "anonymous": false,
      "inputs": [
        {
          "indexed": true,
          "internalType": "address",
          "name": "previousOwner",
          "type": "address"
        },
        {
          "indexed": true,
          "internalType": "address",
          "name": "newOwner",
          "type": "address"
        }
      ],
      "name": "OwnershipTransferred",
      "type": "event"
    },
    {
      "anonymous": false,
      "inputs": [
        {
          "indexed": true,
          "internalType": "address",
          "name": "user",
          "type": "address"
        },
        {
          "indexed": true,
          "internalType": "uint256",
          "name": "pid",
          "type": "uint256"
        },
        {
          "indexed": false,
          "internalType": "uint256",
          "name": "amount",
          "type": "uint256"
        }
      ],
      "name": "Withdraw",
      "type": "event"
    },
    {
      "inputs": [],
      "name": "BONUS_MULTIPLIER",
      "outputs": [
        {
          "internalType": "uint256",
          "name": "",
          "type": "uint256"
        }
      ],
      "stateMutability": "view",
      "type": "function"
    },
    {
      "inputs": [
        {
          "internalType": "uint256",
          "name": "_allocPoint",
          "type": "uint256"
        },
        {
          "internalType": "contract IERC20",
          "name": "_lpToken",
          "type": "address"
        },
        {
          "internalType": "bool",
          "name": "_withUpdate",
          "type": "bool"
        }
      ],
      "name": "add",
      "outputs": [],
      "stateMutability": "nonpayable",
      "type": "function"
    },
    {
      "inputs": [],
      "name": "bonusEndBlock",
      "outputs": [
        {
          "internalType": "uint256",
          "name": "",
          "type": "uint256"
        }
      ],
      "stateMutability": "view",
      "type": "function"
    },
    {
      "inputs": [
        {
          "internalType": "uint256",
          "name": "_pid",
          "type": "uint256"
        },
        {
          "internalType": "uint256",
          "name": "_amount",
          "type": "uint256"
        }
      ],
      "name": "deposit",
      "outputs": [],
      "stateMutability": "nonpayable",
      "type": "function"
    },
    {
      "inputs": [
        {
          "internalType": "address",
          "name": "_devaddr",
          "type": "address"
        }
      ],
      "name": "dev",
      "outputs": [],
      "stateMutability": "nonpayable",
      "type": "function"
    },
    {
      "inputs": [],
      "name": "devaddr",
      "outputs": [
        {
          "internalType": "address",
          "name": "",
          "type": "address"
        }
      ],
      "stateMutability": "view",
      "type": "function"
    },
    {
      "inputs": [
        {
          "internalType": "uint256",
          "name": "_pid",
          "type": "uint256"
        }
      ],
      "name": "emergencyWithdraw",
      "outputs": [],
      "stateMutability": "nonpayable",
      "type": "function"
    },
    {
      "inputs": [
        {
          "internalType": "uint256",
          "name": "_from",
          "type": "uint256"
        },
        {
          "internalType": "uint256",
          "name": "_to",
          "type": "uint256"
        }
      ],
      "name": "getMultiplier",
      "outputs": [
        {
          "internalType": "uint256",
          "name": "",
          "type": "uint256"
        }
      ],
      "stateMutability": "view",
      "type": "function"
    },
    {
      "inputs": [],
      "name": "massUpdatePools",
      "outputs": [],
      "stateMutability": "nonpayable",
      "type": "function"
    },
    {
      "inputs": [
        {
          "internalType": "uint256",
          "name": "_pid",
          "type": "uint256"
        }
      ],
      "name": "migrate",
      "outputs": [],
      "stateMutability": "nonpayable",
      "type": "function"
    },
    {
      "inputs": [],
      "name": "migrator",
      "outputs": [
        {
          "internalType": "contract IMigratorChef",
          "name": "",
          "type": "address"
        }
      ],
      "stateMutability": "view",
      "type": "function"
    },
    {
      "inputs": [],
      "name": "owner",
      "outputs": [
        {
          "internalType": "address",
          "name": "",
          "type": "address"
        }
      ],
      "stateMutability": "view",
      "type": "function"
    },
    {
      "inputs": [
        {
          "internalType": "uint256",
          "name": "_pid",
          "type": "uint256"
        },
        {
          "internalType": "address",
          "name": "_user",
          "type": "address"
        }
      ],
      "name": "pendingSushi",
      "outputs": [
        {
          "internalType": "uint256",
          "name": "",
          "type": "uint256"
        }
      ],
      "stateMutability": "view",
      "type": "function"
    },
    {
      "inputs": [
        {
          "internalType": "uint256",
          "name": "",
          "type": "uint256"
        }
      ],
      "name": "poolInfo",
      "outputs": [
        {
          "internalType": "contract IERC20",
          "name": "lpToken",
          "type": "address"
        },
        {
          "internalType": "uint256",
          "name": "allocPoint",
          "type": "uint256"
        },
        {
          "internalType": "uint256",
          "name": "lastRewardBlock",
          "type": "uint256"
        },
        {
          "internalType": "uint256",
          "name": "accSushiPerShare",
          "type": "uint256"
        }
      ],
      "stateMutability": "view",
      "type": "function"
    },
    {
      "inputs": [],
      "name": "poolLength",
      "outputs": [
        {
          "internalType": "uint256",
          "name": "",
          "type": "uint256"
        }
      ],
      "stateMutability": "view",
      "type": "function"
    },
    {
      "inputs": [],
      "name": "renounceOwnership",
      "outputs": [],
      "stateMutability": "nonpayable",
      "type": "function"
    },
    {
      "inputs": [
        {
          "internalType": "uint256",
          "name": "_pid",
          "type": "uint256"
        },
        {
          "internalType": "uint256",
          "name": "_allocPoint",
          "type": "uint256"
        },
        {
          "internalType": "bool",
          "name": "_withUpdate",
          "type": "bool"
        }
      ],
      "name": "set",
      "outputs": [],
      "stateMutability": "nonpayable",
      "type": "function"
    },
    {
      "inputs": [
        {
          "internalType": "contract IMigratorChef",
          "name": "_migrator",
          "type": "address"
        }
      ],
      "name": "setMigrator",
      "outputs": [],
      "stateMutability": "nonpayable",
      "type": "function"
    },
    {
      "inputs": [],
      "name": "startBlock",
      "outputs": [
        {
          "internalType": "uint256",
          "name": "",
          "type": "uint256"
        }
      ],
      "stateMutability": "view",
      "type": "function"
    },
    {
      "inputs": [],
      "name": "sushi",
      "outputs": [
        {
          "internalType": "contract SushiToken",
          "name": "",
          "type": "address"
        }
      ],
      "stateMutability": "view",
      "type": "function"
    },
    {
      "inputs": [],
      "name": "sushiPerBlock",
      "outputs": [
        {
          "internalType": "uint256",
          "name": "",
          "type": "uint256"
        }
      ],
      "stateMutability": "view",
      "type": "function"
    },
    {
      "inputs": [],
      "name": "totalAllocPoint",
      "outputs": [
        {
          "internalType": "uint256",
          "name": "",
          "type": "uint256"
        }
      ],
      "stateMutability": "view",
      "type": "function"
    },
    {
      "inputs": [
        {
          "internalType": "address",
          "name": "newOwner",
          "type": "address"
        }
      ],
      "name": "transferOwnership",
      "outputs": [],
      "stateMutability": "nonpayable",
      "type": "function"
    },
    {
      "inputs": [
        {
          "internalType": "uint256",
          "name": "_pid",
          "type": "uint256"
        }
      ],
      "name": "updatePool",
      "outputs": [],
      "stateMutability": "nonpayable",
      "type": "function"
    },
    {
      "inputs": [
        {
          "internalType": "uint256",
          "name": "",
          "type": "uint256"
        },
        {
          "internalType": "address",
          "name": "",
          "type": "address"
        }
      ],
      "name": "userInfo",
      "outputs": [
        {
          "internalType": "uint256",
          "name": "amount",
          "type": "uint256"
        },
        {
          "internalType": "uint256",
          "name": "rewardDebt",
          "type": "uint256"
        }
      ],
      "stateMutability": "view",
      "type": "function"
    },
    {
      "inputs": [
        {
          "internalType": "uint256",
          "name": "_pid",
          "type": "uint256"
        },
        {
          "internalType": "uint256",
          "name": "_amount",
          "type": "uint256"
        }
      ],
      "name": "withdraw",
      "outputs": [],
      "stateMutability": "nonpayable",
      "type": "function"
    }
  ],
  "bytecode": "0x608060405260006008553480156200001657600080fd5b5060405162001a5538038062001a558339810160408190526200003991620000ec565b620000443362000083565b600180546001600160a01b039687166001600160a01b031991821617909155600280549590961694169390931790935560045560035560095562000144565b600080546001600160a01b038381166001600160a01b0319831681178455604051919092169283917f8be0079c531659141344cd1fd0a4f28419497f9722a3daafe3b4186f6b6457e09190a35050565b6001600160a01b0381168114620000e957600080fd5b50565b600080600080600060a086880312156200010557600080fd5b85516200011281620000d3565b60208701519095506200012581620000d3565b6040870151606088015160809098015196999198509695945092505050565b61190180620001546000396000f3fe608060405234801561001057600080fd5b506004361061018e5760003560e01c8063630b5ba1116100de5780638da5cb5b11610097578063b0bcf42a11610071578063b0bcf42a14610370578063d49e77cd14610379578063e2bbb1581461038c578063f2fde38b1461039f57600080fd5b80638da5cb5b146103055780638dbb1e3a1461031657806393f1a40b1461032957600080fd5b8063630b5ba1146102b457806364482f79146102bc578063715018a6146102cf5780637cd07e47146102d75780638aa28550146102ea5780638d88a90e146102f257600080fd5b80631eaaa0451161014b578063454b060811610125578063454b06081461027257806348cd4cb11461028557806351eb05a61461028e5780635312ea8e146102a157600080fd5b80631eaaa0451461023757806323cf31181461024c578063441a3e701461025f57600080fd5b8063081e3eda146101935780630a087903146101aa5780631526fe27146101d557806317caf6f114610212578063195426ec1461021b5780631aed65531461022e575b600080fd5b6006545b6040519081526020015b60405180910390f35b6001546101bd906001600160a01b031681565b6040516001600160a01b0390911681526020016101a1565b6101e86101e336600461163e565b6103b2565b604080516001600160a01b03909516855260208501939093529183015260608201526080016101a1565b61019760085481565b61019761022936600461166c565b6103f6565b61019760035481565b61024a6102453660046116aa565b610567565b005b61024a61025a3660046116ec565b610692565b61024a61026d366004611709565b6106bc565b61024a61028036600461163e565b610809565b61019760095481565b61024a61029c36600461163e565b610a44565b61024a6102af36600461163e565b610c58565b61024a610cfa565b61024a6102ca36600461172b565b610d25565b61024a610db2565b6005546101bd906001600160a01b031681565b610197600a81565b61024a6103003660046116ec565b610dc6565b6000546001600160a01b03166101bd565b610197610324366004611709565b610e2e565b61035b61033736600461166c565b60076020908152600092835260408084209091529082529020805460019091015482565b604080519283526020830191909152016101a1565b61019760045481565b6002546101bd906001600160a01b031681565b61024a61039a366004611709565b610e94565b61024a6103ad3660046116ec565b610f9f565b600681815481106103c257600080fd5b600091825260209091206004909102018054600182015460028301546003909301546001600160a01b039092169350919084565b6000806006848154811061040c5761040c611759565b600091825260208083208784526007825260408085206001600160a01b038981168752935280852060049485029092016003810154815492516370a0823160e01b8152309681019690965290965091949193919216906370a0823190602401602060405180830381865afa158015610488573d6000803e3d6000fd5b505050506040513d601f19601f820116820180604052508101906104ac919061176f565b90508360020154431180156104c057508015155b1561052c5760006104d5856002015443610e2e565b9050600061050860085461050288600101546104fc6004548761101890919063ffffffff16565b90611018565b9061102b565b9050610527610520846105028464e8d4a51000611018565b8590611037565b935050505b61055a836001015461055464e8d4a5100061050286886000015461101890919063ffffffff16565b90611043565b9450505050505b92915050565b61056f61104f565b801561057d5761057d610cfa565b6000600954431161059057600954610592565b435b6008549091506105a29085611037565b600855604080516080810182526001600160a01b0394851681526020810195865290810191825260006060820181815260068054600181018255925291517ff652222313e28459528d920b65115c16c04f3efc82aaedc97be59f3f377c0d3f600490920291820180546001600160a01b031916919096161790945593517ff652222313e28459528d920b65115c16c04f3efc82aaedc97be59f3f377c0d40840155517ff652222313e28459528d920b65115c16c04f3efc82aaedc97be59f3f377c0d418301555090517ff652222313e28459528d920b65115c16c04f3efc82aaedc97be59f3f377c0d4290910155565b61069a61104f565b600580546001600160a01b0319166001600160a01b0392909216919091179055565b6000600683815481106106d1576106d1611759565b6000918252602080832086845260078252604080852033865290925292208054600490920290920192508311156107445760405162461bcd60e51b81526020600482015260126024820152711dda5d1a191c985dce881b9bdd0819dbdbd960721b60448201526064015b60405180910390fd5b61074d84610a44565b600061077b826001015461055464e8d4a510006105028760030154876000015461101890919063ffffffff16565b905061078733826110a9565b81546107939085611043565b80835560038401546107b09164e8d4a51000916105029190611018565b600183015582546107cb906001600160a01b031633866111dc565b604051848152859033907ff279e6a1f5e320cca91135676d9cb6e44ca8a08c0b88342bcdb1144f6511b5689060200160405180910390a35050505050565b6005546001600160a01b03166108585760405162461bcd60e51b815260206004820152601460248201527336b4b3b930ba329d1037379036b4b3b930ba37b960611b604482015260640161073b565b60006006828154811061086d5761086d611759565b60009182526020822060049182020180546040516370a0823160e01b815230938101939093529093506001600160a01b0316919082906370a0823190602401602060405180830381865afa1580156108c9573d6000803e3d6000fd5b505050506040513d601f19601f820116820180604052508101906108ed919061176f565b60055490915061090a906001600160a01b0384811691168361123f565b60055460405163ce5494bb60e01b81526001600160a01b038481166004830152600092169063ce5494bb906024016020604051808303816000875af1158015610957573d6000803e3d6000fd5b505050506040513d601f19601f8201168201806040525081019061097b9190611788565b6040516370a0823160e01b81523060048201529091506001600160a01b038216906370a0823190602401602060405180830381865afa1580156109c2573d6000803e3d6000fd5b505050506040513d601f19601f820116820180604052508101906109e6919061176f565b8214610a235760405162461bcd60e51b815260206004820152600c60248201526b1b5a59dc985d194e8818985960a21b604482015260640161073b565b83546001600160a01b0319166001600160a01b039190911617909255505050565b600060068281548110610a5957610a59611759565b9060005260206000209060040201905080600201544311610a78575050565b80546040516370a0823160e01b81523060048201526000916001600160a01b0316906370a0823190602401602060405180830381865afa158015610ac0573d6000803e3d6000fd5b505050506040513d601f19601f82011682018060405250810190610ae4919061176f565b905080600003610af957504360029091015550565b6000610b09836002015443610e2e565b90506000610b3060085461050286600101546104fc6004548761101890919063ffffffff16565b6001546002549192506001600160a01b03908116916340c10f199116610b5784600a61102b565b6040516001600160e01b031960e085901b1681526001600160a01b0390921660048301526024820152604401600060405180830381600087803b158015610b9d57600080fd5b505af1158015610bb1573d6000803e3d6000fd5b50506001546040516340c10f1960e01b8152306004820152602481018590526001600160a01b0390911692506340c10f199150604401600060405180830381600087803b158015610c0157600080fd5b505af1158015610c15573d6000803e3d6000fd5b50505050610c43610c388461050264e8d4a510008561101890919063ffffffff16565b600386015490611037565b60038501555050436002909201919091555050565b600060068281548110610c6d57610c6d611759565b60009182526020808320858452600782526040808520338087529352909320805460049093029093018054909450610cb2926001600160a01b039190911691906111dc565b8054604051908152839033907fbb757047c2b5f3974fe26b7c10f732e7bce710b0952a71082702781e62ae05959060200160405180910390a360008082556001909101555050565b60065460005b81811015610d2157610d1181610a44565b610d1a816117bb565b9050610d00565b5050565b610d2d61104f565b8015610d3b57610d3b610cfa565b610d7e82610d7860068681548110610d5557610d55611759565b90600052602060002090600402016001015460085461104390919063ffffffff16565b90611037565b6008819055508160068481548110610d9857610d98611759565b906000526020600020906004020160010181905550505050565b610dba61104f565b610dc46000611354565b565b6002546001600160a01b03163314610e0c5760405162461bcd60e51b81526020600482015260096024820152686465763a207775743f60b81b604482015260640161073b565b600280546001600160a01b0319166001600160a01b0392909216919091179055565b60006003548211610e4f57610e48600a6104fc8486611043565b9050610561565b6003548310610e6257610e488284611043565b610e48610e7a6003548461104390919063ffffffff16565b610d78600a6104fc8760035461104390919063ffffffff16565b600060068381548110610ea957610ea9611759565b60009182526020808320868452600782526040808520338652909252922060049091029091019150610eda84610a44565b805415610f1d576000610f0f826001015461055464e8d4a510006105028760030154876000015461101890919063ffffffff16565b9050610f1b33826110a9565b505b8154610f34906001600160a01b03163330866113a4565b8054610f409084611037565b8082556003830154610f5d9164e8d4a51000916105029190611018565b6001820155604051838152849033907f90890809c654f11d6e72a28fa60149770a0d11ec6c92319d6ceb2bb0a4ea1a159060200160405180910390a350505050565b610fa761104f565b6001600160a01b03811661100c5760405162461bcd60e51b815260206004820152602660248201527f4f776e61626c653a206e6577206f776e657220697320746865207a65726f206160448201526564647265737360d01b606482015260840161073b565b61101581611354565b50565b600061102482846117d4565b9392505050565b600061102482846117f3565b60006110248284611815565b60006110248284611828565b6000546001600160a01b03163314610dc45760405162461bcd60e51b815260206004820181905260248201527f4f776e61626c653a2063616c6c6572206973206e6f7420746865206f776e6572604482015260640161073b565b6001546040516370a0823160e01b81523060048201526000916001600160a01b0316906370a0823190602401602060405180830381865afa1580156110f2573d6000803e3d6000fd5b505050506040513d601f19601f82011682018060405250810190611116919061176f565b90508082111561119e5760015460405163a9059cbb60e01b81526001600160a01b038581166004830152602482018490529091169063a9059cbb906044015b6020604051808303816000875af1158015611174573d6000803e3d6000fd5b505050506040513d601f19601f82011682018060405250810190611198919061183b565b50505050565b60015460405163a9059cbb60e01b81526001600160a01b038581166004830152602482018590529091169063a9059cbb90604401611155565b505050565b6040516001600160a01b0383166024820152604481018290526111d790849063a9059cbb60e01b906064015b60408051601f198184030181529190526020810180516001600160e01b03166001600160e01b0319909316929092179091526113dc565b8015806112b95750604051636eb1769f60e11b81523060048201526001600160a01b03838116602483015284169063dd62ed3e90604401602060405180830381865afa158015611293573d6000803e3d6000fd5b505050506040513d601f19601f820116820180604052508101906112b7919061176f565b155b6113245760405162461bcd60e51b815260206004820152603660248201527f5361666545524332303a20617070726f76652066726f6d206e6f6e2d7a65726f60448201527520746f206e6f6e2d7a65726f20616c6c6f77616e636560501b606482015260840161073b565b6040516001600160a01b0383166024820152604481018290526111d790849063095ea7b360e01b90606401611208565b600080546001600160a01b038381166001600160a01b0319831681178455604051919092169283917f8be0079c531659141344cd1fd0a4f28419497f9722a3daafe3b4186f6b6457e09190a35050565b6040516001600160a01b03808516602483015283166044820152606481018290526111989085906323b872dd60e01b90608401611208565b6000611431826040518060400160405280602081526020017f5361666545524332303a206c6f772d6c6576656c2063616c6c206661696c6564815250856001600160a01b03166114ae9092919063ffffffff16565b8051909150156111d7578080602001905181019061144f919061183b565b6111d75760405162461bcd60e51b815260206004820152602a60248201527f5361666545524332303a204552433230206f7065726174696f6e20646964206e6044820152691bdd081cdd58d8d9595960b21b606482015260840161073b565b60606114bd84846000856114c5565b949350505050565b6060824710156115265760405162461bcd60e51b815260206004820152602660248201527f416464726573733a20696e73756666696369656e742062616c616e636520666f6044820152651c8818d85b1b60d21b606482015260840161073b565b600080866001600160a01b03168587604051611542919061187c565b60006040518083038185875af1925050503d806000811461157f576040519150601f19603f3d011682016040523d82523d6000602084013e611584565b606091505b5091509150611595878383876115a0565b979650505050505050565b6060831561160f578251600003611608576001600160a01b0385163b6116085760405162461bcd60e51b815260206004820152601d60248201527f416464726573733a2063616c6c20746f206e6f6e2d636f6e7472616374000000604482015260640161073b565b50816114bd565b6114bd83838151156116245781518083602001fd5b8060405162461bcd60e51b815260040161073b9190611898565b60006020828403121561165057600080fd5b5035919050565b6001600160a01b038116811461101557600080fd5b6000806040838503121561167f57600080fd5b82359150602083013561169181611657565b809150509250929050565b801515811461101557600080fd5b6000806000606084860312156116bf57600080fd5b8335925060208401356116d181611657565b915060408401356116e18161169c565b809150509250925092565b6000602082840312156116fe57600080fd5b813561102481611657565b6000806040838503121561171c57600080fd5b50508035926020909101359150565b60008060006060848603121561174057600080fd5b833592506020840135915060408401356116e18161169c565b634e487b7160e01b600052603260045260246000fd5b60006020828403121561178157600080fd5b5051919050565b60006020828403121561179a57600080fd5b815161102481611657565b634e487b7160e01b600052601160045260246000fd5b6000600182016117cd576117cd6117a5565b5060010190565b60008160001904831182151516156117ee576117ee6117a5565b500290565b60008261181057634e487b7160e01b600052601260045260246000fd5b500490565b80820180821115610561576105616117a5565b81810381811115610561576105616117a5565b60006020828403121561184d57600080fd5b81516110248161169c565b60005b8381101561187357818101518382015260200161185b565b50506000910152565b6000825161188e818460208701611858565b9190910192915050565b60208152600082518060208401526118b7816040850160208701611858565b601f01601f1916919091016040019291505056fea26469706673582212204a8a31d4612ecef6ced92cb8f75f8d76105e1c94813d735bca6d8f20ac96861064736f6c63430008100033",
  "linkReferences": {},
  "deployedLinkReferences": {}
}