{
  "_format": "hh-sol-artifact-1",
  "contractName": "SushiBar",
  "sourceName": "contracts/SushiBar.sol",
  "abi": [
    {
      "inputs": [
        {
          "internalType": "contract IERC20",
          "name": "_vestingToken",
          "type": "address"
        }
      ],
      "stateMutability": "nonpayable",
      "type": "constructor"
    },
    {
      "anonymous": false,
      "inputs": [
        {
          "indexed": true,
          "internalType": "address",
          "name": "owner",
          "type": "address"
        },
        {
          "indexed": true,
          "internalType": "address",
          "name": "spender",
          "type": "address"
        },
        {
          "indexed": false,
          "internalType": "uint256",
          "name": "value",
          "type": "uint256"
        }
      ],
      "name": "Approval",
      "type": "event"
    },
    {
      "anonymous": false,
      "inputs": [
        {
          "indexed": true,
          "internalType": "address",
          "name": "user",
          "type": "address"
        },
        {
          "indexed": false,
          "internalType": "uint256",
          "name": "vestingInAmount",
          "type": "uint256"
        },
        {
          "indexed": false,
          "internalType": "uint256",
          "name": "mintedAmount",
          "type": "uint256"
        }
      ],
      "name": "Enter",
      "type": "event"
    },
    {
      "anonymous": false,
      "inputs": [
        {
          "indexed": true,
          "internalType": "address",
          "name": "user",
          "type": "address"
        },
        {
          "indexed": false,
          "internalType": "uint256",
          "name": "vestingOutAmount",
          "type": "uint256"
        },
        {
          "indexed": false,
          "internalType": "uint256",
          "name": "burnedAmount",
          "type": "uint256"
        }
      ],
      "name": "Leave",
      "type": "event"
    },
    {
      "anonymous": false,
      "inputs": [
        {
          "indexed": false,
          "internalType": "uint256",
          "name": "amount",
          "type": "uint256"
        }
      ],
      "name": "ShareRevenue",
      "type": "event"
    },
    {
      "anonymous": false,
      "inputs": [
        {
          "indexed": true,
          "internalType": "address",
          "name": "from",
          "type": "address"
        },
        {
          "indexed": true,
          "internalType": "address",
          "name": "to",
          "type": "address"
        },
        {
          "indexed": false,
          "internalType": "uint256",
          "name": "value",
          "type": "uint256"
        }
      ],
      "name": "Transfer",
      "type": "event"
    },
    {
      "inputs": [
        {
          "internalType": "address",
          "name": "owner",
          "type": "address"
        },
        {
          "internalType": "address",
          "name": "spender",
          "type": "address"
        }
      ],
      "name": "allowance",
      "outputs": [
        {
          "internalType": "uint256",
          "name": "",
          "type": "uint256"
        }
      ],
      "stateMutability": "view",
      "type": "function"
    },
    {
      "inputs": [
        {
          "internalType": "address",
          "name": "spender",
          "type": "address"
        },
        {
          "internalType": "uint256",
          "name": "amount",
          "type": "uint256"
        }
      ],
      "name": "approve",
      "outputs": [
        {
          "internalType": "bool",
          "name": "",
          "type": "bool"
        }
      ],
      "stateMutability": "nonpayable",
      "type": "function"
    },
    {
      "inputs": [
        {
          "internalType": "address",
          "name": "account",
          "type": "address"
        }
      ],
      "name": "balanceOf",
      "outputs": [
        {
          "internalType": "uint256",
          "name": "",
          "type": "uint256"
        }
      ],
      "stateMutability": "view",
      "type": "function"
    },
    {
      "inputs": [],
      "name": "decimals",
      "outputs": [
        {
          "internalType": "uint8",
          "name": "",
          "type": "uint8"
        }
      ],
      "stateMutability": "view",
      "type": "function"
    },
    {
      "inputs": [
        {
          "internalType": "address",
          "name": "spender",
          "type": "address"
        },
        {
          "internalType": "uint256",
          "name": "subtractedValue",
          "type": "uint256"
        }
      ],
      "name": "decreaseAllowance",
      "outputs": [
        {
          "internalType": "bool",
          "name": "",
          "type": "bool"
        }
      ],
      "stateMutability": "nonpayable",
      "type": "function"
    },
    {
      "inputs": [
        {
          "internalType": "uint256",
          "name": "_amount",
          "type": "uint256"
        }
      ],
      "name": "enter",
      "outputs": [],
      "stateMutability": "nonpayable",
      "type": "function"
    },
    {
      "inputs": [
        {
          "internalType": "address",
          "name": "spender",
          "type": "address"
        },
        {
          "internalType": "uint256",
          "name": "addedValue",
          "type": "uint256"
        }
      ],
      "name": "increaseAllowance",
      "outputs": [
        {
          "internalType": "bool",
          "name": "",
          "type": "bool"
        }
      ],
      "stateMutability": "nonpayable",
      "type": "function"
    },
    {
      "inputs": [
        {
          "internalType": "uint256",
          "name": "_shareOfFreshSushi",
          "type": "uint256"
        }
      ],
      "name": "leave",
      "outputs": [],
      "stateMutability": "nonpayable",
      "type": "function"
    },
    {
      "inputs": [],
      "name": "name",
      "outputs": [
        {
          "internalType": "string",
          "name": "",
          "type": "string"
        }
      ],
      "stateMutability": "view",
      "type": "function"
    },
    {
      "inputs": [
        {
          "internalType": "uint256",
          "name": "_amount",
          "type": "uint256"
        }
      ],
      "name": "shareRevenue",
      "outputs": [],
      "stateMutability": "nonpayable",
      "type": "function"
    },
    {
      "inputs": [],
      "name": "symbol",
      "outputs": [
        {
          "internalType": "string",
          "name": "",
          "type": "string"
        }
      ],
      "stateMutability": "view",
      "type": "function"
    },
    {
      "inputs": [],
      "name": "totalSupply",
      "outputs": [
        {
          "internalType": "uint256",
          "name": "",
          "type": "uint256"
        }
      ],
      "stateMutability": "view",
      "type": "function"
    },
    {
      "inputs": [
        {
          "internalType": "address",
          "name": "to",
          "type": "address"
        },
        {
          "internalType": "uint256",
          "name": "amount",
          "type": "uint256"
        }
      ],
      "name": "transfer",
      "outputs": [
        {
          "internalType": "bool",
          "name": "",
          "type": "bool"
        }
      ],
      "stateMutability": "nonpayable",
      "type": "function"
    },
    {
      "inputs": [
        {
          "internalType": "address",
          "name": "from",
          "type": "address"
        },
        {
          "internalType": "address",
          "name": "to",
          "type": "address"
        },
        {
          "internalType": "uint256",
          "name": "amount",
          "type": "uint256"
        }
      ],
      "name": "transferFrom",
      "outputs": [
        {
          "internalType": "bool",
          "name": "",
          "type": "bool"
        }
      ],
      "stateMutability": "nonpayable",
      "type": "function"
    },
    {
      "inputs": [],
      "name": "vestingToken",
      "outputs": [
        {
          "internalType": "contract IERC20",
          "name": "",
          "type": "address"
        }
      ],
      "stateMutability": "view",
      "type": "function"
    }
  ],
  "bytecode": "0x60806040523480156200001157600080fd5b5060405162002d6538038062002d6583398181016040528101906200003791906200022e565b6040518060400160405280600a81526020017f46726573685375736869000000000000000000000000000000000000000000008152506040518060400160405280600681526020017f66537573686900000000000000000000000000000000000000000000000000008152508160039081620000b49190620004da565b508060049081620000c69190620004da565b505050620000fd7f9dacac2c9fc58e0c24d2ae48d4c3dc7aa89512e9f3b4a274bd9b2de10faeb67560001b620001ad60201b60201c565b620001317f8a329201fb3fa008f0504706167a3d14e0224d57f123e32390456a7f9cb7451960001b620001ad60201b60201c565b620001657f91a038c547e29f5790d0819980781578b2ee3029ec865ae8c28002083d814da060001b620001ad60201b60201c565b80600560006101000a81548173ffffffffffffffffffffffffffffffffffffffff021916908373ffffffffffffffffffffffffffffffffffffffff16021790555050620005c1565b50565b600080fd5b600073ffffffffffffffffffffffffffffffffffffffff82169050919050565b6000620001e282620001b5565b9050919050565b6000620001f682620001d5565b9050919050565b6200020881620001e9565b81146200021457600080fd5b50565b6000815190506200022881620001fd565b92915050565b600060208284031215620002475762000246620001b0565b5b6000620002578482850162000217565b91505092915050565b600081519050919050565b7f4e487b7100000000000000000000000000000000000000000000000000000000600052604160045260246000fd5b7f4e487b7100000000000000000000000000000000000000000000000000000000600052602260045260246000fd5b60006002820490506001821680620002e257607f821691505b602082108103620002f857620002f76200029a565b5b50919050565b60008190508160005260206000209050919050565b60006020601f8301049050919050565b600082821b905092915050565b600060088302620003627fffffffffffffffffffffffffffffffffffffffffffffffffffffffffffffffff8262000323565b6200036e868362000323565b95508019841693508086168417925050509392505050565b6000819050919050565b6000819050919050565b6000620003bb620003b5620003af8462000386565b62000390565b62000386565b9050919050565b6000819050919050565b620003d7836200039a565b620003ef620003e682620003c2565b84845462000330565b825550505050565b600090565b62000406620003f7565b62000413818484620003cc565b505050565b5b818110156200043b576200042f600082620003fc565b60018101905062000419565b5050565b601f8211156200048a576200045481620002fe565b6200045f8462000313565b810160208510156200046f578190505b620004876200047e8562000313565b83018262000418565b50505b505050565b600082821c905092915050565b6000620004af600019846008026200048f565b1980831691505092915050565b6000620004ca83836200049c565b9150826002028217905092915050565b620004e58262000260565b67ffffffffffffffff8111156200050157620005006200026b565b5b6200050d8254620002c9565b6200051a8282856200043f565b600060209050601f8311600181146200055257600084156200053d578287015190505b620005498582620004bc565b865550620005b9565b601f1984166200056286620002fe565b60005b828110156200058c5784890151825560018201915060208501945060208101905062000565565b86831015620005ac5784890151620005a8601f8916826200049c565b8355505b6001600288020188555050505b505050505050565b61279480620005d16000396000f3fe608060405234801561001057600080fd5b50600436106100f55760003560e01c80633950935111610097578063a457c2d711610066578063a457c2d714610288578063a59f3e0c146102b8578063a9059cbb146102d4578063dd62ed3e14610304576100f5565b806339509351146101ee57806367dfd4c91461021e57806370a082311461023a57806395d89b411461026a576100f5565b806318160ddd116100d357806318160ddd1461016457806319d152fa1461018257806323b872dd146101a0578063313ce567146101d0576100f5565b806306fdde03146100fa578063095ea7b314610118578063139e41e414610148575b600080fd5b610102610334565b60405161010f9190611c32565b60405180910390f35b610132600480360381019061012d9190611ced565b6103c6565b60405161013f9190611d48565b60405180910390f35b610162600480360381019061015d9190611d63565b6103e9565b005b61016c6105a2565b6040516101799190611d9f565b60405180910390f35b61018a6105ac565b6040516101979190611e19565b60405180910390f35b6101ba60048036038101906101b59190611e34565b6105d2565b6040516101c79190611d48565b60405180910390f35b6101d8610601565b6040516101e59190611ea3565b60405180910390f35b61020860048036038101906102039190611ced565b61060a565b6040516102159190611d48565b60405180910390f35b61023860048036038101906102339190611d63565b610641565b005b610254600480360381019061024f9190611ebe565b610b04565b6040516102619190611d9f565b60405180910390f35b610272610b4c565b60405161027f9190611c32565b60405180910390f35b6102a2600480360381019061029d9190611ced565b610bde565b6040516102af9190611d48565b60405180910390f35b6102d260048036038101906102cd9190611d63565b610c55565b005b6102ee60048036038101906102e99190611ced565b6112f5565b6040516102fb9190611d48565b60405180910390f35b61031e60048036038101906103199190611eeb565b611318565b60405161032b9190611d9f565b60405180910390f35b60606003805461034390611f5a565b80601f016020809104026020016040519081016040528092919081815260200182805461036f90611f5a565b80156103bc5780601f10610391576101008083540402835291602001916103bc565b820191906000526020600020905b81548152906001019060200180831161039f57829003601f168201915b5050505050905090565b6000806103d161139f565b90506103de8185856113a7565b600191505092915050565b6104157ff833609ce2078137b486a8489521e37e4977b4d749c153cccb0a87c7f577ca3e60001b611570565b6104417f3bccf61dbfd20307a77f8d749ff9d089d9ee76c7da3b2e6fe2721bc8b8f62ff660001b611570565b61046d7f0659f02fa8fdc94626f7203e4d8279c0824975361e2246466f9b767e4fc7673860001b611570565b600560009054906101000a900473ffffffffffffffffffffffffffffffffffffffff1673ffffffffffffffffffffffffffffffffffffffff166323b872dd3330846040518463ffffffff1660e01b81526004016104cc93929190611f9a565b6020604051808303816000875af11580156104eb573d6000803e3d6000fd5b505050506040513d601f19601f8201168201806040525081019061050f9190611ffd565b5061053c7f8eb677df4665bca6592fcbdf714ba025b2c3b7681c8cb357842c5f6682acaefd60001b611570565b6105687f1ccfa3077027d2eeec75501c52507b63ee4e88d50d1d8dec6e172551107b754360001b611570565b7f8345132cbbbde83001e783cdfdd5190dedc863ae82cae7abe302b22322a60274816040516105979190611d9f565b60405180910390a150565b6000600254905090565b600560009054906101000a900473ffffffffffffffffffffffffffffffffffffffff1681565b6000806105dd61139f565b90506105ea858285611573565b6105f58585856115ff565b60019150509392505050565b60006012905090565b60008061061561139f565b90506106368185856106278589611318565b6106319190612059565b6113a7565b600191505092915050565b61066d7fecb672791d2e7b8a2dd4dad8f5c145d1a2565e199b16c845b5b199dfc6207f6860001b611570565b6106997f2332a46c96b3158ba66215af0b22418f7247bef5cc48a861a606342295b7a5ef60001b611570565b6106c57f1c506860c04ea4c72b8b4549b7d3a43c1aadf49550768241e3efdcc622fded3260001b611570565b6000811115610ad4576106fa7f5b05df6c251b40d923f8eb7c3d3934a64dc042e74d3605f74ee794c5501d46c260001b611570565b6107267f717b8334de241bcb57673a5ed5e0d8b980316aca3c66c8f33ca88e1e7d2f24c260001b611570565b6107527fb58c5cf14211e904097191b82a02a9fc7326807543da24fd01e5999981c3498060001b611570565b6000600560009054906101000a900473ffffffffffffffffffffffffffffffffffffffff1673ffffffffffffffffffffffffffffffffffffffff166370a08231306040518263ffffffff1660e01b81526004016107af919061208d565b602060405180830381865afa1580156107cc573d6000803e3d6000fd5b505050506040513d601f19601f820116820180604052508101906107f091906120bd565b905061081e7fdcf4b3df55ed2c7a2854abe57e931f2931d6746ff73ffeb21b7b1393144dec6560001b611570565b61084a7f1cf1059767ebd7df8b8b84555b689f5713a143682f6c2ddd248b5a18ef0e7ccc60001b611570565b60006108546105a2565b90506108827f8cb46ceb8da5279aaa6d01aaf47adea7b6915399db44686369be35a5bcc96fe760001b611570565b6108ae7fdb71fd2761f2feecbf2cf2a66ec6c5b4ba679838b37ee6b9b96dae95447c4dc360001b611570565b60008183856108bd91906120ea565b6108c79190612173565b90506108f57f9c536f6732627a4c0aefad318c04f0ddd48bd1621f486f01f6bbb0872d3166cd60001b611570565b6109217f5aa643c015506c980bc6392f838b687e4ae01860faa61469a29e4cd5cf7fba4d60001b611570565b61092b3385611875565b6109577f52e5c1d4fc2421f7d6560f9307f1466e2dcc0f626a59f13531d0182ea824664260001b611570565b6109837fc1e987bc9c6500d7835a09dc98899490b8cc4c71c8179c07df14c4ac7312551e60001b611570565b600560009054906101000a900473ffffffffffffffffffffffffffffffffffffffff1673ffffffffffffffffffffffffffffffffffffffff1663a9059cbb33836040518363ffffffff1660e01b81526004016109e09291906121a4565b6020604051808303816000875af11580156109ff573d6000803e3d6000fd5b505050506040513d601f19601f82011682018060405250810190610a239190611ffd565b50610a507fcaa9c012722e7d714175c2cda71bb114a93df8b3db8630971ce28821d86bd9c960001b611570565b610a7c7f61bde3de51d057d42faada1565ffe477e0bd822e8cad45c10798f3721950123960001b611570565b3373ffffffffffffffffffffffffffffffffffffffff167f0f0f7f8153c6d63a5696720d4cc434e56bb5ac1cf8c791ed9c180defb6e921538286604051610ac49291906121cd565b60405180910390a2505050610b01565b610b007fe231b0d63f40249a6ca20dfbeafd1b13f77db3860f8b9ea2cdaa556f1a791b3360001b611570565b5b50565b60008060008373ffffffffffffffffffffffffffffffffffffffff1673ffffffffffffffffffffffffffffffffffffffff168152602001908152602001600020549050919050565b606060048054610b5b90611f5a565b80601f0160208091040260200160405190810160405280929190818152602001828054610b8790611f5a565b8015610bd45780601f10610ba957610100808354040283529160200191610bd4565b820191906000526020600020905b815481529060010190602001808311610bb757829003601f168201915b5050505050905090565b600080610be961139f565b90506000610bf78286611318565b905083811015610c3c576040517f08c379a0000000000000000000000000000000000000000000000000000000008152600401610c3390612268565b60405180910390fd5b610c4982868684036113a7565b60019250505092915050565b610c817f0e501d0a4c8fc5d90990326b9aafbbd63036ea5711308e8e036a7840d4144f5d60001b611570565b610cad7fab44802ccda01f25024dedfbd9893cf5cf734b220e8f857c26c775a92c8b242960001b611570565b610cd97f3ed1f95920211d5e74e7ed448f2fc779de31b36a603b5190e4be32d814f6d88260001b611570565b60008111156112c557610d0e7ffce083636fbf8410926ee5e3d063e82e3f5ddecee86a6ab9f94651a76875863d60001b611570565b610d3a7f5944fa3181997781a2d79ea2ef912158ac6e0bc35efc67a0bf078fff58b493e860001b611570565b610d667f3909c2c594de4a78bc438f180f5f19ff6a8ef80888e69b0550587f7ed2575b9960001b611570565b6000600560009054906101000a900473ffffffffffffffffffffffffffffffffffffffff1673ffffffffffffffffffffffffffffffffffffffff166370a08231306040518263ffffffff1660e01b8152600401610dc3919061208d565b602060405180830381865afa158015610de0573d6000803e3d6000fd5b505050506040513d601f19601f82011682018060405250810190610e0491906120bd565b9050610e327f58da70a46d925704fe7fc03e19361a1d6f717f519295e9ead6c0a295a16787b560001b611570565b610e5e7fcd79a49c2859e17f46980cbea6e2b80832e39887aae1f220ed981d73e787c78260001b611570565b6000610e686105a2565b9050610e967f6f25ac971966bb9e5abd1bb5274ef4c1dd2cbfd86d60dfad568c08a4fb7562e860001b611570565b610ec27fc88e7bbd22e332e760c6dcdb8adf1b181e33b751a268d46fc90ce798b978ae4860001b611570565b600560009054906101000a900473ffffffffffffffffffffffffffffffffffffffff1673ffffffffffffffffffffffffffffffffffffffff166323b872dd3330866040518463ffffffff1660e01b8152600401610f2193929190611f9a565b6020604051808303816000875af1158015610f40573d6000803e3d6000fd5b505050506040513d601f19601f82011682018060405250810190610f649190611ffd565b50610f917f8033265ee0feac1ca54a8fda6a434eb3c88248b9e3231d1bc4a1087211904d3260001b611570565b610fbd7f6345733ba7e782b9e2bf080c65a8e1ad2b29fbefa6595740d29d46e61a519a2560001b611570565b6000610feb7ffc819018e5a88c2c307b6faedc7eaf0026cc1b48f80bb763c944c954aa10aa8a60001b611570565b6110177f0dee70cc373ba777f540d3d15daeb2e292301b28379732daf65453b48e5086b660001b611570565b60008214806110265750600083145b156110b7576110577fba26f149bb0a2039f62240e3ecb7527753f15593596efc88d9b13da6b37c49f160001b611570565b6110837f4565e55af376da707f51c505fc1f4843ef3ba26eeef0b679db6f3cbec6ba833860001b611570565b6110af7f73d91a93f01fa85033d9ad0167f9b12f3e68c58111210acce82295231eb76c1660001b611570565b8390506111b3565b6110e37faeec26f0390fc4e49ab58b43c85cb30877aebd755e74f6e2f86d9b26c208cb6860001b611570565b61110f7ffdeba645a03b5d2219ceab50468ae7ace308eb33a04a59522c60e02cc59f45a560001b611570565b61113b7fbf1da81ffd105eba81771297dbc41ad6cd2523d835eba76d10af280e99b72f3460001b611570565b600083838661114a91906120ea565b6111549190612173565b90506111827fce052e07b4963a873751717c74e354400fbb5f88696263d65247129459230d3b60001b611570565b6111ae7fa04988d1adea360f3f190070a672d1bd7150212b2823f559f0932274ebbec51e60001b611570565b809150505b6111df7ff7fb133fd05fff227b88ce49b55032b679cff3b06003d07a462438629b74beaa60001b611570565b61120b7f95037cd9b09a8d672c055272238342473595d1aeaf96462a9ba79fa64358fa2460001b611570565b6112153382611a42565b6112417f884e5036feab9adfdbad989d1f74e738ef23248b2a86e202495b96781cd49d3960001b611570565b61126d7f03fe3c3f1f944ce4064a9aa26402c2ddc8b6258f2d77afcfa50c9a0d8d81f3b460001b611570565b3373ffffffffffffffffffffffffffffffffffffffff167f5087fbec8bdd9b358f62d89babb5f4dd44f8576230a9520c90e3407d6f4dd1fb85836040516112b59291906121cd565b60405180910390a25050506112f2565b6112f17f7adddc1178d868b53cd5f96841c5773ed36bd032080e246338739cdb19da075e60001b611570565b5b50565b60008061130061139f565b905061130d8185856115ff565b600191505092915050565b6000600160008473ffffffffffffffffffffffffffffffffffffffff1673ffffffffffffffffffffffffffffffffffffffff16815260200190815260200160002060008373ffffffffffffffffffffffffffffffffffffffff1673ffffffffffffffffffffffffffffffffffffffff16815260200190815260200160002054905092915050565b600033905090565b600073ffffffffffffffffffffffffffffffffffffffff168373ffffffffffffffffffffffffffffffffffffffff1603611416576040517f08c379a000000000000000000000000000000000000000000000000000000000815260040161140d906122fa565b60405180910390fd5b600073ffffffffffffffffffffffffffffffffffffffff168273ffffffffffffffffffffffffffffffffffffffff1603611485576040517f08c379a000000000000000000000000000000000000000000000000000000000815260040161147c9061238c565b60405180910390fd5b80600160008573ffffffffffffffffffffffffffffffffffffffff1673ffffffffffffffffffffffffffffffffffffffff16815260200190815260200160002060008473ffffffffffffffffffffffffffffffffffffffff1673ffffffffffffffffffffffffffffffffffffffff168152602001908152602001600020819055508173ffffffffffffffffffffffffffffffffffffffff168373ffffffffffffffffffffffffffffffffffffffff167f8c5be1e5ebec7d5bd14f71427d1e84f3dd0314c0f7b2291e5b200ac8c7c3b925836040516115639190611d9f565b60405180910390a3505050565b50565b600061157f8484611318565b90507fffffffffffffffffffffffffffffffffffffffffffffffffffffffffffffffff81146115f957818110156115eb576040517f08c379a00000000000000000000000000000000000000000000000000000000081526004016115e2906123f8565b60405180910390fd5b6115f884848484036113a7565b5b50505050565b600073ffffffffffffffffffffffffffffffffffffffff168373ffffffffffffffffffffffffffffffffffffffff160361166e576040517f08c379a00000000000000000000000000000000000000000000000000000000081526004016116659061248a565b60405180910390fd5b600073ffffffffffffffffffffffffffffffffffffffff168273ffffffffffffffffffffffffffffffffffffffff16036116dd576040517f08c379a00000000000000000000000000000000000000000000000000000000081526004016116d49061251c565b60405180910390fd5b6116e8838383611b98565b60008060008573ffffffffffffffffffffffffffffffffffffffff1673ffffffffffffffffffffffffffffffffffffffff1681526020019081526020016000205490508181101561176e576040517f08c379a0000000000000000000000000000000000000000000000000000000008152600401611765906125ae565b60405180910390fd5b8181036000808673ffffffffffffffffffffffffffffffffffffffff1673ffffffffffffffffffffffffffffffffffffffff16815260200190815260200160002081905550816000808573ffffffffffffffffffffffffffffffffffffffff1673ffffffffffffffffffffffffffffffffffffffff168152602001908152602001600020600082825401925050819055508273ffffffffffffffffffffffffffffffffffffffff168473ffffffffffffffffffffffffffffffffffffffff167fddf252ad1be2c89b69c2b068fc378daa952ba7f163c4a11628f55a4df523b3ef8460405161185c9190611d9f565b60405180910390a361186f848484611b9d565b50505050565b600073ffffffffffffffffffffffffffffffffffffffff168273ffffffffffffffffffffffffffffffffffffffff16036118e4576040517f08c379a00000000000000000000000000000000000000000000000000000000081526004016118db90612640565b60405180910390fd5b6118f082600083611b98565b60008060008473ffffffffffffffffffffffffffffffffffffffff1673ffffffffffffffffffffffffffffffffffffffff16815260200190815260200160002054905081811015611976576040517f08c379a000000000000000000000000000000000000000000000000000000000815260040161196d906126d2565b60405180910390fd5b8181036000808573ffffffffffffffffffffffffffffffffffffffff1673ffffffffffffffffffffffffffffffffffffffff1681526020019081526020016000208190555081600260008282540392505081905550600073ffffffffffffffffffffffffffffffffffffffff168373ffffffffffffffffffffffffffffffffffffffff167fddf252ad1be2c89b69c2b068fc378daa952ba7f163c4a11628f55a4df523b3ef84604051611a299190611d9f565b60405180910390a3611a3d83600084611b9d565b505050565b600073ffffffffffffffffffffffffffffffffffffffff168273ffffffffffffffffffffffffffffffffffffffff1603611ab1576040517f08c379a0000000000000000000000000000000000000000000000000000000008152600401611aa89061273e565b60405180910390fd5b611abd60008383611b98565b8060026000828254611acf9190612059565b92505081905550806000808473ffffffffffffffffffffffffffffffffffffffff1673ffffffffffffffffffffffffffffffffffffffff168152602001908152602001600020600082825401925050819055508173ffffffffffffffffffffffffffffffffffffffff16600073ffffffffffffffffffffffffffffffffffffffff167fddf252ad1be2c89b69c2b068fc378daa952ba7f163c4a11628f55a4df523b3ef83604051611b809190611d9f565b60405180910390a3611b9460008383611b9d565b5050565b505050565b505050565b600081519050919050565b600082825260208201905092915050565b60005b83811015611bdc578082015181840152602081019050611bc1565b60008484015250505050565b6000601f19601f8301169050919050565b6000611c0482611ba2565b611c0e8185611bad565b9350611c1e818560208601611bbe565b611c2781611be8565b840191505092915050565b60006020820190508181036000830152611c4c8184611bf9565b905092915050565b600080fd5b600073ffffffffffffffffffffffffffffffffffffffff82169050919050565b6000611c8482611c59565b9050919050565b611c9481611c79565b8114611c9f57600080fd5b50565b600081359050611cb181611c8b565b92915050565b6000819050919050565b611cca81611cb7565b8114611cd557600080fd5b50565b600081359050611ce781611cc1565b92915050565b60008060408385031215611d0457611d03611c54565b5b6000611d1285828601611ca2565b9250506020611d2385828601611cd8565b9150509250929050565b60008115159050919050565b611d4281611d2d565b82525050565b6000602082019050611d5d6000830184611d39565b92915050565b600060208284031215611d7957611d78611c54565b5b6000611d8784828501611cd8565b91505092915050565b611d9981611cb7565b82525050565b6000602082019050611db46000830184611d90565b92915050565b6000819050919050565b6000611ddf611dda611dd584611c59565b611dba565b611c59565b9050919050565b6000611df182611dc4565b9050919050565b6000611e0382611de6565b9050919050565b611e1381611df8565b82525050565b6000602082019050611e2e6000830184611e0a565b92915050565b600080600060608486031215611e4d57611e4c611c54565b5b6000611e5b86828701611ca2565b9350506020611e6c86828701611ca2565b9250506040611e7d86828701611cd8565b9150509250925092565b600060ff82169050919050565b611e9d81611e87565b82525050565b6000602082019050611eb86000830184611e94565b92915050565b600060208284031215611ed457611ed3611c54565b5b6000611ee284828501611ca2565b91505092915050565b60008060408385031215611f0257611f01611c54565b5b6000611f1085828601611ca2565b9250506020611f2185828601611ca2565b9150509250929050565b7f4e487b7100000000000000000000000000000000000000000000000000000000600052602260045260246000fd5b60006002820490506001821680611f7257607f821691505b602082108103611f8557611f84611f2b565b5b50919050565b611f9481611c79565b82525050565b6000606082019050611faf6000830186611f8b565b611fbc6020830185611f8b565b611fc96040830184611d90565b949350505050565b611fda81611d2d565b8114611fe557600080fd5b50565b600081519050611ff781611fd1565b92915050565b60006020828403121561201357612012611c54565b5b600061202184828501611fe8565b91505092915050565b7f4e487b7100000000000000000000000000000000000000000000000000000000600052601160045260246000fd5b600061206482611cb7565b915061206f83611cb7565b92508282019050808211156120875761208661202a565b5b92915050565b60006020820190506120a26000830184611f8b565b92915050565b6000815190506120b781611cc1565b92915050565b6000602082840312156120d3576120d2611c54565b5b60006120e1848285016120a8565b91505092915050565b60006120f582611cb7565b915061210083611cb7565b9250817fffffffffffffffffffffffffffffffffffffffffffffffffffffffffffffffff04831182151516156121395761213861202a565b5b828202905092915050565b7f4e487b7100000000000000000000000000000000000000000000000000000000600052601260045260246000fd5b600061217e82611cb7565b915061218983611cb7565b92508261219957612198612144565b5b828204905092915050565b60006040820190506121b96000830185611f8b565b6121c66020830184611d90565b9392505050565b60006040820190506121e26000830185611d90565b6121ef6020830184611d90565b9392505050565b7f45524332303a2064656372656173656420616c6c6f77616e63652062656c6f7760008201527f207a65726f000000000000000000000000000000000000000000000000000000602082015250565b6000612252602583611bad565b915061225d826121f6565b604082019050919050565b6000602082019050818103600083015261228181612245565b9050919050565b7f45524332303a20617070726f76652066726f6d20746865207a65726f2061646460008201527f7265737300000000000000000000000000000000000000000000000000000000602082015250565b60006122e4602483611bad565b91506122ef82612288565b604082019050919050565b60006020820190508181036000830152612313816122d7565b9050919050565b7f45524332303a20617070726f766520746f20746865207a65726f20616464726560008201527f7373000000000000000000000000000000000000000000000000000000000000602082015250565b6000612376602283611bad565b91506123818261231a565b604082019050919050565b600060208201905081810360008301526123a581612369565b9050919050565b7f45524332303a20696e73756666696369656e7420616c6c6f77616e6365000000600082015250565b60006123e2601d83611bad565b91506123ed826123ac565b602082019050919050565b60006020820190508181036000830152612411816123d5565b9050919050565b7f45524332303a207472616e736665722066726f6d20746865207a65726f20616460008201527f6472657373000000000000000000000000000000000000000000000000000000602082015250565b6000612474602583611bad565b915061247f82612418565b604082019050919050565b600060208201905081810360008301526124a381612467565b9050919050565b7f45524332303a207472616e7366657220746f20746865207a65726f206164647260008201527f6573730000000000000000000000000000000000000000000000000000000000602082015250565b6000612506602383611bad565b9150612511826124aa565b604082019050919050565b60006020820190508181036000830152612535816124f9565b9050919050565b7f45524332303a207472616e7366657220616d6f756e742065786365656473206260008201527f616c616e63650000000000000000000000000000000000000000000000000000602082015250565b6000612598602683611bad565b91506125a38261253c565b604082019050919050565b600060208201905081810360008301526125c78161258b565b9050919050565b7f45524332303a206275726e2066726f6d20746865207a65726f2061646472657360008201527f7300000000000000000000000000000000000000000000000000000000000000602082015250565b600061262a602183611bad565b9150612635826125ce565b604082019050919050565b600060208201905081810360008301526126598161261d565b9050919050565b7f45524332303a206275726e20616d6f756e7420657863656564732062616c616e60008201527f6365000000000000000000000000000000000000000000000000000000000000602082015250565b60006126bc602283611bad565b91506126c782612660565b604082019050919050565b600060208201905081810360008301526126eb816126af565b9050919050565b7f45524332303a206d696e7420746f20746865207a65726f206164647265737300600082015250565b6000612728601f83611bad565b9150612733826126f2565b602082019050919050565b600060208201905081810360008301526127578161271b565b905091905056fea264697066735822122026ba56c2ce7d15acf677b960057ab577b964dd9b1c7daf8cfd80cdc8f4475f4964736f6c63430008100033",
  "linkReferences": {},
  "deployedLinkReferences": {}
}