{
  "_format": "hh-sol-artifact-1",
  "contractName": "SushiToken",
  "sourceName": "contracts/SushiToken.sol",
  "abi": [
    {
      "anonymous": false,
      "inputs": [
        {
          "indexed": true,
          "internalType": "address",
          "name": "owner",
          "type": "address"
        },
        {
          "indexed": true,
          "internalType": "address",
          "name": "spender",
          "type": "address"
        },
        {
          "indexed": false,
          "internalType": "uint256",
          "name": "value",
          "type": "uint256"
        }
      ],
      "name": "Approval",
      "type": "event"
    },
    {
      "anonymous": false,
      "inputs": [
        {
          "indexed": true,
          "internalType": "address",
          "name": "delegator",
          "type": "address"
        },
        {
          "indexed": true,
          "internalType": "address",
          "name": "fromDelegate",
          "type": "address"
        },
        {
          "indexed": true,
          "internalType": "address",
          "name": "toDelegate",
          "type": "address"
        }
      ],
      "name": "DelegateChanged",
      "type": "event"
    },
    {
      "anonymous": false,
      "inputs": [
        {
          "indexed": true,
          "internalType": "address",
          "name": "delegate",
          "type": "address"
        },
        {
          "indexed": false,
          "internalType": "uint256",
          "name": "previousBalance",
          "type": "uint256"
        },
        {
          "indexed": false,
          "internalType": "uint256",
          "name": "newBalance",
          "type": "uint256"
        }
      ],
      "name": "DelegateVotesChanged",
      "type": "event"
    },
    {
      "anonymous": false,
      "inputs": [
        {
          "indexed": true,
          "internalType": "address",
          "name": "previousOwner",
          "type": "address"
        },
        {
          "indexed": true,
          "internalType": "address",
          "name": "newOwner",
          "type": "address"
        }
      ],
      "name": "OwnershipTransferred",
      "type": "event"
    },
    {
      "anonymous": false,
      "inputs": [
        {
          "indexed": true,
          "internalType": "address",
          "name": "from",
          "type": "address"
        },
        {
          "indexed": true,
          "internalType": "address",
          "name": "to",
          "type": "address"
        },
        {
          "indexed": false,
          "internalType": "uint256",
          "name": "value",
          "type": "uint256"
        }
      ],
      "name": "Transfer",
      "type": "event"
    },
    {
      "inputs": [],
      "name": "DELEGATION_TYPEHASH",
      "outputs": [
        {
          "internalType": "bytes32",
          "name": "",
          "type": "bytes32"
        }
      ],
      "stateMutability": "view",
      "type": "function"
    },
    {
      "inputs": [],
      "name": "DOMAIN_TYPEHASH",
      "outputs": [
        {
          "internalType": "bytes32",
          "name": "",
          "type": "bytes32"
        }
      ],
      "stateMutability": "view",
      "type": "function"
    },
    {
      "inputs": [
        {
          "internalType": "address",
          "name": "owner",
          "type": "address"
        },
        {
          "internalType": "address",
          "name": "spender",
          "type": "address"
        }
      ],
      "name": "allowance",
      "outputs": [
        {
          "internalType": "uint256",
          "name": "",
          "type": "uint256"
        }
      ],
      "stateMutability": "view",
      "type": "function"
    },
    {
      "inputs": [
        {
          "internalType": "address",
          "name": "spender",
          "type": "address"
        },
        {
          "internalType": "uint256",
          "name": "amount",
          "type": "uint256"
        }
      ],
      "name": "approve",
      "outputs": [
        {
          "internalType": "bool",
          "name": "",
          "type": "bool"
        }
      ],
      "stateMutability": "nonpayable",
      "type": "function"
    },
    {
      "inputs": [
        {
          "internalType": "address",
          "name": "account",
          "type": "address"
        }
      ],
      "name": "balanceOf",
      "outputs": [
        {
          "internalType": "uint256",
          "name": "",
          "type": "uint256"
        }
      ],
      "stateMutability": "view",
      "type": "function"
    },
    {
      "inputs": [
        {
          "internalType": "address",
          "name": "",
          "type": "address"
        },
        {
          "internalType": "uint32",
          "name": "",
          "type": "uint32"
        }
      ],
      "name": "checkpoints",
      "outputs": [
        {
          "internalType": "uint32",
          "name": "fromBlock",
          "type": "uint32"
        },
        {
          "internalType": "uint256",
          "name": "votes",
          "type": "uint256"
        }
      ],
      "stateMutability": "view",
      "type": "function"
    },
    {
      "inputs": [],
      "name": "decimals",
      "outputs": [
        {
          "internalType": "uint8",
          "name": "",
          "type": "uint8"
        }
      ],
      "stateMutability": "view",
      "type": "function"
    },
    {
      "inputs": [
        {
          "internalType": "address",
          "name": "spender",
          "type": "address"
        },
        {
          "internalType": "uint256",
          "name": "subtractedValue",
          "type": "uint256"
        }
      ],
      "name": "decreaseAllowance",
      "outputs": [
        {
          "internalType": "bool",
          "name": "",
          "type": "bool"
        }
      ],
      "stateMutability": "nonpayable",
      "type": "function"
    },
    {
      "inputs": [
        {
          "internalType": "address",
          "name": "delegatee",
          "type": "address"
        }
      ],
      "name": "delegate",
      "outputs": [],
      "stateMutability": "nonpayable",
      "type": "function"
    },
    {
      "inputs": [
        {
          "internalType": "address",
          "name": "delegatee",
          "type": "address"
        },
        {
          "internalType": "uint256",
          "name": "nonce",
          "type": "uint256"
        },
        {
          "internalType": "uint256",
          "name": "expiry",
          "type": "uint256"
        },
        {
          "internalType": "uint8",
          "name": "v",
          "type": "uint8"
        },
        {
          "internalType": "bytes32",
          "name": "r",
          "type": "bytes32"
        },
        {
          "internalType": "bytes32",
          "name": "s",
          "type": "bytes32"
        }
      ],
      "name": "delegateBySig",
      "outputs": [],
      "stateMutability": "nonpayable",
      "type": "function"
    },
    {
      "inputs": [
        {
          "internalType": "address",
          "name": "delegator",
          "type": "address"
        }
      ],
      "name": "delegates",
      "outputs": [
        {
          "internalType": "address",
          "name": "",
          "type": "address"
        }
      ],
      "stateMutability": "view",
      "type": "function"
    },
    {
      "inputs": [
        {
          "internalType": "address",
          "name": "account",
          "type": "address"
        }
      ],
      "name": "getCurrentVotes",
      "outputs": [
        {
          "internalType": "uint256",
          "name": "",
          "type": "uint256"
        }
      ],
      "stateMutability": "view",
      "type": "function"
    },
    {
      "inputs": [
        {
          "internalType": "address",
          "name": "account",
          "type": "address"
        },
        {
          "internalType": "uint256",
          "name": "blockNumber",
          "type": "uint256"
        }
      ],
      "name": "getPriorVotes",
      "outputs": [
        {
          "internalType": "uint256",
          "name": "",
          "type": "uint256"
        }
      ],
      "stateMutability": "view",
      "type": "function"
    },
    {
      "inputs": [
        {
          "internalType": "address",
          "name": "spender",
          "type": "address"
        },
        {
          "internalType": "uint256",
          "name": "addedValue",
          "type": "uint256"
        }
      ],
      "name": "increaseAllowance",
      "outputs": [
        {
          "internalType": "bool",
          "name": "",
          "type": "bool"
        }
      ],
      "stateMutability": "nonpayable",
      "type": "function"
    },
    {
      "inputs": [
        {
          "internalType": "address",
          "name": "_to",
          "type": "address"
        },
        {
          "internalType": "uint256",
          "name": "_amount",
          "type": "uint256"
        }
      ],
      "name": "mint",
      "outputs": [],
      "stateMutability": "nonpayable",
      "type": "function"
    },
    {
      "inputs": [],
      "name": "name",
      "outputs": [
        {
          "internalType": "string",
          "name": "",
          "type": "string"
        }
      ],
      "stateMutability": "view",
      "type": "function"
    },
    {
      "inputs": [
        {
          "internalType": "address",
          "name": "",
          "type": "address"
        }
      ],
      "name": "nonces",
      "outputs": [
        {
          "internalType": "uint256",
          "name": "",
          "type": "uint256"
        }
      ],
      "stateMutability": "view",
      "type": "function"
    },
    {
      "inputs": [
        {
          "internalType": "address",
          "name": "",
          "type": "address"
        }
      ],
      "name": "numCheckpoints",
      "outputs": [
        {
          "internalType": "uint32",
          "name": "",
          "type": "uint32"
        }
      ],
      "stateMutability": "view",
      "type": "function"
    },
    {
      "inputs": [],
      "name": "owner",
      "outputs": [
        {
          "internalType": "address",
          "name": "",
          "type": "address"
        }
      ],
      "stateMutability": "view",
      "type": "function"
    },
    {
      "inputs": [],
      "name": "renounceOwnership",
      "outputs": [],
      "stateMutability": "nonpayable",
      "type": "function"
    },
    {
      "inputs": [],
      "name": "symbol",
      "outputs": [
        {
          "internalType": "string",
          "name": "",
          "type": "string"
        }
      ],
      "stateMutability": "view",
      "type": "function"
    },
    {
      "inputs": [],
      "name": "totalSupply",
      "outputs": [
        {
          "internalType": "uint256",
          "name": "",
          "type": "uint256"
        }
      ],
      "stateMutability": "view",
      "type": "function"
    },
    {
      "inputs": [
        {
          "internalType": "address",
          "name": "to",
          "type": "address"
        },
        {
          "internalType": "uint256",
          "name": "amount",
          "type": "uint256"
        }
      ],
      "name": "transfer",
      "outputs": [
        {
          "internalType": "bool",
          "name": "",
          "type": "bool"
        }
      ],
      "stateMutability": "nonpayable",
      "type": "function"
    },
    {
      "inputs": [
        {
          "internalType": "address",
          "name": "from",
          "type": "address"
        },
        {
          "internalType": "address",
          "name": "to",
          "type": "address"
        },
        {
          "internalType": "uint256",
          "name": "amount",
          "type": "uint256"
        }
      ],
      "name": "transferFrom",
      "outputs": [
        {
          "internalType": "bool",
          "name": "",
          "type": "bool"
        }
      ],
      "stateMutability": "nonpayable",
      "type": "function"
    },
    {
      "inputs": [
        {
          "internalType": "address",
          "name": "newOwner",
          "type": "address"
        }
      ],
      "name": "transferOwnership",
      "outputs": [],
      "stateMutability": "nonpayable",
      "type": "function"
    }
  ],
  "bytecode": "0x60806040523480156200001157600080fd5b506040518060400160405280600a81526020017f5375736869546f6b656e000000000000000000000000000000000000000000008152506040518060400160405280600581526020017f535553484900000000000000000000000000000000000000000000000000000081525081600390816200008f919062000412565b508060049081620000a1919062000412565b505050620000c4620000b8620000ca60201b60201c565b620000d260201b60201c565b620004f9565b600033905090565b6000600560009054906101000a900473ffffffffffffffffffffffffffffffffffffffff16905081600560006101000a81548173ffffffffffffffffffffffffffffffffffffffff021916908373ffffffffffffffffffffffffffffffffffffffff1602179055508173ffffffffffffffffffffffffffffffffffffffff168173ffffffffffffffffffffffffffffffffffffffff167f8be0079c531659141344cd1fd0a4f28419497f9722a3daafe3b4186f6b6457e060405160405180910390a35050565b600081519050919050565b7f4e487b7100000000000000000000000000000000000000000000000000000000600052604160045260246000fd5b7f4e487b7100000000000000000000000000000000000000000000000000000000600052602260045260246000fd5b600060028204905060018216806200021a57607f821691505b60208210810362000230576200022f620001d2565b5b50919050565b60008190508160005260206000209050919050565b60006020601f8301049050919050565b600082821b905092915050565b6000600883026200029a7fffffffffffffffffffffffffffffffffffffffffffffffffffffffffffffffff826200025b565b620002a686836200025b565b95508019841693508086168417925050509392505050565b6000819050919050565b6000819050919050565b6000620002f3620002ed620002e784620002be565b620002c8565b620002be565b9050919050565b6000819050919050565b6200030f83620002d2565b620003276200031e82620002fa565b84845462000268565b825550505050565b600090565b6200033e6200032f565b6200034b81848462000304565b505050565b5b8181101562000373576200036760008262000334565b60018101905062000351565b5050565b601f821115620003c2576200038c8162000236565b62000397846200024b565b81016020851015620003a7578190505b620003bf620003b6856200024b565b83018262000350565b50505b505050565b600082821c905092915050565b6000620003e760001984600802620003c7565b1980831691505092915050565b6000620004028383620003d4565b9150826002028217905092915050565b6200041d8262000198565b67ffffffffffffffff811115620004395762000438620001a3565b5b62000445825462000201565b6200045282828562000377565b600060209050601f8311600181146200048a576000841562000475578287015190505b620004818582620003f4565b865550620004f1565b601f1984166200049a8662000236565b60005b82811015620004c4578489015182556001820191506020850194506020810190506200049d565b86831015620004e45784890151620004e0601f891682620003d4565b8355505b6001600288020188555050505b505050505050565b614c1680620005096000396000f3fe608060405234801561001057600080fd5b50600436106101735760003560e01c8063715018a6116100de578063a9059cbb11610097578063dd62ed3e11610071578063dd62ed3e1461049a578063e7a324dc146104ca578063f1127ed8146104e8578063f2fde38b1461051957610173565b8063a9059cbb1461041e578063b4b5ea571461044e578063c3cda5201461047e57610173565b8063715018a614610348578063782d6fe1146103525780637ecebe00146103825780638da5cb5b146103b257806395d89b41146103d0578063a457c2d7146103ee57610173565b80633950935111610130578063395093511461025057806340c10f1914610280578063587cde1e1461029c5780635c19a95c146102cc5780636fcfff45146102e857806370a082311461031857610173565b806306fdde0314610178578063095ea7b31461019657806318160ddd146101c657806320606b70146101e457806323b872dd14610202578063313ce56714610232575b600080fd5b610180610535565b60405161018d9190613c07565b60405180910390f35b6101b060048036038101906101ab9190613cc2565b6105c7565b6040516101bd9190613d1d565b60405180910390f35b6101ce6105ea565b6040516101db9190613d47565b60405180910390f35b6101ec6105f4565b6040516101f99190613d7b565b60405180910390f35b61021c60048036038101906102179190613d96565b610618565b6040516102299190613d1d565b60405180910390f35b61023a610647565b6040516102479190613e05565b60405180910390f35b61026a60048036038101906102659190613cc2565b610650565b6040516102779190613d1d565b60405180910390f35b61029a60048036038101906102959190613cc2565b610687565b005b6102b660048036038101906102b19190613e20565b6107e4565b6040516102c39190613e5c565b60405180910390f35b6102e660048036038101906102e19190613e20565b6108d1565b005b61030260048036038101906102fd9190613e20565b610962565b60405161030f9190613e96565b60405180910390f35b610332600480360381019061032d9190613e20565b610985565b60405161033f9190613d47565b60405180910390f35b6103506109cd565b005b61036c60048036038101906103679190613cc2565b6109e1565b6040516103799190613d47565b60405180910390f35b61039c60048036038101906103979190613e20565b61164f565b6040516103a99190613d47565b60405180910390f35b6103ba611667565b6040516103c79190613e5c565b60405180910390f35b6103d8611691565b6040516103e59190613c07565b60405180910390f35b61040860048036038101906104039190613cc2565b611723565b6040516104159190613d1d565b60405180910390f35b61043860048036038101906104339190613cc2565b61179a565b6040516104459190613d1d565b60405180910390f35b61046860048036038101906104639190613e20565b6117bd565b6040516104759190613d47565b60405180910390f35b61049860048036038101906104939190613f09565b611979565b005b6104b460048036038101906104af9190613f96565b612001565b6040516104c19190613d47565b60405180910390f35b6104d2612088565b6040516104df9190613d7b565b60405180910390f35b61050260048036038101906104fd9190614002565b6120ac565b604051610510929190614042565b60405180910390f35b610533600480360381019061052e9190613e20565b6120ed565b005b6060600380546105449061409a565b80601f01602080910402602001604051908101604052809291908181526020018280546105709061409a565b80156105bd5780601f10610592576101008083540402835291602001916105bd565b820191906000526020600020905b8154815290600101906020018083116105a057829003601f168201915b5050505050905090565b6000806105d2612170565b90506105df818585612178565b600191505092915050565b6000600254905090565b7f8cad95687ba82c2ce50e74f7b754645e5117c3a5bec8151c0726d5857980a86681565b600080610623612170565b9050610630858285612341565b61063b8585856123cd565b60019150509392505050565b60006012905090565b60008061065b612170565b905061067c81858561066d8589612001565b61067791906140fa565b612178565b600191505092915050565b61068f612643565b6106bb7fc4a9c36346dc0b13aff8864ec537d35c1525188c5a746a79c4314bdf4cf7f06060001b6126c1565b6106e77ff2a99cd6bf90822660b0d623ed885a32d429d203a97769b3a90c6f0618e1c6dc60001b6126c1565b6107137fd6b8096764d22b897c9a9877859930acf4319b97e2989c3e08428fcc6550146460001b6126c1565b61071d82826126c4565b6107497fb8a925fefc6501a468819bce5c158f375b8a22c1db7f9cc6162af0f783bb187760001b6126c1565b6107757f7510883ab321bfcd0575fc701e51a7f06d78167945512ec5072b5df7e182cb6a60001b6126c1565b6107e06000600660008573ffffffffffffffffffffffffffffffffffffffff1673ffffffffffffffffffffffffffffffffffffffff16815260200190815260200160002060009054906101000a900473ffffffffffffffffffffffffffffffffffffffff168361281a565b5050565b60006108127ff3dab90388a4bd1b853f6a3b6f37e9ff343cff7efe4d61432e3482412b0cb56560001b6126c1565b61083e7fed91e43f96c66a86fe971bd656f8d390fc52e16c65557d5e9fb9a80ba5cf89d960001b6126c1565b61086a7f1da22978648fb039321764213a6db823416b6a334518eb2fb09870f750cedceb60001b6126c1565b600660008373ffffffffffffffffffffffffffffffffffffffff1673ffffffffffffffffffffffffffffffffffffffff16815260200190815260200160002060009054906101000a900473ffffffffffffffffffffffffffffffffffffffff169050919050565b6108fd7fb9259ad285cbc2d0688cbea498774743ef1fa40582b052827b2cdbf9d6d68a0360001b6126c1565b6109297f965adb75a4b5d23b9cad11a4a35ef9121242adbe8a0b0d735d81cf9899369b7660001b6126c1565b6109557fddc963291b4e378225d1940f4b33d54b5e7ed57fe8eba227216cad8d2fe7255960001b6126c1565b61095f3382612fd4565b50565b60086020528060005260406000206000915054906101000a900463ffffffff1681565b60008060008373ffffffffffffffffffffffffffffffffffffffff1673ffffffffffffffffffffffffffffffffffffffff168152602001908152602001600020549050919050565b6109d5612643565b6109df6000613329565b565b6000610a0f7fd8b20f486e81b0b98079e1df06613a654f39650e033004e0b5809569947a58fa60001b6126c1565b610a3b7f6654243aef5ef75a5af92d0bbef828a087ac9dc08a344304bf9c8af9176ebdf760001b6126c1565b610a677f7cb4425c862670b73c2d893020c0cd2a5ba200f35d873f524dc1301a716da49f60001b6126c1565b610a937f5e5bbd4ccf6b549af5b29272e2eb37a5fac7b7446945f3c746f451a52509e53060001b6126c1565b438210610ad5576040517f08c379a0000000000000000000000000000000000000000000000000000000008152600401610acc906141a0565b60405180910390fd5b610b017f363c5e45923542dd3e419649615ad2a44262f2633fade4a3f889583e646b1cf460001b6126c1565b610b2d7f392810818d7d1afaa49ace31588bb66c0cc8b751126b6c8ce110d9044c166a7e60001b6126c1565b610b597f6b5ff20ac20be72c010101fd43db2ff90031e416f31c2a2594b95c51a1d3ad9360001b6126c1565b6000600860008573ffffffffffffffffffffffffffffffffffffffff1673ffffffffffffffffffffffffffffffffffffffff16815260200190815260200160002060009054906101000a900463ffffffff169050610bd97f3ab2bdac76d2f84c9e9196b6b7e177f1ad5daaf9a2d26a546d25c25dfc66a06c60001b6126c1565b610c057fdd96ca8a0f0a08df0bbb2f6d2ef6f9c805d7cd8ac7fc1fc5368e79473be36ef860001b6126c1565b60008163ffffffff1603610ca157610c3f7facfaa13086c80115014f11c9fef6572450f0252775d2637a83e817c668fa463b60001b6126c1565b610c6b7f7d18d4385d9a3b46891ee1f89fd2281e860d814c08d3c72a95d48f5ffd1f92e960001b6126c1565b610c977f73697ba732b6ce87c8b0a3525d2677f840607083db85382d8026aafdbc02ebf760001b6126c1565b6000915050611649565b610ccd7fc680db80d254088f8d39879f792d6b209baef3c8dd183951e36e678ab7ffa7bb60001b6126c1565b610cf97f742d508df1466fc38ce612ba60a5a3f1b70015f3393554241045badb734c758e60001b6126c1565b610d257f9a973c4202d3aa28547473d1bf3bfd320d68026aa1b09070302ccc9ab77a9c9a60001b6126c1565b82600760008673ffffffffffffffffffffffffffffffffffffffff1673ffffffffffffffffffffffffffffffffffffffff1681526020019081526020016000206000600184610d7491906141c0565b63ffffffff1663ffffffff16815260200190815260200160002060000160009054906101000a900463ffffffff1663ffffffff1611610ea557610dd97f3d27657882f411e787d8ff8639f6f7318640c9a1d170fd36d3ae53a3dbe3fc1c60001b6126c1565b610e057ff196b79a630bf469aec12ad73ef6ebb30d2fc9b0daf91f8b04dfd070b6662f0660001b6126c1565b610e317f643004a25a79ed4a899c2a7bc72603eb91822fa05e63765793ee14b218299f6460001b6126c1565b600760008573ffffffffffffffffffffffffffffffffffffffff1673ffffffffffffffffffffffffffffffffffffffff1681526020019081526020016000206000600183610e7f91906141c0565b63ffffffff1663ffffffff16815260200190815260200160002060010154915050611649565b610ed17f35233ecef824851cfaa15dac56a3ccbaafc227f9ff9a4c0b809e7ba10120fa9b60001b6126c1565b610efd7f0bb08a5409ea55cf9fb1add3f725ccc33960fce640bab7b1d055c0b5251c2b8d60001b6126c1565b610f297f27e9d57b2dbe2e35eca1d73541a8fa39caad05e5a9889e9db198dbbc99f48c8560001b6126c1565b82600760008673ffffffffffffffffffffffffffffffffffffffff1673ffffffffffffffffffffffffffffffffffffffff16815260200190815260200160002060008063ffffffff16815260200190815260200160002060000160009054906101000a900463ffffffff1663ffffffff16111561102e57610fcc7fd56ca8ae9940f668d1141ed0921bb69b6a7e83bb0f9d00b2484e9a4af9686a9e60001b6126c1565b610ff87f705d75f55a837ca5fa06cdf7cbd30bcd7250576a265ad089bc5e3c532232b6cd60001b6126c1565b6110247f2333dd36854a652bba3612a812fa8aea42b95bacb9ce4208d0976807ab49217a60001b6126c1565b6000915050611649565b61105a7f80dffaa98a91fe511a4f472594d25feab5c5e6022b1b9a8fba90d722a41be3ec60001b6126c1565b6110867f880292b58f4d7fde27cf5cd54609ca791584c3d76fa3a3e73e5b41095ce3447260001b6126c1565b6110b27f4baa09e2b9b1759871fba4158b1b5bf518210ddb5a8a459a32b2ee952879012460001b6126c1565b60006110e07fb1cb38e5ebbad15bbd9480533827134a26596e05eb22ee0c9cd7edf0dac6468560001b6126c1565b61110c7f6778fd2dd672929b71c0369c3a00c5700f09d05b44bd0b4d2baa34873c067d7960001b6126c1565b600060018361111b91906141c0565b90506111497ff3bb0c03c6dd3b0a2205a82315859e11dd738ae21051c16033953c289468d16f60001b6126c1565b6111757fe4c32e9e9fd92db968ebc594688b1219e60f0402f29cf31b9b18b946f4d8caac60001b6126c1565b5b8163ffffffff168163ffffffff16111561158b576111b67ff60558bc42e835f3d2b18551a61d48236b7788f68ffbfe35d05e0647a0a813b560001b6126c1565b6111e27fa3cec824fee0d1b36afec458ae00e924f406d580d65883e19393546c2437375160001b6126c1565b6000600283836111f291906141c0565b6111fc9190614227565b8261120791906141c0565b90506112357f719363cdae1b3e36d7ad83400443df6f24d173593ab43f3adcc087cbf70ecbb360001b6126c1565b6112617f9e3fd13431a7583135c345b9c75492ccb5cf20a4540def85860e7aaae4ef188c60001b6126c1565b6000600760008973ffffffffffffffffffffffffffffffffffffffff1673ffffffffffffffffffffffffffffffffffffffff16815260200190815260200160002060008363ffffffff1663ffffffff1681526020019081526020016000206040518060400160405290816000820160009054906101000a900463ffffffff1663ffffffff1663ffffffff16815260200160018201548152505090506113287fedabb0c77c1c7870310cca26d770f30f525841825530ae486d8363d1f3b97fb160001b6126c1565b6113547f3c05e5a9a93bd80266b3a977f8d7c4554dec3e1ab204651088893be1b5f599ad60001b6126c1565b86816000015163ffffffff16036113fa576113917f63aadbfd3dd0bdf048f73fcef895c8779e8fc47a089f43e36f31873b59d1cd0560001b6126c1565b6113bd7fb1436e5a9ab1c0f82fdba97575b0ff39409c23b5b0013b40956c950ff7c9e34960001b6126c1565b6113e97f89152a1153f2a473cca6dd7075bfbe5a7906dd3df5616471bc96d8a5bef4ce2260001b6126c1565b806020015195505050505050611649565b6114267f86a7c565447341266ad2ddc69bd28ae24a4a62c3436b295144615eacf8bce22060001b6126c1565b6114527fa1f9faf9ad7488fb48616f378dba496da3f69992340ba2b232f6e7d0209e526560001b6126c1565b86816000015163ffffffff1610156114f0576114907f7acbd859920f6d2c0130c86d585efe0e85d1b7e5aa77f693829788ec8303a21060001b6126c1565b6114bc7f56db252fb2a968c5e663af014483b66e4e989fc11f970aa43dd782cdb23d56e360001b6126c1565b6114e87fe7f56a1b1a4b89c7d5ce0eaf9a65468b7402c89e78efef2a35e8de4445d296d360001b6126c1565b819350611584565b61151c7ffa2ce703b4434c060023b6a7c4af29dc71b7e0eafcde0d83a3a964aeaede546560001b6126c1565b6115487fbeaf2c433cb1efda25d58c1008e34118ff95e6552d58d2a5407805c1ed629bfd60001b6126c1565b6115747f672d03e382e1dad452fd93f33d7415303c3f35c8afc6cb939c055e93c553af5860001b6126c1565b60018261158191906141c0565b92505b5050611176565b6115b77f424066d094ef69e8ed90d6e7c59eec025c651bd48d8c95aef0be4749e360a64260001b6126c1565b6115e37f5b73f27381dc23fdf3aa9c48a4c66fd37c530f9193d07a2db5075e2df0555c7c60001b6126c1565b600760008773ffffffffffffffffffffffffffffffffffffffff1673ffffffffffffffffffffffffffffffffffffffff16815260200190815260200160002060008363ffffffff1663ffffffff1681526020019081526020016000206001015493505050505b92915050565b60096020528060005260406000206000915090505481565b6000600560009054906101000a900473ffffffffffffffffffffffffffffffffffffffff16905090565b6060600480546116a09061409a565b80601f01602080910402602001604051908101604052809291908181526020018280546116cc9061409a565b80156117195780601f106116ee57610100808354040283529160200191611719565b820191906000526020600020905b8154815290600101906020018083116116fc57829003601f168201915b5050505050905090565b60008061172e612170565b9050600061173c8286612001565b905083811015611781576040517f08c379a0000000000000000000000000000000000000000000000000000000008152600401611778906142ca565b60405180910390fd5b61178e8286868403612178565b60019250505092915050565b6000806117a5612170565b90506117b28185856123cd565b600191505092915050565b60006117eb7f7187e512f9b8c588c86cd283b07aff40cbebd726cda88c79137ac4320a50ed9c60001b6126c1565b6118177fa7e44d3485df4982c35987698d3cc93b778ecd85cedc5322d571010a8c03e00f60001b6126c1565b6118437f244050ab49db6fc6c06e62ea5b5c389b846af840144e2a1da239663d1ec2043860001b6126c1565b6000600860008473ffffffffffffffffffffffffffffffffffffffff1673ffffffffffffffffffffffffffffffffffffffff16815260200190815260200160002060009054906101000a900463ffffffff1690506118c37f556bd383297a4ffa7d07730d1ebfd7968fb84e1a9cc9a526df858d3686c1845a60001b6126c1565b6118ef7ff78f5408cc635174abc581bad0bdd158aed8651e1ca2c616e1cdad2ed7bc1fc260001b6126c1565b60008163ffffffff1611611904576000611971565b600760008473ffffffffffffffffffffffffffffffffffffffff1673ffffffffffffffffffffffffffffffffffffffff168152602001908152602001600020600060018361195291906141c0565b63ffffffff1663ffffffff168152602001908152602001600020600101545b915050919050565b6119a57f23fd528bb4e3cfea0ecac11267b54750145092278c7fc9e3b01e3b4393a2c64360001b6126c1565b6119d17f634ee0858f19a3bd052ab59b02547bb0cbd3fe0686e05a75ad1669bddb34826c60001b6126c1565b6119fd7f4e4a9e0029f32deec749228143c23132d87408c9de8cac612f917fe1ab44be4360001b6126c1565b60007f8cad95687ba82c2ce50e74f7b754645e5117c3a5bec8151c0726d5857980a866611a28610535565b80519060200120611a376133ef565b30604051602001611a4b94939291906142ea565b604051602081830303815290604052805190602001209050611a8f7fa08a18b3bc018d8c4a96c60d9d37e14bb4c914c2d957f66ee5b05e532d96f03860001b6126c1565b611abb7f86e1f9ff0e89a2aa2fc7ad09e373e273a5b4faca540c63ddefd3e6b74049376b60001b6126c1565b60007fe48329057bfd03d55e49b547132e39cffd9c1820ad7b9d4c5307691425d15adf888888604051602001611af4949392919061432f565b604051602081830303815290604052805190602001209050611b387fcd910d9c2a04908a88ead5a9400c78297483f3e416153e0e8897fbac9f11d44c60001b6126c1565b611b647fb9fca9a83a2336f3631f30190abb54e202f471baad4d1293fb73b7d545c1733660001b6126c1565b60008282604051602001611b799291906143ec565b604051602081830303815290604052805190602001209050611bbd7f805912b0e298f4897cfcc134b6c9ba173a1175f32ae79d57dfc1b2b530a1120d60001b6126c1565b611be97ff6c5c99b6c15173b7006eb7616a798b730c5621f32f85f33ceb05825021f1c9060001b6126c1565b600060018288888860405160008152602001604052604051611c0e9493929190614423565b6020604051602081039080840390855afa158015611c30573d6000803e3d6000fd5b505050602060405103519050611c687fb88f3165926bb9aaec77adce546a979e9762c1f2e4b39c001be8a960bb27af0b60001b6126c1565b611c947f67094948eba9d12bce294ce039e4975cc178fb6d6f10ce4d561884ee3795926460001b6126c1565b611cc07f1e6e75857ba056d7be56e0fac37189c55b298d7dee9dd3dda64df779ad25f8c960001b6126c1565b600073ffffffffffffffffffffffffffffffffffffffff168173ffffffffffffffffffffffffffffffffffffffff1603611d2f576040517f08c379a0000000000000000000000000000000000000000000000000000000008152600401611d26906144da565b60405180910390fd5b611d5b7f101d55ba4d67988d3ca8c9c8712b9addda0a3c273095a7e17ee4e6dec8f0b88560001b6126c1565b611d877f486a73c98f2c2dac3e9e397c359647795553bf164c3ef2bf907141aa50a8937760001b6126c1565b611db37f10b2d7c0964aef13ccdec8b2e4f66bf473a9b95efb181e182e59d9d4fd56c7a660001b6126c1565b611ddf7f82de6120b16312dbf0c0bb1080e306f81f49a16f43ff71327f027b45b0843a8f60001b6126c1565b600960008273ffffffffffffffffffffffffffffffffffffffff1673ffffffffffffffffffffffffffffffffffffffff1681526020019081526020016000206000815480929190611e2f906144fa565b919050558914611e74576040517f08c379a0000000000000000000000000000000000000000000000000000000008152600401611e6b906145b4565b60405180910390fd5b611ea07f6737c6e3891dd720b91f25be8bbbbe38c24b0123d365ae3b065dba4b7ccb0f1360001b6126c1565b611ecc7f7579adf52d02652243ed1b24d44cf07927b0e28c58a8b57740c9456fd5cec93260001b6126c1565b611ef87f3b598026a5248c67631caa3a349bec6bff463e2ad3f06340eb1f86f35b173db860001b6126c1565b611f247f16499be17b34594b36627fb64ef4c8309ce67a4caacaaa431fddffa72973ca7f60001b6126c1565b87421115611f67576040517f08c379a0000000000000000000000000000000000000000000000000000000008152600401611f5e90614646565b60405180910390fd5b611f937fade440d5388020fcd7345aecccf7b973b8d179b259f42cbc4362d5428fa3be9a60001b6126c1565b611fbf7ff958c515cc5c49e00d41c841fdf3952df0a56e7fb44c4adbdc3f01e3b778c27360001b6126c1565b611feb7f51001d5a4002a6ed659ce9895c6f0b0adad4669ca416491217ca62ad2b6746a760001b6126c1565b611ff5818b612fd4565b50505050505050505050565b6000600160008473ffffffffffffffffffffffffffffffffffffffff1673ffffffffffffffffffffffffffffffffffffffff16815260200190815260200160002060008373ffffffffffffffffffffffffffffffffffffffff1673ffffffffffffffffffffffffffffffffffffffff16815260200190815260200160002054905092915050565b7fe48329057bfd03d55e49b547132e39cffd9c1820ad7b9d4c5307691425d15adf81565b6007602052816000526040600020602052806000526040600020600091509150508060000160009054906101000a900463ffffffff16908060010154905082565b6120f5612643565b600073ffffffffffffffffffffffffffffffffffffffff168173ffffffffffffffffffffffffffffffffffffffff1603612164576040517f08c379a000000000000000000000000000000000000000000000000000000000815260040161215b906146d8565b60405180910390fd5b61216d81613329565b50565b600033905090565b600073ffffffffffffffffffffffffffffffffffffffff168373ffffffffffffffffffffffffffffffffffffffff16036121e7576040517f08c379a00000000000000000000000000000000000000000000000000000000081526004016121de9061476a565b60405180910390fd5b600073ffffffffffffffffffffffffffffffffffffffff168273ffffffffffffffffffffffffffffffffffffffff1603612256576040517f08c379a000000000000000000000000000000000000000000000000000000000815260040161224d906147fc565b60405180910390fd5b80600160008573ffffffffffffffffffffffffffffffffffffffff1673ffffffffffffffffffffffffffffffffffffffff16815260200190815260200160002060008473ffffffffffffffffffffffffffffffffffffffff1673ffffffffffffffffffffffffffffffffffffffff168152602001908152602001600020819055508173ffffffffffffffffffffffffffffffffffffffff168373ffffffffffffffffffffffffffffffffffffffff167f8c5be1e5ebec7d5bd14f71427d1e84f3dd0314c0f7b2291e5b200ac8c7c3b925836040516123349190613d47565b60405180910390a3505050565b600061234d8484612001565b90507fffffffffffffffffffffffffffffffffffffffffffffffffffffffffffffffff81146123c757818110156123b9576040517f08c379a00000000000000000000000000000000000000000000000000000000081526004016123b090614868565b60405180910390fd5b6123c68484848403612178565b5b50505050565b600073ffffffffffffffffffffffffffffffffffffffff168373ffffffffffffffffffffffffffffffffffffffff160361243c576040517f08c379a0000000000000000000000000000000000000000000000000000000008152600401612433906148fa565b60405180910390fd5b600073ffffffffffffffffffffffffffffffffffffffff168273ffffffffffffffffffffffffffffffffffffffff16036124ab576040517f08c379a00000000000000000000000000000000000000000000000000000000081526004016124a29061498c565b60405180910390fd5b6124b683838361347b565b60008060008573ffffffffffffffffffffffffffffffffffffffff1673ffffffffffffffffffffffffffffffffffffffff1681526020019081526020016000205490508181101561253c576040517f08c379a000000000000000000000000000000000000000000000000000000000815260040161253390614a1e565b60405180910390fd5b8181036000808673ffffffffffffffffffffffffffffffffffffffff1673ffffffffffffffffffffffffffffffffffffffff16815260200190815260200160002081905550816000808573ffffffffffffffffffffffffffffffffffffffff1673ffffffffffffffffffffffffffffffffffffffff168152602001908152602001600020600082825401925050819055508273ffffffffffffffffffffffffffffffffffffffff168473ffffffffffffffffffffffffffffffffffffffff167fddf252ad1be2c89b69c2b068fc378daa952ba7f163c4a11628f55a4df523b3ef8460405161262a9190613d47565b60405180910390a361263d848484613480565b50505050565b61264b612170565b73ffffffffffffffffffffffffffffffffffffffff16612669611667565b73ffffffffffffffffffffffffffffffffffffffff16146126bf576040517f08c379a00000000000000000000000000000000000000000000000000000000081526004016126b690614a8a565b60405180910390fd5b565b50565b600073ffffffffffffffffffffffffffffffffffffffff168273ffffffffffffffffffffffffffffffffffffffff1603612733576040517f08c379a000000000000000000000000000000000000000000000000000000000815260040161272a90614af6565b60405180910390fd5b61273f6000838361347b565b806002600082825461275191906140fa565b92505081905550806000808473ffffffffffffffffffffffffffffffffffffffff1673ffffffffffffffffffffffffffffffffffffffff168152602001908152602001600020600082825401925050819055508173ffffffffffffffffffffffffffffffffffffffff16600073ffffffffffffffffffffffffffffffffffffffff167fddf252ad1be2c89b69c2b068fc378daa952ba7f163c4a11628f55a4df523b3ef836040516128029190613d47565b60405180910390a361281660008383613480565b5050565b6128467f2bad0f046ef27e8e2e13c7d800e4040ce085e98581349115eab037a9ab74afb760001b6126c1565b6128727f46478874a7484595c3e75e5a2fb3ba11667e3f7969c5e2db4d153d42b7fca80860001b6126c1565b61289e7f6dca03f43ec98a9d9bf74dd404fce03c6350a60a2c703711b7afbfa6acd46f7160001b6126c1565b8173ffffffffffffffffffffffffffffffffffffffff168373ffffffffffffffffffffffffffffffffffffffff16141580156128da5750600081115b15612fa25761290b7f650819fbbbb93bbac0019a270157c73788ef25a6fa31c0bc9355f9a4c3049b1c60001b6126c1565b6129377f024839019c17c4106bad71438cfd3bd1739086a033070fdab8d1996cacc8467e60001b6126c1565b6129637f9346014a0963118486386a7b453177a9bed458fa9deed36fd2a2e0203478dad660001b6126c1565b600073ffffffffffffffffffffffffffffffffffffffff168373ffffffffffffffffffffffffffffffffffffffff1614612c27576129c37f264e389918da891296caaa270344736e6b442ea713d0a68404ef604a366b5c3860001b6126c1565b6129ef7fe588dbd60b1f8827743993209d6ecfcf36776bc7ec516f6eb68eff69748fa7c960001b6126c1565b612a1b7f70b0a7de85f58e901b29af9a33719fdc7f03d37813003594e49b30ef3ae11afd60001b6126c1565b6000600860008573ffffffffffffffffffffffffffffffffffffffff1673ffffffffffffffffffffffffffffffffffffffff16815260200190815260200160002060009054906101000a900463ffffffff169050612a9b7f31bd6f044a2e0fc62636853ed7d6ee63be9592e6464f9b7d4cae32b18f913ae460001b6126c1565b612ac77f8079227bb6680c59c04f1e66ae917f5f8c2cd721d7e2e1726588d21d6790628c60001b6126c1565b6000808263ffffffff1611612add576000612b4a565b600760008673ffffffffffffffffffffffffffffffffffffffff1673ffffffffffffffffffffffffffffffffffffffff1681526020019081526020016000206000600184612b2b91906141c0565b63ffffffff1663ffffffff168152602001908152602001600020600101545b9050612b787fa6f7df493fa0ffe2073d2c1f4c449f574feeff36e98a75c98e862c3642643f3e60001b6126c1565b612ba47f0ce7b6a8f5af83355fc5abd75805dc595631f103806a264bea79632187a9b6a860001b6126c1565b6000612bb9848361348590919063ffffffff16565b9050612be77febec7d2ead0eef4ad0cb8f3d490afdce60aa70bdb1681d4b401315f3181c519360001b6126c1565b612c137f14b25f04d889d81fbe6b11e1e0f4bad59baa742cadbc9e1583839357136bda7d60001b6126c1565b612c1f8684848461349b565b505050612c54565b612c537fe22cd4d1144e6ed7b66362f74b431ab57acf8631e360ed02ad91e4376ca1fc8860001b6126c1565b5b612c807fb28fc31234c667dffb198e6dd62b6a7d12a143db00502f3a6b213b5c2eb80e2060001b6126c1565b612cac7f8c1b5d0cb6c6febbec61e496533a0eb4898673b2553160562c8e139e73511a5060001b6126c1565b600073ffffffffffffffffffffffffffffffffffffffff168273ffffffffffffffffffffffffffffffffffffffff1614612f7057612d0c7fd62526665bf96f90086b533de55fed64d7a8dc9604f7c440bb0af8394790805b60001b6126c1565b612d387f0a4c19789039515c237c5bbf6a7612e13e3a013e6e9a9cd3816e8ba5f854dc9060001b6126c1565b612d647f085354dae35ee95c62bef1a984ffe5fb8666e9cf57ef041eeb77a55e7808523860001b6126c1565b6000600860008473ffffffffffffffffffffffffffffffffffffffff1673ffffffffffffffffffffffffffffffffffffffff16815260200190815260200160002060009054906101000a900463ffffffff169050612de47fd8fed7de37fb426e235ba778cb1294dbf3bc1a1ddad0bccf227d6e41974cfde960001b6126c1565b612e107fdc7322a6875faf2a7630cb58f4fb850a8277b128813139d5904fb873881640f860001b6126c1565b6000808263ffffffff1611612e26576000612e93565b600760008573ffffffffffffffffffffffffffffffffffffffff1673ffffffffffffffffffffffffffffffffffffffff1681526020019081526020016000206000600184612e7491906141c0565b63ffffffff1663ffffffff168152602001908152602001600020600101545b9050612ec17f10b60c2fc3f4b87c8c8f67b79907150e2ada96be9c149207dce308f502b11a3160001b6126c1565b612eed7f47a5079d54ee369419fd7eb5aa33abbd955c6d922638aa240aca4db9d0f47e1160001b6126c1565b6000612f0284836139d790919063ffffffff16565b9050612f307f4d6eba0f2009161cc6617364634e5aeab1638279645e5397523d393a4a82694460001b6126c1565b612f5c7f3e0c5dc98e373fea42e191ae7fbf907a5b97f27a105cc4f715a748c20533cc5960001b6126c1565b612f688584848461349b565b505050612f9d565b612f9c7f4581590f4bdb22dc63209d30c791d1c8734dffe4a51c3bbe0d3698f526ca21c960001b6126c1565b5b612fcf565b612fce7f78d3cd0b130303138904ba739660e2867e454a5a3ce721a2e423b71dd5692cbc60001b6126c1565b5b505050565b6130007f7fb884c0bab181d1867bcfaad68e639a79e2b2a03c48d0c204ab99f82debb2b060001b6126c1565b61302c7f0620879d0bd7e9d458196668f5574adf908ec06b49979f906950330eaa7c755f60001b6126c1565b6130587fc2bd4350a73dff26adf574823f7b1733de8c7c0aea5c0cf84fe4057371da3bd260001b6126c1565b6000600660008473ffffffffffffffffffffffffffffffffffffffff1673ffffffffffffffffffffffffffffffffffffffff16815260200190815260200160002060009054906101000a900473ffffffffffffffffffffffffffffffffffffffff1690506130e87f46b2a4f1724f10336d48fa09b85e13d33408b03bd98b99450eaa295b9bca9b1e60001b6126c1565b6131147fdfe8c16a08e444f2dfa7993d5fc0e77afb286a600148365775eb8b06cdc9479e60001b6126c1565b600061311f84610985565b905061314d7f27efd4258a03e68707c5054a620b440619f377d9eab7a980b5795726d1ffa6bb60001b6126c1565b6131797f33497fd1574b8763aa464a32c2e0ee9d3983971a5c356854381e6c42b9e9413e60001b6126c1565b82600660008673ffffffffffffffffffffffffffffffffffffffff1673ffffffffffffffffffffffffffffffffffffffff16815260200190815260200160002060006101000a81548173ffffffffffffffffffffffffffffffffffffffff021916908373ffffffffffffffffffffffffffffffffffffffff1602179055506132237fd6e47eaad978f6cc2ee07690a3ae635db9d2d12d56069a638da02750480858a960001b6126c1565b61324f7ff6a72cc036da283321cb0229cf71b83e66e51467155a8033f8f31f155dba48d060001b6126c1565b8273ffffffffffffffffffffffffffffffffffffffff168273ffffffffffffffffffffffffffffffffffffffff168573ffffffffffffffffffffffffffffffffffffffff167f3134e8a2e6d97e929a7e54011ea5485d7d196dd5f0ba4d4ef95803e8e3fc257f60405160405180910390a46132ec7fdd808ca48768ea4718e52449e1db8b000ed58291b23031a4e61c6b830f86ed4960001b6126c1565b6133187f93677d004a5eb0ceb6606a147485039fa9a8a1e9ae373964805002abbc8d91b960001b6126c1565b61332382848361281a565b50505050565b6000600560009054906101000a900473ffffffffffffffffffffffffffffffffffffffff16905081600560006101000a81548173ffffffffffffffffffffffffffffffffffffffff021916908373ffffffffffffffffffffffffffffffffffffffff1602179055508173ffffffffffffffffffffffffffffffffffffffff168173ffffffffffffffffffffffffffffffffffffffff167f8be0079c531659141344cd1fd0a4f28419497f9722a3daafe3b4186f6b6457e060405160405180910390a35050565b600061341d7fd43afa6f3fa6182febd821bd1e9090c6e0a20a8790641cc2e384e092d652854a60001b6126c1565b6134497fb10e7403a30f1df829dc44a05c65a6dc4bc9c4547c895a51f8d411c48a56b15360001b6126c1565b6134757faa724581a16e87cd6b6d382ade0d20f24c0126f8a0496221024b535a24616cf760001b6126c1565b46905090565b505050565b505050565b600081836134939190614b16565b905092915050565b6134c67e31e9c4f7a2c62728e84117be76c28a6afe2211ad9cfdb40e7184c33b0c149e60001b6126c1565b6134f27fe357206102390b7f943f5ae2da3c8cd9d88198a824e866899c0a02f4645acd0060001b6126c1565b61351e7f8239e92f42d739b7831c1ff7b9bb5996c9cc552b37ff4185ab0773a1baebb10160001b6126c1565b600061354243604051806060016040528060358152602001614bac603591396139ed565b90506135707f94c0ab0b646cb8bbc9c3e950bf4cdd1fd501bb1df576f76d82b54356f1bd601f60001b6126c1565b61359c7f11ec2265d1638bb49fd1acc97ffe17ec05547d3a43f301d850f3c4413964be0360001b6126c1565b60008463ffffffff1611801561363857508063ffffffff16600760008773ffffffffffffffffffffffffffffffffffffffff1673ffffffffffffffffffffffffffffffffffffffff168152602001908152602001600020600060018761360291906141c0565b63ffffffff1663ffffffff16815260200190815260200160002060000160009054906101000a900463ffffffff1663ffffffff16145b15613736576136697fdc345ba744437c4aa595655840c6c2b8b6606612cb65fec865d812ec056bf4f960001b6126c1565b6136957fb624c673e206d01cba0cd6eab64f3f6c8f606a88fe20dfa4629c043bf5a2846260001b6126c1565b6136c17f1fac582fe1b1b71a60f956b172122206507bb45aceba6ef2366e042b8d8d336160001b6126c1565b81600760008773ffffffffffffffffffffffffffffffffffffffff1673ffffffffffffffffffffffffffffffffffffffff168152602001908152602001600020600060018761371091906141c0565b63ffffffff1663ffffffff16815260200190815260200160002060010181905550613928565b6137627fd7796a3a9c2a8b51976596cbe73c972cadb2725a86cdf0e26a09c3b74188470560001b6126c1565b61378e7f3610f41f4e5e9008d6968bfaa38c86a09865fa7b8b80d83212207fee38d8019160001b6126c1565b6137ba7f2061cedee4088ea44b4669b79defd269ea8c88c5346253753ed528d40354db9d60001b6126c1565b60405180604001604052808263ffffffff16815260200183815250600760008773ffffffffffffffffffffffffffffffffffffffff1673ffffffffffffffffffffffffffffffffffffffff16815260200190815260200160002060008663ffffffff1663ffffffff16815260200190815260200160002060008201518160000160006101000a81548163ffffffff021916908363ffffffff160217905550602082015181600101559050506138917f2944bd6e6d4f0748c8e72ec4bd9283dbff9fdc61938e75c4015550a2e3db634b60001b6126c1565b6138bd7fc6daa87e0d09ab016de9f5304d9d89e921dd5c69d827edbe71217804fa38366760001b6126c1565b6001846138ca9190614b4a565b600860008773ffffffffffffffffffffffffffffffffffffffff1673ffffffffffffffffffffffffffffffffffffffff16815260200190815260200160002060006101000a81548163ffffffff021916908363ffffffff1602179055505b6139547f1f090c9a0f42b4b520ec6975b6f21dbc1051d61bb112e8960fd42d725bb1bbe760001b6126c1565b6139807fa83a166481b3ae9dd13beb381e8777b7ff7360986423727b7debd83fb86733da60001b6126c1565b8473ffffffffffffffffffffffffffffffffffffffff167fdec2bacdd2f05b59de34da9b523dff8be42e5e38e818c82fdb0bae774387a72484846040516139c8929190614b82565b60405180910390a25050505050565b600081836139e591906140fa565b905092915050565b6000613a1b7fef23c2417acf5fb6c73a3c9943f8a3dfb47f8c623be1353ab8c8640e1818cf8560001b6126c1565b613a477f87a9063897adc87801e452b9bc64afecc8c07bf5b0e9147cddc4126015552d5060001b6126c1565b613a737f642017ff591e05e6dc4fe157562d8cb7ca00181de08036fb2a40514aa7b5baaf60001b6126c1565b613a9f7fb49155a4366cfe4ac013348f2fe9c4e60a2368f0b240f2d4cb207e04cfb54f0f60001b6126c1565b64010000000083108290613ae9576040517f08c379a0000000000000000000000000000000000000000000000000000000008152600401613ae09190613c07565b60405180910390fd5b50613b167f1518caa63eee39a1ca253a9d32586db39b2cf4d99d16641dd0b47083bf868cd760001b6126c1565b613b427ffa135422a2de98a0d948db0b7d4021610a4d5853c4072884b9ffa0c6399e3e8c60001b6126c1565b613b6e7fcc07a15db39362bf3fc3a288bc7a6d01727acbd07ca8a17eeb4dd059aeca3df960001b6126c1565b82905092915050565b600081519050919050565b600082825260208201905092915050565b60005b83811015613bb1578082015181840152602081019050613b96565b60008484015250505050565b6000601f19601f8301169050919050565b6000613bd982613b77565b613be38185613b82565b9350613bf3818560208601613b93565b613bfc81613bbd565b840191505092915050565b60006020820190508181036000830152613c218184613bce565b905092915050565b600080fd5b600073ffffffffffffffffffffffffffffffffffffffff82169050919050565b6000613c5982613c2e565b9050919050565b613c6981613c4e565b8114613c7457600080fd5b50565b600081359050613c8681613c60565b92915050565b6000819050919050565b613c9f81613c8c565b8114613caa57600080fd5b50565b600081359050613cbc81613c96565b92915050565b60008060408385031215613cd957613cd8613c29565b5b6000613ce785828601613c77565b9250506020613cf885828601613cad565b9150509250929050565b60008115159050919050565b613d1781613d02565b82525050565b6000602082019050613d326000830184613d0e565b92915050565b613d4181613c8c565b82525050565b6000602082019050613d5c6000830184613d38565b92915050565b6000819050919050565b613d7581613d62565b82525050565b6000602082019050613d906000830184613d6c565b92915050565b600080600060608486031215613daf57613dae613c29565b5b6000613dbd86828701613c77565b9350506020613dce86828701613c77565b9250506040613ddf86828701613cad565b9150509250925092565b600060ff82169050919050565b613dff81613de9565b82525050565b6000602082019050613e1a6000830184613df6565b92915050565b600060208284031215613e3657613e35613c29565b5b6000613e4484828501613c77565b91505092915050565b613e5681613c4e565b82525050565b6000602082019050613e716000830184613e4d565b92915050565b600063ffffffff82169050919050565b613e9081613e77565b82525050565b6000602082019050613eab6000830184613e87565b92915050565b613eba81613de9565b8114613ec557600080fd5b50565b600081359050613ed781613eb1565b92915050565b613ee681613d62565b8114613ef157600080fd5b50565b600081359050613f0381613edd565b92915050565b60008060008060008060c08789031215613f2657613f25613c29565b5b6000613f3489828a01613c77565b9650506020613f4589828a01613cad565b9550506040613f5689828a01613cad565b9450506060613f6789828a01613ec8565b9350506080613f7889828a01613ef4565b92505060a0613f8989828a01613ef4565b9150509295509295509295565b60008060408385031215613fad57613fac613c29565b5b6000613fbb85828601613c77565b9250506020613fcc85828601613c77565b9150509250929050565b613fdf81613e77565b8114613fea57600080fd5b50565b600081359050613ffc81613fd6565b92915050565b6000806040838503121561401957614018613c29565b5b600061402785828601613c77565b925050602061403885828601613fed565b9150509250929050565b60006040820190506140576000830185613e87565b6140646020830184613d38565b9392505050565b7f4e487b7100000000000000000000000000000000000000000000000000000000600052602260045260246000fd5b600060028204905060018216806140b257607f821691505b6020821081036140c5576140c461406b565b5b50919050565b7f4e487b7100000000000000000000000000000000000000000000000000000000600052601160045260246000fd5b600061410582613c8c565b915061411083613c8c565b9250828201905080821115614128576141276140cb565b5b92915050565b7f53555348493a3a6765745072696f72566f7465733a206e6f742079657420646560008201527f7465726d696e6564000000000000000000000000000000000000000000000000602082015250565b600061418a602883613b82565b91506141958261412e565b604082019050919050565b600060208201905081810360008301526141b98161417d565b9050919050565b60006141cb82613e77565b91506141d683613e77565b9250828203905063ffffffff8111156141f2576141f16140cb565b5b92915050565b7f4e487b7100000000000000000000000000000000000000000000000000000000600052601260045260246000fd5b600061423282613e77565b915061423d83613e77565b92508261424d5761424c6141f8565b5b828204905092915050565b7f45524332303a2064656372656173656420616c6c6f77616e63652062656c6f7760008201527f207a65726f000000000000000000000000000000000000000000000000000000602082015250565b60006142b4602583613b82565b91506142bf82614258565b604082019050919050565b600060208201905081810360008301526142e3816142a7565b9050919050565b60006080820190506142ff6000830187613d6c565b61430c6020830186613d6c565b6143196040830185613d38565b6143266060830184613e4d565b95945050505050565b60006080820190506143446000830187613d6c565b6143516020830186613e4d565b61435e6040830185613d38565b61436b6060830184613d38565b95945050505050565b600081905092915050565b7f1901000000000000000000000000000000000000000000000000000000000000600082015250565b60006143b5600283614374565b91506143c08261437f565b600282019050919050565b6000819050919050565b6143e66143e182613d62565b6143cb565b82525050565b60006143f7826143a8565b915061440382856143d5565b60208201915061441382846143d5565b6020820191508190509392505050565b60006080820190506144386000830187613d6c565b6144456020830186613df6565b6144526040830185613d6c565b61445f6060830184613d6c565b95945050505050565b7f53555348493a3a64656c656761746542795369673a20696e76616c696420736960008201527f676e617475726500000000000000000000000000000000000000000000000000602082015250565b60006144c4602783613b82565b91506144cf82614468565b604082019050919050565b600060208201905081810360008301526144f3816144b7565b9050919050565b600061450582613c8c565b91507fffffffffffffffffffffffffffffffffffffffffffffffffffffffffffffffff8203614537576145366140cb565b5b600182019050919050565b7f53555348493a3a64656c656761746542795369673a20696e76616c6964206e6f60008201527f6e63650000000000000000000000000000000000000000000000000000000000602082015250565b600061459e602383613b82565b91506145a982614542565b604082019050919050565b600060208201905081810360008301526145cd81614591565b9050919050565b7f53555348493a3a64656c656761746542795369673a207369676e61747572652060008201527f6578706972656400000000000000000000000000000000000000000000000000602082015250565b6000614630602783613b82565b915061463b826145d4565b604082019050919050565b6000602082019050818103600083015261465f81614623565b9050919050565b7f4f776e61626c653a206e6577206f776e657220697320746865207a65726f206160008201527f6464726573730000000000000000000000000000000000000000000000000000602082015250565b60006146c2602683613b82565b91506146cd82614666565b604082019050919050565b600060208201905081810360008301526146f1816146b5565b9050919050565b7f45524332303a20617070726f76652066726f6d20746865207a65726f2061646460008201527f7265737300000000000000000000000000000000000000000000000000000000602082015250565b6000614754602483613b82565b915061475f826146f8565b604082019050919050565b6000602082019050818103600083015261478381614747565b9050919050565b7f45524332303a20617070726f766520746f20746865207a65726f20616464726560008201527f7373000000000000000000000000000000000000000000000000000000000000602082015250565b60006147e6602283613b82565b91506147f18261478a565b604082019050919050565b60006020820190508181036000830152614815816147d9565b9050919050565b7f45524332303a20696e73756666696369656e7420616c6c6f77616e6365000000600082015250565b6000614852601d83613b82565b915061485d8261481c565b602082019050919050565b6000602082019050818103600083015261488181614845565b9050919050565b7f45524332303a207472616e736665722066726f6d20746865207a65726f20616460008201527f6472657373000000000000000000000000000000000000000000000000000000602082015250565b60006148e4602583613b82565b91506148ef82614888565b604082019050919050565b60006020820190508181036000830152614913816148d7565b9050919050565b7f45524332303a207472616e7366657220746f20746865207a65726f206164647260008201527f6573730000000000000000000000000000000000000000000000000000000000602082015250565b6000614976602383613b82565b91506149818261491a565b604082019050919050565b600060208201905081810360008301526149a581614969565b9050919050565b7f45524332303a207472616e7366657220616d6f756e742065786365656473206260008201527f616c616e63650000000000000000000000000000000000000000000000000000602082015250565b6000614a08602683613b82565b9150614a13826149ac565b604082019050919050565b60006020820190508181036000830152614a37816149fb565b9050919050565b7f4f776e61626c653a2063616c6c6572206973206e6f7420746865206f776e6572600082015250565b6000614a74602083613b82565b9150614a7f82614a3e565b602082019050919050565b60006020820190508181036000830152614aa381614a67565b9050919050565b7f45524332303a206d696e7420746f20746865207a65726f206164647265737300600082015250565b6000614ae0601f83613b82565b9150614aeb82614aaa565b602082019050919050565b60006020820190508181036000830152614b0f81614ad3565b9050919050565b6000614b2182613c8c565b9150614b2c83613c8c565b9250828203905081811115614b4457614b436140cb565b5b92915050565b6000614b5582613e77565b9150614b6083613e77565b9250828201905063ffffffff811115614b7c57614b7b6140cb565b5b92915050565b6000604082019050614b976000830185613d38565b614ba46020830184613d38565b939250505056fe53555348493a3a5f7772697465436865636b706f696e743a20626c6f636b206e756d62657220657863656564732033322062697473a2646970667358221220374c0de9c2e920781f53bb235517a7d7cf65d2e4a0ff8dd700bdd6f825659cee64736f6c63430008100033",
  "linkReferences": {},
  "deployedLinkReferences": {}
}