{
  "_format": "hh-sol-artifact-1",
  "contractName": "MasterChefV2",
  "sourceName": "contracts/MasterChefV2.sol",
  "abi": [
    {
      "inputs": [
        {
          "internalType": "contract SushiToken",
          "name": "_sushi",
          "type": "address"
        },
        {
          "internalType": "address",
          "name": "_treasuryAddress",
          "type": "address"
        },
        {
          "internalType": "uint256",
          "name": "_sushiPerBlock",
          "type": "uint256"
        },
        {
          "internalType": "uint256",
          "name": "_startBlock",
          "type": "uint256"
        }
      ],
      "stateMutability": "nonpayable",
      "type": "constructor"
    },
    {
      "anonymous": false,
      "inputs": [
        {
          "indexed": true,
          "internalType": "address",
          "name": "user",
          "type": "address"
        },
        {
          "indexed": true,
          "internalType": "uint256",
          "name": "pid",
          "type": "uint256"
        },
        {
          "indexed": false,
          "internalType": "uint256",
          "name": "amount",
          "type": "uint256"
        },
        {
          "indexed": true,
          "internalType": "address",
          "name": "to",
          "type": "address"
        }
      ],
      "name": "Deposit",
      "type": "event"
    },
    {
      "anonymous": false,
      "inputs": [
        {
          "indexed": true,
          "internalType": "address",
          "name": "user",
          "type": "address"
        },
        {
          "indexed": true,
          "internalType": "uint256",
          "name": "pid",
          "type": "uint256"
        },
        {
          "indexed": false,
          "internalType": "uint256",
          "name": "amount",
          "type": "uint256"
        },
        {
          "indexed": true,
          "internalType": "address",
          "name": "to",
          "type": "address"
        }
      ],
      "name": "EmergencyWithdraw",
      "type": "event"
    },
    {
      "anonymous": false,
      "inputs": [
        {
          "indexed": true,
          "internalType": "address",
          "name": "user",
          "type": "address"
        },
        {
          "indexed": true,
          "internalType": "uint256",
          "name": "pid",
          "type": "uint256"
        },
        {
          "indexed": false,
          "internalType": "uint256",
          "name": "amount",
          "type": "uint256"
        }
      ],
      "name": "Harvest",
      "type": "event"
    },
    {
      "anonymous": false,
      "inputs": [],
      "name": "LogInit",
      "type": "event"
    },
    {
      "anonymous": false,
      "inputs": [
        {
          "indexed": true,
          "internalType": "uint256",
          "name": "pid",
          "type": "uint256"
        },
        {
          "indexed": false,
          "internalType": "uint256",
          "name": "allocPoint",
          "type": "uint256"
        },
        {
          "indexed": true,
          "internalType": "contract IERC20",
          "name": "lpToken",
          "type": "address"
        },
        {
          "indexed": true,
          "internalType": "contract IRewarder",
          "name": "rewarder",
          "type": "address"
        }
      ],
      "name": "LogPoolAddition",
      "type": "event"
    },
    {
      "anonymous": false,
      "inputs": [
        {
          "indexed": true,
          "internalType": "uint256",
          "name": "pid",
          "type": "uint256"
        },
        {
          "indexed": false,
          "internalType": "uint256",
          "name": "allocPoint",
          "type": "uint256"
        },
        {
          "indexed": true,
          "internalType": "contract IRewarder",
          "name": "rewarder",
          "type": "address"
        },
        {
          "indexed": false,
          "internalType": "bool",
          "name": "overwrite",
          "type": "bool"
        }
      ],
      "name": "LogSetPool",
      "type": "event"
    },
    {
      "anonymous": false,
      "inputs": [
        {
          "indexed": true,
          "internalType": "uint256",
          "name": "pid",
          "type": "uint256"
        },
        {
          "indexed": false,
          "internalType": "uint64",
          "name": "lastRewardBlock",
          "type": "uint64"
        },
        {
          "indexed": false,
          "internalType": "uint256",
          "name": "lpSupply",
          "type": "uint256"
        },
        {
          "indexed": false,
          "internalType": "uint256",
          "name": "accSushiPerShare",
          "type": "uint256"
        }
      ],
      "name": "LogUpdatePool",
      "type": "event"
    },
    {
      "anonymous": false,
      "inputs": [
        {
          "indexed": true,
          "internalType": "address",
          "name": "previousOwner",
          "type": "address"
        },
        {
          "indexed": true,
          "internalType": "address",
          "name": "newOwner",
          "type": "address"
        }
      ],
      "name": "OwnershipTransferred",
      "type": "event"
    },
    {
      "anonymous": false,
      "inputs": [
        {
          "indexed": true,
          "internalType": "address",
          "name": "user",
          "type": "address"
        },
        {
          "indexed": true,
          "internalType": "uint256",
          "name": "pid",
          "type": "uint256"
        },
        {
          "indexed": false,
          "internalType": "uint256",
          "name": "amount",
          "type": "uint256"
        },
        {
          "indexed": true,
          "internalType": "address",
          "name": "to",
          "type": "address"
        }
      ],
      "name": "Withdraw",
      "type": "event"
    },
    {
      "inputs": [],
      "name": "POOL_PERCENTAGE",
      "outputs": [
        {
          "internalType": "uint256",
          "name": "",
          "type": "uint256"
        }
      ],
      "stateMutability": "view",
      "type": "function"
    },
    {
      "inputs": [],
      "name": "SUSHI",
      "outputs": [
        {
          "internalType": "contract SushiToken",
          "name": "",
          "type": "address"
        }
      ],
      "stateMutability": "view",
      "type": "function"
    },
    {
      "inputs": [],
      "name": "TREASURY_PERCENTAGE",
      "outputs": [
        {
          "internalType": "uint256",
          "name": "",
          "type": "uint256"
        }
      ],
      "stateMutability": "view",
      "type": "function"
    },
    {
      "inputs": [
        {
          "internalType": "uint256",
          "name": "allocPoint",
          "type": "uint256"
        },
        {
          "internalType": "contract IERC20",
          "name": "_lpToken",
          "type": "address"
        },
        {
          "internalType": "contract IRewarder",
          "name": "_rewarder",
          "type": "address"
        }
      ],
      "name": "add",
      "outputs": [],
      "stateMutability": "nonpayable",
      "type": "function"
    },
    {
      "inputs": [
        {
          "internalType": "uint256",
          "name": "pid",
          "type": "uint256"
        },
        {
          "internalType": "uint256",
          "name": "amount",
          "type": "uint256"
        },
        {
          "internalType": "address",
          "name": "to",
          "type": "address"
        }
      ],
      "name": "deposit",
      "outputs": [],
      "stateMutability": "nonpayable",
      "type": "function"
    },
    {
      "inputs": [
        {
          "internalType": "uint256",
          "name": "pid",
          "type": "uint256"
        },
        {
          "internalType": "address",
          "name": "to",
          "type": "address"
        }
      ],
      "name": "emergencyWithdraw",
      "outputs": [],
      "stateMutability": "nonpayable",
      "type": "function"
    },
    {
      "inputs": [
        {
          "internalType": "uint256",
          "name": "pid",
          "type": "uint256"
        },
        {
          "internalType": "address",
          "name": "to",
          "type": "address"
        }
      ],
      "name": "harvest",
      "outputs": [],
      "stateMutability": "nonpayable",
      "type": "function"
    },
    {
      "inputs": [
        {
          "internalType": "uint256",
          "name": "",
          "type": "uint256"
        }
      ],
      "name": "lpToken",
      "outputs": [
        {
          "internalType": "contract IERC20",
          "name": "",
          "type": "address"
        }
      ],
      "stateMutability": "view",
      "type": "function"
    },
    {
      "inputs": [
        {
          "internalType": "uint256[]",
          "name": "pids",
          "type": "uint256[]"
        }
      ],
      "name": "massUpdatePools",
      "outputs": [],
      "stateMutability": "nonpayable",
      "type": "function"
    },
    {
      "inputs": [
        {
          "internalType": "uint256",
          "name": "_pid",
          "type": "uint256"
        }
      ],
      "name": "migrate",
      "outputs": [],
      "stateMutability": "nonpayable",
      "type": "function"
    },
    {
      "inputs": [],
      "name": "migrator",
      "outputs": [
        {
          "internalType": "contract IMigratorChef",
          "name": "",
          "type": "address"
        }
      ],
      "stateMutability": "view",
      "type": "function"
    },
    {
      "inputs": [],
      "name": "owner",
      "outputs": [
        {
          "internalType": "address",
          "name": "",
          "type": "address"
        }
      ],
      "stateMutability": "view",
      "type": "function"
    },
    {
      "inputs": [
        {
          "internalType": "uint256",
          "name": "_pid",
          "type": "uint256"
        },
        {
          "internalType": "address",
          "name": "_user",
          "type": "address"
        }
      ],
      "name": "pendingSushi",
      "outputs": [
        {
          "internalType": "uint256",
          "name": "pending",
          "type": "uint256"
        }
      ],
      "stateMutability": "view",
      "type": "function"
    },
    {
      "inputs": [
        {
          "internalType": "uint256",
          "name": "",
          "type": "uint256"
        }
      ],
      "name": "poolInfo",
      "outputs": [
        {
          "internalType": "uint128",
          "name": "accSushiPerShare",
          "type": "uint128"
        },
        {
          "internalType": "uint64",
          "name": "lastRewardBlock",
          "type": "uint64"
        },
        {
          "internalType": "uint64",
          "name": "allocPoint",
          "type": "uint64"
        }
      ],
      "stateMutability": "view",
      "type": "function"
    },
    {
      "inputs": [],
      "name": "poolLength",
      "outputs": [
        {
          "internalType": "uint256",
          "name": "pools",
          "type": "uint256"
        }
      ],
      "stateMutability": "view",
      "type": "function"
    },
    {
      "inputs": [],
      "name": "renounceOwnership",
      "outputs": [],
      "stateMutability": "nonpayable",
      "type": "function"
    },
    {
      "inputs": [
        {
          "internalType": "uint256",
          "name": "",
          "type": "uint256"
        }
      ],
      "name": "rewarder",
      "outputs": [
        {
          "internalType": "contract IRewarder",
          "name": "",
          "type": "address"
        }
      ],
      "stateMutability": "view",
      "type": "function"
    },
    {
      "inputs": [
        {
          "internalType": "uint256",
          "name": "_pid",
          "type": "uint256"
        },
        {
          "internalType": "uint256",
          "name": "_allocPoint",
          "type": "uint256"
        },
        {
          "internalType": "contract IRewarder",
          "name": "_rewarder",
          "type": "address"
        },
        {
          "internalType": "bool",
          "name": "overwrite",
          "type": "bool"
        }
      ],
      "name": "set",
      "outputs": [],
      "stateMutability": "nonpayable",
      "type": "function"
    },
    {
      "inputs": [
        {
          "internalType": "contract IMigratorChef",
          "name": "_migrator",
          "type": "address"
        }
      ],
      "name": "setMigrator",
      "outputs": [],
      "stateMutability": "nonpayable",
      "type": "function"
    },
    {
      "inputs": [],
      "name": "startBlock",
      "outputs": [
        {
          "internalType": "uint256",
          "name": "",
          "type": "uint256"
        }
      ],
      "stateMutability": "view",
      "type": "function"
    },
    {
      "inputs": [],
      "name": "sushiPerBlock",
      "outputs": [
        {
          "internalType": "uint256",
          "name": "",
          "type": "uint256"
        }
      ],
      "stateMutability": "view",
      "type": "function"
    },
    {
      "inputs": [],
      "name": "totalAllocPoint",
      "outputs": [
        {
          "internalType": "uint256",
          "name": "",
          "type": "uint256"
        }
      ],
      "stateMutability": "view",
      "type": "function"
    },
    {
      "inputs": [
        {
          "internalType": "address",
          "name": "newOwner",
          "type": "address"
        }
      ],
      "name": "transferOwnership",
      "outputs": [],
      "stateMutability": "nonpayable",
      "type": "function"
    },
    {
      "inputs": [],
      "name": "treasuryAddress",
      "outputs": [
        {
          "internalType": "address",
          "name": "",
          "type": "address"
        }
      ],
      "stateMutability": "view",
      "type": "function"
    },
    {
      "inputs": [
        {
          "internalType": "uint256",
          "name": "pid",
          "type": "uint256"
        }
      ],
      "name": "updatePool",
      "outputs": [
        {
          "components": [
            {
              "internalType": "uint128",
              "name": "accSushiPerShare",
              "type": "uint128"
            },
            {
              "internalType": "uint64",
              "name": "lastRewardBlock",
              "type": "uint64"
            },
            {
              "internalType": "uint64",
              "name": "allocPoint",
              "type": "uint64"
            }
          ],
          "internalType": "struct MasterChefV2.PoolInfo",
          "name": "pool",
          "type": "tuple"
        }
      ],
      "stateMutability": "nonpayable",
      "type": "function"
    },
    {
      "inputs": [
        {
          "internalType": "uint256",
          "name": "",
          "type": "uint256"
        },
        {
          "internalType": "address",
          "name": "",
          "type": "address"
        }
      ],
      "name": "userInfo",
      "outputs": [
        {
          "internalType": "uint256",
          "name": "amount",
          "type": "uint256"
        },
        {
          "internalType": "int256",
          "name": "rewardDebt",
          "type": "int256"
        }
      ],
      "stateMutability": "view",
      "type": "function"
    },
    {
      "inputs": [
        {
          "internalType": "uint256",
          "name": "pid",
          "type": "uint256"
        },
        {
          "internalType": "uint256",
          "name": "amount",
          "type": "uint256"
        },
        {
          "internalType": "address",
          "name": "to",
          "type": "address"
        }
      ],
      "name": "withdraw",
      "outputs": [],
      "stateMutability": "nonpayable",
      "type": "function"
    },
    {
      "inputs": [
        {
          "internalType": "uint256",
          "name": "pid",
          "type": "uint256"
        },
        {
          "internalType": "uint256",
          "name": "amount",
          "type": "uint256"
        },
        {
          "internalType": "address",
          "name": "to",
          "type": "address"
        }
      ],
      "name": "withdrawAndHarvest",
      "outputs": [],
      "stateMutability": "nonpayable",
      "type": "function"
    }
  ],
  "bytecode": "0x6101006040523480156200001257600080fd5b506040516200780738038062007807833981810160405281019062000038919062000467565b620000586200004c620002ae60201b60201c565b620002b660201b60201c565b6200008c7f32d45d8daac665d03718e6851e95ad6f547ac9ffd72e536b791d6b4c7ee4657760001b6200037a60201b60201c565b620000c07f8077af6ff910d5a047d8bfbe738fb2551d2e6251863fc1464b6ea23d641f4f1c60001b6200037a60201b60201c565b620000f47fba22e16d6fc6df9a9a7af8683fbe24c6e422598a94cc69f3f5e5001371c4439260001b6200037a60201b60201c565b8373ffffffffffffffffffffffffffffffffffffffff1660808173ffffffffffffffffffffffffffffffffffffffff16815250506200015c7ff30ad0ab675e85e0b3a472797b09768e4e3b73b682b15cb56752468d8088298d60001b6200037a60201b60201c565b620001907fa78e486878d26de0d5b557d9760c15d12866610fef9ff015a043d8a10101bd5260001b6200037a60201b60201c565b8273ffffffffffffffffffffffffffffffffffffffff1660a08173ffffffffffffffffffffffffffffffffffffffff1681525050620001f87fe080a5943992c43fc39b6676cfcae127c60177a2adbeee4cca6df6c3bb03c3ec60001b6200037a60201b60201c565b6200022c7f4dffcd5fe1014a17531469f50782f2de76c82b72c2f79d4e9afe01e1b13929ea60001b6200037a60201b60201c565b8160c08181525050620002687fea08b0064b1a1752d0f6159ab2798ad620a93be2928fc98be1fbaa04b3045e9f60001b6200037a60201b60201c565b6200029c7f9cc17fc33497db9a132cdefdae739099b09e9940c32585a68a44bb376076cedf60001b6200037a60201b60201c565b8060e0818152505050505050620004d9565b600033905090565b60008060009054906101000a900473ffffffffffffffffffffffffffffffffffffffff169050816000806101000a81548173ffffffffffffffffffffffffffffffffffffffff021916908373ffffffffffffffffffffffffffffffffffffffff1602179055508173ffffffffffffffffffffffffffffffffffffffff168173ffffffffffffffffffffffffffffffffffffffff167f8be0079c531659141344cd1fd0a4f28419497f9722a3daafe3b4186f6b6457e060405160405180910390a35050565b50565b600080fd5b600073ffffffffffffffffffffffffffffffffffffffff82169050919050565b6000620003af8262000382565b9050919050565b6000620003c382620003a2565b9050919050565b620003d581620003b6565b8114620003e157600080fd5b50565b600081519050620003f581620003ca565b92915050565b6200040681620003a2565b81146200041257600080fd5b50565b6000815190506200042681620003fb565b92915050565b6000819050919050565b62000441816200042c565b81146200044d57600080fd5b50565b600081519050620004618162000436565b92915050565b600080600080608085870312156200048457620004836200037d565b5b60006200049487828801620003e4565b9450506020620004a78782880162000415565b9350506040620004ba8782880162000450565b9250506060620004cd8782880162000450565b91505092959194509250565b60805160a05160c05160e0516172b56200055260003960008181612842015281816143f001526144170152600081816118ec01528181612cf501526148d3015260008181612ed0015261493601526000818161104701528181612e9401528181612fb901528181613fe10152614d2a01526172b56000f3fe608060405234801561001057600080fd5b50600436106101c45760003560e01c8063715018a6116100f9578063ab560e1011610097578063c346253d11610071578063c346253d146104d0578063c5f956af14610500578063d1abb9071461051e578063f2fde38b1461053a576101c4565b8063ab560e1014610478578063ab7de09814610496578063b0bcf42a146104b2576101c4565b806388bba42f116100d357806388bba42f146103f15780638da5cb5b1461040d5780638dbdbe6d1461042b57806393f1a40b14610447576101c4565b8063715018a61461039957806378ed5d1f146103a35780637cd07e47146103d3576101c4565b806323cf311811610166578063454b060811610140578063454b06081461031357806348cd4cb11461032f57806351eb05a61461034d57806357a5b58c1461037d576101c4565b806323cf3118146102bd5780632f940c70146102d957806339e5f4ff146102f5576101c4565b8063173b31d8116101a2578063173b31d81461023557806317caf6f11461025357806318fccc7614610271578063195426ec1461028d576101c4565b8063081e3eda146101c95780630ad58d2f146101e75780631526fe2714610203575b600080fd5b6101d1610556565b6040516101de9190615e9b565b60405180910390f35b61020160048036038101906101fc9190615f4a565b6105e7565b005b61021d60048036038101906102189190615f9d565b610c25565b60405161022c93929190616018565b60405180910390f35b61023d610c9f565b60405161024a9190615e9b565b60405180910390f35b61025b610ca4565b6040516102689190615e9b565b60405180910390f35b61028b6004803603810190610286919061604f565b610caa565b005b6102a760048036038101906102a2919061604f565b6113c0565b6040516102b49190615e9b565b60405180910390f35b6102d760048036038101906102d291906160cd565b611aa0565b005b6102f360048036038101906102ee919061604f565b611b70565b005b6102fd612143565b60405161030a9190615e9b565b60405180910390f35b61032d60048036038101906103289190615f9d565b612149565b005b610337612840565b6040516103449190615e9b565b60405180910390f35b61036760048036038101906103629190615f9d565b612864565b604051610374919061615a565b60405180910390f35b610397600480360381019061039291906161da565b613374565b005b6103a16134f5565b005b6103bd60048036038101906103b89190615f9d565b613509565b6040516103ca9190616286565b60405180910390f35b6103db613548565b6040516103e891906162c2565b60405180910390f35b61040b60048036038101906104069190616353565b61356e565b005b610415613944565b60405161042291906163c9565b60405180910390f35b61044560048036038101906104409190615f4a565b61396d565b005b610461600480360381019061045c919061604f565b613fae565b60405161046f9291906163fd565b60405180910390f35b610480613fdf565b60405161048d9190616447565b60405180910390f35b6104b060048036038101906104ab91906164a0565b614003565b005b6104ba6148d1565b6040516104c79190615e9b565b60405180910390f35b6104ea60048036038101906104e59190615f9d565b6148f5565b6040516104f79190616514565b60405180910390f35b610508614934565b60405161051591906163c9565b60405180910390f35b61053860048036038101906105339190615f4a565b614958565b005b610554600480360381019061054f919061652f565b6151f2565b005b60006105847ff3436e47f7692f578ecb10d43eb8833de93e42ddd27c155bf145c5d6768f521b60001b615275565b6105b07fcc44e1765809676bcf9b1f3fe0ef24e2d9f402e0ef2d4203aa093c5034626d8460001b615275565b6105dc7f2582ead174287e0b4d4f0e924024a6414920b4de7099e65788d86c7fc22b439160001b615275565b600280549050905090565b6106137f63b387682d72280c8587fbf171cf3ed146e48e22a4f7d350fca0ce30feacc05b60001b615275565b61063f7f809b4c42dd7ba47aa90bebe5ef71dfc28946e0cf6778c2f5d642914ac4e2b92160001b615275565b61066b7f45341ca44a9ff9e1f87ebe9fddbda29d0c9d0438d7ba20c691e206dd92069b5060001b615275565b600061067684612864565b90506106a47f157fae0ca1904317094206fa6f3eb9a10cdf1a7b3db71d4197ffbf4b7aefe84f60001b615275565b6106d07f4cfa52ee31ef53d711f42b41ea4a6277af7907a20ace2e287df918ec6ed9b32860001b615275565b60006007600086815260200190815260200160002060003373ffffffffffffffffffffffffffffffffffffffff1673ffffffffffffffffffffffffffffffffffffffff16815260200190815260200160002090506107507f990d9b52e2c64e371a32a729852af752db03d02575391740faf0ac21aa276d5560001b615275565b61077c7f424f008dd474365f7e05737c88ff6e1b72ec6d1cda99fb65b22c6e3c6497d67260001b615275565b6107cb64e8d4a510006107ae84600001516fffffffffffffffffffffffffffffffff168761527890919063ffffffff16565b6107b891906165ba565b826001015461528e90919063ffffffff16565b81600101819055506107ff7f023b944ad92f8c5b207e9ac4e066e47ef1a473eaa01eb72796c493150956c9c460001b615275565b61082b7f4f3b92e42cef23baa5e07b890a8aefcaf2f276c2ed53a3ad9ada24ea1de7855160001b615275565b61084284826000015461549c90919063ffffffff16565b81600001819055506108767f201357df7863e690dea25cd3a8254a01bc2245c00947279753e64f372a3d51cf60001b615275565b6108a17e1bc8a1a2ceadc308729a238d365f9c6c4d6cb8d91dc892287afbc1f98d234560001b615275565b6000600486815481106108b7576108b66165eb565b5b9060005260206000200160009054906101000a900473ffffffffffffffffffffffffffffffffffffffff1690506109107f570a38a68c391c52c8114cfbe2ab40730f8457b0e0237a62678cbce4783bce5e60001b615275565b61093c7f54214387a43bcdb4e8fc8d7a1df30c24e000d3eafb59c47941f711f613bca0f460001b615275565b600073ffffffffffffffffffffffffffffffffffffffff168173ffffffffffffffffffffffffffffffffffffffff1614610a715761099c7f296aa71dcd354932e1720ed8d2da6eaa9af2e4c3265ce52739c74cb75287746660001b615275565b6109c87fcf2825aa800ae0281b47e88d218ba7532e6be1b430c69ed62d91806e88f7f2d160001b615275565b6109f47fcdff162f717f76fb01958bedc93b4139f351b545d23d7d942fdce5bab1cf190260001b615275565b8073ffffffffffffffffffffffffffffffffffffffff16638bf63742873387600087600001546040518663ffffffff1660e01b8152600401610a3a959493929190616655565b600060405180830381600087803b158015610a5457600080fd5b505af1158015610a68573d6000803e3d6000fd5b50505050610a9e565b610a9d7f1eff2505fe1c242443b956c30147deebe14a2a1b37cc9bc9cf6d8714132cae0060001b615275565b5b610aca7f6a460ead2a48216886ae425dcddb5b82cded4eff83ca396915413d4d1eec576f60001b615275565b610af67fb84cc0473778cc3c8de8a7c3b64e15d5d787cf7f8a02313338cf11f737d290bc60001b615275565b610b5f848660038981548110610b0f57610b0e6165eb565b5b9060005260206000200160009054906101000a900473ffffffffffffffffffffffffffffffffffffffff1673ffffffffffffffffffffffffffffffffffffffff166154b29092919063ffffffff16565b610b8b7ffc89ef14bc0e0f71b7071fc8169ce40df79603c2ef333b2f87c90a2c6f32e72d60001b615275565b610bb77fc390658e064b480d49a58d651f3aff63593887c480bb4d250e70f906274e13e960001b615275565b8373ffffffffffffffffffffffffffffffffffffffff16863373ffffffffffffffffffffffffffffffffffffffff167f8166bf25f8a2b7ed3c85049207da4358d16edbed977d23fa2ee6f0dde3ec213288604051610c159190615e9b565b60405180910390a4505050505050565b60028181548110610c3557600080fd5b906000526020600020016000915090508060000160009054906101000a90046fffffffffffffffffffffffffffffffff16908060000160109054906101000a900467ffffffffffffffff16908060000160189054906101000a900467ffffffffffffffff16905083565b608081565b60085481565b610cd67f5d9e0205df61f57d55dc481e8e019602fdad6a688b8750892efa62676e288b6d60001b615275565b610d027f8c389be5a663e1808b8ba417339ef66f54eafc454af80a16e57657d93c8819f960001b615275565b610d2e7fe03e7abe9682db90ed143f35dfd99248c891d445ffb103ec23bd6d5e3450eec860001b615275565b6000610d3983612864565b9050610d677f278d6418359ae644fd7626609171e70d5841bec8b82062f921695dcdc433936b60001b615275565b610d937f665dbe4732dd301d825b82c8a8aff20e072b40c3aa28b8aeacc9e8abfb3f301060001b615275565b60006007600085815260200190815260200160002060003373ffffffffffffffffffffffffffffffffffffffff1673ffffffffffffffffffffffffffffffffffffffff1681526020019081526020016000209050610e137f08c73bf0874ef5f20d3d533d02fb32756b862db3ed1bb10d0f36c1ba14b20b3f60001b615275565b610e3f7fa73fbf2125515fbcbf0942f993e3a809d4f47e0e04d183616c209a51cdbc523f60001b615275565b600064e8d4a51000610e7484600001516fffffffffffffffffffffffffffffffff16846000015461527890919063ffffffff16565b610e7e91906165ba565b9050610eac7f8884f5f353141cbe366b99fdd333c376b19cd06ca6f38756452234a7a32cf40660001b615275565b610ed87ffc946214b83efcbe6070ac8fcfe07e72949fd032879d8fa37641d52f108532c560001b615275565b6000610ef9610ef484600101548461528e90919063ffffffff16565b615538565b9050610f277fb57b2388defe6591d1043ac46bce06a1d405fd61b00c3a03c36af34a836c9c3260001b615275565b610f537f8a7058e5dc6d3c677f3126b8313e32a6eb8dfccb98f4c5b7bb354cabf5df4cea60001b615275565b818360010181905550610f887f1bbbfd8f3ce5beb276308bddbf8fd71467ee96991864c4065c6dae60da9b72be60001b615275565b610fb47fdad7418dec8b669acbdf5b452bc1fb69097dd5860bd7db447073b7f4e950eb0f60001b615275565b6000811461109057610fe87f38ee1bb0c0b62fa66ca390839927f23af2bc7c4133b4751e0019caac7006e50160001b615275565b6110147f8736595e08370c57f74461e19493ddcda19783d3994fd8bd4fc2eff3b77fddc360001b615275565b6110407f79a3856c4d71cc3a9aac840af124186f80ed06ecd6b59c118bae3e681bbae2f860001b615275565b61108b85827f000000000000000000000000000000000000000000000000000000000000000073ffffffffffffffffffffffffffffffffffffffff166154b29092919063ffffffff16565b6110bd565b6110bc7f379a738b7641983d7e3acdf13b98c762a25019ed8131e08a057d0e32f9d071a960001b615275565b5b6110e97f77453e98a107e123ec7ae8703714e114ab8ceb2673df7f81df26dec97db98c9860001b615275565b6111157f1af7811223e49a96f59c073f2eb9cb1e067f76141d5e1050f88807d3ba0beb5e60001b615275565b60006004878154811061112b5761112a6165eb565b5b9060005260206000200160009054906101000a900473ffffffffffffffffffffffffffffffffffffffff1690506111847fe275fb28c63a71e7abb8f66092b47b0978d0a92de263caea572f73b619e9314060001b615275565b6111b07faa85faf97d83c30f0b4683853f5d6f75bd0c330338924a2b44b36e16b56dbed660001b615275565b600073ffffffffffffffffffffffffffffffffffffffff168173ffffffffffffffffffffffffffffffffffffffff16146112e4576112107f18e04bc1c436b9e565285dfb064216c7b859c4e2f68fe70a2f820452a1e6b0ff60001b615275565b61123c7fe7025ad1e8bccfbf7397f09d4c60c056e6e6a821c9d509fe25c6df5e29ea177660001b615275565b6112687fd939b18d913ad6537749c3c0e13904fb9ab3f77116cc9e237029ec27c4b11c3860001b615275565b8073ffffffffffffffffffffffffffffffffffffffff16638bf637428833898689600001546040518663ffffffff1660e01b81526004016112ad9594939291906166a8565b600060405180830381600087803b1580156112c757600080fd5b505af11580156112db573d6000803e3d6000fd5b50505050611311565b6113107f69dbf22f95bd6104d059764ea66081ed6f14027d126f8de797a5a63d82381c3f60001b615275565b5b61133c7e807ad6dcc6b681d33af742a8433e2ca880454dfbfb2b2f014044864ea8007960001b615275565b6113687fc9fc58a9db8a61c3b8cf72a754f190c5503eceeae78585a39467ce40cc88bed360001b615275565b863373ffffffffffffffffffffffffffffffffffffffff167f71bab65ced2e5750775a0613be067df48ef06cf92a496ebf7663ae0660924954846040516113af9190615e9b565b60405180910390a350505050505050565b60006113ee7fb067e6f50ca812ca464e477abeaafa5af5a5fa0b6de3c47b82a5673f533824e860001b615275565b61141a7fd2fc1796ffa468c50fa79082359c7ee17b3a3c6d4398a8fff11bb90f7e108ef960001b615275565b6114467f2a90437d7290fc67b82599cc9a6a251be201147a4eb7acdc39e55bb64e00fffd60001b615275565b60006002848154811061145c5761145b6165eb565b5b906000526020600020016040518060600160405290816000820160009054906101000a90046fffffffffffffffffffffffffffffffff166fffffffffffffffffffffffffffffffff166fffffffffffffffffffffffffffffffff1681526020016000820160109054906101000a900467ffffffffffffffff1667ffffffffffffffff1667ffffffffffffffff1681526020016000820160189054906101000a900467ffffffffffffffff1667ffffffffffffffff1667ffffffffffffffff1681525050905061154d7f94ce42491cbb278361073c601b708bca91efc3472e8c0bbcb0f6e00af3d4e0a360001b615275565b6115797f2806bf41475662bbed381a10e80015a978a6937b6672cb6dd059fc8123f4f7e260001b615275565b60006007600086815260200190815260200160002060008573ffffffffffffffffffffffffffffffffffffffff1673ffffffffffffffffffffffffffffffffffffffff16815260200190815260200160002090506115f97f061581d21d476cd49d7b24497ceea8b297e5e29bb4537adc3c20738a1c5211fe60001b615275565b6116257f956e6f5bc073b131bb1eefd4ad838e1c4260e6fdde4ff725555009400040647960001b615275565b600082600001516fffffffffffffffffffffffffffffffff16905061166c7fb3f0df485e7395c17dd4cd67395617e423e3a868c81d7541cc98716a4745f68e60001b615275565b6116987f389b6acd67e48461b40c8e569522f8e67b4bbb9a9114fb34a5a702705e957dc960001b615275565b6000600387815481106116ae576116ad6165eb565b5b9060005260206000200160009054906101000a900473ffffffffffffffffffffffffffffffffffffffff1673ffffffffffffffffffffffffffffffffffffffff166370a08231306040518263ffffffff1660e01b815260040161171191906163c9565b602060405180830381865afa15801561172e573d6000803e3d6000fd5b505050506040513d601f19601f820116820180604052508101906117529190616710565b90506117807f731ee155717bd473718aa8f7261b6206fedbfae70c38ad4d684d2193254b77a160001b615275565b6117ac7fcb732f5c83ddd91a84da9a18246e059255c5ca2863977423c7e55dfa47ebe6cd60001b615275565b836020015167ffffffffffffffff16431180156117ca575060008114155b156119ca576117fb7fd37930c3715de59f663134dbfebe223021d0d344a8ae04f796af652d2b3dc24360001b615275565b6118277fb15ff663de0bdf5662bf7a2f805b36aaea1603fd0704176175bc9d619d3f4a7b60001b615275565b6118537f3a0f70c5321c765862f8e3f752cd7ab4683d4302f50d59e27a61c8f53a2d5b1160001b615275565b6000611876856020015167ffffffffffffffff164361549c90919063ffffffff16565b90506118a47f89bce719e3b788f2f9a4d73b9d3913bfd6c5be60249ee4ad2d04088cfd3a963e60001b615275565b6118d07fdc2d23b9321a3b369d9f73b306c5a2c8c7e983dbe28cedf2646ebaa0bebbfbf860001b615275565b6000600854611928876040015167ffffffffffffffff1661191a7f00000000000000000000000000000000000000000000000000000000000000008661527890919063ffffffff16565b61527890919063ffffffff16565b61193291906165ba565b90506119607f39117fe8d77c01df49a2061b4f98b1b97b3e9f729d253bdea806ae030cc3195960001b615275565b61198c7f9272ae96865990741be0ee631c33a715b21e801845f94078d064fa60c307d13b60001b615275565b6119c1836119a864e8d4a510008461527890919063ffffffff16565b6119b291906165ba565b856156ba90919063ffffffff16565b935050506119f7565b6119f67f1b72e1cce235de76de49769b9ecd85036e3f4015c3f1acebaf0a1ba3893ea4f260001b615275565b5b611a237fed02f5ad7c300b41a0977954f3cb68fe398e888268ae00d1833e839dba84b79360001b615275565b611a4f7f48dd3fc359876f84ca7a90ea6cfaf45274cbaa6a3e8eae446096ec9bedbda48d60001b615275565b611a94611a8f846001015464e8d4a51000611a7786886000015461527890919063ffffffff16565b611a8191906165ba565b61528e90919063ffffffff16565b615538565b94505050505092915050565b611aa86156d0565b611ad47f2eff5aea66f7fb25e64e725b512b66d8c93dcd3f54f9c4cbacc001c9e6ef853e60001b615275565b611b007fb5d9bc90bbc5bd58d3c9f44e91e8811ede826178ff88f14eb1f79365f61043cc60001b615275565b611b2c7faf191ac1efc008039aeab4c240141e03dc7ec75d1bf215281cda45d9badafc8f60001b615275565b80600160006101000a81548173ffffffffffffffffffffffffffffffffffffffff021916908373ffffffffffffffffffffffffffffffffffffffff16021790555050565b611b9c7ffc036a216ae843bc78b73f7167d8dab34d44b3e1b1c22cd5557dc66be3b423bd60001b615275565b611bc87fdc6d4accb474b42cb645945781c261a863c89ef61c164ce2ebea92d98baa383160001b615275565b611bf47f4d68dae47d7c9394f47a3020b2a383fd40760bb58f53592cee86bd68233748f760001b615275565b60006007600084815260200190815260200160002060003373ffffffffffffffffffffffffffffffffffffffff1673ffffffffffffffffffffffffffffffffffffffff1681526020019081526020016000209050611c747fabbce5bd9b128d60d84f14e05930f009bedf2e12a7ed42a481d9641dfc054a5760001b615275565b611ca07f30d9df7ef452769bcd9d8a08c53e3f38c2ff71583f1a0bdd8c25663e62b01d2960001b615275565b600081600001549050611cd57f4125cbbe186047f33ef27c3c1de52ff2a480d5268810ecc83f3092a7449aaec060001b615275565b611d017f02831862cee69a316d77d951b8a336fdd698dc5981c0ecd2ae143c5faae831ce60001b615275565b60008260000181905550611d377f3b203c1caa88d1ec7e71df8829c183194e8b1e317efb70512c1455b92479921660001b615275565b611d637f3041857cc9016e86a36eb72229b10dc6573d3e1fd5fb549c43cabd6eccfdd1d760001b615275565b60008260010181905550611d997f547c53c2aae3cd5cb82bde5de06a1dd9c8e2588057346ee38bc4e82397d843a960001b615275565b611dc57fa4ea1f49dbc5dcc5fdf5358091b72e76ea01166b11f4b5821f60dc7d06f9bd1f60001b615275565b600060048581548110611ddb57611dda6165eb565b5b9060005260206000200160009054906101000a900473ffffffffffffffffffffffffffffffffffffffff169050611e347ff36a2acb26c7c89293df7d908d14700adc007d65561fcc4523c9c9d64567239460001b615275565b611e5f7edce6fe53ccbbeb27b77413a8e62f6d8e3db012232b4038e4c51d00f80fb57a60001b615275565b600073ffffffffffffffffffffffffffffffffffffffff168173ffffffffffffffffffffffffffffffffffffffff1614611f9057611ebf7f497e856320925d8da6835cdf45b853a05dc8fc01898e98d0164a94c6fb60784760001b615275565b611eeb7f23a098b749dd3d0b2acc5fe591234770aca3e37ace467e26fb03baeac6ccc7d260001b615275565b611f177f9271adb51104fa5afe86d174dadcf3f5ab992533695d1e5628ba12f4c4b3bae660001b615275565b8073ffffffffffffffffffffffffffffffffffffffff16638bf637428633876000806040518663ffffffff1660e01b8152600401611f5995949392919061673d565b600060405180830381600087803b158015611f7357600080fd5b505af1158015611f87573d6000803e3d6000fd5b50505050611fbd565b611fbc7fddcd170296ca0898794438c44e69b806a162cce691ff3053187b1e4384ddc6c860001b615275565b5b611fe97f38ace44578a4ceec945e5ada6604ddfb18e899e8b9ae990719c74a1f1153834f60001b615275565b6120157f9cb29bc85285ac2871fd05e61b3d838d54db1b60ac616e3f7859e52e1491140760001b615275565b61207e84836003888154811061202e5761202d6165eb565b5b9060005260206000200160009054906101000a900473ffffffffffffffffffffffffffffffffffffffff1673ffffffffffffffffffffffffffffffffffffffff166154b29092919063ffffffff16565b6120aa7fff4c67cfa3465f1ee0e332499f3266f1419fcaedd335f5ee904db65b196c1a4160001b615275565b6120d67f58d28b09ec45b66f268b2cc35b05d1cd5431afc8d12dac04d68509b036fe931060001b615275565b8373ffffffffffffffffffffffffffffffffffffffff16853373ffffffffffffffffffffffffffffffffffffffff167f2cac5e20e1541d836381527a43f651851e302817b71dc8e810284e69210c1c6b856040516121349190615e9b565b60405180910390a45050505050565b61036881565b6121757ffccf5a08f3ece527d31074d5d5795ad075230465c43993da2911a0a6a70159fb60001b615275565b6121a17fc101a66a8c8556366f352e5b4196de5ddfa50af818fb16751cb975306a241a9860001b615275565b6121cd7fd32c0a5c0246aeea06410f7b1a9d99dea1489fdf8c1b0e5b219ba4ba70ca2efb60001b615275565b6121f97f1ff6d997f110f19ecb7988689ed9f9c6db3c79ce2c1a0c6d3a28a1b2ae4fe1be60001b615275565b600073ffffffffffffffffffffffffffffffffffffffff16600160009054906101000a900473ffffffffffffffffffffffffffffffffffffffff1673ffffffffffffffffffffffffffffffffffffffff160361228a576040517f08c379a0000000000000000000000000000000000000000000000000000000008152600401612281906167ed565b60405180910390fd5b6122b67fd1487c496977894d0f0d10e55e6b9ab2383cd03660eb7cd21ca18428ca96f22c60001b615275565b6122e27f0c93a3d26e28b0127ee56931c95d5fe793d6e2bf8e196ef47ac281c7519cba9560001b615275565b61230e7f26a4076fea485c55ef34a47eb46f9f1fb346ce1c8a31bd2b81b40a7dc3eec60960001b615275565b600060038281548110612324576123236165eb565b5b9060005260206000200160009054906101000a900473ffffffffffffffffffffffffffffffffffffffff16905061237d7fce7aae3a640c8d1377abc77ceac859f213113c0104bf307594e5cd0dd816d88760001b615275565b6123a97f02a05680a4263ed3ca52cd47f94e3ffa1091c9c4d30cc19a6fd5e93f29782d5960001b615275565b60008173ffffffffffffffffffffffffffffffffffffffff166370a08231306040518263ffffffff1660e01b81526004016123e491906163c9565b602060405180830381865afa158015612401573d6000803e3d6000fd5b505050506040513d601f19601f820116820180604052508101906124259190616710565b90506124537ff4867d92caf994eaeaf174bc5d9738dfb3a9932d0475ac39493646bdfe17183e60001b615275565b61247f7fd848e086ee4b164a7ef10a7d3022dd96b701c1c5b478becd6edc59846490546460001b615275565b8173ffffffffffffffffffffffffffffffffffffffff1663095ea7b3600160009054906101000a900473ffffffffffffffffffffffffffffffffffffffff16836040518363ffffffff1660e01b81526004016124dc92919061680d565b6020604051808303816000875af11580156124fb573d6000803e3d6000fd5b505050506040513d601f19601f8201168201806040525081019061251f919061684b565b5061254c7ff65555789d8a270e9ecebfacd73b7dde342de26db0e3d2a3df861bcecf1d40b360001b615275565b6125787fc5cf2df4889447bbed81d2b15cec51ebcfc8f58f956c25e69eb170bdb7c0795e60001b615275565b6000600160009054906101000a900473ffffffffffffffffffffffffffffffffffffffff1673ffffffffffffffffffffffffffffffffffffffff1663ce5494bb846040518263ffffffff1660e01b81526004016125d59190616286565b6020604051808303816000875af11580156125f4573d6000803e3d6000fd5b505050506040513d601f19601f82011682018060405250810190612618919061688d565b90506126467f29ec67c3bf997539b35f2c411933b3562ce72d8d59ef5f6be915deb9fe4202a960001b615275565b6126727f332f5809274df8a89da9e3d80c32a98917ce347a70ae98188eafa42d2fdbaa8660001b615275565b61269e7fda5675b2c5e2a28e3a9faab34cc483b570a92ddd07b736ad3b6890162a376d8260001b615275565b8073ffffffffffffffffffffffffffffffffffffffff166370a08231306040518263ffffffff1660e01b81526004016126d791906163c9565b602060405180830381865afa1580156126f4573d6000803e3d6000fd5b505050506040513d601f19601f820116820180604052508101906127189190616710565b8214612759576040517f08c379a00000000000000000000000000000000000000000000000000000000081526004016127509061692c565b60405180910390fd5b6127857feb680a265bf142c5bbfae356b759e86d6b0bf667e44e03125a24037ea3a7b24960001b615275565b6127b17f67f2a01f586f1f4bd3780aff3a410bb7a9f0370539e4dac38bec44fcfdfb82d260001b615275565b6127dd7fb407bdcc1b074f61793d29a3d44b2c767de27f756c5e1b19e6d87dd59c6b746d60001b615275565b80600385815481106127f2576127f16165eb565b5b9060005260206000200160006101000a81548173ffffffffffffffffffffffffffffffffffffffff021916908373ffffffffffffffffffffffffffffffffffffffff16021790555050505050565b7f000000000000000000000000000000000000000000000000000000000000000081565b61286c615e3b565b6128987f4d1ac477365ebff1d001d9e46c956fc88d08513069565c7fe046bbcac9634c1660001b615275565b6128c47fe90062cb60fba643f8cd25de40f47cd869cbbd6aee1d83b1766009be934c12eb60001b615275565b6128f07fedc67ae0987aa8ef6f1996f336cf7dc33e7ca4c94a3ca6354f85c594e83e766160001b615275565b60028281548110612904576129036165eb565b5b906000526020600020016040518060600160405290816000820160009054906101000a90046fffffffffffffffffffffffffffffffff166fffffffffffffffffffffffffffffffff166fffffffffffffffffffffffffffffffff1681526020016000820160109054906101000a900467ffffffffffffffff1667ffffffffffffffff1667ffffffffffffffff1681526020016000820160189054906101000a900467ffffffffffffffff1667ffffffffffffffff1667ffffffffffffffff168152505090506129f57fd40d959adde3465c79001dbfa2e54fd923d766ed77e6242568b0f4b48eb7180f60001b615275565b612a217fa4f3d72be3ca450ce7d4ce8fc3967b5d3c2e0ab9fcab6a3858c3eaa19c88b3ae60001b615275565b806020015167ffffffffffffffff1643111561334257612a637f1f5d39b850942d29d2384908f6ff4ba98c838fe0b303c78ed5a72baf9c04ce8f60001b615275565b612a8f7f48326dd77d757b08551b6b6497d9fd6b9ad5eb67ef6d981a6b8ca35b7d502a3c60001b615275565b612abb7fe265f7941112941f3c7a13451380bf53d7c2ebd15f17e5beaf46c98a0e5be5b260001b615275565b600060038381548110612ad157612ad06165eb565b5b9060005260206000200160009054906101000a900473ffffffffffffffffffffffffffffffffffffffff1673ffffffffffffffffffffffffffffffffffffffff166370a08231306040518263ffffffff1660e01b8152600401612b3491906163c9565b602060405180830381865afa158015612b51573d6000803e3d6000fd5b505050506040513d601f19601f82011682018060405250810190612b759190616710565b9050612ba37f073e2c0f593f8d166111d1cfc4655b2aacedc3262dfb95628960e596a30924a360001b615275565b612bcf7f369973f75a1ebc965380adb56438f1ffe13bd426fa8fd45dfdd1910a689ca61960001b615275565b60008111156130e457612c047fc7d7611f3f2eed428fd34a09abb4ef33b7f0620934c97e0c2cb5a081506daae060001b615275565b612c307fcf624d6ec7cfac82bb58009c653ed56446eecb7237708a3ae78bd810d0df856a60001b615275565b612c5c7fad79ce0aeabadbd4e23004f85d45f847d49b2ee35693e1d0e886ba65b68f0c7860001b615275565b6000612c7f836020015167ffffffffffffffff164361549c90919063ffffffff16565b9050612cad7f237c0ffd8bd08ffbc262ed2b23a84cf034bcf80cd28626a5992cc60e690a0ff660001b615275565b612cd97f82f1256c211669ca3a0aa1a6d90917277dfceeb30c63e23560542abc9512a28760001b615275565b6000600854612d31856040015167ffffffffffffffff16612d237f00000000000000000000000000000000000000000000000000000000000000008661527890919063ffffffff16565b61527890919063ffffffff16565b612d3b91906165ba565b9050612d697f6537371e0b38f004b460a6825e6561ddafea31af2ba39eb8889e68af91ce7ed460001b615275565b612d957f075ccad82525dfd326fc36b89cf6e2839d1e732f96e96378b013ec14df80fecb60001b615275565b60006103e8612daf6103688461527890919063ffffffff16565b612db991906165ba565b9050612de77f850d01b2f1030f5b784cc66635873194d89f10cdaa41297fe96579595a09dd8860001b615275565b612e137f4847fcd413327a33c050c61d4407c71f8b9eca7384739bbdb3dbe59a1a4b430b60001b615275565b600084612e2e64e8d4a510008461527890919063ffffffff16565b612e3891906165ba565b9050612e667f84c965297fa35b762636fa9c87344417d50b34991c6d6e40d5d30c3abec3687e60001b615275565b612e927fa1f165101172e3004df4c6cf21227456dbbe6697d6b6b45deb7e02df221f0aae60001b615275565b7f000000000000000000000000000000000000000000000000000000000000000073ffffffffffffffffffffffffffffffffffffffff166340c10f197f00000000000000000000000000000000000000000000000000000000000000006103e8612f0660808861527890919063ffffffff16565b612f1091906165ba565b6040518363ffffffff1660e01b8152600401612f2d92919061680d565b600060405180830381600087803b158015612f4757600080fd5b505af1158015612f5b573d6000803e3d6000fd5b50505050612f8b7fae9dc577bf98bd6467f0cfca943d7b37857f11bbcda1fe8c3459e93c462b006260001b615275565b612fb77feb28f705329f2a40ac2273ceef7f7ab627162976f8b14b85689c81323d06fb0f60001b615275565b7f000000000000000000000000000000000000000000000000000000000000000073ffffffffffffffffffffffffffffffffffffffff166340c10f1930846040518363ffffffff1660e01b815260040161301292919061680d565b600060405180830381600087803b15801561302c57600080fd5b505af1158015613040573d6000803e3d6000fd5b505050506130707faf573bbea737add551ffbd2cbeefdb18bc853df799ffc35603c63376f9b070a860001b615275565b61309c7f5d633ddbfb225f666bcdcd217e30a3ce86fae1dca411d54bc084963318240f8f60001b615275565b8086600001516130ac919061694c565b86600001906fffffffffffffffffffffffffffffffff1690816fffffffffffffffffffffffffffffffff168152505050505050613111565b6131107f2cde9ed9d445d12ca0c1277f8f8ca3b058f5fc15bc71f7c715f1fca456f3358660001b615275565b5b61313d7fab377485485e92c826ee35171e69b5da3bf80880535a870849e17892b2d833b560001b615275565b6131697ff66a09d9245d65e61f7111b95b434360316be6fcd64445a7fdc53a7a10607a1e60001b615275565b43826020019067ffffffffffffffff16908167ffffffffffffffff16815250506131b57f508124e1659656bddacdfabefd0def1105a351b72b4546eeb8684b7331bd41d860001b615275565b6131e17fcdf6251893c8fff9a053fb6395329af769e2fffd834a19fc5f601eb871f8c5af60001b615275565b81600284815481106131f6576131f56165eb565b5b9060005260206000200160008201518160000160006101000a8154816fffffffffffffffffffffffffffffffff02191690836fffffffffffffffffffffffffffffffff16021790555060208201518160000160106101000a81548167ffffffffffffffff021916908367ffffffffffffffff16021790555060408201518160000160186101000a81548167ffffffffffffffff021916908367ffffffffffffffff1602179055509050506132cc7f27987439a44be165bd9e0a41c4daf44a2603f1a9278872d595532075a3b46e3060001b615275565b6132f87f7e061bc32ce0f9a6316ab8daab19e1dde7cc125e45356676cc4fffdd67fcc7c960001b615275565b827f0fc9545022a542541ad085d091fb09a2ab36fee366a4576ab63714ea907ad3538360200151838560000151604051613334939291906169c1565b60405180910390a25061336f565b61336e7fdf0589dc17d6c74a3152a88ae1915ff0885e0dfce66b0582626c74315131d36060001b615275565b5b919050565b6133a07f856c70044708b571f7fa479b3a87d461fc9153a3720a8bb9ecd3837daa966eeb60001b615275565b6133cc7f8c9fa88d1f889c6278d791cdc273034693b6bac549044d5b4dbbfcc1c5e7d2e160001b615275565b6133f87f48dab11024c0a18616d9268643897f6f89e0c256686e1434b4268b0b88996bc460001b615275565b600082829050905061342c7f44a2b368b05ae6c6cddc2e73bbc89fecd1ec44815880d57397f15738307f630c60001b615275565b6134587fcbf78fd96ae37df04d207b1e41b0286489f98bd43159741e7636a939a83a89e860001b615275565b60005b818110156134ef5761348f7fbd75c99e224126cd9d4a200e7e633b8b31ba34863cf115a8632bc736a9cae28060001b615275565b6134bb7f6a9c443926cac24861b07e45a04a8e6f10c8fdc7d25ef0709a10125e8dd4f97560001b615275565b6134dd8484838181106134d1576134d06165eb565b5b90506020020135612864565b50806134e8906169f8565b905061345b565b50505050565b6134fd6156d0565b613507600061574e565b565b6003818154811061351957600080fd5b906000526020600020016000915054906101000a900473ffffffffffffffffffffffffffffffffffffffff1681565b600160009054906101000a900473ffffffffffffffffffffffffffffffffffffffff1681565b6135766156d0565b6135a27f1e085108a44b7b30617bfd45b33c827f1e3141349477c55a18983296385bbf3060001b615275565b6135ce7f24200e8ff0a6982551b38cd7a8a2030e1841d2ad58704a7e1786c690fc3a85d060001b615275565b6135fa7f7fc77e7f4ba37c114c76137f75a73686c2b9b26c0abd79060ef14290632bc95160001b615275565b6136608361365260028781548110613615576136146165eb565b5b9060005260206000200160000160189054906101000a900467ffffffffffffffff1667ffffffffffffffff1660085461549c90919063ffffffff16565b6156ba90919063ffffffff16565b6008819055506136927fb463b32317d0171bfd1916f3aff77962f1c1c4c0449e857d218225331ba9ff6b60001b615275565b6136be7fccd9e359491dbfe7aaf51f926f38adbc5300bde1329df8708bd89a160f305dff60001b615275565b82600285815481106136d3576136d26165eb565b5b9060005260206000200160000160186101000a81548167ffffffffffffffff021916908367ffffffffffffffff1602179055506137327fa7b970b321f04d98b3e7fce8e0bcd68792b76da5d55feaa560a9dbc264a6089a60001b615275565b61375e7f2973290bac8d140804c24314becda4a042af40cd1b5e39ee0baa4a5f9c54613a60001b615275565b801561381e576137907fa74f10fdb02e2c85927a565b197346d28e7a1e9f60439c67203c1c7ad541a25f60001b615275565b6137bc7f710967371ac16ad8bba0ef99066989586c0c3f72dacfdc857ea3affa5a1249f760001b615275565b81600485815481106137d1576137d06165eb565b5b9060005260206000200160006101000a81548173ffffffffffffffffffffffffffffffffffffffff021916908373ffffffffffffffffffffffffffffffffffffffff16021790555061384b565b61384a7f9b7af48c8be8a8cd0e2a9445d610ba31310c7506aed12fbcc3e1a2d5e3ba864860001b615275565b5b6138777f59445024d8a180defd1e49cb6fa6579c0c583915a68c7725c914d69e00354dee60001b615275565b6138a37fc74944a807462cbf944fc01b210dad6ddc8075d376fca8809d9ccdb18d27349060001b615275565b806138ec57600484815481106138bc576138bb6165eb565b5b9060005260206000200160009054906101000a900473ffffffffffffffffffffffffffffffffffffffff166138ee565b815b73ffffffffffffffffffffffffffffffffffffffff16847f95895a6ab1df54420d241b55243258a33e61b2194db66c1179ec521aae8e18658584604051613936929190616a4f565b60405180910390a350505050565b60008060009054906101000a900473ffffffffffffffffffffffffffffffffffffffff16905090565b6139997f30c74165fc5d7f77bdc1980cbe76294e48a7caef9107fc9dfbaf9713ed23825260001b615275565b6139c57f19a00e6d6ecdb8f378d7171e8035afc874b7b7bf0dd697309f7f6bd5d3faa98860001b615275565b6139f17fb9f1808949f5a07a8c265a0fb7b8b88fee5bb3ec9bdebf15313c695af369be7760001b615275565b60006139fc84612864565b9050613a2a7f4049e4bfb68102e90cdd65f1c884d5f79729fe1b5a1082fa94c42ed80f46337e60001b615275565b613a567fb5102d92862ca66da3c757ff44bc618211437cd543792d90631406c14abbd0af60001b615275565b60006007600086815260200190815260200160002060008473ffffffffffffffffffffffffffffffffffffffff1673ffffffffffffffffffffffffffffffffffffffff1681526020019081526020016000209050613ad67f5cabec0e3de2f5096d3ed3cddf6abb94c8241e3420d05d272741c6df7c5c471060001b615275565b613b027f20f1192d44f92dda892b00c72e88cac0f8ca5ea81a59a2f1cb45d260578b8f3560001b615275565b613b198482600001546156ba90919063ffffffff16565b8160000181905550613b4d7f5fe059f96461fd6af150c495a47324d44bc39932a6bb06b7ba351d592b63105d60001b615275565b613b797f457d02da1a367ef97ba0e84ddab16de677abc9290ad0c88ed9a8cd6e09d7a66860001b615275565b613bc864e8d4a51000613bab84600001516fffffffffffffffffffffffffffffffff168761527890919063ffffffff16565b613bb591906165ba565b826001015461581290919063ffffffff16565b8160010181905550613bfc7f2929d39d076c4bf2e534c6a4429c33f7a1f801b406fd3e1a5d73cb014c947efe60001b615275565b613c287fdbe4c8b5946011099d208e55db0a8814e9dc55b9517e48a0af56ec032d450d7f60001b615275565b600060048681548110613c3e57613c3d6165eb565b5b9060005260206000200160009054906101000a900473ffffffffffffffffffffffffffffffffffffffff169050613c977f5b7f6ca04990e0b6d22e9db9c0c8145ce1b69146b17301c9f82f623624c0d6ec60001b615275565b613cc37f86bb29a04fad2b3fc148fd691d9d37b6d34a3b31a35426034372df5eb1c2694a60001b615275565b600073ffffffffffffffffffffffffffffffffffffffff168173ffffffffffffffffffffffffffffffffffffffff1614613df857613d237f3544510527f46a3468f6a0f94674dbd90f4a9f3bcbbe5c9a611305fdbabf71e060001b615275565b613d4f7fd6c04a4c8adef3c7697a44b67fa80c4c530a017dbe47c0c573c363309388a92d60001b615275565b613d7b7f389eaa9a1f4a329b4c85a66972c2eaeaa18f9dbd70c26a7a52cdcecc2a089d8c60001b615275565b8073ffffffffffffffffffffffffffffffffffffffff16638bf63742878687600087600001546040518663ffffffff1660e01b8152600401613dc1959493929190616655565b600060405180830381600087803b158015613ddb57600080fd5b505af1158015613def573d6000803e3d6000fd5b50505050613e25565b613e247fd8a644512708382f4c2608a09ba8fdfcb83878252580739fe32231ec59e7a73260001b615275565b5b613e517f18e37ce4f7be773c5e6af6da5465368838b6f9952bd10204117ea9b0efefa38a60001b615275565b613e7d7ffa7c615fb71a46a3f0e3aed1f48c6d53ef0c9515193511dc8f5e9a2ade93ebc060001b615275565b613ee833308760038a81548110613e9757613e966165eb565b5b9060005260206000200160009054906101000a900473ffffffffffffffffffffffffffffffffffffffff1673ffffffffffffffffffffffffffffffffffffffff16615a20909392919063ffffffff16565b613f147ff3a8b9c0416e4e4ea39fa540769a88f73f3ab511f2cd3fe1be34a3f40f63bfff60001b615275565b613f407fa5e0da8c19adce0e4239e27d7b6fc766530cb0413fde7dafb4e9d200c5eae46160001b615275565b8373ffffffffffffffffffffffffffffffffffffffff16863373ffffffffffffffffffffffffffffffffffffffff167f02d7e648dd130fc184d383e55bb126ac4c9c60e8f94bf05acdf557ba2d540b4788604051613f9e9190615e9b565b60405180910390a4505050505050565b6007602052816000526040600020602052806000526040600020600091509150508060000154908060010154905082565b7f000000000000000000000000000000000000000000000000000000000000000081565b61400b6156d0565b6140377fb5be91ccf99004d4462160947ce6665070dea98e76103952405c7b0dfc1b122960001b615275565b6140637f15fb72844dbf7f10ea86fdb1f5bc01467b67ab08abe5b2e5c889272ed633537560001b615275565b61408f7fa32ec67f04f035005e795d1afcdadc7b3f48763b94405dc1f92d31235dbd801960001b615275565b6140bb7f897dc40218b53cc96a07e2066b9414b361c485f8d256f84711d0d40b556885e260001b615275565b6140da8273ffffffffffffffffffffffffffffffffffffffff16615aa9565b614119576040517f08c379a000000000000000000000000000000000000000000000000000000000815260040161411090616aea565b60405180910390fd5b6141457f408cfb76cbd89bfaaa974f4533bb90a463285aaed418202e19591cddce8ab0f660001b615275565b6141717fcd4f3b87057aa4ff468d4a025be793bf116cd6051af12a88b1e5eb77a236154660001b615275565b61419d7fb27544a1e95161888dd4bd09ca3dc49339c15159eb137056b31d44058b7bcc1660001b615275565b6141c97f6bb25b3f46ab32a3436fb56db602efaa3a5394c18353af97f63cefbbbc291f4b60001b615275565b6141e88173ffffffffffffffffffffffffffffffffffffffff16615aa9565b8061421f5750600073ffffffffffffffffffffffffffffffffffffffff168173ffffffffffffffffffffffffffffffffffffffff16145b61425e576040517f08c379a000000000000000000000000000000000000000000000000000000000815260040161425590616b56565b60405180910390fd5b61428a7fbfadd44b17ee5c27c7e13234c96bcd621ec095172bc2135d1fc7aac24694749e60001b615275565b6142b67f02f44e284c81d21a04f540fdffad05329869613616fd70212942c8793662b88f60001b615275565b6142e27fee3619d0dbd8df597a5ebc0cb2c6020255fd2357cbf95ac3759907cdf97ffb3c60001b615275565b61430e7feb47bf31fb706a714aefc3feb0cf2754c732c197a1e4e93857cd93c7ffb762ee60001b615275565b614322826005615acc90919063ffffffff16565b15156000151514614368576040517f08c379a000000000000000000000000000000000000000000000000000000000815260040161435f90616bc2565b60405180910390fd5b6143947f2fcde628f2d429533a975e2877c1873700d10ab044d21de31fd1eca1c65c573660001b615275565b6143c07f301dfb88f7a2e92429bfa390ccad2ff4a977ba6ef8587b1d36eb5272204628c660001b615275565b6143ec7fb1f2c921c4aa4801a789c6d6221f3c686f305a952f8d731c2205a587b445b4d660001b615275565b60007f0000000000000000000000000000000000000000000000000000000000000000431161443b577f000000000000000000000000000000000000000000000000000000000000000061443d565b435b905061446b7fb8cf4c153bc09c2701081e95a9a4d5d3e4c4aaae1251c57b9e330c970ea0f8a960001b615275565b6144977f681db04bd535ff0c49fe8d9da586f4daa0063930d64c12b09c6f1738fbb93c9c60001b615275565b6144ac846008546156ba90919063ffffffff16565b6008819055506144de7f90dc6d47b0c0cf90143dc3430a97516c1796a07ad774b00040e9b16ed6eed68260001b615275565b61450a7fb98ec2064dd5b553f8ab630f33a012cccc232c97ae3934871c7dd071c90cb14b60001b615275565b6003839080600181540180825580915050600190039060005260206000200160009091909190916101000a81548173ffffffffffffffffffffffffffffffffffffffff021916908373ffffffffffffffffffffffffffffffffffffffff1602179055506145997fb81405525faad7d2233425b7d5802bd706b619db16be3d68a3558fde9d56914660001b615275565b6145c57f335bd54ceeebd98aa911b5ea78f787e5d66ad595c8c8c2991086b11691eade0960001b615275565b6145d9836005615afc90919063ffffffff16565b506146067f5177df824bbfecaf1a0e3dcc7ca46812c57a32ac5690a63280e15fd72fd3f98b60001b615275565b6146327f8e283c3a1f298049282a457ddb4ef789e7331d470096a5049e1eb3dce604e05360001b615275565b6004829080600181540180825580915050600190039060005260206000200160009091909190916101000a81548173ffffffffffffffffffffffffffffffffffffffff021916908373ffffffffffffffffffffffffffffffffffffffff1602179055506146c17f0685595ce1dcde0efc416ae8a7ea3b851831ae6efa32254ade0f10c14cdf062f60001b615275565b6146ed7ff1b0291b0df2cf7fac6468fc0db2618609209c066a36e28cf0284c0392510de060001b615275565b6002604051806060016040528060006fffffffffffffffffffffffffffffffff1681526020018367ffffffffffffffff1681526020018667ffffffffffffffff168152509080600181540180825580915050600190039060005260206000200160009091909190915060008201518160000160006101000a8154816fffffffffffffffffffffffffffffffff02191690836fffffffffffffffffffffffffffffffff16021790555060208201518160000160106101000a81548167ffffffffffffffff021916908367ffffffffffffffff16021790555060408201518160000160186101000a81548167ffffffffffffffff021916908367ffffffffffffffff16021790555050506148217fdddb5e6d2ec72102d57adbabf3a6bf2deeb22176de352d679ff9505ec761dc7c60001b615275565b61484d7ff64cda4df8ad364e88b90569b1eed1f0815d0d4481c650b5013cf568cab9a2d860001b615275565b8173ffffffffffffffffffffffffffffffffffffffff168373ffffffffffffffffffffffffffffffffffffffff16614894600160038054905061549c90919063ffffffff16565b7f81ee0f8c5c46e2cb41984886f77a84181724abb86c32a5f6de539b07509d45e5876040516148c39190615e9b565b60405180910390a450505050565b7f000000000000000000000000000000000000000000000000000000000000000081565b6004818154811061490557600080fd5b906000526020600020016000915054906101000a900473ffffffffffffffffffffffffffffffffffffffff1681565b7f000000000000000000000000000000000000000000000000000000000000000081565b6149847f1ad57b5fea1fe13a152a5e811ea894ab6e35be05c5927285e1c1360ab6c6ffcb60001b615275565b6149b07f6d9aca72a4b21c3eb45fc157508e91c2ede0ef4f77214cf18e8c868c6337b7e260001b615275565b6149dc7f91afcb5490b229da086078e77659fb50f87777f940cf92896f6dc2be10e0d18960001b615275565b60006149e784612864565b9050614a157f4913c09e13aea11ac5a4c62374a4933a82ed0dcf1c21c7f109a83d2d307da93960001b615275565b614a417f9bc1491ec1cf5783c2b245b169d4c7e1ba336968e8742567c4260055a670d04c60001b615275565b60006007600086815260200190815260200160002060003373ffffffffffffffffffffffffffffffffffffffff1673ffffffffffffffffffffffffffffffffffffffff1681526020019081526020016000209050614ac17facade2dbddc09e56559c371fd0440411ae3e65b0b1e7115b09181cf6216466ed60001b615275565b614aed7f7372bcdaf7259438d2e4b145857bbbc87a0b774683f6cd477904949bd777207660001b615275565b600064e8d4a51000614b2284600001516fffffffffffffffffffffffffffffffff16846000015461527890919063ffffffff16565b614b2c91906165ba565b9050614b5a7fcc06fb1cd93e4b18faa8002415f0d04bf73f529fc437d6e57d74b1ff8d41b7b060001b615275565b614b867fd0676388e040d97664a8604664f55c4da851cfff5c85fb6618c0890984523e6260001b615275565b6000614ba7614ba284600101548461528e90919063ffffffff16565b615538565b9050614bd57fb3baff8f2dfd9241d5d160f18c0bdf13317cf0b025e170432f60af4c7b46dfc160001b615275565b614c017f77ba55ccab331b6969c1fe084be55e651c58717206866702f20e0c692735154960001b615275565b614c4c64e8d4a51000614c3386600001516fffffffffffffffffffffffffffffffff168961527890919063ffffffff16565b614c3d91906165ba565b8361528e90919063ffffffff16565b8360010181905550614c807f3c6f11ecdbada5ddace7a8e0b493011205c488e94122e2dc848123563bf3c0a560001b615275565b614cac7f179b2c0c906bde4ffeece6b0eeb389655b0c5f907ced58485137443f8a343d1060001b615275565b614cc386846000015461549c90919063ffffffff16565b8360000181905550614cf77f477a4a20813fe8869bb7f44a3f585b6a76c9925b24fd58776e04bc3e5dccf9fd60001b615275565b614d237f2b1e6872dc2b35ef83a30a1c64e17e54b6651886a4b32e077d277658acdf1bb660001b615275565b614d6e85827f000000000000000000000000000000000000000000000000000000000000000073ffffffffffffffffffffffffffffffffffffffff166154b29092919063ffffffff16565b614d9a7fccbe5a136009f07d59a0dddf42fb8b4ec3e380cfb90ec4a3130f0664583920f060001b615275565b614dc67f3d2e1a9c531099e32fa1edb4784d4453d433ee48852400e75dea88664f3dd90360001b615275565b600060048881548110614ddc57614ddb6165eb565b5b9060005260206000200160009054906101000a900473ffffffffffffffffffffffffffffffffffffffff169050614e357f9b734622ba73dd9692d9d8c2360be22468cccf75ac4ce24f84418eb2b53501d160001b615275565b614e617fc3a16c223ef9feb5adbf5635040ba78803abbbb46da6bfe3bad849a5cc7dfaf760001b615275565b600073ffffffffffffffffffffffffffffffffffffffff168173ffffffffffffffffffffffffffffffffffffffff1614614f9557614ec17f0249aff9db268080ce217354e78e512d2cced8f6fddf9b67d8f2b23573e5df1260001b615275565b614eed7f037ac0d80b611414167551b19a073e8eafe6b96d4a6b95aadf5be5fc8b98dcc660001b615275565b614f197f2b09136846ffe9071a558e3f579287e449e5edbf9d24dff8336c053b412e909060001b615275565b8073ffffffffffffffffffffffffffffffffffffffff16638bf637428933898689600001546040518663ffffffff1660e01b8152600401614f5e9594939291906166a8565b600060405180830381600087803b158015614f7857600080fd5b505af1158015614f8c573d6000803e3d6000fd5b50505050614fc2565b614fc17fcd21a56e47beb8e79197d39eae5529113a108c5e3574e63b5e214548f9a40e2860001b615275565b5b614fee7f5dd1418ea69619a9958a1605d02032cad9c2bef6dfef464689bbdd437a2c3a8760001b615275565b61501a7fca377b53c318c14e46a33cdad83221594a725bcde3191c93c8359309afe58e4260001b615275565b615083868860038b81548110615033576150326165eb565b5b9060005260206000200160009054906101000a900473ffffffffffffffffffffffffffffffffffffffff1673ffffffffffffffffffffffffffffffffffffffff166154b29092919063ffffffff16565b6150af7f93082ee363b4e990df54bd0c4ef1de163864eedb4d7853337585203b29225c7a60001b615275565b6150db7f68c3d5ecd77965d8eb8e5fea7de3a1396bf19e5d29fee9d8685f99585406e33c60001b615275565b8573ffffffffffffffffffffffffffffffffffffffff16883373ffffffffffffffffffffffffffffffffffffffff167f8166bf25f8a2b7ed3c85049207da4358d16edbed977d23fa2ee6f0dde3ec21328a6040516151399190615e9b565b60405180910390a461516d7ff38b6da97d9cdaf30e140b2398b630f2bdd2fdcb13430f21cd4450f85592110c60001b615275565b6151997f49052f6cd88a1e114117268b699be06b24605d1112da6056fb2e74d3bc61941160001b615275565b873373ffffffffffffffffffffffffffffffffffffffff167f71bab65ced2e5750775a0613be067df48ef06cf92a496ebf7663ae0660924954846040516151e09190615e9b565b60405180910390a35050505050505050565b6151fa6156d0565b600073ffffffffffffffffffffffffffffffffffffffff168173ffffffffffffffffffffffffffffffffffffffff1603615269576040517f08c379a000000000000000000000000000000000000000000000000000000000815260040161526090616c54565b60405180910390fd5b6152728161574e565b50565b50565b600081836152869190616c74565b905092915050565b60006152bc7ff70f7b6484a53f403eb43e58911be30478ba7762a9a1dc68761b323cf4c38fcc60001b615b2c565b6152e87f136e54637ba6ca0e8c045eb34e14a97452bdd1be9925f377219d5c1387e76f7560001b615b2c565b6153147fba6d95d35bedee25b43fc2730085bc1864b7d3dd5d3577e3592893f0c63aedaa60001b615b2c565b600082846153229190616cce565b90506153507f4f8b1175221203faf3ce63dd04f86c2bbb8568e4e75cded2398cf7e56a5452fa60001b615b2c565b61537c7f803dad785a13be49deeeb42b41398da7febfe26aec6af510f072241cb7d136af60001b615b2c565b6153a87fa4a7405beaf2424a09575d4facabbaee4c4408fe53d87b43632e83220ae410c760001b615b2c565b600083121580156153b95750838113155b806153cf57506000831280156153ce57508381135b5b61540e576040517f08c379a000000000000000000000000000000000000000000000000000000000815260040161540590616d83565b60405180910390fd5b61543a7fc173b2bffaba1354b0eddf72d17c343f77847637082ada29aee6b72ab254bbca60001b615b2c565b6154667fa0ddffa1407383657e8984da097366d903befcdf30872823cc98825b50f708d660001b615b2c565b6154927fbf09c9d1db86de4159d12e737534cb489eface3014d488ba2e63983b1fddafac60001b615b2c565b8091505092915050565b600081836154aa9190616da3565b905092915050565b6155338363a9059cbb60e01b84846040516024016154d192919061680d565b604051602081830303815290604052907bffffffffffffffffffffffffffffffffffffffffffffffffffffffff19166020820180517bffffffffffffffffffffffffffffffffffffffffffffffffffffffff8381831617835250505050615b2f565b505050565b60006155667f7a07e5adc5806d4378ca8a7e60be1a638a5f9bf6c628d4186a49e24c577bbfdf60001b615b2c565b6155927f2b8b6c44f2d82e20a8edc0b28e398d95073b3b3d6a4a0999dc4244bd3084d1a660001b615b2c565b6155be7f59d5a33a8916c3084fa6fc18a7d281dd7ee7ed74df8760cfd222716b69122b1f60001b615b2c565b6155ea7fc640b79be3abb83efe5c312a4e00452c9e0b8b43f34e1fe02ea85287fbd1d1eb60001b615b2c565b600082121561562e576040517f08c379a000000000000000000000000000000000000000000000000000000000815260040161562590616e23565b60405180910390fd5b61565a7f2864175e4565b5f741264012b1ee43e0f528460f193a8fb3e33973bf3938c95b60001b615b2c565b6156867f13466d230f8c5a04c935a38110a368019e28a34f79a86c5ae7949a29e408411e60001b615b2c565b6156b27fec347c5db6150d9d82660babcf486c6c7f7f517429e6721d9648e248574af78460001b615b2c565b819050919050565b600081836156c89190616e43565b905092915050565b6156d8615bf6565b73ffffffffffffffffffffffffffffffffffffffff166156f6613944565b73ffffffffffffffffffffffffffffffffffffffff161461574c576040517f08c379a000000000000000000000000000000000000000000000000000000000815260040161574390616ec3565b60405180910390fd5b565b60008060009054906101000a900473ffffffffffffffffffffffffffffffffffffffff169050816000806101000a81548173ffffffffffffffffffffffffffffffffffffffff021916908373ffffffffffffffffffffffffffffffffffffffff1602179055508173ffffffffffffffffffffffffffffffffffffffff168173ffffffffffffffffffffffffffffffffffffffff167f8be0079c531659141344cd1fd0a4f28419497f9722a3daafe3b4186f6b6457e060405160405180910390a35050565b60006158407fd4612eb449aab7b6d21638def5cc884ac13f245d11e94db67ebf137b300ee09160001b615b2c565b61586c7f356c04f70f047e9a1939a7f6f2852ab5e484788d798132b5c61b19568d84e15560001b615b2c565b6158987f2d79d38ebe321662b11645697ba3cd78392d21c7b9f40bac53b1fe7968ee855f60001b615b2c565b600082846158a69190616ee3565b90506158d47fc92be2b368f4dd4ded62b590216efad60d7d3b651690545b3814179cbf1afd0060001b615b2c565b6159007fab62c2b1815f950b7dd96f0c28a9936423d9012715cf76291132e8e256da361a60001b615b2c565b61592c7f4a3cffe4fd31476fc3469ad4cb7c2aa431ae763bd05c3d3b04149c67ecb2bf8a60001b615b2c565b6000831215801561593d5750838112155b80615953575060008312801561595257508381125b5b615992576040517f08c379a000000000000000000000000000000000000000000000000000000000815260040161598990616f99565b60405180910390fd5b6159be7ff5dd1b98f86c0ba066a731c5a24df7d75b71f9c8b3b28cafef24d58a10c9751460001b615b2c565b6159ea7f134637e9008b83be9c10197c67ed37d3ff41eee21d9c1de09a8d438adb2f452860001b615b2c565b615a167f6350c2dcb7a2a4ec18aaaded1c574feb92ca64ea7785ffa8cfbdfa43adb58b0560001b615b2c565b8091505092915050565b615aa3846323b872dd60e01b858585604051602401615a4193929190616fb9565b604051602081830303815290604052907bffffffffffffffffffffffffffffffffffffffffffffffffffffffff19166020820180517bffffffffffffffffffffffffffffffffffffffffffffffffffffffff8381831617835250505050615b2f565b50505050565b6000808273ffffffffffffffffffffffffffffffffffffffff163b119050919050565b6000615af4836000018373ffffffffffffffffffffffffffffffffffffffff1660001b615bfe565b905092915050565b6000615b24836000018373ffffffffffffffffffffffffffffffffffffffff1660001b615c21565b905092915050565b50565b6000615b91826040518060400160405280602081526020017f5361666545524332303a206c6f772d6c6576656c2063616c6c206661696c65648152508573ffffffffffffffffffffffffffffffffffffffff16615c919092919063ffffffff16565b9050600081511115615bf15780806020019051810190615bb1919061684b565b615bf0576040517f08c379a0000000000000000000000000000000000000000000000000000000008152600401615be790617062565b60405180910390fd5b5b505050565b600033905090565b600080836001016000848152602001908152602001600020541415905092915050565b6000615c2d8383615bfe565b615c86578260000182908060018154018082558091505060019003906000526020600020016000909190919091505582600001805490508360010160008481526020019081526020016000208190555060019050615c8b565b600090505b92915050565b6060615ca08484600085615ca9565b90509392505050565b606082471015615cee576040517f08c379a0000000000000000000000000000000000000000000000000000000008152600401615ce5906170f4565b60405180910390fd5b6000808673ffffffffffffffffffffffffffffffffffffffff168587604051615d179190617185565b60006040518083038185875af1925050503d8060008114615d54576040519150601f19603f3d011682016040523d82523d6000602084013e615d59565b606091505b5091509150615d6a87838387615d76565b92505050949350505050565b60608315615dd8576000835103615dd057615d9085615aa9565b615dcf576040517f08c379a0000000000000000000000000000000000000000000000000000000008152600401615dc6906171e8565b60405180910390fd5b5b829050615de3565b615de28383615deb565b5b949350505050565b600082511115615dfe5781518083602001fd5b806040517f08c379a0000000000000000000000000000000000000000000000000000000008152600401615e32919061725d565b60405180910390fd5b604051806060016040528060006fffffffffffffffffffffffffffffffff168152602001600067ffffffffffffffff168152602001600067ffffffffffffffff1681525090565b6000819050919050565b615e9581615e82565b82525050565b6000602082019050615eb06000830184615e8c565b92915050565b600080fd5b600080fd5b615ec981615e82565b8114615ed457600080fd5b50565b600081359050615ee681615ec0565b92915050565b600073ffffffffffffffffffffffffffffffffffffffff82169050919050565b6000615f1782615eec565b9050919050565b615f2781615f0c565b8114615f3257600080fd5b50565b600081359050615f4481615f1e565b92915050565b600080600060608486031215615f6357615f62615eb6565b5b6000615f7186828701615ed7565b9350506020615f8286828701615ed7565b9250506040615f9386828701615f35565b9150509250925092565b600060208284031215615fb357615fb2615eb6565b5b6000615fc184828501615ed7565b91505092915050565b60006fffffffffffffffffffffffffffffffff82169050919050565b615fef81615fca565b82525050565b600067ffffffffffffffff82169050919050565b61601281615ff5565b82525050565b600060608201905061602d6000830186615fe6565b61603a6020830185616009565b6160476040830184616009565b949350505050565b6000806040838503121561606657616065615eb6565b5b600061607485828601615ed7565b925050602061608585828601615f35565b9150509250929050565b600061609a82615f0c565b9050919050565b6160aa8161608f565b81146160b557600080fd5b50565b6000813590506160c7816160a1565b92915050565b6000602082840312156160e3576160e2615eb6565b5b60006160f1848285016160b8565b91505092915050565b61610381615fca565b82525050565b61611281615ff5565b82525050565b60608201600082015161612e60008501826160fa565b5060208201516161416020850182616109565b5060408201516161546040850182616109565b50505050565b600060608201905061616f6000830184616118565b92915050565b600080fd5b600080fd5b600080fd5b60008083601f84011261619a57616199616175565b5b8235905067ffffffffffffffff8111156161b7576161b661617a565b5b6020830191508360208202830111156161d3576161d261617f565b5b9250929050565b600080602083850312156161f1576161f0615eb6565b5b600083013567ffffffffffffffff81111561620f5761620e615ebb565b5b61621b85828601616184565b92509250509250929050565b6000819050919050565b600061624c61624761624284615eec565b616227565b615eec565b9050919050565b600061625e82616231565b9050919050565b600061627082616253565b9050919050565b61628081616265565b82525050565b600060208201905061629b6000830184616277565b92915050565b60006162ac82616253565b9050919050565b6162bc816162a1565b82525050565b60006020820190506162d760008301846162b3565b92915050565b60006162e882615f0c565b9050919050565b6162f8816162dd565b811461630357600080fd5b50565b600081359050616315816162ef565b92915050565b60008115159050919050565b6163308161631b565b811461633b57600080fd5b50565b60008135905061634d81616327565b92915050565b6000806000806080858703121561636d5761636c615eb6565b5b600061637b87828801615ed7565b945050602061638c87828801615ed7565b935050604061639d87828801616306565b92505060606163ae8782880161633e565b91505092959194509250565b6163c381615f0c565b82525050565b60006020820190506163de60008301846163ba565b92915050565b6000819050919050565b6163f7816163e4565b82525050565b60006040820190506164126000830185615e8c565b61641f60208301846163ee565b9392505050565b600061643182616253565b9050919050565b61644181616426565b82525050565b600060208201905061645c6000830184616438565b92915050565b600061646d82615f0c565b9050919050565b61647d81616462565b811461648857600080fd5b50565b60008135905061649a81616474565b92915050565b6000806000606084860312156164b9576164b8615eb6565b5b60006164c786828701615ed7565b93505060206164d88682870161648b565b92505060406164e986828701616306565b9150509250925092565b60006164fe82616253565b9050919050565b61650e816164f3565b82525050565b60006020820190506165296000830184616505565b92915050565b60006020828403121561654557616544615eb6565b5b600061655384828501615f35565b91505092915050565b7f4e487b7100000000000000000000000000000000000000000000000000000000600052601260045260246000fd5b7f4e487b7100000000000000000000000000000000000000000000000000000000600052601160045260246000fd5b60006165c582615e82565b91506165d083615e82565b9250826165e0576165df61655c565b5b828204905092915050565b7f4e487b7100000000000000000000000000000000000000000000000000000000600052603260045260246000fd5b6000819050919050565b600061663f61663a6166358461661a565b616227565b615e82565b9050919050565b61664f81616624565b82525050565b600060a08201905061666a6000830188615e8c565b61667760208301876163ba565b61668460408301866163ba565b6166916060830185616646565b61669e6080830184615e8c565b9695505050505050565b600060a0820190506166bd6000830188615e8c565b6166ca60208301876163ba565b6166d760408301866163ba565b6166e46060830185615e8c565b6166f16080830184615e8c565b9695505050505050565b60008151905061670a81615ec0565b92915050565b60006020828403121561672657616725615eb6565b5b6000616734848285016166fb565b91505092915050565b600060a0820190506167526000830188615e8c565b61675f60208301876163ba565b61676c60408301866163ba565b6167796060830185616646565b6167866080830184616646565b9695505050505050565b600082825260208201905092915050565b7f4d61737465724368656656323a206e6f206d69677261746f7220736574000000600082015250565b60006167d7601d83616790565b91506167e2826167a1565b602082019050919050565b60006020820190508181036000830152616806816167ca565b9050919050565b600060408201905061682260008301856163ba565b61682f6020830184615e8c565b9392505050565b60008151905061684581616327565b92915050565b60006020828403121561686157616860615eb6565b5b600061686f84828501616836565b91505092915050565b60008151905061688781616474565b92915050565b6000602082840312156168a3576168a2615eb6565b5b60006168b184828501616878565b91505092915050565b7f4d61737465724368656656323a206d696772617465642062616c616e6365206d60008201527f757374206d617463680000000000000000000000000000000000000000000000602082015250565b6000616916602983616790565b9150616921826168ba565b604082019050919050565b6000602082019050818103600083015261694581616909565b9050919050565b600061695782615fca565b915061696283615fca565b925082820190506fffffffffffffffffffffffffffffffff81111561698a5761698961658b565b5b92915050565b60006169ab6169a66169a184615fca565b616227565b615e82565b9050919050565b6169bb81616990565b82525050565b60006060820190506169d66000830186616009565b6169e36020830185615e8c565b6169f060408301846169b2565b949350505050565b6000616a0382615e82565b91507fffffffffffffffffffffffffffffffffffffffffffffffffffffffffffffffff8203616a3557616a3461658b565b5b600182019050919050565b616a498161631b565b82525050565b6000604082019050616a646000830185615e8c565b616a716020830184616a40565b9392505050565b7f6c7020746f6b656e206973206e6f74206120636f6e747261637420616464726560008201527f7373000000000000000000000000000000000000000000000000000000000000602082015250565b6000616ad4602283616790565b9150616adf82616a78565b604082019050919050565b60006020820190508181036000830152616b0381616ac7565b9050919050565b7f726577617264657220616464726573732073686f756c646e7420626520454f41600082015250565b6000616b40602083616790565b9150616b4b82616b0a565b602082019050919050565b60006020820190508181036000830152616b6f81616b33565b9050919050565b7f6c7020746f6b656e20616c726561647920616464656400000000000000000000600082015250565b6000616bac601683616790565b9150616bb782616b76565b602082019050919050565b60006020820190508181036000830152616bdb81616b9f565b9050919050565b7f4f776e61626c653a206e6577206f776e657220697320746865207a65726f206160008201527f6464726573730000000000000000000000000000000000000000000000000000602082015250565b6000616c3e602683616790565b9150616c4982616be2565b604082019050919050565b60006020820190508181036000830152616c6d81616c31565b9050919050565b6000616c7f82615e82565b9150616c8a83615e82565b9250817fffffffffffffffffffffffffffffffffffffffffffffffffffffffffffffffff0483118215151615616cc357616cc261658b565b5b828202905092915050565b6000616cd9826163e4565b9150616ce4836163e4565b9250828203905081811260008412168282136000851215161715616d0b57616d0a61658b565b5b92915050565b7f5369676e6564536166654d6174683a207375627472616374696f6e206f76657260008201527f666c6f7700000000000000000000000000000000000000000000000000000000602082015250565b6000616d6d602483616790565b9150616d7882616d11565b604082019050919050565b60006020820190508181036000830152616d9c81616d60565b9050919050565b6000616dae82615e82565b9150616db983615e82565b9250828203905081811115616dd157616dd061658b565b5b92915050565b7f496e7465676572203c2030000000000000000000000000000000000000000000600082015250565b6000616e0d600b83616790565b9150616e1882616dd7565b602082019050919050565b60006020820190508181036000830152616e3c81616e00565b9050919050565b6000616e4e82615e82565b9150616e5983615e82565b9250828201905080821115616e7157616e7061658b565b5b92915050565b7f4f776e61626c653a2063616c6c6572206973206e6f7420746865206f776e6572600082015250565b6000616ead602083616790565b9150616eb882616e77565b602082019050919050565b60006020820190508181036000830152616edc81616ea0565b9050919050565b6000616eee826163e4565b9150616ef9836163e4565b925082820190508281121560008312168382126000841215161715616f2157616f2061658b565b5b92915050565b7f5369676e6564536166654d6174683a206164646974696f6e206f766572666c6f60008201527f7700000000000000000000000000000000000000000000000000000000000000602082015250565b6000616f83602183616790565b9150616f8e82616f27565b604082019050919050565b60006020820190508181036000830152616fb281616f76565b9050919050565b6000606082019050616fce60008301866163ba565b616fdb60208301856163ba565b616fe86040830184615e8c565b949350505050565b7f5361666545524332303a204552433230206f7065726174696f6e20646964206e60008201527f6f74207375636365656400000000000000000000000000000000000000000000602082015250565b600061704c602a83616790565b915061705782616ff0565b604082019050919050565b6000602082019050818103600083015261707b8161703f565b9050919050565b7f416464726573733a20696e73756666696369656e742062616c616e636520666f60008201527f722063616c6c0000000000000000000000000000000000000000000000000000602082015250565b60006170de602683616790565b91506170e982617082565b604082019050919050565b6000602082019050818103600083015261710d816170d1565b9050919050565b600081519050919050565b600081905092915050565b60005b8381101561714857808201518184015260208101905061712d565b60008484015250505050565b600061715f82617114565b617169818561711f565b935061717981856020860161712a565b80840191505092915050565b60006171918284617154565b915081905092915050565b7f416464726573733a2063616c6c20746f206e6f6e2d636f6e7472616374000000600082015250565b60006171d2601d83616790565b91506171dd8261719c565b602082019050919050565b60006020820190508181036000830152617201816171c5565b9050919050565b600081519050919050565b6000601f19601f8301169050919050565b600061722f82617208565b6172398185616790565b935061724981856020860161712a565b61725281617213565b840191505092915050565b600060208201905081810360008301526172778184617224565b90509291505056fea264697066735822122001ac184138eaeb36e7d40d7df1318b91ee775299bc58a00cd2de78ea9760725664736f6c63430008100033",
  "linkReferences": {},
  "deployedLinkReferences": {}
}