{
  "_format": "hh-sol-artifact-1",
  "contractName": "MasterChefV2",
  "sourceName": "contracts/MasterChefV2.sol",
  "abi": [
    {
      "inputs": [
        {
          "internalType": "contract SushiToken",
          "name": "_sushi",
          "type": "address"
        },
        {
          "internalType": "address",
          "name": "_treasuryAddress",
          "type": "address"
        },
        {
          "internalType": "uint256",
          "name": "_sushiPerBlock",
          "type": "uint256"
        },
        {
          "internalType": "uint256",
          "name": "_startBlock",
          "type": "uint256"
        }
      ],
      "stateMutability": "nonpayable",
      "type": "constructor"
    },
    {
      "anonymous": false,
      "inputs": [
        {
          "indexed": true,
          "internalType": "address",
          "name": "user",
          "type": "address"
        },
        {
          "indexed": true,
          "internalType": "uint256",
          "name": "pid",
          "type": "uint256"
        },
        {
          "indexed": false,
          "internalType": "uint256",
          "name": "amount",
          "type": "uint256"
        },
        {
          "indexed": true,
          "internalType": "address",
          "name": "to",
          "type": "address"
        }
      ],
      "name": "Deposit",
      "type": "event"
    },
    {
      "anonymous": false,
      "inputs": [
        {
          "indexed": true,
          "internalType": "address",
          "name": "user",
          "type": "address"
        },
        {
          "indexed": true,
          "internalType": "uint256",
          "name": "pid",
          "type": "uint256"
        },
        {
          "indexed": false,
          "internalType": "uint256",
          "name": "amount",
          "type": "uint256"
        },
        {
          "indexed": true,
          "internalType": "address",
          "name": "to",
          "type": "address"
        }
      ],
      "name": "EmergencyWithdraw",
      "type": "event"
    },
    {
      "anonymous": false,
      "inputs": [
        {
          "indexed": true,
          "internalType": "address",
          "name": "user",
          "type": "address"
        },
        {
          "indexed": true,
          "internalType": "uint256",
          "name": "pid",
          "type": "uint256"
        },
        {
          "indexed": false,
          "internalType": "uint256",
          "name": "amount",
          "type": "uint256"
        }
      ],
      "name": "Harvest",
      "type": "event"
    },
    {
      "anonymous": false,
      "inputs": [],
      "name": "LogInit",
      "type": "event"
    },
    {
      "anonymous": false,
      "inputs": [
        {
          "indexed": true,
          "internalType": "uint256",
          "name": "pid",
          "type": "uint256"
        },
        {
          "indexed": false,
          "internalType": "uint256",
          "name": "allocPoint",
          "type": "uint256"
        },
        {
          "indexed": true,
          "internalType": "contract IERC20",
          "name": "lpToken",
          "type": "address"
        },
        {
          "indexed": true,
          "internalType": "contract IRewarder",
          "name": "rewarder",
          "type": "address"
        }
      ],
      "name": "LogPoolAddition",
      "type": "event"
    },
    {
      "anonymous": false,
      "inputs": [
        {
          "indexed": true,
          "internalType": "uint256",
          "name": "pid",
          "type": "uint256"
        },
        {
          "indexed": false,
          "internalType": "uint256",
          "name": "allocPoint",
          "type": "uint256"
        },
        {
          "indexed": true,
          "internalType": "contract IRewarder",
          "name": "rewarder",
          "type": "address"
        },
        {
          "indexed": false,
          "internalType": "bool",
          "name": "overwrite",
          "type": "bool"
        }
      ],
      "name": "LogSetPool",
      "type": "event"
    },
    {
      "anonymous": false,
      "inputs": [
        {
          "indexed": true,
          "internalType": "uint256",
          "name": "pid",
          "type": "uint256"
        },
        {
          "indexed": false,
          "internalType": "uint64",
          "name": "lastRewardBlock",
          "type": "uint64"
        },
        {
          "indexed": false,
          "internalType": "uint256",
          "name": "lpSupply",
          "type": "uint256"
        },
        {
          "indexed": false,
          "internalType": "uint256",
          "name": "accSushiPerShare",
          "type": "uint256"
        }
      ],
      "name": "LogUpdatePool",
      "type": "event"
    },
    {
      "anonymous": false,
      "inputs": [
        {
          "indexed": true,
          "internalType": "address",
          "name": "previousOwner",
          "type": "address"
        },
        {
          "indexed": true,
          "internalType": "address",
          "name": "newOwner",
          "type": "address"
        }
      ],
      "name": "OwnershipTransferred",
      "type": "event"
    },
    {
      "anonymous": false,
      "inputs": [
        {
          "indexed": true,
          "internalType": "address",
          "name": "user",
          "type": "address"
        },
        {
          "indexed": true,
          "internalType": "uint256",
          "name": "pid",
          "type": "uint256"
        },
        {
          "indexed": false,
          "internalType": "uint256",
          "name": "amount",
          "type": "uint256"
        },
        {
          "indexed": true,
          "internalType": "address",
          "name": "to",
          "type": "address"
        }
      ],
      "name": "Withdraw",
      "type": "event"
    },
    {
      "inputs": [],
      "name": "POOL_PERCENTAGE",
      "outputs": [
        {
          "internalType": "uint256",
          "name": "",
          "type": "uint256"
        }
      ],
      "stateMutability": "view",
      "type": "function"
    },
    {
      "inputs": [],
      "name": "SUSHI",
      "outputs": [
        {
          "internalType": "contract SushiToken",
          "name": "",
          "type": "address"
        }
      ],
      "stateMutability": "view",
      "type": "function"
    },
    {
      "inputs": [],
      "name": "TREASURY_PERCENTAGE",
      "outputs": [
        {
          "internalType": "uint256",
          "name": "",
          "type": "uint256"
        }
      ],
      "stateMutability": "view",
      "type": "function"
    },
    {
      "inputs": [
        {
          "internalType": "uint256",
          "name": "allocPoint",
          "type": "uint256"
        },
        {
          "internalType": "contract IERC20",
          "name": "_lpToken",
          "type": "address"
        },
        {
          "internalType": "contract IRewarder",
          "name": "_rewarder",
          "type": "address"
        }
      ],
      "name": "add",
      "outputs": [],
      "stateMutability": "nonpayable",
      "type": "function"
    },
    {
      "inputs": [
        {
          "internalType": "uint256",
          "name": "pid",
          "type": "uint256"
        },
        {
          "internalType": "uint256",
          "name": "amount",
          "type": "uint256"
        },
        {
          "internalType": "address",
          "name": "to",
          "type": "address"
        }
      ],
      "name": "deposit",
      "outputs": [],
      "stateMutability": "nonpayable",
      "type": "function"
    },
    {
      "inputs": [
        {
          "internalType": "uint256",
          "name": "pid",
          "type": "uint256"
        },
        {
          "internalType": "address",
          "name": "to",
          "type": "address"
        }
      ],
      "name": "emergencyWithdraw",
      "outputs": [],
      "stateMutability": "nonpayable",
      "type": "function"
    },
    {
      "inputs": [
        {
          "internalType": "uint256",
          "name": "pid",
          "type": "uint256"
        },
        {
          "internalType": "address",
          "name": "to",
          "type": "address"
        }
      ],
      "name": "harvest",
      "outputs": [],
      "stateMutability": "nonpayable",
      "type": "function"
    },
    {
      "inputs": [
        {
          "internalType": "uint256",
          "name": "",
          "type": "uint256"
        }
      ],
      "name": "lpToken",
      "outputs": [
        {
          "internalType": "contract IERC20",
          "name": "",
          "type": "address"
        }
      ],
      "stateMutability": "view",
      "type": "function"
    },
    {
      "inputs": [
        {
          "internalType": "uint256[]",
          "name": "pids",
          "type": "uint256[]"
        }
      ],
      "name": "massUpdatePools",
      "outputs": [],
      "stateMutability": "nonpayable",
      "type": "function"
    },
    {
      "inputs": [
        {
          "internalType": "uint256",
          "name": "_pid",
          "type": "uint256"
        }
      ],
      "name": "migrate",
      "outputs": [],
      "stateMutability": "nonpayable",
      "type": "function"
    },
    {
      "inputs": [],
      "name": "migrator",
      "outputs": [
        {
          "internalType": "contract IMigratorChef",
          "name": "",
          "type": "address"
        }
      ],
      "stateMutability": "view",
      "type": "function"
    },
    {
      "inputs": [],
      "name": "owner",
      "outputs": [
        {
          "internalType": "address",
          "name": "",
          "type": "address"
        }
      ],
      "stateMutability": "view",
      "type": "function"
    },
    {
      "inputs": [
        {
          "internalType": "uint256",
          "name": "_pid",
          "type": "uint256"
        },
        {
          "internalType": "address",
          "name": "_user",
          "type": "address"
        }
      ],
      "name": "pendingSushi",
      "outputs": [
        {
          "internalType": "uint256",
          "name": "pending",
          "type": "uint256"
        }
      ],
      "stateMutability": "view",
      "type": "function"
    },
    {
      "inputs": [
        {
          "internalType": "uint256",
          "name": "",
          "type": "uint256"
        }
      ],
      "name": "poolInfo",
      "outputs": [
        {
          "internalType": "uint128",
          "name": "accSushiPerShare",
          "type": "uint128"
        },
        {
          "internalType": "uint64",
          "name": "lastRewardBlock",
          "type": "uint64"
        },
        {
          "internalType": "uint64",
          "name": "allocPoint",
          "type": "uint64"
        }
      ],
      "stateMutability": "view",
      "type": "function"
    },
    {
      "inputs": [],
      "name": "poolLength",
      "outputs": [
        {
          "internalType": "uint256",
          "name": "pools",
          "type": "uint256"
        }
      ],
      "stateMutability": "view",
      "type": "function"
    },
    {
      "inputs": [],
      "name": "renounceOwnership",
      "outputs": [],
      "stateMutability": "nonpayable",
      "type": "function"
    },
    {
      "inputs": [
        {
          "internalType": "uint256",
          "name": "",
          "type": "uint256"
        }
      ],
      "name": "rewarder",
      "outputs": [
        {
          "internalType": "contract IRewarder",
          "name": "",
          "type": "address"
        }
      ],
      "stateMutability": "view",
      "type": "function"
    },
    {
      "inputs": [
        {
          "internalType": "uint256",
          "name": "_pid",
          "type": "uint256"
        },
        {
          "internalType": "uint256",
          "name": "_allocPoint",
          "type": "uint256"
        },
        {
          "internalType": "contract IRewarder",
          "name": "_rewarder",
          "type": "address"
        },
        {
          "internalType": "bool",
          "name": "overwrite",
          "type": "bool"
        }
      ],
      "name": "set",
      "outputs": [],
      "stateMutability": "nonpayable",
      "type": "function"
    },
    {
      "inputs": [
        {
          "internalType": "contract IMigratorChef",
          "name": "_migrator",
          "type": "address"
        }
      ],
      "name": "setMigrator",
      "outputs": [],
      "stateMutability": "nonpayable",
      "type": "function"
    },
    {
      "inputs": [],
      "name": "startBlock",
      "outputs": [
        {
          "internalType": "uint256",
          "name": "",
          "type": "uint256"
        }
      ],
      "stateMutability": "view",
      "type": "function"
    },
    {
      "inputs": [],
      "name": "sushiPerBlock",
      "outputs": [
        {
          "internalType": "uint256",
          "name": "",
          "type": "uint256"
        }
      ],
      "stateMutability": "view",
      "type": "function"
    },
    {
      "inputs": [],
      "name": "totalAllocPoint",
      "outputs": [
        {
          "internalType": "uint256",
          "name": "",
          "type": "uint256"
        }
      ],
      "stateMutability": "view",
      "type": "function"
    },
    {
      "inputs": [
        {
          "internalType": "address",
          "name": "newOwner",
          "type": "address"
        }
      ],
      "name": "transferOwnership",
      "outputs": [],
      "stateMutability": "nonpayable",
      "type": "function"
    },
    {
      "inputs": [],
      "name": "treasuryAddress",
      "outputs": [
        {
          "internalType": "address",
          "name": "",
          "type": "address"
        }
      ],
      "stateMutability": "view",
      "type": "function"
    },
    {
      "inputs": [
        {
          "internalType": "uint256",
          "name": "pid",
          "type": "uint256"
        }
      ],
      "name": "updatePool",
      "outputs": [
        {
          "components": [
            {
              "internalType": "uint128",
              "name": "accSushiPerShare",
              "type": "uint128"
            },
            {
              "internalType": "uint64",
              "name": "lastRewardBlock",
              "type": "uint64"
            },
            {
              "internalType": "uint64",
              "name": "allocPoint",
              "type": "uint64"
            }
          ],
          "internalType": "struct MasterChefV2.PoolInfo",
          "name": "pool",
          "type": "tuple"
        }
      ],
      "stateMutability": "nonpayable",
      "type": "function"
    },
    {
      "inputs": [
        {
          "internalType": "uint256",
          "name": "",
          "type": "uint256"
        },
        {
          "internalType": "address",
          "name": "",
          "type": "address"
        }
      ],
      "name": "userInfo",
      "outputs": [
        {
          "internalType": "uint256",
          "name": "amount",
          "type": "uint256"
        },
        {
          "internalType": "int256",
          "name": "rewardDebt",
          "type": "int256"
        }
      ],
      "stateMutability": "view",
      "type": "function"
    },
    {
      "inputs": [
        {
          "internalType": "uint256",
          "name": "pid",
          "type": "uint256"
        },
        {
          "internalType": "uint256",
          "name": "amount",
          "type": "uint256"
        },
        {
          "internalType": "address",
          "name": "to",
          "type": "address"
        }
      ],
      "name": "withdraw",
      "outputs": [],
      "stateMutability": "nonpayable",
      "type": "function"
    },
    {
      "inputs": [
        {
          "internalType": "uint256",
          "name": "pid",
          "type": "uint256"
        },
        {
          "internalType": "uint256",
          "name": "amount",
          "type": "uint256"
        },
        {
          "internalType": "address",
          "name": "to",
          "type": "address"
        }
      ],
      "name": "withdrawAndHarvest",
      "outputs": [],
      "stateMutability": "nonpayable",
      "type": "function"
    }
  ],
  "bytecode": "0x6101006040523480156200001257600080fd5b5060405162002717380380620027178339810160408190526200003591620000cd565b620000403362000064565b6001600160a01b039384166080529190921660a05260c09190915260e0526200011a565b600080546001600160a01b038381166001600160a01b0319831681178455604051919092169283917f8be0079c531659141344cd1fd0a4f28419497f9722a3daafe3b4186f6b6457e09190a35050565b6001600160a01b0381168114620000ca57600080fd5b50565b60008060008060808587031215620000e457600080fd5b8451620000f181620000b4565b60208601519094506200010481620000b4565b6040860151606090960151949790965092505050565b60805160a05160c05160e05161258462000193600039600081816102b50152818161172f015261175601526000818161043c0152818161099d0152610fd5015260008181610476015261107b0152600081816104020152818161072c015281816110540152818161112a01526119fb01526125846000f3fe608060405234801561001057600080fd5b50600436106101c45760003560e01c8063715018a6116100f9578063ab560e1011610097578063c346253d11610071578063c346253d1461045e578063c5f956af14610471578063d1abb90714610498578063f2fde38b146104ab57600080fd5b8063ab560e10146103fd578063ab7de09814610424578063b0bcf42a1461043757600080fd5b806388bba42f116100d357806388bba42f1461037f5780638da5cb5b146103925780638dbdbe6d146103a357806393f1a40b146103b657600080fd5b8063715018a61461033957806378ed5d1f146103415780637cd07e471461036c57600080fd5b806323cf311811610166578063454b060811610140578063454b06081461029d57806348cd4cb1146102b057806351eb05a6146102d757806357a5b58c1461032657600080fd5b806323cf31181461026e5780632f940c701461028157806339e5f4ff1461029457600080fd5b8063173b31d8116101a2578063173b31d81461023757806317caf6f11461023f57806318fccc7614610248578063195426ec1461025b57600080fd5b8063081e3eda146101c95780630ad58d2f146101e05780631526fe27146101f5575b600080fd5b6002545b6040519081526020015b60405180910390f35b6101f36101ee36600461219c565b6104be565b005b6102086102033660046121d5565b610657565b604080516001600160801b0390941684526001600160401b0392831660208501529116908201526060016101d7565b6101cd608081565b6101cd60085481565b6101f36102563660046121ee565b61069c565b6101cd6102693660046121ee565b61082d565b6101f361027c36600461221e565b610a41565b6101f361028f3660046121ee565b610a6b565b6101cd61036881565b6101f36102ab3660046121d5565b610b9a565b6101cd7f000000000000000000000000000000000000000000000000000000000000000081565b6102ea6102e53660046121d5565b610e81565b6040805182516001600160801b031681526020808401516001600160401b039081169183019190915292820151909216908201526060016101d7565b6101f361033436600461223b565b611286565b6101f36112ca565b61035461034f3660046121d5565b6112de565b6040516001600160a01b0390911681526020016101d7565b600154610354906001600160a01b031681565b6101f361038d3660046122bd565b611308565b6000546001600160a01b0316610354565b6101f36103b136600461219c565b611471565b6103e86103c43660046121ee565b60076020908152600092835260408084209091529082529020805460019091015482565b604080519283526020830191909152016101d7565b6103547f000000000000000000000000000000000000000000000000000000000000000081565b6101f3610432366004612307565b611605565b6101cd7f000000000000000000000000000000000000000000000000000000000000000081565b61035461046c3660046121d5565b611920565b6103547f000000000000000000000000000000000000000000000000000000000000000081565b6101f36104a636600461219c565b611930565b6101f36104b936600461221e565b611b63565b60006104c984610e81565b6000858152600760209081526040808320338452909152902081519192509061051c9064e8d4a51000906105079087906001600160801b0316611bdc565b6105119190612354565b600183015490611bf1565b6001820155805461052d9085611c7e565b815560048054600091908790811061054757610547612376565b6000918252602090912001546001600160a01b0316905080156105cd5781546040516345fb1ba160e11b81526001600160a01b03831691638bf637429161059a918a9133918a916000919060040161238c565b600060405180830381600087803b1580156105b457600080fd5b505af11580156105c8573d6000803e3d6000fd5b505050505b6106018486600389815481106105e5576105e5612376565b6000918252602090912001546001600160a01b03169190611c8a565b836001600160a01b031686336001600160a01b03167f8166bf25f8a2b7ed3c85049207da4358d16edbed977d23fa2ee6f0dde3ec21328860405161064791815260200190565b60405180910390a4505050505050565b6002818154811061066757600080fd5b6000918252602090912001546001600160801b03811691506001600160401b03600160801b8204811691600160c01b90041683565b60006106a783610e81565b6000848152600760209081526040808320338452909152812082518154939450909264e8d4a51000916106e391906001600160801b0316611bdc565b6106ed9190612354565b9050600061071061070b846001015484611bf190919063ffffffff16565b611cf2565b6001840183905590508015610753576107536001600160a01b037f0000000000000000000000000000000000000000000000000000000000000000168683611c8a565b60006004878154811061076857610768612376565b6000918252602090912001546001600160a01b0316905080156107ed5783546040516345fb1ba160e11b81526001600160a01b03831691638bf63742916107ba918b9133918c9189919060040161238c565b600060405180830381600087803b1580156107d457600080fd5b505af11580156107e8573d6000803e3d6000fd5b505050505b604051828152879033907f71bab65ced2e5750775a0613be067df48ef06cf92a496ebf7663ae06609249549060200160405180910390a350505050505050565b6000806002848154811061084357610843612376565b600091825260208083206040805160608101825291909301546001600160801b0380821683526001600160401b03600160801b8304811684860152600160c01b90920490911682850152888552600783528385206001600160a01b03891686529092529183208251600380549496509194921692889081106108c7576108c7612376565b6000918252602090912001546040516370a0823160e01b81523060048201526001600160a01b03909116906370a0823190602401602060405180830381865afa158015610918573d6000803e3d6000fd5b505050506040513d601f19601f8201168201806040525081019061093c91906123bb565b905083602001516001600160401b03164311801561095957508015155b15610a0657600061098085602001516001600160401b031643611c7e90919063ffffffff16565b905060006008546109d187604001516001600160401b03166109cb7f000000000000000000000000000000000000000000000000000000000000000086611bdc90919063ffffffff16565b90611bdc565b6109db9190612354565b9050610a01836109f08364e8d4a51000611bdc565b6109fa9190612354565b8590611d36565b935050505b60018301548354610a369161070b9164e8d4a5100090610a269087611bdc565b610a309190612354565b90611bf1565b979650505050505050565b610a49611d42565b600180546001600160a01b0319166001600160a01b0392909216919091179055565b60008281526007602090815260408083203384529091528120805482825560018201839055600480549293919286908110610aa857610aa8612376565b6000918252602090912001546001600160a01b031690508015610b2d576040516345fb1ba160e11b81526001600160a01b03821690638bf6374290610afa90889033908990600090819060040161238c565b600060405180830381600087803b158015610b1457600080fd5b505af1158015610b28573d6000803e3d6000fd5b505050505b610b458483600388815481106105e5576105e5612376565b836001600160a01b031685336001600160a01b03167f2cac5e20e1541d836381527a43f651851e302817b71dc8e810284e69210c1c6b85604051610b8b91815260200190565b60405180910390a45050505050565b6001546001600160a01b0316610bf75760405162461bcd60e51b815260206004820152601d60248201527f4d61737465724368656656323a206e6f206d69677261746f722073657400000060448201526064015b60405180910390fd5b600060038281548110610c0c57610c0c612376565b60009182526020822001546040516370a0823160e01b81523060048201526001600160a01b03909116925082906370a0823190602401602060405180830381865afa158015610c5f573d6000803e3d6000fd5b505050506040513d601f19601f82011682018060405250810190610c8391906123bb565b60015460405163095ea7b360e01b81526001600160a01b0391821660048201526024810183905291925083169063095ea7b3906044016020604051808303816000875af1158015610cd8573d6000803e3d6000fd5b505050506040513d601f19601f82011682018060405250810190610cfc91906123d4565b5060015460405163ce5494bb60e01b81526001600160a01b038481166004830152600092169063ce5494bb906024016020604051808303816000875af1158015610d4a573d6000803e3d6000fd5b505050506040513d601f19601f82011682018060405250810190610d6e91906123f1565b6040516370a0823160e01b81523060048201529091506001600160a01b038216906370a0823190602401602060405180830381865afa158015610db5573d6000803e3d6000fd5b505050506040513d601f19601f82011682018060405250810190610dd991906123bb565b8214610e395760405162461bcd60e51b815260206004820152602960248201527f4d61737465724368656656323a206d696772617465642062616c616e6365206d6044820152680eae6e840dac2e8c6d60bb1b6064820152608401610bee565b8060038581548110610e4d57610e4d612376565b9060005260206000200160006101000a8154816001600160a01b0302191690836001600160a01b0316021790555050505050565b604080516060810182526000808252602082018190529181019190915260028281548110610eb157610eb1612376565b60009182526020918290206040805160608101825292909101546001600160801b03811683526001600160401b03600160801b82048116948401859052600160c01b9091041690820152915043111561128157600060038381548110610f1957610f19612376565b6000918252602090912001546040516370a0823160e01b81523060048201526001600160a01b03909116906370a0823190602401602060405180830381865afa158015610f6a573d6000803e3d6000fd5b505050506040513d601f19601f82011682018060405250810190610f8e91906123bb565b905080156111ad576000610fb883602001516001600160401b031643611c7e90919063ffffffff16565b9050600060085461100385604001516001600160401b03166109cb7f000000000000000000000000000000000000000000000000000000000000000086611bdc90919063ffffffff16565b61100d9190612354565b905060006103e861102083610368611bdc565b61102a9190612354565b905060008461103e8364e8d4a51000611bdc565b6110489190612354565b90506001600160a01b037f0000000000000000000000000000000000000000000000000000000000000000166340c10f197f00000000000000000000000000000000000000000000000000000000000000006103e86110a8876080611bdc565b6110b29190612354565b6040516001600160e01b031960e085901b1681526001600160a01b0390921660048301526024820152604401600060405180830381600087803b1580156110f857600080fd5b505af115801561110c573d6000803e3d6000fd5b50506040516340c10f1960e01b8152306004820152602481018590527f00000000000000000000000000000000000000000000000000000000000000006001600160a01b031692506340c10f199150604401600060405180830381600087803b15801561117857600080fd5b505af115801561118c573d6000803e3d6000fd5b5050875161119d925083915061240e565b6001600160801b03168652505050505b6001600160401b034316602083015260028054839190859081106111d3576111d3612376565b6000918252602091829020835191018054848401516040958601516001600160401b03908116600160c01b026001600160c01b03928216600160801b026001600160c01b03199094166001600160801b039687161793909317919091169190911790915585830151865185519190921681529283018590521681830152905184917f0fc9545022a542541ad085d091fb09a2ab36fee366a4576ab63714ea907ad353919081900360600190a2505b919050565b8060005b818110156112c4576112b38484838181106112a7576112a7612376565b90506020020135610e81565b506112bd81612435565b905061128a565b50505050565b6112d2611d42565b6112dc6000611d9c565b565b600381815481106112ee57600080fd5b6000918252602090912001546001600160a01b0316905081565b611310611d42565b6113558361134f6002878154811061132a5761132a612376565b60009182526020909120015460085490600160c01b90046001600160401b0316611c7e565b90611d36565b600881905550826002858154811061136f5761136f612376565b9060005260206000200160000160186101000a8154816001600160401b0302191690836001600160401b0316021790555080156113e95781600485815481106113ba576113ba612376565b9060005260206000200160006101000a8154816001600160a01b0302191690836001600160a01b031602179055505b8061141b576004848154811061140157611401612376565b6000918252602090912001546001600160a01b031661141d565b815b6001600160a01b0316847f95895a6ab1df54420d241b55243258a33e61b2194db66c1179ec521aae8e186585846040516114639291909182521515602082015260400190565b60405180910390a350505050565b600061147c84610e81565b60008581526007602090815260408083206001600160a01b038716845290915290208054919250906114ae9085611d36565b815581516114e69064e8d4a51000906114d19087906001600160801b0316611bdc565b6114db9190612354565b600183015490611dec565b816001018190555060006004868154811061150357611503612376565b6000918252602090912001546001600160a01b0316905080156115895781546040516345fb1ba160e11b81526001600160a01b03831691638bf6374291611556918a91899182916000919060040161238c565b600060405180830381600087803b15801561157057600080fd5b505af1158015611584573d6000803e3d6000fd5b505050505b6115bf33308760038a815481106115a2576115a2612376565b6000918252602090912001546001600160a01b0316929190611e77565b836001600160a01b031686336001600160a01b03167f02d7e648dd130fc184d383e55bb126ac4c9c60e8f94bf05acdf557ba2d540b478860405161064791815260200190565b61160d611d42565b6001600160a01b0382163b61166f5760405162461bcd60e51b815260206004820152602260248201527f6c7020746f6b656e206973206e6f74206120636f6e7472616374206164647265604482015261737360f01b6064820152608401610bee565b6001600160a01b0381163b15158061168e57506001600160a01b038116155b6116da5760405162461bcd60e51b815260206004820181905260248201527f726577617264657220616464726573732073686f756c646e7420626520454f416044820152606401610bee565b6116e5600583611eaf565b1561172b5760405162461bcd60e51b81526020600482015260166024820152751b1c081d1bdad95b88185b1c9958591e48185919195960521b6044820152606401610bee565b60007f0000000000000000000000000000000000000000000000000000000000000000431161177a577f000000000000000000000000000000000000000000000000000000000000000061177c565b435b60085490915061178c9085611d36565b600855600380546001810182556000919091527fc2575a0e9e593c00f959f8c92f12db2869c3395a3b0502d05e2516446f71f85b0180546001600160a01b0319166001600160a01b0385161790556117e5600584611ed1565b506004805460018181019092557f8a35acfbc15ff81a39ae7d344fd709f28e8600b4aa8c65c6b64bfe7fe36bd19b0180546001600160a01b038086166001600160a01b031990921682179092556040805160608101825260008082526001600160401b03808816602084019081528b821694840194855260028054808a018255935292517f405787fa12a823e0f2b7631cc41b3ba8828b3321ca811111fa75cd3aa3bb5ace9092018054935194518216600160c01b026001600160c01b0395909216600160801b026001600160c01b03199094166001600160801b03939093169290921792909217929092161790556003549092918616916118e79190611c7e565b6040518781527f81ee0f8c5c46e2cb41984886f77a84181724abb86c32a5f6de539b07509d45e59060200160405180910390a450505050565b600481815481106112ee57600080fd5b600061193b84610e81565b6000858152600760209081526040808320338452909152812082518154939450909264e8d4a510009161197791906001600160801b0316611bdc565b6119819190612354565b9050600061199f61070b846001015484611bf190919063ffffffff16565b90506119db64e8d4a510006119ca86600001516001600160801b031689611bdc90919063ffffffff16565b6119d49190612354565b8390611bf1565b600184015582546119ec9087611c7e565b8355611a226001600160a01b037f0000000000000000000000000000000000000000000000000000000000000000168683611c8a565b600060048881548110611a3757611a37612376565b6000918252602090912001546001600160a01b031690508015611abc5783546040516345fb1ba160e11b81526001600160a01b03831691638bf6374291611a89918c9133918c9189919060040161238c565b600060405180830381600087803b158015611aa357600080fd5b505af1158015611ab7573d6000803e3d6000fd5b505050505b611ad4868860038b815481106105e5576105e5612376565b856001600160a01b031688336001600160a01b03167f8166bf25f8a2b7ed3c85049207da4358d16edbed977d23fa2ee6f0dde3ec21328a604051611b1a91815260200190565b60405180910390a4604051828152889033907f71bab65ced2e5750775a0613be067df48ef06cf92a496ebf7663ae06609249549060200160405180910390a35050505050505050565b611b6b611d42565b6001600160a01b038116611bd05760405162461bcd60e51b815260206004820152602660248201527f4f776e61626c653a206e6577206f776e657220697320746865207a65726f206160448201526564647265737360d01b6064820152608401610bee565b611bd981611d9c565b50565b6000611be8828461244e565b90505b92915050565b600080611bfe838561246d565b905060008312158015611c115750838113155b80611c265750600083128015611c2657508381135b611be85760405162461bcd60e51b8152602060048201526024808201527f5369676e6564536166654d6174683a207375627472616374696f6e206f766572604482015263666c6f7760e01b6064820152608401610bee565b6000611be8828461248d565b6040516001600160a01b038316602482015260448101829052611ced90849063a9059cbb60e01b906064015b60408051601f198184030181529190526020810180516001600160e01b03166001600160e01b031990931692909217909152611ee6565b505050565b600080821215611d325760405162461bcd60e51b815260206004820152600b60248201526a0496e7465676572203c20360ac1b6044820152606401610bee565b5090565b6000611be882846124a0565b6000546001600160a01b031633146112dc5760405162461bcd60e51b815260206004820181905260248201527f4f776e61626c653a2063616c6c6572206973206e6f7420746865206f776e65726044820152606401610bee565b600080546001600160a01b038381166001600160a01b0319831681178455604051919092169283917f8be0079c531659141344cd1fd0a4f28419497f9722a3daafe3b4186f6b6457e09190a35050565b600080611df983856124b3565b905060008312158015611e0c5750838112155b80611e215750600083128015611e2157508381125b611be85760405162461bcd60e51b815260206004820152602160248201527f5369676e6564536166654d6174683a206164646974696f6e206f766572666c6f6044820152607760f81b6064820152608401610bee565b6040516001600160a01b03808516602483015283166044820152606481018290526112c49085906323b872dd60e01b90608401611cb6565b6001600160a01b03811660009081526001830160205260408120541515611be8565b6000611be8836001600160a01b038416611fb8565b6000611f3b826040518060400160405280602081526020017f5361666545524332303a206c6f772d6c6576656c2063616c6c206661696c6564815250856001600160a01b03166120079092919063ffffffff16565b805190915015611ced5780806020019051810190611f5991906123d4565b611ced5760405162461bcd60e51b815260206004820152602a60248201527f5361666545524332303a204552433230206f7065726174696f6e20646964206e6044820152691bdd081cdd58d8d9595960b21b6064820152608401610bee565b6000818152600183016020526040812054611fff57508154600181810184556000848152602080822090930184905584548482528286019093526040902091909155611beb565b506000611beb565b6060612016848460008561201e565b949350505050565b60608247101561207f5760405162461bcd60e51b815260206004820152602660248201527f416464726573733a20696e73756666696369656e742062616c616e636520666f6044820152651c8818d85b1b60d21b6064820152608401610bee565b600080866001600160a01b0316858760405161209b91906124ff565b60006040518083038185875af1925050503d80600081146120d8576040519150601f19603f3d011682016040523d82523d6000602084013e6120dd565b606091505b5091509150610a368783838760608315612158578251600003612151576001600160a01b0385163b6121515760405162461bcd60e51b815260206004820152601d60248201527f416464726573733a2063616c6c20746f206e6f6e2d636f6e74726163740000006044820152606401610bee565b5081612016565b612016838381511561216d5781518083602001fd5b8060405162461bcd60e51b8152600401610bee919061251b565b6001600160a01b0381168114611bd957600080fd5b6000806000606084860312156121b157600080fd5b833592506020840135915060408401356121ca81612187565b809150509250925092565b6000602082840312156121e757600080fd5b5035919050565b6000806040838503121561220157600080fd5b82359150602083013561221381612187565b809150509250929050565b60006020828403121561223057600080fd5b8135611be881612187565b6000806020838503121561224e57600080fd5b82356001600160401b038082111561226557600080fd5b818501915085601f83011261227957600080fd5b81358181111561228857600080fd5b8660208260051b850101111561229d57600080fd5b60209290920196919550909350505050565b8015158114611bd957600080fd5b600080600080608085870312156122d357600080fd5b843593506020850135925060408501356122ec81612187565b915060608501356122fc816122af565b939692955090935050565b60008060006060848603121561231c57600080fd5b83359250602084013561232e81612187565b915060408401356121ca81612187565b634e487b7160e01b600052601160045260246000fd5b60008261237157634e487b7160e01b600052601260045260246000fd5b500490565b634e487b7160e01b600052603260045260246000fd5b9485526001600160a01b0393841660208601529190921660408401526060830191909152608082015260a00190565b6000602082840312156123cd57600080fd5b5051919050565b6000602082840312156123e657600080fd5b8151611be8816122af565b60006020828403121561240357600080fd5b8151611be881612187565b6001600160801b0381811683821601908082111561242e5761242e61233e565b5092915050565b6000600182016124475761244761233e565b5060010190565b60008160001904831182151516156124685761246861233e565b500290565b818103600083128015838313168383128216171561242e5761242e61233e565b81810381811115611beb57611beb61233e565b80820180821115611beb57611beb61233e565b80820182811260008312801582168215821617156124d3576124d361233e565b505092915050565b60005b838110156124f65781810151838201526020016124de565b50506000910152565b600082516125118184602087016124db565b9190910192915050565b602081526000825180602084015261253a8160408501602087016124db565b601f01601f1916919091016040019291505056fea2646970667358221220d0f874fe97edfa122fcc00685b098aa8365226f6bccd629a3aa4aadc7da4d16664736f6c63430008100033",
  "linkReferences": {},
  "deployedLinkReferences": {}
}