{
  "_format": "hh-sol-artifact-1",
  "contractName": "WETH10",
  "sourceName": "contracts/WETH10.sol",
  "abi": [
    {
      "inputs": [],
      "stateMutability": "nonpayable",
      "type": "constructor"
    },
    {
      "anonymous": false,
      "inputs": [
        {
          "indexed": true,
          "internalType": "address",
          "name": "owner",
          "type": "address"
        },
        {
          "indexed": true,
          "internalType": "address",
          "name": "spender",
          "type": "address"
        },
        {
          "indexed": false,
          "internalType": "uint256",
          "name": "amount",
          "type": "uint256"
        }
      ],
      "name": "ApprovalEvent",
      "type": "event"
    },
    {
      "anonymous": false,
      "inputs": [
        {
          "indexed": true,
          "internalType": "address",
          "name": "from",
          "type": "address"
        },
        {
          "indexed": false,
          "internalType": "uint256",
          "name": "amount",
          "type": "uint256"
        }
      ],
      "name": "DepoitEvent",
      "type": "event"
    },
    {
      "anonymous": false,
      "inputs": [
        {
          "indexed": true,
          "internalType": "address",
          "name": "from",
          "type": "address"
        },
        {
          "indexed": true,
          "internalType": "address",
          "name": "to",
          "type": "address"
        },
        {
          "indexed": false,
          "internalType": "uint256",
          "name": "amount",
          "type": "uint256"
        }
      ],
      "name": "TransferEvent",
      "type": "event"
    },
    {
      "anonymous": false,
      "inputs": [
        {
          "indexed": true,
          "internalType": "address",
          "name": "to",
          "type": "address"
        },
        {
          "indexed": false,
          "internalType": "uint256",
          "name": "amount",
          "type": "uint256"
        }
      ],
      "name": "WithdrawEvent",
      "type": "event"
    },
    {
      "inputs": [
        {
          "internalType": "address",
          "name": "spender",
          "type": "address"
        },
        {
          "internalType": "uint256",
          "name": "amount",
          "type": "uint256"
        }
      ],
      "name": "approve",
      "outputs": [],
      "stateMutability": "nonpayable",
      "type": "function"
    },
    {
      "inputs": [],
      "name": "deposit",
      "outputs": [],
      "stateMutability": "payable",
      "type": "function"
    },
    {
      "inputs": [
        {
          "internalType": "address",
          "name": "_owner",
          "type": "address"
        }
      ],
      "name": "getAllowance",
      "outputs": [
        {
          "internalType": "uint256",
          "name": "",
          "type": "uint256"
        }
      ],
      "stateMutability": "view",
      "type": "function"
    },
    {
      "inputs": [
        {
          "internalType": "address",
          "name": "_addr",
          "type": "address"
        }
      ],
      "name": "getBalance",
      "outputs": [
        {
          "internalType": "uint256",
          "name": "",
          "type": "uint256"
        }
      ],
      "stateMutability": "view",
      "type": "function"
    },
    {
      "inputs": [
        {
          "internalType": "address",
          "name": "from",
          "type": "address"
        },
        {
          "internalType": "address",
          "name": "to",
          "type": "address"
        },
        {
          "internalType": "uint256",
          "name": "amount",
          "type": "uint256"
        }
      ],
      "name": "transferFrom",
      "outputs": [
        {
          "internalType": "bool",
          "name": "",
          "type": "bool"
        }
      ],
      "stateMutability": "nonpayable",
      "type": "function"
    },
    {
      "inputs": [
        {
          "internalType": "uint256",
          "name": "_amount",
          "type": "uint256"
        }
      ],
      "name": "withdraw",
      "outputs": [],
      "stateMutability": "nonpayable",
      "type": "function"
    },
    {
      "stateMutability": "payable",
      "type": "receive"
    }
  ],
  "bytecode": "0x608060405234801561001057600080fd5b50610711806100206000396000f3fe6080604052600436106100595760003560e01c8063095ea7b31461006d57806323b872dd1461008d5780632e1a7d4d146100c2578063d0e30db0146100e2578063eb5a662e146100ea578063f8b2cb4f1461013957600080fd5b366100685761006661016f565b005b600080fd5b34801561007957600080fd5b506100666100883660046105f8565b6101ca565b34801561009957600080fd5b506100ad6100a8366004610622565b61027d565b60405190151581526020015b60405180910390f35b3480156100ce57600080fd5b506100666100dd36600461065e565b6103c0565b61006661016f565b3480156100f657600080fd5b5061012b610105366004610677565b6001600160a01b0316600090815260016020908152604080832033845290915290205490565b6040519081526020016100b9565b34801561014557600080fd5b5061012b610154366004610677565b6001600160a01b031660009081526020819052604090205490565b336000908152602081905260408120805434929061018e9084906106af565b909155505060405134815233907f68c114136eb81ba2a602af2ae4ae3f04bd172d0493efb5d0d00e76c00d2d8e249060200160405180910390a2565b3360009081526020819052604090205481111561022e5760405162461bcd60e51b815260206004820152601a60248201527f45524332303a696e73756666696369656e742062616c616e636500000000000060448201526064015b60405180910390fd5b61023982338361049c565b6040518181526001600160a01b0383169033907f08245b82180b1f5e514e503c113ab0197093b2cb542145037c0a31b54b1d998e9060200160405180910390a35050565b60006001600160a01b038416331461030d576001600160a01b03841660009081526001602090815260408083203384529091529020548211156103025760405162461bcd60e51b815260206004820152601c60248201527f45524332303a696e73756666696369656e7420616c6c6f77616e6365000000006044820152606401610225565b61030d338584610573565b6001600160a01b038416600090815260208190526040812080548492906103359084906106c8565b90915550506001600160a01b038316600090815260208190526040812080548492906103629084906106af565b92505081905550826001600160a01b0316846001600160a01b03167feaf1c4b3ce0f4f62a2bae7eb3e68225c75f7e6ff4422073b7437b9a78d25f170846040516103ae91815260200190565b60405180910390a35060019392505050565b336000908152602081905260409020548111156104125760405162461bcd60e51b815260206004820152601060248201526f6e6f7420656e6f756768206d6f6e657960801b6044820152606401610225565b33600090815260208190526040812080548392906104319084906106c8565b9091555050604051339082156108fc029083906000818181858888f19350505050158015610463573d6000803e3d6000fd5b5060405181815233907f5dba113b49cfa7c90315e8e604e6b506f7abcb909b01dcb19ec39005086e68fc9060200160405180910390a250565b6001600160a01b0383166104f25760405162461bcd60e51b815260206004820152601e60248201527f45524332303a20696e76616c6964207370656e646572206164647265737300006044820152606401610225565b6001600160a01b0382166105485760405162461bcd60e51b815260206004820152601c60248201527f45524332303a20696e76616c6964206f776e65722061646472657373000000006044820152606401610225565b6001600160a01b03918216600090815260016020908152604080832095909416825293909352912055565b6001600160a01b03808316600090815260016020908152604080832093871683529290522054600019146105d7576001600160a01b038083166000908152600160209081526040808320938716835292905220546105d7908490849084900361049c565b505050565b80356001600160a01b03811681146105f357600080fd5b919050565b6000806040838503121561060b57600080fd5b610614836105dc565b946020939093013593505050565b60008060006060848603121561063757600080fd5b610640846105dc565b925061064e602085016105dc565b9150604084013590509250925092565b60006020828403121561067057600080fd5b5035919050565b60006020828403121561068957600080fd5b610692826105dc565b9392505050565b634e487b7160e01b600052601160045260246000fd5b808201808211156106c2576106c2610699565b92915050565b818103818111156106c2576106c261069956fea2646970667358221220eb4cad29901487255e6ee775325dee7f9211a3b1585be4abf1784cb2a19f4d2164736f6c63430008100033",
  "linkReferences": {},
  "deployedLinkReferences": {}
}