{
  "_format": "hh-sol-artifact-1",
  "contractName": "RewarderMock",
  "sourceName": "contracts/Mocks/RewarderMock.sol",
  "abi": [
    {
      "inputs": [
        {
          "internalType": "uint256",
          "name": "_rewardMultiplier",
          "type": "uint256"
        },
        {
          "internalType": "contract IERC20",
          "name": "_rewardToken",
          "type": "address"
        },
        {
          "internalType": "address",
          "name": "_BEETHOVEN_MASTERCHEF",
          "type": "address"
        }
      ],
      "stateMutability": "nonpayable",
      "type": "constructor"
    },
    {
      "inputs": [
        {
          "internalType": "uint256",
          "name": "",
          "type": "uint256"
        },
        {
          "internalType": "address",
          "name": "",
          "type": "address"
        },
        {
          "internalType": "address",
          "name": "recipient",
          "type": "address"
        },
        {
          "internalType": "uint256",
          "name": "sushiAmount",
          "type": "uint256"
        },
        {
          "internalType": "uint256",
          "name": "",
          "type": "uint256"
        }
      ],
      "name": "onSushiReward",
      "outputs": [],
      "stateMutability": "nonpayable",
      "type": "function"
    },
    {
      "inputs": [
        {
          "internalType": "uint256",
          "name": "",
          "type": "uint256"
        },
        {
          "internalType": "address",
          "name": "",
          "type": "address"
        },
        {
          "internalType": "uint256",
          "name": "beetsAmount",
          "type": "uint256"
        }
      ],
      "name": "pendingTokens",
      "outputs": [
        {
          "internalType": "contract IERC20[]",
          "name": "rewardTokens",
          "type": "address[]"
        },
        {
          "internalType": "uint256[]",
          "name": "rewardAmounts",
          "type": "uint256[]"
        }
      ],
      "stateMutability": "view",
      "type": "function"
    }
  ],
  "bytecode": "0x60e060405234801561001057600080fd5b5060405161096a38038061096a83398101604081905261002f91610064565b6080929092526001600160a01b0390811660a0521660c0526100a7565b6001600160a01b038116811461006157600080fd5b50565b60008060006060848603121561007957600080fd5b83519250602084015161008b8161004c565b604085015190925061009c8161004c565b809150509250925092565b60805160a05160c0516108796100f160003960006085015260008181610163015281816101e50152818161021e015261027701526000818161011101526102f401526108796000f3fe608060405234801561001057600080fd5b50600436106100365760003560e01c80638bf637421461003b578063d63b3c4914610050575b600080fd5b61004e610049366004610622565b61007a565b005b61006361005e366004610670565b61024e565b6040516100719291906106a5565b60405180910390f35b336001600160a01b037f000000000000000000000000000000000000000000000000000000000000000016146101015760405162461bcd60e51b815260206004820152602160248201527f4f6e6c79204d4356322063616e2063616c6c20746869732066756e6374696f6e6044820152601760f91b60648201526084015b60405180910390fd5b6000670de0b6b3a76400006101367f000000000000000000000000000000000000000000000000000000000000000085610729565b6101409190610756565b6040516370a0823160e01b81523060048201529091506000906001600160a01b037f000000000000000000000000000000000000000000000000000000000000000016906370a0823190602401602060405180830381865afa1580156101aa573d6000803e3d6000fd5b505050506040513d601f19601f820116820180604052508101906101ce9190610778565b9050808211156102115761020c6001600160a01b037f000000000000000000000000000000000000000000000000000000000000000016868361034d565b610245565b6102456001600160a01b037f000000000000000000000000000000000000000000000000000000000000000016868461034d565b50505050505050565b6040805160018082528183019092526060918291600091602080830190803683370190505090507f0000000000000000000000000000000000000000000000000000000000000000816000815181106102a9576102a9610791565b6001600160a01b039290921660209283029190910190910152604080516001808252818301909252600091816020016020820280368337019050509050670de0b6b3a76400006103197f000000000000000000000000000000000000000000000000000000000000000087610729565b6103239190610756565b8160008151811061033657610336610791565b602090810291909101015290969095509350505050565b604080516001600160a01b038416602482015260448082018490528251808303909101815260649091019091526020810180516001600160e01b031663a9059cbb60e01b17905261039f9084906103a4565b505050565b60006103f9826040518060400160405280602081526020017f5361666545524332303a206c6f772d6c6576656c2063616c6c206661696c6564815250856001600160a01b03166104769092919063ffffffff16565b80519091501561039f578080602001905181019061041791906107a7565b61039f5760405162461bcd60e51b815260206004820152602a60248201527f5361666545524332303a204552433230206f7065726174696f6e20646964206e6044820152691bdd081cdd58d8d9595960b21b60648201526084016100f8565b6060610485848460008561048d565b949350505050565b6060824710156104ee5760405162461bcd60e51b815260206004820152602660248201527f416464726573733a20696e73756666696369656e742062616c616e636520666f6044820152651c8818d85b1b60d21b60648201526084016100f8565b600080866001600160a01b0316858760405161050a91906107f4565b60006040518083038185875af1925050503d8060008114610547576040519150601f19603f3d011682016040523d82523d6000602084013e61054c565b606091505b509150915061055d87838387610568565b979650505050505050565b606083156105d75782516000036105d0576001600160a01b0385163b6105d05760405162461bcd60e51b815260206004820152601d60248201527f416464726573733a2063616c6c20746f206e6f6e2d636f6e747261637400000060448201526064016100f8565b5081610485565b61048583838151156105ec5781518083602001fd5b8060405162461bcd60e51b81526004016100f89190610810565b80356001600160a01b038116811461061d57600080fd5b919050565b600080600080600060a0868803121561063a57600080fd5b8535945061064a60208701610606565b935061065860408701610606565b94979396509394606081013594506080013592915050565b60008060006060848603121561068557600080fd5b8335925061069560208501610606565b9150604084013590509250925092565b604080825283519082018190526000906020906060840190828701845b828110156106e75781516001600160a01b0316845292840192908401906001016106c2565b5050508381038285015284518082528583019183019060005b8181101561071c57835183529284019291840191600101610700565b5090979650505050505050565b600081600019048311821515161561075157634e487b7160e01b600052601160045260246000fd5b500290565b60008261077357634e487b7160e01b600052601260045260246000fd5b500490565b60006020828403121561078a57600080fd5b5051919050565b634e487b7160e01b600052603260045260246000fd5b6000602082840312156107b957600080fd5b815180151581146107c957600080fd5b9392505050565b60005b838110156107eb5781810151838201526020016107d3565b50506000910152565b600082516108068184602087016107d0565b9190910192915050565b602081526000825180602084015261082f8160408501602087016107d0565b601f01601f1916919091016040019291505056fea26469706673582212201a596b78111f12387585386cb40c73fbe2f51f9b5c91ac2ae5c251a21864acf264736f6c63430008100033",
  "linkReferences": {},
  "deployedLinkReferences": {}
}