{
  "_format": "hh-sol-artifact-1",
  "contractName": "RewarderMock",
  "sourceName": "contracts/Mocks/RewarderMock.sol",
  "abi": [
    {
      "inputs": [
        {
          "internalType": "uint256",
          "name": "_rewardMultiplier",
          "type": "uint256"
        },
        {
          "internalType": "contract IERC20",
          "name": "_rewardToken",
          "type": "address"
        },
        {
          "internalType": "address",
          "name": "_BEETHOVEN_MASTERCHEF",
          "type": "address"
        }
      ],
      "stateMutability": "nonpayable",
      "type": "constructor"
    },
    {
      "inputs": [
        {
          "internalType": "uint256",
          "name": "",
          "type": "uint256"
        },
        {
          "internalType": "address",
          "name": "",
          "type": "address"
        },
        {
          "internalType": "address",
          "name": "recipient",
          "type": "address"
        },
        {
          "internalType": "uint256",
          "name": "sushiAmount",
          "type": "uint256"
        },
        {
          "internalType": "uint256",
          "name": "",
          "type": "uint256"
        }
      ],
      "name": "onSushiReward",
      "outputs": [],
      "stateMutability": "nonpayable",
      "type": "function"
    },
    {
      "inputs": [
        {
          "internalType": "uint256",
          "name": "",
          "type": "uint256"
        },
        {
          "internalType": "address",
          "name": "",
          "type": "address"
        },
        {
          "internalType": "uint256",
          "name": "beetsAmount",
          "type": "uint256"
        }
      ],
      "name": "pendingTokens",
      "outputs": [
        {
          "internalType": "contract IERC20[]",
          "name": "rewardTokens",
          "type": "address[]"
        },
        {
          "internalType": "uint256[]",
          "name": "rewardAmounts",
          "type": "uint256[]"
        }
      ],
      "stateMutability": "view",
      "type": "function"
    }
  ],
  "bytecode": "0x60e06040523480156200001157600080fd5b506040516200193938038062001939833981810160405281019062000037919062000309565b6200006b7f362cd2a42a3795faa3500ae4ee452395350f4e32d13af71361061da502a871d760001b6200021c60201b60201c565b6200009f7f859d083c24f5942c06c1b14b4b498de3f45d3859482366b416ab898282ada25060001b6200021c60201b60201c565b620000d37fcf760f3c8458ce92f97f62f8cc8b36c4ac0bea00afe16e21fb652f3dddbd3f9660001b6200021c60201b60201c565b82608081815250506200010f7fb56dd610a8db3128f6e582e203fbe0f2311f9f58280b018a504898580ce035ad60001b6200021c60201b60201c565b620001437f32a153b3e2f7eb2e34a5383532a52abafe1af48e9adaecef9f26434c9b2e87cd60001b6200021c60201b60201c565b8173ffffffffffffffffffffffffffffffffffffffff1660a08173ffffffffffffffffffffffffffffffffffffffff1681525050620001ab7f670503dc17e282de732848e1a466b5ac92e6ed4de68affb84469b753362fc7d560001b6200021c60201b60201c565b620001df7fadd4f28b6dbdb656e384060cd23f5a98d0588d6463c74542ca34ea5772b8340360001b6200021c60201b60201c565b8073ffffffffffffffffffffffffffffffffffffffff1660c08173ffffffffffffffffffffffffffffffffffffffff168152505050505062000365565b50565b600080fd5b6000819050919050565b620002398162000224565b81146200024557600080fd5b50565b60008151905062000259816200022e565b92915050565b600073ffffffffffffffffffffffffffffffffffffffff82169050919050565b60006200028c826200025f565b9050919050565b6000620002a0826200027f565b9050919050565b620002b28162000293565b8114620002be57600080fd5b50565b600081519050620002d281620002a7565b92915050565b620002e3816200027f565b8114620002ef57600080fd5b50565b6000815190506200030381620002d8565b92915050565b6000806000606084860312156200032557620003246200021f565b5b6000620003358682870162000248565b93505060206200034886828701620002c1565b92505060406200035b86828701620002f2565b9150509250925092565b60805160a05160c051611588620003b1600039600061013a015260008181610341015281816104c60152818161059a01526107170152600081816102af015261088d01526115886000f3fe608060405234801561001057600080fd5b50600436106100365760003560e01c80638bf637421461003b578063d63b3c4914610057575b600080fd5b61005560048036038101906100509190610cff565b610088565b005b610071600480360381019061006c9190610d7a565b6105e8565b60405161007f929190610f99565b60405180910390f35b6100b47f854616aa8e4eecac21101c3b1882e2b8b785589a5a8865f5a4c68bccd6a41d8360001b610949565b6100e07f63c58d45cedcee8e8bd2820cfb5c7b1f8fc0a01c54ecc2460ae24d1e1d6a432e60001b610949565b61010c7f0bd655d779ecd0f4556d83ee772d79c61bb83894c3ebcd34ec95c485bd097eb860001b610949565b6101387fb9c1b5e927ecb6619e924e9b792faf6fd643d24f7c8085767dfc24a5886217bf60001b610949565b7f000000000000000000000000000000000000000000000000000000000000000073ffffffffffffffffffffffffffffffffffffffff163373ffffffffffffffffffffffffffffffffffffffff16146101c6576040517f08c379a00000000000000000000000000000000000000000000000000000000081526004016101bd90611053565b60405180910390fd5b6101f27f471323c13ed4ac917a0bc27d9437e336d96280acd963cd02881bb671547feee860001b610949565b61021e7f6251fa9a6088d97a8d67d2167adde5d86ca5a36a401bb23ae85f22f9a0d2cff960001b610949565b61024a7f470726cc4502e125fd72915ca75c40c79f1f4ff02c36b417c02fc12c241dbe6460001b610949565b6102767f22e5f114036bbec275acc62fa8bfe84c3c0e79df5ba6ffab7babd144174b6d8660001b610949565b6102a27f073acdd4aa7cd1bbffe81bfab8e5c084cd61ab7a89844e63f4f32931b726367160001b610949565b6000670de0b6b3a76400007f0000000000000000000000000000000000000000000000000000000000000000846102d991906110a2565b6102e3919061112b565b90506103117f882b97e349b9125fb1f513921e6b24ce52184cebf1b604268366868b569ae79660001b610949565b61033d7f8532372b3b56cec0737031bf07c062ce917e2c5132c358a654d487fbaff20baa60001b610949565b60007f000000000000000000000000000000000000000000000000000000000000000073ffffffffffffffffffffffffffffffffffffffff166370a08231306040518263ffffffff1660e01b8152600401610398919061116b565b602060405180830381865afa1580156103b5573d6000803e3d6000fd5b505050506040513d601f19601f820116820180604052508101906103d9919061119b565b90506104077fb0912e4e3d4633b78192acc9e3a06cd42f02bd17710a88e08591ff2d8370acdc60001b610949565b6104337f40b81f9e5bcbac30be554a77c539608ed7a6655160a57d5c6388775d863c463e60001b610949565b8082111561050f576104677fae1592b4a005489e10361761472db7c8038bc19b1d9019f7cfca066bcd3dda8d60001b610949565b6104937f04e4dc002fac15722e4818802627fab4e0001d07fd8b18c37bf23f11277d76af60001b610949565b6104bf7f63c04a226ca47c1d10890a655c9f5c8766d067f494852113ab4e88b2f20cdef060001b610949565b61050a85827f000000000000000000000000000000000000000000000000000000000000000073ffffffffffffffffffffffffffffffffffffffff1661094c9092919063ffffffff16565b6105df565b61053b7f6ca9fe4a136144882477c057bc809217c0e4d69040e09f321eab76051b52ebb160001b610949565b6105677ff42eae9cd37d40b12fcf6d955781d2d495a02acdef24022632b03084fca3700560001b610949565b6105937fb9dd03a79b1cb069f3ff70fd8476dd72d432cc4483f299cf829d8057bd099a3560001b610949565b6105de85837f000000000000000000000000000000000000000000000000000000000000000073ffffffffffffffffffffffffffffffffffffffff1661094c9092919063ffffffff16565b5b50505050505050565b6060806106177fae4012a64005b6d2de9432772dcfe941bb19bcd3f6efaba9dc56e8fe7835aa3960001b610949565b6106437ff27a9507d6718a5d95a847d187edfd9590a4831714d0776156e56e051e2c957560001b610949565b61066f7fa341bec96d5a6c19f4905187e24f4f273b02a04ea35e038434eff5b2451b813c60001b610949565b6000600167ffffffffffffffff81111561068c5761068b6111c8565b5b6040519080825280602002602001820160405280156106ba5781602001602082028036833780820191505090505b5090506106e97f091009cf91ec6a8149afaa3deeff9aea8cc73681ce833778992f4bac1c2ceb8360001b610949565b6107157f2a240cbf0befe576a1a677ddd66f35b4139db4a4e1bdd96a011e5eacb7d03e7360001b610949565b7f00000000000000000000000000000000000000000000000000000000000000008160008151811061074a576107496111f7565b5b602002602001019073ffffffffffffffffffffffffffffffffffffffff16908173ffffffffffffffffffffffffffffffffffffffff16815250506107b07fcd68eff3720c44596b512755eec0f16a7f42c3b97ed5057d3f2e726adca52dcf60001b610949565b6107dc7f29f36336b69053dddbe5f7b6e6781c61a327ffe89f2f88d93f1eb4f0bf76e04c60001b610949565b6000600167ffffffffffffffff8111156107f9576107f86111c8565b5b6040519080825280602002602001820160405280156108275781602001602082028036833780820191505090505b5090506108567f16a19010f3964e62c24fba1911ed24f27a0b7a30b9319184047562bf7ddb593660001b610949565b6108827ff8a37812264f4bbf7c2a7edc3986924ebf683321cecfd25b3998c78a5173a80e60001b610949565b670de0b6b3a76400007f0000000000000000000000000000000000000000000000000000000000000000866108b791906110a2565b6108c1919061112b565b816000815181106108d5576108d46111f7565b5b60200260200101818152505061090d7fff951d2c44d4dfd6efd4e3d922223cbe98fb0a4ee09cd3da946d05f1f2731da660001b610949565b6109397f12f47a427ba1e1590845b16286b1cdc3991735604733ad2a5e111ecb2bd5f01460001b610949565b8181935093505050935093915050565b50565b6109cd8363a9059cbb60e01b848460405160240161096b929190611235565b604051602081830303815290604052907bffffffffffffffffffffffffffffffffffffffffffffffffffffffff19166020820180517bffffffffffffffffffffffffffffffffffffffffffffffffffffffff83818316178352505050506109d2565b505050565b6000610a34826040518060400160405280602081526020017f5361666545524332303a206c6f772d6c6576656c2063616c6c206661696c65648152508573ffffffffffffffffffffffffffffffffffffffff16610a999092919063ffffffff16565b9050600081511115610a945780806020019051810190610a549190611296565b610a93576040517f08c379a0000000000000000000000000000000000000000000000000000000008152600401610a8a90611335565b60405180910390fd5b5b505050565b6060610aa88484600085610ab1565b90509392505050565b606082471015610af6576040517f08c379a0000000000000000000000000000000000000000000000000000000008152600401610aed906113c7565b60405180910390fd5b6000808673ffffffffffffffffffffffffffffffffffffffff168587604051610b1f9190611458565b60006040518083038185875af1925050503d8060008114610b5c576040519150601f19603f3d011682016040523d82523d6000602084013e610b61565b606091505b5091509150610b7287838387610b7e565b92505050949350505050565b60608315610be0576000835103610bd857610b9885610bf3565b610bd7576040517f08c379a0000000000000000000000000000000000000000000000000000000008152600401610bce906114bb565b60405180910390fd5b5b829050610beb565b610bea8383610c16565b5b949350505050565b6000808273ffffffffffffffffffffffffffffffffffffffff163b119050919050565b600082511115610c295781518083602001fd5b806040517f08c379a0000000000000000000000000000000000000000000000000000000008152600401610c5d9190611530565b60405180910390fd5b600080fd5b6000819050919050565b610c7e81610c6b565b8114610c8957600080fd5b50565b600081359050610c9b81610c75565b92915050565b600073ffffffffffffffffffffffffffffffffffffffff82169050919050565b6000610ccc82610ca1565b9050919050565b610cdc81610cc1565b8114610ce757600080fd5b50565b600081359050610cf981610cd3565b92915050565b600080600080600060a08688031215610d1b57610d1a610c66565b5b6000610d2988828901610c8c565b9550506020610d3a88828901610cea565b9450506040610d4b88828901610cea565b9350506060610d5c88828901610c8c565b9250506080610d6d88828901610c8c565b9150509295509295909350565b600080600060608486031215610d9357610d92610c66565b5b6000610da186828701610c8c565b9350506020610db286828701610cea565b9250506040610dc386828701610c8c565b9150509250925092565b600081519050919050565b600082825260208201905092915050565b6000819050602082019050919050565b6000819050919050565b6000610e1e610e19610e1484610ca1565b610df9565b610ca1565b9050919050565b6000610e3082610e03565b9050919050565b6000610e4282610e25565b9050919050565b610e5281610e37565b82525050565b6000610e648383610e49565b60208301905092915050565b6000602082019050919050565b6000610e8882610dcd565b610e928185610dd8565b9350610e9d83610de9565b8060005b83811015610ece578151610eb58882610e58565b9750610ec083610e70565b925050600181019050610ea1565b5085935050505092915050565b600081519050919050565b600082825260208201905092915050565b6000819050602082019050919050565b610f1081610c6b565b82525050565b6000610f228383610f07565b60208301905092915050565b6000602082019050919050565b6000610f4682610edb565b610f508185610ee6565b9350610f5b83610ef7565b8060005b83811015610f8c578151610f738882610f16565b9750610f7e83610f2e565b925050600181019050610f5f565b5085935050505092915050565b60006040820190508181036000830152610fb38185610e7d565b90508181036020830152610fc78184610f3b565b90509392505050565b600082825260208201905092915050565b7f4f6e6c79204d4356322063616e2063616c6c20746869732066756e6374696f6e60008201527f2e00000000000000000000000000000000000000000000000000000000000000602082015250565b600061103d602183610fd0565b915061104882610fe1565b604082019050919050565b6000602082019050818103600083015261106c81611030565b9050919050565b7f4e487b7100000000000000000000000000000000000000000000000000000000600052601160045260246000fd5b60006110ad82610c6b565b91506110b883610c6b565b9250817fffffffffffffffffffffffffffffffffffffffffffffffffffffffffffffffff04831182151516156110f1576110f0611073565b5b828202905092915050565b7f4e487b7100000000000000000000000000000000000000000000000000000000600052601260045260246000fd5b600061113682610c6b565b915061114183610c6b565b925082611151576111506110fc565b5b828204905092915050565b61116581610cc1565b82525050565b6000602082019050611180600083018461115c565b92915050565b60008151905061119581610c75565b92915050565b6000602082840312156111b1576111b0610c66565b5b60006111bf84828501611186565b91505092915050565b7f4e487b7100000000000000000000000000000000000000000000000000000000600052604160045260246000fd5b7f4e487b7100000000000000000000000000000000000000000000000000000000600052603260045260246000fd5b61122f81610c6b565b82525050565b600060408201905061124a600083018561115c565b6112576020830184611226565b9392505050565b60008115159050919050565b6112738161125e565b811461127e57600080fd5b50565b6000815190506112908161126a565b92915050565b6000602082840312156112ac576112ab610c66565b5b60006112ba84828501611281565b91505092915050565b7f5361666545524332303a204552433230206f7065726174696f6e20646964206e60008201527f6f74207375636365656400000000000000000000000000000000000000000000602082015250565b600061131f602a83610fd0565b915061132a826112c3565b604082019050919050565b6000602082019050818103600083015261134e81611312565b9050919050565b7f416464726573733a20696e73756666696369656e742062616c616e636520666f60008201527f722063616c6c0000000000000000000000000000000000000000000000000000602082015250565b60006113b1602683610fd0565b91506113bc82611355565b604082019050919050565b600060208201905081810360008301526113e0816113a4565b9050919050565b600081519050919050565b600081905092915050565b60005b8381101561141b578082015181840152602081019050611400565b60008484015250505050565b6000611432826113e7565b61143c81856113f2565b935061144c8185602086016113fd565b80840191505092915050565b60006114648284611427565b915081905092915050565b7f416464726573733a2063616c6c20746f206e6f6e2d636f6e7472616374000000600082015250565b60006114a5601d83610fd0565b91506114b08261146f565b602082019050919050565b600060208201905081810360008301526114d481611498565b9050919050565b600081519050919050565b6000601f19601f8301169050919050565b6000611502826114db565b61150c8185610fd0565b935061151c8185602086016113fd565b611525816114e6565b840191505092915050565b6000602082019050818103600083015261154a81846114f7565b90509291505056fea2646970667358221220397d952b3b781b5f2c5b17951040fd9c4bc806fa6db25daea37e169b07ade98264736f6c63430008100033",
  "linkReferences": {},
  "deployedLinkReferences": {}
}