{
  "_format": "hh-sol-artifact-1",
  "contractName": "WETH10",
  "sourceName": "contracts/WETH10.sol",
  "abi": [
    {
      "inputs": [],
      "stateMutability": "nonpayable",
      "type": "constructor"
    },
    {
      "anonymous": false,
      "inputs": [
        {
          "indexed": true,
          "internalType": "address",
          "name": "owner",
          "type": "address"
        },
        {
          "indexed": true,
          "internalType": "address",
          "name": "spender",
          "type": "address"
        },
        {
          "indexed": false,
          "internalType": "uint256",
          "name": "value",
          "type": "uint256"
        }
      ],
      "name": "Approval",
      "type": "event"
    },
    {
      "anonymous": false,
      "inputs": [
        {
          "indexed": true,
          "internalType": "address",
          "name": "from",
          "type": "address"
        },
        {
          "indexed": false,
          "internalType": "uint256",
          "name": "value",
          "type": "uint256"
        }
      ],
      "name": "Depoit",
      "type": "event"
    },
    {
      "anonymous": false,
      "inputs": [
        {
          "indexed": true,
          "internalType": "address",
          "name": "from",
          "type": "address"
        },
        {
          "indexed": true,
          "internalType": "address",
          "name": "to",
          "type": "address"
        },
        {
          "indexed": false,
          "internalType": "uint256",
          "name": "value",
          "type": "uint256"
        }
      ],
      "name": "Transfer",
      "type": "event"
    },
    {
      "anonymous": false,
      "inputs": [
        {
          "indexed": true,
          "internalType": "address",
          "name": "to",
          "type": "address"
        },
        {
          "indexed": false,
          "internalType": "uint256",
          "name": "amount",
          "type": "uint256"
        }
      ],
      "name": "Withdraw",
      "type": "event"
    },
    {
      "inputs": [
        {
          "internalType": "address",
          "name": "owner",
          "type": "address"
        },
        {
          "internalType": "address",
          "name": "spender",
          "type": "address"
        }
      ],
      "name": "allowance",
      "outputs": [
        {
          "internalType": "uint256",
          "name": "",
          "type": "uint256"
        }
      ],
      "stateMutability": "view",
      "type": "function"
    },
    {
      "inputs": [
        {
          "internalType": "address",
          "name": "spender",
          "type": "address"
        },
        {
          "internalType": "uint256",
          "name": "amount",
          "type": "uint256"
        }
      ],
      "name": "approve",
      "outputs": [
        {
          "internalType": "bool",
          "name": "",
          "type": "bool"
        }
      ],
      "stateMutability": "nonpayable",
      "type": "function"
    },
    {
      "inputs": [
        {
          "internalType": "address",
          "name": "owner",
          "type": "address"
        }
      ],
      "name": "balanceOf",
      "outputs": [
        {
          "internalType": "uint256",
          "name": "",
          "type": "uint256"
        }
      ],
      "stateMutability": "view",
      "type": "function"
    },
    {
      "inputs": [],
      "name": "decimals",
      "outputs": [
        {
          "internalType": "uint8",
          "name": "",
          "type": "uint8"
        }
      ],
      "stateMutability": "view",
      "type": "function"
    },
    {
      "inputs": [],
      "name": "deposit",
      "outputs": [],
      "stateMutability": "payable",
      "type": "function"
    },
    {
      "inputs": [
        {
          "internalType": "address",
          "name": "_owner",
          "type": "address"
        }
      ],
      "name": "getAllowance",
      "outputs": [
        {
          "internalType": "uint256",
          "name": "",
          "type": "uint256"
        }
      ],
      "stateMutability": "view",
      "type": "function"
    },
    {
      "inputs": [
        {
          "internalType": "address",
          "name": "_addr",
          "type": "address"
        }
      ],
      "name": "getBalance",
      "outputs": [
        {
          "internalType": "uint256",
          "name": "",
          "type": "uint256"
        }
      ],
      "stateMutability": "view",
      "type": "function"
    },
    {
      "inputs": [],
      "name": "name",
      "outputs": [
        {
          "internalType": "string",
          "name": "",
          "type": "string"
        }
      ],
      "stateMutability": "view",
      "type": "function"
    },
    {
      "inputs": [],
      "name": "symbol",
      "outputs": [
        {
          "internalType": "string",
          "name": "",
          "type": "string"
        }
      ],
      "stateMutability": "view",
      "type": "function"
    },
    {
      "inputs": [],
      "name": "totalSupply",
      "outputs": [
        {
          "internalType": "uint256",
          "name": "",
          "type": "uint256"
        }
      ],
      "stateMutability": "view",
      "type": "function"
    },
    {
      "inputs": [
        {
          "internalType": "address",
          "name": "to",
          "type": "address"
        },
        {
          "internalType": "uint256",
          "name": "value",
          "type": "uint256"
        }
      ],
      "name": "transfer",
      "outputs": [
        {
          "internalType": "bool",
          "name": "",
          "type": "bool"
        }
      ],
      "stateMutability": "nonpayable",
      "type": "function"
    },
    {
      "inputs": [
        {
          "internalType": "address",
          "name": "from",
          "type": "address"
        },
        {
          "internalType": "address",
          "name": "to",
          "type": "address"
        },
        {
          "internalType": "uint256",
          "name": "amount",
          "type": "uint256"
        }
      ],
      "name": "transferFrom",
      "outputs": [
        {
          "internalType": "bool",
          "name": "",
          "type": "bool"
        }
      ],
      "stateMutability": "nonpayable",
      "type": "function"
    },
    {
      "inputs": [
        {
          "internalType": "uint256",
          "name": "_amount",
          "type": "uint256"
        }
      ],
      "name": "withdraw",
      "outputs": [],
      "stateMutability": "nonpayable",
      "type": "function"
    },
    {
      "stateMutability": "payable",
      "type": "receive"
    }
  ],
  "bytecode": "0x60806040523480156200001157600080fd5b50620000467f1526edc9e37a906698822ea87e0e4c2adf71631144b4b4cbf88b67da0ec9045860001b6200015e60201b60201c565b6200007a7f612fc106edb0381e1cf07101a1beada0471a34ebff334defe5f56b952503cfdd60001b6200015e60201b60201c565b620000ae7fe8ad887de19e4632cf21e2bcb0f2edb64313da960494fe88fa6063f4a7a3cd3d60001b6200015e60201b60201c565b60086000806101000a81548160ff021916908360ff160217905550620000fd7f5342eeae2c1cccc2fdd43a3ce2627080de99dcdd6d879d3312846d7e5a6686d660001b6200015e60201b60201c565b620001317fb53a57a7a2fff4d938053743394090caa50120cb5970ddd5af2d162ee906f75a60001b6200015e60201b60201c565b7fffffffffffffffffffffffffffffffffffffffffffffffffffffffffffffffff60018190555062000161565b50565b61240c80620001716000396000f3fe6080604052600436106100c65760003560e01c806370a082311161007f578063d0e30db011610059578063d0e30db0146102cf578063dd62ed3e146102d9578063eb5a662e14610316578063f8b2cb4f1461035357610101565b806370a082311461022a57806395d89b4114610267578063a9059cbb1461029257610101565b806306fdde0314610106578063095ea7b31461013157806318160ddd1461016e57806323b872dd146101995780632e1a7d4d146101d6578063313ce567146101ff57610101565b36610101576100f77f5652ab5740b69a15215fd6cbf7055ac58c808e2fd97194c418cec144be74efed60001b610390565b6100ff610393565b005b600080fd5b34801561011257600080fd5b5061011b610515565b6040516101289190611eb0565b60405180910390f35b34801561013d57600080fd5b5061015860048036038101906101539190611f6b565b61062b565b6040516101659190611fc6565b60405180910390f35b34801561017a57600080fd5b506101836107db565b6040516101909190611ff0565b60405180910390f35b3480156101a557600080fd5b506101c060048036038101906101bb919061200b565b610869565b6040516101cd9190611fc6565b60405180910390f35b3480156101e257600080fd5b506101fd60048036038101906101f8919061205e565b610903565b005b34801561020b57600080fd5b50610214610c57565b60405161022191906120a7565b60405180910390f35b34801561023657600080fd5b50610251600480360381019061024c91906120c2565b610cf0565b60405161025e9190611ff0565b60405180910390f35b34801561027357600080fd5b5061027c610dbd565b6040516102899190611eb0565b60405180910390f35b34801561029e57600080fd5b506102b960048036038101906102b49190611f6b565b610ed3565b6040516102c69190611fc6565b60405180910390f35b6102d7610f6c565b005b3480156102e557600080fd5b5061030060048036038101906102fb91906120ef565b610ffa565b60405161030d9190611ff0565b60405180910390f35b34801561032257600080fd5b5061033d600480360381019061033891906120c2565b611105565b60405161034a9190611ff0565b60405180910390f35b34801561035f57600080fd5b5061037a600480360381019061037591906120c2565b61120f565b6040516103879190611ff0565b60405180910390f35b50565b6103bf7fa5162dc5b0b92a8b8b0e6b967cdceb3a713a507f2dc0e292a9c5abb9ae76cd9860001b610390565b6103eb7fafd977a4bc85ee37b6f2f0ab8e58edd17913057da7a1dc4adbe52883d6d6e5a760001b610390565b6104177fc361dbb1b5dfda74bee5fd950e585d8c0e10466a7137f18abbf08b2e0919f4d760001b610390565b34600260003373ffffffffffffffffffffffffffffffffffffffff1673ffffffffffffffffffffffffffffffffffffffff1681526020019081526020016000206000828254610466919061215e565b925050819055506104997f29df0391e0cb5911da4a4db52cfe24e3d79493dbd5d3c5cf1f8d668a2482084c60001b610390565b6104c57f84e9163e7e6871134806fbf821940edef3d7dfa0c8b8d9ae5bf813c2f989dfbe60001b610390565b3373ffffffffffffffffffffffffffffffffffffffff167f21af91d044dd3d1fbf49b8daff064c9a8b81529486a807a892b823332cb6bb683460405161050b9190611ff0565b60405180910390a2565b60606105437ff250767f73438b43e880a1c330588eb8b4a0791360f8b324e896d9ba99af794060001b610390565b61056f7f1d0ea6b5be0d0f77860b6e3f00bf8900f49cb7de33f5056a5a129c2662fddacb60001b610390565b61059b7f2c6d259284ab4be55d1272a27c0eab31cd798db1b534b6bb535cff883026331660001b610390565b600480546105a8906121c1565b80601f01602080910402602001604051908101604052809291908181526020018280546105d4906121c1565b80156106215780601f106105f657610100808354040283529160200191610621565b820191906000526020600020905b81548152906001019060200180831161060457829003601f168201915b5050505050905090565b60006106597ff506677c8c80192a8a3be5fb7aae630e7f82686fca140f5be331a9042cb7dd7560001b610390565b6106857f751c0664fccb2109aab94e219a171824ac78a971bde1c744140ccf335fe4692060001b610390565b6106b17f7310627ff0459a4eb8514be44bae38d4aa664433f93ee5d0cfac70899379579460001b610390565b6106bc8333846112dc565b6106e87f6e6290637712ada1e6d4f3383eebfc37289f7113f57e49e1efbb62b4c56c34c060001b610390565b6107147f2e926495a6fbd2573bcfa0634bcf99c352286e6336f3d417ca97cecec14eb82660001b610390565b8273ffffffffffffffffffffffffffffffffffffffff163373ffffffffffffffffffffffffffffffffffffffff167f8c5be1e5ebec7d5bd14f71427d1e84f3dd0314c0f7b2291e5b200ac8c7c3b925846040516107719190611ff0565b60405180910390a36107a57fe7249f8b4089f62181c71f512db4bbd52120b69f9e052e377cd4c6e11581b64860001b610390565b6107d17f9dc77deab90e7a0193c4ef452eb3ac537bfc4abdbb814f61abb722e5efe0719d60001b610390565b6001905092915050565b60006108097f5f650f2f6d3ed73c1695f9ed4a288aed514792deea256deef0b1a3b5e6ba732e60001b610390565b6108357fd06a1bafc9fddef63c1011fdcfade4ebf5bbb744feeaebbb8ec2a17e12c0974b60001b610390565b6108617f8d0896ea12be49e0f66c3aaf108bd26d802297059462e1c83ad03b1e0af5aab560001b610390565b600154905090565b60006108977f5fedbcc5dbb5da54bad94815f1ce30324abe18a06181f6d1533a7f7275cfbfdf60001b610390565b6108c37f2213b5e2b87510b0c34de7ac0f977738af221cbaea47e1c1a83ebdac621e9efa60001b610390565b6108ef7fc4fb1b770c7e10054bcdfa07888fb63623a3c4bad749cbc7dbde74a432e1169b60001b610390565b6108fa848484611624565b90509392505050565b61092f7f1df0087bab28477a874f755063c8d66426538422eb93a43af99eb0009ddb2ebb60001b610390565b61095b7f96a95bddcd5c50d9d8c9958f551e335384e7b555c54be762fd5a4b183cd16f3860001b610390565b6109877f66869fd83fdc08ec6c7b67d135db629e1d2881ba8269a2d26445b1d10c262f1560001b610390565b6109b37fc39f0384b734cba61b557aaa2963dcce5cd7deba4510b3976c8e705168ca127760001b610390565b600260003373ffffffffffffffffffffffffffffffffffffffff1673ffffffffffffffffffffffffffffffffffffffff16815260200190815260200160002054811115610a35576040517f08c379a0000000000000000000000000000000000000000000000000000000008152600401610a2c9061223e565b60405180910390fd5b610a617f9735babe48d1fd7c2528e63db71946cd6ba000a2591746d701053068d2d7864360001b610390565b610a8d7f2106370a9d715525ed8f2eda3ad4a09ec68fec62ace34b2bd426f76637f4280860001b610390565b610ab97f87c7ec42ad4171e2cb2a7be9c176dd871f1715a60b6db4164ce458d51330765c60001b610390565b80600260003373ffffffffffffffffffffffffffffffffffffffff1673ffffffffffffffffffffffffffffffffffffffff1681526020019081526020016000206000828254610b08919061225e565b92505081905550610b3b7f157c9ba739e7f8fc7c1d8e3089350bfcf026fccff52e430e375b4b3e0cf1ef0860001b610390565b610b677f8dc8b5db350e667231ddda95abb98d306d155a0488bc3ac0acee6bdeaf38315b60001b610390565b3373ffffffffffffffffffffffffffffffffffffffff166108fc829081150290604051600060405180830381858888f19350505050158015610bad573d6000803e3d6000fd5b50610bda7f3158c4911e07b0e828c2a77cca19b75a68e864de85d2142ee063eb968ea2975a60001b610390565b610c067ff6dd2702a19d5dd2f040ab4f264dbb188ce6bb6fa132dd7614d390e8bf44833560001b610390565b3373ffffffffffffffffffffffffffffffffffffffff167f884edad9ce6fa2440d8a54cc123490eb96d2768479d49ff9c7366125a942436482604051610c4c9190611ff0565b60405180910390a250565b6000610c857f47390e1e1ca9a5135f56bfc206f27385dd5d8801333d549b4963abd9d7ba64b660001b610390565b610cb17fb450c7979c14dd6d5caf14d02040a8f88a1e32f97c23b669e0b3b28ad5cdb97660001b610390565b610cdd7f90bb8470a8ecf731961aec159858ac1ddc8758b0acca3910f9ec22e75153b2f260001b610390565b60008054906101000a900460ff16905090565b6000610d1e7f8145760a4393c2686270d2c482dcf9da7630aafa2af8c19f2fb65a03b0e6b82960001b610390565b610d4a7f049d09d7a1abb0efe68cc627403dc57b1c8793365da21ed5ed104514049cc35f60001b610390565b610d767f43bcc274ee53575f18045a458cc6968a9047228f52271e0a72a85c4da91c877a60001b610390565b600260008373ffffffffffffffffffffffffffffffffffffffff1673ffffffffffffffffffffffffffffffffffffffff168152602001908152602001600020549050919050565b6060610deb7f14c4d527b5552352c3a2a8ea4777b7bfe125cc51f47d00bed9358b74e4f8405060001b610390565b610e177f57af851663da339267e4c3d2bf05550e3be6fc2a5e9e745b56b96a6ad51d037060001b610390565b610e437f127211e9c60c8a39a048a9d2b3112f8ce0cfb9eacc1c157f99de3ea63a20c6be60001b610390565b60058054610e50906121c1565b80601f0160208091040260200160405190810160405280929190818152602001828054610e7c906121c1565b8015610ec95780601f10610e9e57610100808354040283529160200191610ec9565b820191906000526020600020905b815481529060010190602001808311610eac57829003601f168201915b5050505050905090565b6000610f017fab2ebb94baf45f54cc343e5a06ff25f0d67b3e5aa357f06669d1a5006a7facfa60001b610390565b610f2d7f5f853b5f74ee26bb55ea8f5c39643e5eb5600323a6fbbb8e98e634f988479b6460001b610390565b610f597ff88bd343e1ce379b8f4dd1df6e1e4c4ee0b17d2972d7a3d9e36ff39ded34f6cd60001b610390565b610f64338484611624565b905092915050565b610f987fc02c79af54fe1db0df0014fb9f6a8671ac4bfda2473d127e4ab349554507b32c60001b610390565b610fc47ffbac382f09e698dd80c5b15834a77b67f2b24d1413bd47a8039e67f31d1890a860001b610390565b610ff07f6555242bc6242758227796150805e6f25a9967f4dd6781a79cd03f87cad3b67060001b610390565b610ff8610393565b565b60006110287fa25d763c1a11398fb85cc97f5c36f9e49968d960b1f6b92e470c721bb4cffd4160001b610390565b6110547f84819e863cd1667fac5e2e8cbc629bf02d933604ed4288c9664d4f76467f780960001b610390565b6110807f48c9119c4066102212a7ae903a55ef7917604e8db6de88767f8a22d71382d71260001b610390565b600360008473ffffffffffffffffffffffffffffffffffffffff1673ffffffffffffffffffffffffffffffffffffffff16815260200190815260200160002060008373ffffffffffffffffffffffffffffffffffffffff1673ffffffffffffffffffffffffffffffffffffffff16815260200190815260200160002054905092915050565b60006111337f2eba2437b7cd4b1a628268484bf9008aea65f8d6c03070df6aa3954c38dc97d160001b610390565b61115f7fea64c6f8682010b7dc79013dab635943d2a67cfab439a9057264aff1119264bd60001b610390565b61118b7fe87b613eced3e515ae68b236561fe9f1ce90839986c884c38a080b410394802660001b610390565b600360008373ffffffffffffffffffffffffffffffffffffffff1673ffffffffffffffffffffffffffffffffffffffff16815260200190815260200160002060003373ffffffffffffffffffffffffffffffffffffffff1673ffffffffffffffffffffffffffffffffffffffff168152602001908152602001600020549050919050565b600061123d7f1747146dad8ffb6794180ab4c58f0625d0789476b844f82ed3f46d469a83469560001b610390565b6112697fe599bcf28f60a4f1b1aac4d9f03725d54cda8b7158ac36f4cb8fae1fe53e63c960001b610390565b6112957fb56167b7ec47d814b0ec2d66c8c12661c36c3178a9f5ff518a6d2dc35451ecb260001b610390565b600260008373ffffffffffffffffffffffffffffffffffffffff1673ffffffffffffffffffffffffffffffffffffffff168152602001908152602001600020549050919050565b6113087f09d9682b244b980e80ef160c3ea2a877d899d6fdffd0ecd3e64fe1b904ab0a0d60001b610390565b6113347fece76830615871088de0f186acffd63146527e54e81ce56a0296774a8a5ab1af60001b610390565b6113607fc5e2405325a191b222571f80b57a73ed062a24bfc5edef14bfe3c418276248ac60001b610390565b61138c7fa59a90330b0aaa647c95bb5d19c0b158b53ffc8ae9fee469159e2c7a874be80b60001b610390565b600073ffffffffffffffffffffffffffffffffffffffff168373ffffffffffffffffffffffffffffffffffffffff16036113fb576040517f08c379a00000000000000000000000000000000000000000000000000000000081526004016113f2906122de565b60405180910390fd5b6114277f63e923991be7f5cfddfa5524db38ddbe3e41fb78ec610db588fa8822d879a28760001b610390565b6114537f16b6766db7460d565d62e64404c741b235de33a4fac5350a41625249a23c277d60001b610390565b61147f7f9b11af3ba152dcd594297667bc6874fc42d9f4db2967932b2ed78bf13bbdc3ca60001b610390565b6114ab7f25662790119f4e9c3cdb5b138d23c58e6b2d02c793c583774fa7ea65dd0568fa60001b610390565b600073ffffffffffffffffffffffffffffffffffffffff168273ffffffffffffffffffffffffffffffffffffffff160361151a576040517f08c379a00000000000000000000000000000000000000000000000000000000081526004016115119061234a565b60405180910390fd5b6115467f47b794671f31547dc504ba3a2367240d01a9f989d91125344a75aadb7f14467c60001b610390565b6115727f6f6e1627c211a43c46a96745ca5925f7714de111e8d5faea00b07206a1eb9ccc60001b610390565b61159e7f1e994a6103e4ca20549ce59cb6cf47eea3b4f44cff00ae6b2b0878323fe247aa60001b610390565b80600360008473ffffffffffffffffffffffffffffffffffffffff1673ffffffffffffffffffffffffffffffffffffffff16815260200190815260200160002060008573ffffffffffffffffffffffffffffffffffffffff1673ffffffffffffffffffffffffffffffffffffffff16815260200190815260200160002081905550505050565b60006116527ff0de0531308b476425cae954f945da5016ac84e7702eb77e9cbfd6834f442afc60001b610390565b61167e7fb48b10f37bfe3f7e8e407a8a65c701d67e6e273fc05a2c62dbfeaf7f9efaff7460001b610390565b6116aa7f5d24b785cf13fd7f996fab5afbf478861b081f2c0ccb55a06dc6d7e39a41464b60001b610390565b3373ffffffffffffffffffffffffffffffffffffffff168473ffffffffffffffffffffffffffffffffffffffff16146118e0576117097fa54e6308d4725912528bce22169aa5ffff265b602d1894ba37649840cad94f4b60001b610390565b6117357f71132143e4e0d637758da0b908b883ab1f004e758ad9b4ca54ed036e15d0b8d660001b610390565b6117617f0b949b2113eb09f1bd7a28fcd771b3752e5926cb261f55af4ae0bd670d2ea67160001b610390565b61178d7fa9eca8a0ee9935749b473341759abb03e57c09da3cf449a2bd5ccc8f49fa78af60001b610390565b81600360008673ffffffffffffffffffffffffffffffffffffffff1673ffffffffffffffffffffffffffffffffffffffff16815260200190815260200160002060003373ffffffffffffffffffffffffffffffffffffffff1673ffffffffffffffffffffffffffffffffffffffff16815260200190815260200160002054101561184c576040517f08c379a0000000000000000000000000000000000000000000000000000000008152600401611843906123b6565b60405180910390fd5b6118787fdd86d5fde5c74dc9cccb10ac1df1c5603200fd6cf43c56fe22050c2ec8bcd8b160001b610390565b6118a47fe16bdb5bc504cd495511b14a8810e482c8bfbeee11d5e8af84deb73c4a1f85d160001b610390565b6118d07f0d7125a172e18f8bf95113ff8d35226a4dc985dea626dae792d04b442841896b60001b610390565b6118db338584611b89565b61190d565b61190c7f5b856e05cb7cac4dec6170d950eb1d21146453592e2005dbb1c400da21c2a91c60001b610390565b5b6119397f2d954447257bb80df8307c221dd4eca34e6f26d5c634994c166ef10e891e390060001b610390565b6119657f7194480a9f6223ae28b52147de180ede4c4ca2741287697cdd74464ad395f2f660001b610390565b81600260008673ffffffffffffffffffffffffffffffffffffffff1673ffffffffffffffffffffffffffffffffffffffff16815260200190815260200160002060008282546119b4919061225e565b925050819055506119e77f901f40122ae4c906bb4341cbdfe659f8b4e40cf9c5872bad9f07d9da3f861a1260001b610390565b611a137f16f2e89d3a2347656c503da80e35950614d59c33eae95ba18e3ae0dae59759e860001b610390565b81600260008573ffffffffffffffffffffffffffffffffffffffff1673ffffffffffffffffffffffffffffffffffffffff1681526020019081526020016000206000828254611a62919061215e565b92505081905550611a957f8b1efb930fd8a999de33bede9e35c7b2a48c060240de41be65870782c7e2d75460001b610390565b611ac17f465a61798e7358e8b11f5bcd720578a0f72b6af3abade7ba9bc38fb2539d03f960001b610390565b8273ffffffffffffffffffffffffffffffffffffffff168473ffffffffffffffffffffffffffffffffffffffff167fddf252ad1be2c89b69c2b068fc378daa952ba7f163c4a11628f55a4df523b3ef84604051611b1e9190611ff0565b60405180910390a3611b527ff34c3f241f7796738b55ccd317c7a7eb7b1ee8c16123d88d7b9ea7ad5392958260001b610390565b611b7e7f86b89e1603a2254d0105d273fb655ef3d7d196ac1137e8d9a29b87980906c31c60001b610390565b600190509392505050565b611bb57f42fb10c5f7f7b9f105c15ff11371d11cf1d4119a9f144032170e34babc24b9a160001b610390565b611be17f73dc499ab91acfa49f990a417a7bef5997741b43c77d5f659996655d207033ed60001b610390565b611c0d7fa457ff8fd4ea68db6110bd3d1f5ef8b52eb9ba5807317cf36abcad205f97515160001b610390565b7fffffffffffffffffffffffffffffffffffffffffffffffffffffffffffffffff600360008473ffffffffffffffffffffffffffffffffffffffff1673ffffffffffffffffffffffffffffffffffffffff16815260200190815260200160002060008573ffffffffffffffffffffffffffffffffffffffff1673ffffffffffffffffffffffffffffffffffffffff1681526020019081526020016000205414611dee57611cdc7f5be3cbfc8203e38736a9b94d31f62bb4da8396807d20479f80e22d7d36c8031e60001b610390565b611d087fb87fddf3609b43538cb458754c4f89668e8951e2172b8d4fe66a341253c827d960001b610390565b611d347ff68bc32a97600bde5509d2838269bb4fe2107ada061c8e71788a71aa9cd084fe60001b610390565b611d607f4db97d36295e45ad8059088db3a7a6d5e8ea1d0bffb79183c595fa114566cd4060001b610390565b611de9838383600360008773ffffffffffffffffffffffffffffffffffffffff1673ffffffffffffffffffffffffffffffffffffffff16815260200190815260200160002060008873ffffffffffffffffffffffffffffffffffffffff1673ffffffffffffffffffffffffffffffffffffffff16815260200190815260200160002054036112dc565b611e1b565b611e1a7fefcefaac0100b4620270474e7c958a9cac169e1ec7907fbe477bfa5d33ffa98560001b610390565b5b505050565b600081519050919050565b600082825260208201905092915050565b60005b83811015611e5a578082015181840152602081019050611e3f565b60008484015250505050565b6000601f19601f8301169050919050565b6000611e8282611e20565b611e8c8185611e2b565b9350611e9c818560208601611e3c565b611ea581611e66565b840191505092915050565b60006020820190508181036000830152611eca8184611e77565b905092915050565b600080fd5b600073ffffffffffffffffffffffffffffffffffffffff82169050919050565b6000611f0282611ed7565b9050919050565b611f1281611ef7565b8114611f1d57600080fd5b50565b600081359050611f2f81611f09565b92915050565b6000819050919050565b611f4881611f35565b8114611f5357600080fd5b50565b600081359050611f6581611f3f565b92915050565b60008060408385031215611f8257611f81611ed2565b5b6000611f9085828601611f20565b9250506020611fa185828601611f56565b9150509250929050565b60008115159050919050565b611fc081611fab565b82525050565b6000602082019050611fdb6000830184611fb7565b92915050565b611fea81611f35565b82525050565b60006020820190506120056000830184611fe1565b92915050565b60008060006060848603121561202457612023611ed2565b5b600061203286828701611f20565b935050602061204386828701611f20565b925050604061205486828701611f56565b9150509250925092565b60006020828403121561207457612073611ed2565b5b600061208284828501611f56565b91505092915050565b600060ff82169050919050565b6120a18161208b565b82525050565b60006020820190506120bc6000830184612098565b92915050565b6000602082840312156120d8576120d7611ed2565b5b60006120e684828501611f20565b91505092915050565b6000806040838503121561210657612105611ed2565b5b600061211485828601611f20565b925050602061212585828601611f20565b9150509250929050565b7f4e487b7100000000000000000000000000000000000000000000000000000000600052601160045260246000fd5b600061216982611f35565b915061217483611f35565b925082820190508082111561218c5761218b61212f565b5b92915050565b7f4e487b7100000000000000000000000000000000000000000000000000000000600052602260045260246000fd5b600060028204905060018216806121d957607f821691505b6020821081036121ec576121eb612192565b5b50919050565b7f6e6f7420656e6f756768206d6f6e657900000000000000000000000000000000600082015250565b6000612228601083611e2b565b9150612233826121f2565b602082019050919050565b600060208201905081810360008301526122578161221b565b9050919050565b600061226982611f35565b915061227483611f35565b925082820390508181111561228c5761228b61212f565b5b92915050565b7f45524332303a20696e76616c6964207370656e64657220616464726573730000600082015250565b60006122c8601e83611e2b565b91506122d382612292565b602082019050919050565b600060208201905081810360008301526122f7816122bb565b9050919050565b7f45524332303a20696e76616c6964206f776e6572206164647265737300000000600082015250565b6000612334601c83611e2b565b915061233f826122fe565b602082019050919050565b6000602082019050818103600083015261236381612327565b9050919050565b7f45524332303a696e73756666696369656e7420616c6c6f77616e636500000000600082015250565b60006123a0601c83611e2b565b91506123ab8261236a565b602082019050919050565b600060208201905081810360008301526123cf81612393565b905091905056fea2646970667358221220793a5ccaa101a4c6b312870fc7a71b4383047fb008c4d8f2c11cd5f7f741ec3b64736f6c63430008100033",
  "linkReferences": {},
  "deployedLinkReferences": {}
}