{
  "_format": "hh-sol-artifact-1",
  "contractName": "WETH10",
  "sourceName": "contracts/WETH10.sol",
  "abi": [
    {
      "inputs": [],
      "stateMutability": "nonpayable",
      "type": "constructor"
    },
    {
      "anonymous": false,
      "inputs": [
        {
          "indexed": true,
          "internalType": "address",
          "name": "owner",
          "type": "address"
        },
        {
          "indexed": true,
          "internalType": "address",
          "name": "spender",
          "type": "address"
        },
        {
          "indexed": false,
          "internalType": "uint256",
          "name": "value",
          "type": "uint256"
        }
      ],
      "name": "Approval",
      "type": "event"
    },
    {
      "anonymous": false,
      "inputs": [
        {
          "indexed": true,
          "internalType": "address",
          "name": "from",
          "type": "address"
        },
        {
          "indexed": false,
          "internalType": "uint256",
          "name": "value",
          "type": "uint256"
        }
      ],
      "name": "Depoit",
      "type": "event"
    },
    {
      "anonymous": false,
      "inputs": [
        {
          "indexed": true,
          "internalType": "address",
          "name": "from",
          "type": "address"
        },
        {
          "indexed": true,
          "internalType": "address",
          "name": "to",
          "type": "address"
        },
        {
          "indexed": false,
          "internalType": "uint256",
          "name": "value",
          "type": "uint256"
        }
      ],
      "name": "Transfer",
      "type": "event"
    },
    {
      "anonymous": false,
      "inputs": [
        {
          "indexed": true,
          "internalType": "address",
          "name": "to",
          "type": "address"
        },
        {
          "indexed": false,
          "internalType": "uint256",
          "name": "amount",
          "type": "uint256"
        }
      ],
      "name": "Withdraw",
      "type": "event"
    },
    {
      "inputs": [
        {
          "internalType": "address",
          "name": "owner",
          "type": "address"
        },
        {
          "internalType": "address",
          "name": "spender",
          "type": "address"
        }
      ],
      "name": "allowance",
      "outputs": [
        {
          "internalType": "uint256",
          "name": "",
          "type": "uint256"
        }
      ],
      "stateMutability": "view",
      "type": "function"
    },
    {
      "inputs": [
        {
          "internalType": "address",
          "name": "spender",
          "type": "address"
        },
        {
          "internalType": "uint256",
          "name": "amount",
          "type": "uint256"
        }
      ],
      "name": "approve",
      "outputs": [
        {
          "internalType": "bool",
          "name": "",
          "type": "bool"
        }
      ],
      "stateMutability": "nonpayable",
      "type": "function"
    },
    {
      "inputs": [
        {
          "internalType": "address",
          "name": "owner",
          "type": "address"
        }
      ],
      "name": "balanceOf",
      "outputs": [
        {
          "internalType": "uint256",
          "name": "",
          "type": "uint256"
        }
      ],
      "stateMutability": "view",
      "type": "function"
    },
    {
      "inputs": [],
      "name": "decimals",
      "outputs": [
        {
          "internalType": "uint8",
          "name": "",
          "type": "uint8"
        }
      ],
      "stateMutability": "view",
      "type": "function"
    },
    {
      "inputs": [],
      "name": "deposit",
      "outputs": [],
      "stateMutability": "payable",
      "type": "function"
    },
    {
      "inputs": [
        {
          "internalType": "address",
          "name": "_owner",
          "type": "address"
        }
      ],
      "name": "getAllowance",
      "outputs": [
        {
          "internalType": "uint256",
          "name": "",
          "type": "uint256"
        }
      ],
      "stateMutability": "view",
      "type": "function"
    },
    {
      "inputs": [
        {
          "internalType": "address",
          "name": "_addr",
          "type": "address"
        }
      ],
      "name": "getBalance",
      "outputs": [
        {
          "internalType": "uint256",
          "name": "",
          "type": "uint256"
        }
      ],
      "stateMutability": "view",
      "type": "function"
    },
    {
      "inputs": [],
      "name": "name",
      "outputs": [
        {
          "internalType": "string",
          "name": "",
          "type": "string"
        }
      ],
      "stateMutability": "view",
      "type": "function"
    },
    {
      "inputs": [],
      "name": "symbol",
      "outputs": [
        {
          "internalType": "string",
          "name": "",
          "type": "string"
        }
      ],
      "stateMutability": "view",
      "type": "function"
    },
    {
      "inputs": [],
      "name": "totalSupply",
      "outputs": [
        {
          "internalType": "uint256",
          "name": "",
          "type": "uint256"
        }
      ],
      "stateMutability": "view",
      "type": "function"
    },
    {
      "inputs": [
        {
          "internalType": "address",
          "name": "to",
          "type": "address"
        },
        {
          "internalType": "uint256",
          "name": "value",
          "type": "uint256"
        }
      ],
      "name": "transfer",
      "outputs": [
        {
          "internalType": "bool",
          "name": "",
          "type": "bool"
        }
      ],
      "stateMutability": "nonpayable",
      "type": "function"
    },
    {
      "inputs": [
        {
          "internalType": "address",
          "name": "from",
          "type": "address"
        },
        {
          "internalType": "address",
          "name": "to",
          "type": "address"
        },
        {
          "internalType": "uint256",
          "name": "amount",
          "type": "uint256"
        }
      ],
      "name": "transferFrom",
      "outputs": [
        {
          "internalType": "bool",
          "name": "",
          "type": "bool"
        }
      ],
      "stateMutability": "nonpayable",
      "type": "function"
    },
    {
      "inputs": [
        {
          "internalType": "uint256",
          "name": "_amount",
          "type": "uint256"
        }
      ],
      "name": "withdraw",
      "outputs": [],
      "stateMutability": "nonpayable",
      "type": "function"
    },
    {
      "stateMutability": "payable",
      "type": "receive"
    }
  ],
  "bytecode": "0x608060405234801561001057600080fd5b506000805460ff1916600817905560001960015561097d806100336000396000f3fe6080604052600436106100c65760003560e01c806370a082311161007f578063d0e30db011610059578063d0e30db014610221578063dd62ed3e14610229578063eb5a662e1461026f578063f8b2cb4f146101b657600080fd5b806370a08231146101b657806395d89b41146101ec578063a9059cbb1461020157600080fd5b806306fdde03146100da578063095ea7b31461010557806318160ddd1461013557806323b872dd146101545780632e1a7d4d14610174578063313ce5671461019457600080fd5b366100d5576100d36102b0565b005b600080fd5b3480156100e657600080fd5b506100ef61030b565b6040516100fc919061079a565b60405180910390f35b34801561011157600080fd5b50610125610120366004610804565b61039d565b60405190151581526020016100fc565b34801561014157600080fd5b506001545b6040519081526020016100fc565b34801561016057600080fd5b5061012561016f36600461082e565b6103f4565b34801561018057600080fd5b506100d361018f36600461086a565b610409565b3480156101a057600080fd5b5060005460405160ff90911681526020016100fc565b3480156101c257600080fd5b506101466101d1366004610883565b6001600160a01b031660009081526002602052604090205490565b3480156101f857600080fd5b506100ef6104ea565b34801561020d57600080fd5b5061012561021c366004610804565b6104f9565b6100d361050d565b34801561023557600080fd5b5061014661024436600461089e565b6001600160a01b03918216600090815260036020908152604080832093909416825291909152205490565b34801561027b57600080fd5b5061014661028a366004610883565b6001600160a01b0316600090815260036020908152604080832033845290915290205490565b33600090815260026020526040812080543492906102cf9084906108e7565b909155505060405134815233907f21af91d044dd3d1fbf49b8daff064c9a8b81529486a807a892b823332cb6bb689060200160405180910390a2565b60606004805461031a906108fa565b80601f0160208091040260200160405190810160405280929190818152602001828054610346906108fa565b80156103935780601f1061036857610100808354040283529160200191610393565b820191906000526020600020905b81548152906001019060200180831161037657829003601f168201915b5050505050905090565b60006103aa833384610517565b6040518281526001600160a01b0384169033907f8c5be1e5ebec7d5bd14f71427d1e84f3dd0314c0f7b2291e5b200ac8c7c3b9259060200160405180910390a35060015b92915050565b60006104018484846105ee565b949350505050565b336000908152600260205260409020548111156104605760405162461bcd60e51b815260206004820152601060248201526f6e6f7420656e6f756768206d6f6e657960801b60448201526064015b60405180910390fd5b336000908152600260205260408120805483929061047f908490610934565b9091555050604051339082156108fc029083906000818181858888f193505050501580156104b1573d6000803e3d6000fd5b5060405181815233907f884edad9ce6fa2440d8a54cc123490eb96d2768479d49ff9c7366125a94243649060200160405180910390a250565b60606005805461031a906108fa565b60006105063384846105ee565b9392505050565b6105156102b0565b565b6001600160a01b03831661056d5760405162461bcd60e51b815260206004820152601e60248201527f45524332303a20696e76616c6964207370656e646572206164647265737300006044820152606401610457565b6001600160a01b0382166105c35760405162461bcd60e51b815260206004820152601c60248201527f45524332303a20696e76616c6964206f776e65722061646472657373000000006044820152606401610457565b6001600160a01b03918216600090815260036020908152604080832095909416825293909352912055565b60006001600160a01b038416331461067e576001600160a01b03841660009081526003602090815260408083203384529091529020548211156106735760405162461bcd60e51b815260206004820152601c60248201527f45524332303a696e73756666696369656e7420616c6c6f77616e6365000000006044820152606401610457565b61067e338584610731565b6001600160a01b038416600090815260026020526040812080548492906106a6908490610934565b90915550506001600160a01b038316600090815260026020526040812080548492906106d39084906108e7565b92505081905550826001600160a01b0316846001600160a01b03167fddf252ad1be2c89b69c2b068fc378daa952ba7f163c4a11628f55a4df523b3ef8460405161071f91815260200190565b60405180910390a35060019392505050565b6001600160a01b0380831660009081526003602090815260408083209387168352929052205460001914610795576001600160a01b038083166000908152600360209081526040808320938716835292905220546107959084908490849003610517565b505050565b600060208083528351808285015260005b818110156107c7578581018301518582016040015282016107ab565b506000604082860101526040601f19601f8301168501019250505092915050565b80356001600160a01b03811681146107ff57600080fd5b919050565b6000806040838503121561081757600080fd5b610820836107e8565b946020939093013593505050565b60008060006060848603121561084357600080fd5b61084c846107e8565b925061085a602085016107e8565b9150604084013590509250925092565b60006020828403121561087c57600080fd5b5035919050565b60006020828403121561089557600080fd5b610506826107e8565b600080604083850312156108b157600080fd5b6108ba836107e8565b91506108c8602084016107e8565b90509250929050565b634e487b7160e01b600052601160045260246000fd5b808201808211156103ee576103ee6108d1565b600181811c9082168061090e57607f821691505b60208210810361092e57634e487b7160e01b600052602260045260246000fd5b50919050565b818103818111156103ee576103ee6108d156fea2646970667358221220ac5551947afefc66b4e9f8ce0b5625726fb14e85e5b9f2b536d6a2c6ad2274af64736f6c63430008100033",
  "linkReferences": {},
  "deployedLinkReferences": {}
}