{
  "_format": "hh-sol-artifact-1",
  "contractName": "UniswapERC20",
  "sourceName": "contracts/UniswapPair.sol",
  "abi": [
    {
      "inputs": [],
      "stateMutability": "nonpayable",
      "type": "constructor"
    },
    {
      "anonymous": false,
      "inputs": [
        {
          "indexed": true,
          "internalType": "address",
          "name": "owner",
          "type": "address"
        },
        {
          "indexed": true,
          "internalType": "address",
          "name": "spender",
          "type": "address"
        },
        {
          "indexed": false,
          "internalType": "uint256",
          "name": "value",
          "type": "uint256"
        }
      ],
      "name": "Approval",
      "type": "event"
    },
    {
      "anonymous": false,
      "inputs": [
        {
          "indexed": true,
          "internalType": "address",
          "name": "from",
          "type": "address"
        },
        {
          "indexed": true,
          "internalType": "address",
          "name": "to",
          "type": "address"
        },
        {
          "indexed": false,
          "internalType": "uint256",
          "name": "value",
          "type": "uint256"
        }
      ],
      "name": "Transfer",
      "type": "event"
    },
    {
      "inputs": [],
      "name": "DOMAIN_SEPARATOR",
      "outputs": [
        {
          "internalType": "bytes32",
          "name": "",
          "type": "bytes32"
        }
      ],
      "stateMutability": "view",
      "type": "function"
    },
    {
      "inputs": [],
      "name": "PERMIT_TYPEHASH",
      "outputs": [
        {
          "internalType": "bytes32",
          "name": "",
          "type": "bytes32"
        }
      ],
      "stateMutability": "view",
      "type": "function"
    },
    {
      "inputs": [
        {
          "internalType": "address",
          "name": "",
          "type": "address"
        }
      ],
      "name": "_nounces",
      "outputs": [
        {
          "internalType": "uint256",
          "name": "",
          "type": "uint256"
        }
      ],
      "stateMutability": "view",
      "type": "function"
    },
    {
      "inputs": [
        {
          "internalType": "address",
          "name": "",
          "type": "address"
        },
        {
          "internalType": "address",
          "name": "",
          "type": "address"
        }
      ],
      "name": "allowance",
      "outputs": [
        {
          "internalType": "uint256",
          "name": "",
          "type": "uint256"
        }
      ],
      "stateMutability": "view",
      "type": "function"
    },
    {
      "inputs": [
        {
          "internalType": "address",
          "name": "spender",
          "type": "address"
        },
        {
          "internalType": "uint256",
          "name": "amount",
          "type": "uint256"
        }
      ],
      "name": "approve",
      "outputs": [
        {
          "internalType": "bool",
          "name": "",
          "type": "bool"
        }
      ],
      "stateMutability": "nonpayable",
      "type": "function"
    },
    {
      "inputs": [
        {
          "internalType": "address",
          "name": "",
          "type": "address"
        }
      ],
      "name": "balanceOf",
      "outputs": [
        {
          "internalType": "uint256",
          "name": "",
          "type": "uint256"
        }
      ],
      "stateMutability": "view",
      "type": "function"
    },
    {
      "inputs": [],
      "name": "decimals",
      "outputs": [
        {
          "internalType": "uint8",
          "name": "",
          "type": "uint8"
        }
      ],
      "stateMutability": "view",
      "type": "function"
    },
    {
      "inputs": [],
      "name": "name",
      "outputs": [
        {
          "internalType": "string",
          "name": "",
          "type": "string"
        }
      ],
      "stateMutability": "view",
      "type": "function"
    },
    {
      "inputs": [
        {
          "internalType": "address",
          "name": "owner",
          "type": "address"
        }
      ],
      "name": "nounces",
      "outputs": [
        {
          "internalType": "uint256",
          "name": "",
          "type": "uint256"
        }
      ],
      "stateMutability": "view",
      "type": "function"
    },
    {
      "inputs": [
        {
          "internalType": "address",
          "name": "owner",
          "type": "address"
        },
        {
          "internalType": "address",
          "name": "spender",
          "type": "address"
        },
        {
          "internalType": "uint256",
          "name": "value",
          "type": "uint256"
        },
        {
          "internalType": "uint256",
          "name": "deadline",
          "type": "uint256"
        },
        {
          "internalType": "uint8",
          "name": "v",
          "type": "uint8"
        },
        {
          "internalType": "bytes32",
          "name": "r",
          "type": "bytes32"
        },
        {
          "internalType": "bytes32",
          "name": "s",
          "type": "bytes32"
        }
      ],
      "name": "permit",
      "outputs": [],
      "stateMutability": "nonpayable",
      "type": "function"
    },
    {
      "inputs": [],
      "name": "symbol",
      "outputs": [
        {
          "internalType": "string",
          "name": "",
          "type": "string"
        }
      ],
      "stateMutability": "view",
      "type": "function"
    },
    {
      "inputs": [],
      "name": "totalSupply",
      "outputs": [
        {
          "internalType": "uint256",
          "name": "",
          "type": "uint256"
        }
      ],
      "stateMutability": "view",
      "type": "function"
    },
    {
      "inputs": [
        {
          "internalType": "address",
          "name": "to",
          "type": "address"
        },
        {
          "internalType": "uint256",
          "name": "value",
          "type": "uint256"
        }
      ],
      "name": "transfer",
      "outputs": [
        {
          "internalType": "bool",
          "name": "",
          "type": "bool"
        }
      ],
      "stateMutability": "nonpayable",
      "type": "function"
    },
    {
      "inputs": [
        {
          "internalType": "address",
          "name": "from",
          "type": "address"
        },
        {
          "internalType": "address",
          "name": "to",
          "type": "address"
        },
        {
          "internalType": "uint256",
          "name": "amount",
          "type": "uint256"
        }
      ],
      "name": "transferFrom",
      "outputs": [
        {
          "internalType": "bool",
          "name": "",
          "type": "bool"
        }
      ],
      "stateMutability": "nonpayable",
      "type": "function"
    }
  ],
  "bytecode": "0x608060405234801561001057600080fd5b5060408051808201825260078152660556e69737761760cc1b6020918201528151808301835260018152603160f81b9082015281517f8b73c3c69bb8fe3d512ecc4cf759cc79239f7b179b0ffacaa9a75d522b39400f818301527f99c45e8ee5dde061ced9c812089094fbd28a020e7e37f2851198887e5ca64985818401527fc89efdaa54c0f20c7adf612882df0950f5a951637e0307cdcb4c672f298b8bc660608201524660808201523060a0808301919091528351808303909101815260c09091019092528151910120600355610ae8806100ee6000396000f3fe608060405234801561001057600080fd5b50600436106100ea5760003560e01c806370a082311161008c578063a9059cbb11610066578063a9059cbb14610224578063d505accf14610237578063dd62ed3e1461024c578063f9e8cf331461027757600080fd5b806370a08231146101c257806383e7d7c7146101e257806395d89b411461020257600080fd5b806323b872dd116100c857806323b872dd1461016557806330adf81f14610178578063313ce5671461019f5780633644e515146101b957600080fd5b806306fdde03146100ef578063095ea7b31461012b57806318160ddd1461014e575b600080fd5b610115604051806040016040528060078152602001660556e69737761760cc1b81525081565b60405161012291906108cc565b60405180910390f35b61013e610139366004610936565b6102a0565b6040519015158152602001610122565b61015760025481565b604051908152602001610122565b61013e610173366004610960565b610359565b6101577f6e71edae12b1b97f4d1f60370fef10105fa2faae0126114a169c64845d6126c981565b6101a7601281565b60405160ff9091168152602001610122565b61015760035481565b6101576101d036600461099c565b60006020819052908152604090205481565b6101576101f036600461099c565b60046020526000908152604090205481565b61011560405180604001604052806003815260200162554e4960e81b81525081565b61013e610232366004610936565b61036e565b61024a6102453660046109b7565b610382565b005b61015761025a366004610a2a565b600160209081526000928352604080842090915290825290205481565b61015761028536600461099c565b6001600160a01b031660009081526004602052604090205490565b336000908152602081905260408120548211156103045760405162461bcd60e51b815260206004820152601a60248201527f45524332303a696e73756666696369656e742062616c616e636500000000000060448201526064015b60405180910390fd5b61030f8333846105a1565b6040518281526001600160a01b0384169033907f8c5be1e5ebec7d5bd14f71427d1e84f3dd0314c0f7b2291e5b200ac8c7c3b9259060200160405180910390a35060015b92915050565b6000610366848484610678565b949350505050565b600061037b338484610678565b9392505050565b834210156103d25760405162461bcd60e51b815260206004820152601a60248201527f556e69737761705632506169723a74696d65206578706972656400000000000060448201526064016102fb565b6003546001600160a01b038816600090815260046020526040812080549192917f6e71edae12b1b97f4d1f60370fef10105fa2faae0126114a169c64845d6126c9918b918b918b91908761042583610a73565b909155506040805160208101969096526001600160a01b0394851690860152929091166060840152608083015260a082015260c0810187905260e0016040516020818303038152906040528051906020012060405160200161049e92919061190160f01b81526002810192909252602282015260420190565b60408051601f198184030181528282528051602091820120600080855291840180845281905260ff88169284019290925260608301869052608083018590529092509060019060a0016020604051602081039080840390855afa158015610509573d6000803e3d6000fd5b5050604051601f1901519150506001600160a01b0381161580159061053f5750886001600160a01b0316816001600160a01b0316145b61058b5760405162461bcd60e51b815260206004820152601b60248201527f6f776e6572206164647265737320766572696679206661696c6564000000000060448201526064016102fb565b610596888a896105a1565b505050505050505050565b6001600160a01b0383166105f75760405162461bcd60e51b815260206004820152601e60248201527f45524332303a20696e76616c6964207370656e6465722061646472657373000060448201526064016102fb565b6001600160a01b03821661064d5760405162461bcd60e51b815260206004820152601c60248201527f45524332303a20696e76616c6964206f776e657220616464726573730000000060448201526064016102fb565b6001600160a01b03918216600090815260016020908152604080832095909416825293909352912055565b60006001600160a01b0384163314610708576001600160a01b03841660009081526001602090815260408083203384529091529020548211156106fd5760405162461bcd60e51b815260206004820152601c60248201527f45524332303a696e73756666696369656e7420616c6c6f77616e63650000000060448201526064016102fb565b6107083385846107b8565b6001600160a01b03841660009081526020819052604090205461072b9083610821565b6001600160a01b03808616600090815260208190526040808220939093559085168152205461075a9083610877565b6001600160a01b038481166000818152602081815260409182902094909455518581529092918716917fddf252ad1be2c89b69c2b068fc378daa952ba7f163c4a11628f55a4df523b3ef910160405180910390a35060019392505050565b6001600160a01b038083166000908152600160209081526040808320938716835292905220546000191461081c576001600160a01b0380831660009081526001602090815260408083209387168352929052205461081c90849084908490036105a1565b505050565b60008261082e8382610a8c565b91508111156103535760405162461bcd60e51b815260206004820152601560248201527464732d6d6174682d7375622d756e646572666c6f7760581b60448201526064016102fb565b6000826108848382610a9f565b91508110156103535760405162461bcd60e51b815260206004820152601460248201527364732d6d6174682d6164642d6f766572666c6f7760601b60448201526064016102fb565b600060208083528351808285015260005b818110156108f9578581018301518582016040015282016108dd565b506000604082860101526040601f19601f8301168501019250505092915050565b80356001600160a01b038116811461093157600080fd5b919050565b6000806040838503121561094957600080fd5b6109528361091a565b946020939093013593505050565b60008060006060848603121561097557600080fd5b61097e8461091a565b925061098c6020850161091a565b9150604084013590509250925092565b6000602082840312156109ae57600080fd5b61037b8261091a565b600080600080600080600060e0888a0312156109d257600080fd5b6109db8861091a565b96506109e96020890161091a565b95506040880135945060608801359350608088013560ff81168114610a0d57600080fd5b9699959850939692959460a0840135945060c09093013592915050565b60008060408385031215610a3d57600080fd5b610a468361091a565b9150610a546020840161091a565b90509250929050565b634e487b7160e01b600052601160045260246000fd5b600060018201610a8557610a85610a5d565b5060010190565b8181038181111561035357610353610a5d565b8082018082111561035357610353610a5d56fea26469706673582212203aadcaa77ec7fd707f7dd8a9092ad6359b65a336256389f439bdb13267e144ec64736f6c63430008100033",
  "linkReferences": {},
  "deployedLinkReferences": {}
}