{
  "_format": "hh-sol-artifact-1",
  "contractName": "UniswapERC20",
  "sourceName": "contracts/UniswapPair.sol",
  "abi": [
    {
      "inputs": [],
      "stateMutability": "nonpayable",
      "type": "constructor"
    },
    {
      "anonymous": false,
      "inputs": [
        {
          "indexed": true,
          "internalType": "address",
          "name": "owner",
          "type": "address"
        },
        {
          "indexed": true,
          "internalType": "address",
          "name": "spender",
          "type": "address"
        },
        {
          "indexed": false,
          "internalType": "uint256",
          "name": "value",
          "type": "uint256"
        }
      ],
      "name": "Approval",
      "type": "event"
    },
    {
      "anonymous": false,
      "inputs": [
        {
          "indexed": true,
          "internalType": "address",
          "name": "from",
          "type": "address"
        },
        {
          "indexed": true,
          "internalType": "address",
          "name": "to",
          "type": "address"
        },
        {
          "indexed": false,
          "internalType": "uint256",
          "name": "value",
          "type": "uint256"
        }
      ],
      "name": "Transfer",
      "type": "event"
    },
    {
      "inputs": [],
      "name": "DOMAIN_SEPARATOR",
      "outputs": [
        {
          "internalType": "bytes32",
          "name": "",
          "type": "bytes32"
        }
      ],
      "stateMutability": "view",
      "type": "function"
    },
    {
      "inputs": [],
      "name": "PERMIT_TYPEHASH",
      "outputs": [
        {
          "internalType": "bytes32",
          "name": "",
          "type": "bytes32"
        }
      ],
      "stateMutability": "view",
      "type": "function"
    },
    {
      "inputs": [
        {
          "internalType": "address",
          "name": "",
          "type": "address"
        }
      ],
      "name": "_nounces",
      "outputs": [
        {
          "internalType": "uint256",
          "name": "",
          "type": "uint256"
        }
      ],
      "stateMutability": "view",
      "type": "function"
    },
    {
      "inputs": [
        {
          "internalType": "address",
          "name": "",
          "type": "address"
        },
        {
          "internalType": "address",
          "name": "",
          "type": "address"
        }
      ],
      "name": "allowance",
      "outputs": [
        {
          "internalType": "uint256",
          "name": "",
          "type": "uint256"
        }
      ],
      "stateMutability": "view",
      "type": "function"
    },
    {
      "inputs": [
        {
          "internalType": "address",
          "name": "spender",
          "type": "address"
        },
        {
          "internalType": "uint256",
          "name": "amount",
          "type": "uint256"
        }
      ],
      "name": "approve",
      "outputs": [
        {
          "internalType": "bool",
          "name": "",
          "type": "bool"
        }
      ],
      "stateMutability": "nonpayable",
      "type": "function"
    },
    {
      "inputs": [
        {
          "internalType": "address",
          "name": "",
          "type": "address"
        }
      ],
      "name": "balanceOf",
      "outputs": [
        {
          "internalType": "uint256",
          "name": "",
          "type": "uint256"
        }
      ],
      "stateMutability": "view",
      "type": "function"
    },
    {
      "inputs": [],
      "name": "decimals",
      "outputs": [
        {
          "internalType": "uint8",
          "name": "",
          "type": "uint8"
        }
      ],
      "stateMutability": "view",
      "type": "function"
    },
    {
      "inputs": [],
      "name": "name",
      "outputs": [
        {
          "internalType": "string",
          "name": "",
          "type": "string"
        }
      ],
      "stateMutability": "view",
      "type": "function"
    },
    {
      "inputs": [
        {
          "internalType": "address",
          "name": "owner",
          "type": "address"
        }
      ],
      "name": "nounces",
      "outputs": [
        {
          "internalType": "uint256",
          "name": "",
          "type": "uint256"
        }
      ],
      "stateMutability": "view",
      "type": "function"
    },
    {
      "inputs": [
        {
          "internalType": "address",
          "name": "owner",
          "type": "address"
        },
        {
          "internalType": "address",
          "name": "spender",
          "type": "address"
        },
        {
          "internalType": "uint256",
          "name": "value",
          "type": "uint256"
        },
        {
          "internalType": "uint256",
          "name": "deadline",
          "type": "uint256"
        },
        {
          "internalType": "uint8",
          "name": "v",
          "type": "uint8"
        },
        {
          "internalType": "bytes32",
          "name": "r",
          "type": "bytes32"
        },
        {
          "internalType": "bytes32",
          "name": "s",
          "type": "bytes32"
        }
      ],
      "name": "permit",
      "outputs": [],
      "stateMutability": "nonpayable",
      "type": "function"
    },
    {
      "inputs": [],
      "name": "symbol",
      "outputs": [
        {
          "internalType": "string",
          "name": "",
          "type": "string"
        }
      ],
      "stateMutability": "view",
      "type": "function"
    },
    {
      "inputs": [],
      "name": "totalSupply",
      "outputs": [
        {
          "internalType": "uint256",
          "name": "",
          "type": "uint256"
        }
      ],
      "stateMutability": "view",
      "type": "function"
    },
    {
      "inputs": [
        {
          "internalType": "address",
          "name": "to",
          "type": "address"
        },
        {
          "internalType": "uint256",
          "name": "value",
          "type": "uint256"
        }
      ],
      "name": "transfer",
      "outputs": [
        {
          "internalType": "bool",
          "name": "",
          "type": "bool"
        }
      ],
      "stateMutability": "nonpayable",
      "type": "function"
    },
    {
      "inputs": [
        {
          "internalType": "address",
          "name": "from",
          "type": "address"
        },
        {
          "internalType": "address",
          "name": "to",
          "type": "address"
        },
        {
          "internalType": "uint256",
          "name": "amount",
          "type": "uint256"
        }
      ],
      "name": "transferFrom",
      "outputs": [
        {
          "internalType": "bool",
          "name": "",
          "type": "bool"
        }
      ],
      "stateMutability": "nonpayable",
      "type": "function"
    }
  ],
  "bytecode": "0x60806040523480156200001157600080fd5b50620000467f626b15004d536174361d8d617f16ec425fb376df0925b9c1042da74be878468e60001b6200018360201b60201c565b6200007a7f149b0adbe97a9a6071eaca420c94e7c2db92bd27697a3a9502c4e67bc07e587d60001b6200018360201b60201c565b620000ae7f41f06e5f5272fd95cac67797785e01520f499b352fd79bfd795c606f1b13d07f60001b6200018360201b60201c565b7f8b73c3c69bb8fe3d512ecc4cf759cc79239f7b179b0ffacaa9a75d522b39400f6040518060400160405280600781526020017f556e697377617000000000000000000000000000000000000000000000000000815250805190602001206040518060400160405280600181526020017f31000000000000000000000000000000000000000000000000000000000000008152508051906020012046306040516020016200016195949392919062000201565b604051602081830303815290604052805190602001206003819055506200025e565b50565b6000819050919050565b6200019b8162000186565b82525050565b6000819050919050565b620001b681620001a1565b82525050565b600073ffffffffffffffffffffffffffffffffffffffff82169050919050565b6000620001e982620001bc565b9050919050565b620001fb81620001dc565b82525050565b600060a08201905062000218600083018862000190565b62000227602083018762000190565b62000236604083018662000190565b620002456060830185620001ab565b620002546080830184620001f0565b9695505050505050565b6125c1806200026e6000396000f3fe608060405234801561001057600080fd5b50600436106100ea5760003560e01c806370a082311161008c578063a9059cbb11610066578063a9059cbb14610263578063d505accf14610293578063dd62ed3e146102af578063f9e8cf33146102df576100ea565b806370a08231146101e557806383e7d7c71461021557806395d89b4114610245576100ea565b806323b872dd116100c857806323b872dd1461015b57806330adf81f1461018b578063313ce567146101a95780633644e515146101c7576100ea565b806306fdde03146100ef578063095ea7b31461010d57806318160ddd1461013d575b600080fd5b6100f761030f565b6040516101049190611c68565b60405180910390f35b61012760048036038101906101229190611d23565b610348565b6040516101349190611d7e565b60405180910390f35b610145610629565b6040516101529190611da8565b60405180910390f35b61017560048036038101906101709190611dc3565b61062f565b6040516101829190611d7e565b60405180910390f35b6101936106c9565b6040516101a09190611e2f565b60405180910390f35b6101b16106f0565b6040516101be9190611e66565b60405180910390f35b6101cf6106f5565b6040516101dc9190611e2f565b60405180910390f35b6101ff60048036038101906101fa9190611e81565b6106fb565b60405161020c9190611da8565b60405180910390f35b61022f600480360381019061022a9190611e81565b610713565b60405161023c9190611da8565b60405180910390f35b61024d61072b565b60405161025a9190611c68565b60405180910390f35b61027d60048036038101906102789190611d23565b610764565b60405161028a9190611d7e565b60405180910390f35b6102ad60048036038101906102a89190611f06565b6107fd565b005b6102c960048036038101906102c49190611fa8565b610cb8565b6040516102d69190611da8565b60405180910390f35b6102f960048036038101906102f49190611e81565b610cdd565b6040516103069190611da8565b60405180910390f35b6040518060400160405280600781526020017f556e69737761700000000000000000000000000000000000000000000000000081525081565b60006103767faec699c6fcb304ecbeb93dc2e983a98aaaf6eb4aadde1874f06dec0f5a54a56260001b610daa565b6103a27fe4bc6380c59f8ac2caab64f873961847a6e69f43ae84a777de655ad692ef36dc60001b610daa565b6103ce7fb01d147aedcefe4f8f323ed71b75afe46597f8b67ef13267ff9944cf0af8df5f60001b610daa565b6103fa7fc75c992d1e7f7cd011c6cf3cd13d27a271515d59e45b9eeb0f34cdc9c797109860001b610daa565b816000803373ffffffffffffffffffffffffffffffffffffffff1673ffffffffffffffffffffffffffffffffffffffff16815260200190815260200160002054101561047b576040517f08c379a000000000000000000000000000000000000000000000000000000000815260040161047290612034565b60405180910390fd5b6104a77ff9a1b890d867db45cb470714ec545d3dff2ad33c3d4289e851edc648f0cfa36560001b610daa565b6104d37f72a0828ac88fa2402102bccd8e7d06899df9baf35c90aacdb367d7c8e0f5280a60001b610daa565b6104ff7fcb0bfa650cc4ea0db6ba35209d911992ffb5bc952c7708b836d23164e36655dd60001b610daa565b61050a833384610dad565b6105367f0ced4847ddcc8f2bfaec54bf14807d07cb424e5cf0252bb31a8914147784fc0360001b610daa565b6105627f88232ff4c47b12cda018f221731a35e02efe984d718b60da7b5d8a5152bcf17e60001b610daa565b8273ffffffffffffffffffffffffffffffffffffffff163373ffffffffffffffffffffffffffffffffffffffff167f8c5be1e5ebec7d5bd14f71427d1e84f3dd0314c0f7b2291e5b200ac8c7c3b925846040516105bf9190611da8565b60405180910390a36105f37fae088a7f15b0143482412b89f9e3a9cdc3fc50fc323cd199807cca33d4c4ff7360001b610daa565b61061f7f91a04e8d85a7fd6f344d4d125034aaadb4b0b65e051b6c0e7c94da85c5117d3860001b610daa565b6001905092915050565b60025481565b600061065d7fccc762c58940db907f8bb1177b278fe05555ff1b17b0cd38395f47b91ac1969360001b610daa565b6106897fddc1caf81a2c687aa8f2a3a9d73983fd56ad2e1166dbed27ddfbdef67a22de7860001b610daa565b6106b57f207e867637db0aca451ad39f934de43c47d5621fc3186e9affd1c0e729df7ecb60001b610daa565b6106c08484846110f5565b90509392505050565b7f6e71edae12b1b97f4d1f60370fef10105fa2faae0126114a169c64845d6126c960001b81565b601281565b60035481565b60006020528060005260406000206000915090505481565b60046020528060005260406000206000915090505481565b6040518060400160405280600381526020017f554e49000000000000000000000000000000000000000000000000000000000081525081565b60006107927f96598d1aee3ec31764853afa3917808ecc00e9c26bb3173770c3107500ea42d260001b610daa565b6107be7fb0435a69b85113382ff2b2f793ae2ff9186e331072bae93cee15794dd9499bb660001b610daa565b6107ea7f9c27af010abf36d2b7629e2d5de42d6ca9b638c0f9b2ae8c966cda1f7905136f60001b610daa565b6107f53384846110f5565b905092915050565b6108297fbb8e951769395890a0cae6873ebb9ef3a0a52a711fe1f4fdea4c0beb6b1613f460001b610daa565b6108557f7f73897cf4800eb549d045cacc8bcedd370ff101e9f95848b43dff47de26e71260001b610daa565b6108817f7c6d1704019c16b82ba5c4a47d66c417e94879f7fa69de6f2ffacbe8e9245ab660001b610daa565b6108ad7faf8399bd50fd7c634cf0c487685c96c103f81d228ff18c552a3fdd49a53746b660001b610daa565b834210156108f0576040517f08c379a00000000000000000000000000000000000000000000000000000000081526004016108e7906120a0565b60405180910390fd5b61091c7ff4f7c1fc7c4c50b729bc02e335a96c15b71273f34b1a63a362ffc7b70736fc8360001b610daa565b6109487fe0cd1ce355b0f3542194956c4cbc58e021ad9e6b5e309dc969b2e9ec6171b0a560001b610daa565b6109747f2e70a91b07f79c2f2b1201cc7097b2fcc05b339dc3d5f909b804dc0d8c0425ff60001b610daa565b60006003547f6e71edae12b1b97f4d1f60370fef10105fa2faae0126114a169c64845d6126c960001b898989600460008e73ffffffffffffffffffffffffffffffffffffffff1673ffffffffffffffffffffffffffffffffffffffff16815260200190815260200160002060008154809291906109f0906120ef565b919050558a604051602001610a0a96959493929190612146565b60405160208183030381529060405280519060200120604051602001610a3192919061221f565b604051602081830303815290604052805190602001209050610a757f607ee69bfb56bd4f04db1859eba4eada60cafe930df0a9512cdc2a775fe1ecd360001b610daa565b610aa17fc2dd3c2e0e0e451e5ca7523836f590c32e7cd340f4737ca3bc7c633055be8adf60001b610daa565b600060018286868660405160008152602001604052604051610ac69493929190612256565b6020604051602081039080840390855afa158015610ae8573d6000803e3d6000fd5b505050602060405103519050610b207f55421fc598c2da3579b4faea00337711f648dc38f97c0b70e71e2c248350000360001b610daa565b610b4c7fc3d0786795bef9e9c73ebaa27ae2f5fb46535a9ce9136c312548f89e222e716f60001b610daa565b610b787f2b7da3bb56ce2c2b28fc199048cccc9111888ee0f7a4364906102c57dd9bab3b60001b610daa565b600073ffffffffffffffffffffffffffffffffffffffff168173ffffffffffffffffffffffffffffffffffffffff1614158015610be057508873ffffffffffffffffffffffffffffffffffffffff168173ffffffffffffffffffffffffffffffffffffffff16145b610c1f576040517f08c379a0000000000000000000000000000000000000000000000000000000008152600401610c16906122e7565b60405180910390fd5b610c4b7f75b2ec5b16af0f11e1c8d3b8cec65bbdb6299aa461eb2428fb6cc9518f83584b60001b610daa565b610c767ec93aa50a5d5ae19bb068f804b10ebf1b52e8944b624373ca6d84047d2fa77060001b610daa565b610ca27fda6bd9ad044919a764537bd6b915f358a90215216220af110e350bd9ec827e1360001b610daa565b610cad888a89610dad565b505050505050505050565b6001602052816000526040600020602052806000526040600020600091509150505481565b6000610d0b7f355272cfc3ee3714aed5fc705660563d9b819f3bd2a875804e69fc34a6fe696d60001b610daa565b610d377f0a86b82546797121d24d56e433a97300f6ad9b6ae23fda5f784f5658468d49c260001b610daa565b610d637f8745bb7283b1eb5577a9f77c9d53836fc755eb0077a37a6e107fe72a087902c060001b610daa565b600460008373ffffffffffffffffffffffffffffffffffffffff1673ffffffffffffffffffffffffffffffffffffffff168152602001908152602001600020549050919050565b50565b610dd97fb16f831e87fa675ccd14f392c0f3abf51c6c6e946b5ad39fcf838a78885abb3060001b610daa565b610e057f9fbb08705f2a1ac092414f8cbbb798f1621d913059a2470b9c6dc9768e91803d60001b610daa565b610e317f44756026621cf5c949c2f2563844cd48ae066108103f4fff6e3d132b261a714360001b610daa565b610e5d7f275008bcaec8493324484d8ee948631983539efc70f0030f54454ee668a7e84b60001b610daa565b600073ffffffffffffffffffffffffffffffffffffffff168373ffffffffffffffffffffffffffffffffffffffff1603610ecc576040517f08c379a0000000000000000000000000000000000000000000000000000000008152600401610ec390612353565b60405180910390fd5b610ef87f3177b5abb10538cf12519e1bd8dd34c44bd2121a9f3ba6293a8041daf104dd4c60001b610daa565b610f247f273d5174a1096a123ef80967560fbcb2d7d73c10704a4e3e38d32c7bce41973c60001b610daa565b610f507fa83c2339df8062d2a0ec0bdd98ffa124c5050333ea86955ba179f46056121d3e60001b610daa565b610f7c7f6b4a953136efe596f4867c5263b2f42947921c3fe4ae621a2e304fa95b02012a60001b610daa565b600073ffffffffffffffffffffffffffffffffffffffff168273ffffffffffffffffffffffffffffffffffffffff1603610feb576040517f08c379a0000000000000000000000000000000000000000000000000000000008152600401610fe2906123bf565b60405180910390fd5b6110177fe794b8378ae9b77836166399acb4f3e7fabcdfddee4a65c38181be20fed9f2b760001b610daa565b6110437f7319a9940b2b8835b02a1b69d6aafe70e415b854d5f20b582b18f6deecafc6fc60001b610daa565b61106f7f79e1eff6f76b3dc0c774d5be6d0a87eb5cf29053a08f759950a79220749fd34b60001b610daa565b80600160008473ffffffffffffffffffffffffffffffffffffffff1673ffffffffffffffffffffffffffffffffffffffff16815260200190815260200160002060008573ffffffffffffffffffffffffffffffffffffffff1673ffffffffffffffffffffffffffffffffffffffff16815260200190815260200160002081905550505050565b60006111237f696d99d3bf906160dba7e97c69bcd48cef0eb68b5556ed19f106643087f0708d60001b610daa565b61114f7f3619a96abe241224a8dca9d69e32d7238c62aaf35435c3482fe5a26bb2dc7c9560001b610daa565b61117b7fd2900df9ad403e0629bf44a98054066c4e73107cbfeec2382487af69830a9abb60001b610daa565b3373ffffffffffffffffffffffffffffffffffffffff168473ffffffffffffffffffffffffffffffffffffffff16146113b1576111da7f51318712010ad81432c406010c204672e211628c24cf5ef8eafb983125627d3e60001b610daa565b6112067f8764283ca6d537bef539917474bbdab1c2a091890902fba26d6368d4f1af019460001b610daa565b6112327f606467ef6be66a867ebad8b92abadbd81bccee18550041d8c0d5ddbfe524ff4160001b610daa565b61125e7f80991cb9bd886a67e10234cc6f3f9da0f7c83512739a4b1e7beed8cd924c69b960001b610daa565b81600160008673ffffffffffffffffffffffffffffffffffffffff1673ffffffffffffffffffffffffffffffffffffffff16815260200190815260200160002060003373ffffffffffffffffffffffffffffffffffffffff1673ffffffffffffffffffffffffffffffffffffffff16815260200190815260200160002054101561131d576040517f08c379a00000000000000000000000000000000000000000000000000000000081526004016113149061242b565b60405180910390fd5b6113497ff8ab7b70ddbe11758cde9863f9c2a99054346bf90227658cf0b81b6f64a8ff9160001b610daa565b6113757fe98ad8ba0f5bd3d4851618748c50bba7348ce628345a758977ca1df4bc09e3b060001b610daa565b6113a17fd3d3e112e3ff13b80be5ce0e14973aafc36f8820ca5d7c693066b7e86237faa160001b610daa565b6113ac3385846116d4565b6113de565b6113dd7f6ab6baee84681da61bfa2ae55d4c8efc2689c53556d3d125e8e5e1f9818b4c6160001b610daa565b5b61140a7f752bf4ae4cc494683f19ea05f1f25877e637553b12b5fba71a4a725e8889484360001b610daa565b6114367fda3b7cf43ba91860a1cc79e93285ecc5f53f49579eaae3370bf291a76700da6a60001b610daa565b611487826000808773ffffffffffffffffffffffffffffffffffffffff1673ffffffffffffffffffffffffffffffffffffffff1681526020019081526020016000205461196b90919063ffffffff16565b6000808673ffffffffffffffffffffffffffffffffffffffff1673ffffffffffffffffffffffffffffffffffffffff168152602001908152602001600020819055506114f57fe2d0105626ff1e79ce486833a5a43e0cc65d14c2b6d6bb8f30c7fa549b73b01160001b610daa565b6115217fcb63a12cf024e0126c01e624249825cd3273b6f2e9906e0f386f555f189bc75360001b610daa565b611572826000808673ffffffffffffffffffffffffffffffffffffffff1673ffffffffffffffffffffffffffffffffffffffff16815260200190815260200160002054611aa090919063ffffffff16565b6000808573ffffffffffffffffffffffffffffffffffffffff1673ffffffffffffffffffffffffffffffffffffffff168152602001908152602001600020819055506115e07f22796deb680639b174822a375c797600bc92d6fdb0d6b54a712e32c22a4ddfca60001b610daa565b61160c7f662c03c72dd5084d51a5fccd04688525755a72a5dad776dcb35e218b6a6a4fe960001b610daa565b8273ffffffffffffffffffffffffffffffffffffffff168473ffffffffffffffffffffffffffffffffffffffff167fddf252ad1be2c89b69c2b068fc378daa952ba7f163c4a11628f55a4df523b3ef846040516116699190611da8565b60405180910390a361169d7fcb2515abba4396440414bb2ea4599ee742edf680db4952160349d0f5015415d260001b610daa565b6116c97ff688bec386584cfb677c60bb5a992b4b5ca7e34366f523fae444a82e2e359aa160001b610daa565b600190509392505050565b6117007f352dfc3a08877dce5b5d048b1a5056b3a53fd94460349b03fea16a4a752dc4e860001b610daa565b61172c7f43296cf935e9253b75fad4a6dddf98d3f2a179bb1f33c4e98e8beb768057e2c960001b610daa565b6117587ff0d31c8a23c53e2bbfa6c721a474f403693a0250292ea52cd4e5d336bf54d2c960001b610daa565b7fffffffffffffffffffffffffffffffffffffffffffffffffffffffffffffffff600160008473ffffffffffffffffffffffffffffffffffffffff1673ffffffffffffffffffffffffffffffffffffffff16815260200190815260200160002060008573ffffffffffffffffffffffffffffffffffffffff1673ffffffffffffffffffffffffffffffffffffffff1681526020019081526020016000205414611939576118277f103431c60e5ad7857e923097a881a976d8582172bc414da07a49b2625f92b74060001b610daa565b6118537f87011c039fd4d467167bfc83f31608f2196510a679a0f0e74d7a62211469ff7760001b610daa565b61187f7fab00a4b6693524bdfc1865b341751717c2633dc65750884d591dfa9b8ba7321e60001b610daa565b6118ab7fc271436bb121fd3596cc9978e2658621bf8a076275e30bc60e60db33ae64bc4560001b610daa565b611934838383600160008773ffffffffffffffffffffffffffffffffffffffff1673ffffffffffffffffffffffffffffffffffffffff16815260200190815260200160002060008873ffffffffffffffffffffffffffffffffffffffff1673ffffffffffffffffffffffffffffffffffffffff1681526020019081526020016000205403610dad565b611966565b6119657f148a9c5a65eb17c816d8fbb579f7e14ef5519a9974ed6e7507547d7d750cabb960001b610daa565b5b505050565b60006119997ff9462e2946628777cf3f2c3a53addab1c7eeda19565d3ff90690e305a7e6594360001b611bd5565b6119c57f249914a413d90547d21b39e2064dc3e615234d376222c95054e1bee3c1293f7d60001b611bd5565b6119f17f6f8897041ac63bcba63042cbc9f5159b57856a7f2c39b16aa515b5fce017af9160001b611bd5565b611a1d7f4a07db7649423caffc57c990dbba2d111c53aa554b628fd0b820f2f639d5b40a60001b611bd5565b828284611a2a919061244b565b9150811115611a6e576040517f08c379a0000000000000000000000000000000000000000000000000000000008152600401611a65906124cb565b60405180910390fd5b611a9a7f5e85eef731132f4fbc85560dd821d3a87aac3930d6ea68abc4bdae3a85de8d8d60001b611bd5565b92915050565b6000611ace7fe976e3b1ab5b47948b7b46c0060d3100aa9612bddbac51056ac80c13b62f562360001b611bd5565b611afa7fb5003e0703deb9dd46e647e50fb026cc459f247098c770bef51c28c5a4f1380c60001b611bd5565b611b267fa839dfec5ba3a44553d1035b15d26e1cb3437717b20133e5ffd4c0a2f612710f60001b611bd5565b611b527f28d00b99a2aec99189e90bd77f23c1e61f333033b2050820a8eb2e6487a7a33960001b611bd5565b828284611b5f91906124eb565b9150811015611ba3576040517f08c379a0000000000000000000000000000000000000000000000000000000008152600401611b9a9061256b565b60405180910390fd5b611bcf7ffd851a76596272214ad39c7cba275683ad441a9fa07837f147c91694d425bba960001b611bd5565b92915050565b50565b600081519050919050565b600082825260208201905092915050565b60005b83811015611c12578082015181840152602081019050611bf7565b60008484015250505050565b6000601f19601f8301169050919050565b6000611c3a82611bd8565b611c448185611be3565b9350611c54818560208601611bf4565b611c5d81611c1e565b840191505092915050565b60006020820190508181036000830152611c828184611c2f565b905092915050565b600080fd5b600073ffffffffffffffffffffffffffffffffffffffff82169050919050565b6000611cba82611c8f565b9050919050565b611cca81611caf565b8114611cd557600080fd5b50565b600081359050611ce781611cc1565b92915050565b6000819050919050565b611d0081611ced565b8114611d0b57600080fd5b50565b600081359050611d1d81611cf7565b92915050565b60008060408385031215611d3a57611d39611c8a565b5b6000611d4885828601611cd8565b9250506020611d5985828601611d0e565b9150509250929050565b60008115159050919050565b611d7881611d63565b82525050565b6000602082019050611d936000830184611d6f565b92915050565b611da281611ced565b82525050565b6000602082019050611dbd6000830184611d99565b92915050565b600080600060608486031215611ddc57611ddb611c8a565b5b6000611dea86828701611cd8565b9350506020611dfb86828701611cd8565b9250506040611e0c86828701611d0e565b9150509250925092565b6000819050919050565b611e2981611e16565b82525050565b6000602082019050611e446000830184611e20565b92915050565b600060ff82169050919050565b611e6081611e4a565b82525050565b6000602082019050611e7b6000830184611e57565b92915050565b600060208284031215611e9757611e96611c8a565b5b6000611ea584828501611cd8565b91505092915050565b611eb781611e4a565b8114611ec257600080fd5b50565b600081359050611ed481611eae565b92915050565b611ee381611e16565b8114611eee57600080fd5b50565b600081359050611f0081611eda565b92915050565b600080600080600080600060e0888a031215611f2557611f24611c8a565b5b6000611f338a828b01611cd8565b9750506020611f448a828b01611cd8565b9650506040611f558a828b01611d0e565b9550506060611f668a828b01611d0e565b9450506080611f778a828b01611ec5565b93505060a0611f888a828b01611ef1565b92505060c0611f998a828b01611ef1565b91505092959891949750929550565b60008060408385031215611fbf57611fbe611c8a565b5b6000611fcd85828601611cd8565b9250506020611fde85828601611cd8565b9150509250929050565b7f45524332303a696e73756666696369656e742062616c616e6365000000000000600082015250565b600061201e601a83611be3565b915061202982611fe8565b602082019050919050565b6000602082019050818103600083015261204d81612011565b9050919050565b7f556e69737761705632506169723a74696d652065787069726564000000000000600082015250565b600061208a601a83611be3565b915061209582612054565b602082019050919050565b600060208201905081810360008301526120b98161207d565b9050919050565b7f4e487b7100000000000000000000000000000000000000000000000000000000600052601160045260246000fd5b60006120fa82611ced565b91507fffffffffffffffffffffffffffffffffffffffffffffffffffffffffffffffff820361212c5761212b6120c0565b5b600182019050919050565b61214081611caf565b82525050565b600060c08201905061215b6000830189611e20565b6121686020830188612137565b6121756040830187612137565b6121826060830186611d99565b61218f6080830185611d99565b61219c60a0830184611d99565b979650505050505050565b600081905092915050565b7f1901000000000000000000000000000000000000000000000000000000000000600082015250565b60006121e86002836121a7565b91506121f3826121b2565b600282019050919050565b6000819050919050565b61221961221482611e16565b6121fe565b82525050565b600061222a826121db565b91506122368285612208565b6020820191506122468284612208565b6020820191508190509392505050565b600060808201905061226b6000830187611e20565b6122786020830186611e57565b6122856040830185611e20565b6122926060830184611e20565b95945050505050565b7f6f776e6572206164647265737320766572696679206661696c65640000000000600082015250565b60006122d1601b83611be3565b91506122dc8261229b565b602082019050919050565b60006020820190508181036000830152612300816122c4565b9050919050565b7f45524332303a20696e76616c6964207370656e64657220616464726573730000600082015250565b600061233d601e83611be3565b915061234882612307565b602082019050919050565b6000602082019050818103600083015261236c81612330565b9050919050565b7f45524332303a20696e76616c6964206f776e6572206164647265737300000000600082015250565b60006123a9601c83611be3565b91506123b482612373565b602082019050919050565b600060208201905081810360008301526123d88161239c565b9050919050565b7f45524332303a696e73756666696369656e7420616c6c6f77616e636500000000600082015250565b6000612415601c83611be3565b9150612420826123df565b602082019050919050565b6000602082019050818103600083015261244481612408565b9050919050565b600061245682611ced565b915061246183611ced565b9250828203905081811115612479576124786120c0565b5b92915050565b7f64732d6d6174682d7375622d756e646572666c6f770000000000000000000000600082015250565b60006124b5601583611be3565b91506124c08261247f565b602082019050919050565b600060208201905081810360008301526124e4816124a8565b9050919050565b60006124f682611ced565b915061250183611ced565b9250828201905080821115612519576125186120c0565b5b92915050565b7f64732d6d6174682d6164642d6f766572666c6f77000000000000000000000000600082015250565b6000612555601483611be3565b91506125608261251f565b602082019050919050565b6000602082019050818103600083015261258481612548565b905091905056fea26469706673582212203bc926be83b04c11f30d7594926069af9aa024454a06ec3e992901929a2ee4d364736f6c63430008100033",
  "linkReferences": {},
  "deployedLinkReferences": {}
}