{
  "_format": "hh-sol-artifact-1",
  "contractName": "UniswapFactory",
  "sourceName": "contracts/UniswapPair.sol",
  "abi": [
    {
      "inputs": [],
      "stateMutability": "nonpayable",
      "type": "constructor"
    },
    {
      "anonymous": false,
      "inputs": [
        {
          "indexed": true,
          "internalType": "address",
          "name": "token0",
          "type": "address"
        },
        {
          "indexed": true,
          "internalType": "address",
          "name": "token1",
          "type": "address"
        },
        {
          "indexed": false,
          "internalType": "address",
          "name": "pair",
          "type": "address"
        },
        {
          "indexed": false,
          "internalType": "uint256",
          "name": "",
          "type": "uint256"
        }
      ],
      "name": "PairCreated",
      "type": "event"
    },
    {
      "inputs": [
        {
          "internalType": "uint256",
          "name": "",
          "type": "uint256"
        }
      ],
      "name": "allPairs",
      "outputs": [
        {
          "internalType": "address",
          "name": "",
          "type": "address"
        }
      ],
      "stateMutability": "view",
      "type": "function"
    },
    {
      "inputs": [],
      "name": "allPairsLength",
      "outputs": [
        {
          "internalType": "uint256",
          "name": "",
          "type": "uint256"
        }
      ],
      "stateMutability": "view",
      "type": "function"
    },
    {
      "inputs": [
        {
          "internalType": "address",
          "name": "tokenA",
          "type": "address"
        },
        {
          "internalType": "address",
          "name": "tokenB",
          "type": "address"
        }
      ],
      "name": "createPair",
      "outputs": [
        {
          "internalType": "address",
          "name": "pair",
          "type": "address"
        }
      ],
      "stateMutability": "nonpayable",
      "type": "function"
    },
    {
      "inputs": [],
      "name": "feeTo",
      "outputs": [
        {
          "internalType": "address",
          "name": "",
          "type": "address"
        }
      ],
      "stateMutability": "view",
      "type": "function"
    },
    {
      "inputs": [],
      "name": "feeToSetter",
      "outputs": [
        {
          "internalType": "address",
          "name": "",
          "type": "address"
        }
      ],
      "stateMutability": "view",
      "type": "function"
    },
    {
      "inputs": [
        {
          "internalType": "address",
          "name": "",
          "type": "address"
        },
        {
          "internalType": "address",
          "name": "",
          "type": "address"
        }
      ],
      "name": "getPair",
      "outputs": [
        {
          "internalType": "address",
          "name": "",
          "type": "address"
        }
      ],
      "stateMutability": "view",
      "type": "function"
    },
    {
      "inputs": [
        {
          "internalType": "address",
          "name": "",
          "type": "address"
        }
      ],
      "name": "setFeeTo",
      "outputs": [],
      "stateMutability": "nonpayable",
      "type": "function"
    },
    {
      "inputs": [
        {
          "internalType": "address",
          "name": "",
          "type": "address"
        }
      ],
      "name": "setFeeToSetter",
      "outputs": [],
      "stateMutability": "nonpayable",
      "type": "function"
    }
  ],
  "bytecode": "0x608060405234801561001057600080fd5b506100437ffd4c5d4cd1ac44f8148236dd0ea03f86d7122c1e2d00a91314af0a7c4457f42a60001b61004860201b60201c565b61004b565b50565b618c828061005a6000396000f3fe60806040523480156200001157600080fd5b5060043610620000945760003560e01c8063a2e74af61162000063578063a2e74af61462000135578063c9c653961462000155578063e6a43905146200018b578063f46901ed14620001c15762000094565b8063017e7e581462000099578063094b741514620000bb5780631e3dd18b14620000dd578063574f2ba31462000113575b600080fd5b620000a3620001e1565b604051620000b2919062000edc565b60405180910390f35b620000c562000214565b604051620000d4919062000edc565b60405180910390f35b620000fb6004803603810190620000f5919062000f39565b62000247565b6040516200010a919062000edc565b60405180910390f35b6200011d62000287565b6040516200012c919062000f7c565b60405180910390f35b6200015360048036038101906200014d919062000fca565b6200031e565b005b6200017360048036038101906200016d919062000ffc565b6200034f565b60405162000182919062000edc565b60405180910390f35b620001a96004803603810190620001a3919062000ffc565b62000e13565b604051620001b8919062000edc565b60405180910390f35b620001df6004803603810190620001d9919062000fca565b62000e55565b005b6000620002117fc41866e4314c25fac4ce5aac9cf8c24127b794efceffe93f13af95cd27074ecb60001b62000e86565b90565b6000620002447f903b59f8d7554c7dbd53db2c7a6dd08eecef48bc7acf1a526b89a5b40c235e0b60001b62000e86565b90565b600081815481106200025857600080fd5b906000526020600020016000915054906101000a900473ffffffffffffffffffffffffffffffffffffffff1681565b6000620002b77f48a15aa791a00cc76efac702676707e547f83dc76e6532e73032ea51d39a289160001b62000e86565b620002e57f52980c278b1e868d9144f18e03431413203d956b7f6561c23fbc00eabcfbf1d660001b62000e86565b620003137f205c682473521ef635ce0e30b98a0f40809fa0913959a23fa7fb565fa09558d360001b62000e86565b600080549050905090565b6200034c7f20e5953965e674a2b67ba3213fecb48815ef2882b9cb8efdeb2bc00c9f5c879060001b62000e86565b50565b60006200037f7fd42bf663b63b10f79c6342d271f242b8de71dbbf1b2ad2bb0767506d529813b460001b62000e86565b620003ad7fa88b47dc2ecff33f760f7f408c89c3217ae1c5be84cf3a149684b469f48a0ea360001b62000e86565b620003db7f2d865abc112109f61503f417d06d30c69e2e469c63bd3fd145fb935fded31a3f60001b62000e86565b620004097f55ced831ebb49ec3feb8aa1036e287b732a432a443907178b5ae04d86128dc2e60001b62000e86565b8173ffffffffffffffffffffffffffffffffffffffff168373ffffffffffffffffffffffffffffffffffffffff16036200047a576040517f08c379a00000000000000000000000000000000000000000000000000000000081526004016200047190620010a4565b60405180910390fd5b620004a87f343efe2857d66b5f6ee75f8972355a1776ff94ec16cf9ed402e763e51f25a3be60001b62000e86565b620004d67f1afac29b501a880d51fd2cd3da673f9752ba379b2937c4ed5603609c25e80a0560001b62000e86565b620005047f64f68cbbf86c4e26a0848a6ddf1931cc7890f498c70951714afd229c420186e860001b62000e86565b6000808373ffffffffffffffffffffffffffffffffffffffff168573ffffffffffffffffffffffffffffffffffffffff16106200054357838562000546565b84845b91509150620005787fb8a416417bd7e1c346164ab2d8b52be70a08c637974a4faf9abc63c653de877b60001b62000e86565b620005a67fcd30cb46a1b3d14907e17923ab69e55fb9c36ff5806a822e70f3c0c19f57f6df60001b62000e86565b620005d47ff670e212f3dec379354890a24672a4347770f0e9a196b4576698c8308c227b8260001b62000e86565b600073ffffffffffffffffffffffffffffffffffffffff168273ffffffffffffffffffffffffffffffffffffffff160362000646576040517f08c379a00000000000000000000000000000000000000000000000000000000081526004016200063d9062001116565b60405180910390fd5b620006747f8d2b66d125091117d6620df5f08f7ba049d253763dba5d17513a8a0ceca604e260001b62000e86565b620006a27f4079d30cd626627cba23c016659cb07f1e034c8f14cc81b5fe962d587435be7a60001b62000e86565b620006d07fae0288830d12ef31fc1eb33235069ea7005ec6d01968b65fc1e6e53a8899ad5f60001b62000e86565b620006fe7f3b949054b36e6cf63c9841daef4dfab8aaaf6d0f723c92f86309c0e0fffe690e60001b62000e86565b600073ffffffffffffffffffffffffffffffffffffffff16600160008473ffffffffffffffffffffffffffffffffffffffff1673ffffffffffffffffffffffffffffffffffffffff16815260200190815260200160002060008373ffffffffffffffffffffffffffffffffffffffff1673ffffffffffffffffffffffffffffffffffffffff16815260200190815260200160002060009054906101000a900473ffffffffffffffffffffffffffffffffffffffff1673ffffffffffffffffffffffffffffffffffffffff16146200080c576040517f08c379a0000000000000000000000000000000000000000000000000000000008152600401620008039062001188565b60405180910390fd5b6200083a7f1d0008ad70cc7b6491aa213dbba3630c1777b6a9478958b370d28e3a65ca730960001b62000e86565b620008687f8efa4df32f967505fbeb1e5179aa6458550c5ce4d19b25979894e5119ce722d260001b62000e86565b620008967fd44c7963b99825b811afc31058c912e67d05cc716ddd0c134fa80178fe5a8fdc60001b62000e86565b600060405180602001620008aa9062000e89565b6020820181038252601f19601f820116604052509050620008ee7f05ae446d01d5b8b9feecc399a12e21d0d11388246e4c9a4d77d01b3f060856c660001b62000e86565b6200091c7ffc2f2985fef1f28144bdc6c02635fa863d2a15fbdad54707272c052e3bcaac4560001b62000e86565b6000838360405160200162000933929190620011fa565b604051602081830303815290604052805190602001209050620009797f4ad08e0f43fd8eb9a90bb4fe5d9b42f438370b3207da2251233126bdd69baea660001b62000e86565b808251602084016000f59450620009b37fbcb80bcb389b109cbde093981e9bd0b1dd1fd7f34360a21eb6c7627889f262ff60001b62000e86565b620009e17f13986db561f9ac5e7b1aaa1e1c8e71e808939ec1d7bb7c37a5c2a0fda6e354eb60001b62000e86565b8473ffffffffffffffffffffffffffffffffffffffff1663485cc95585856040518363ffffffff1660e01b815260040162000a1e9291906200122a565b600060405180830381600087803b15801562000a3957600080fd5b505af115801562000a4e573d6000803e3d6000fd5b5050505062000a807f430bccf3626f2eae00170d5f99a5ab3fae3196a17e4bbd08c0ff325c36b09c5a60001b62000e86565b62000aae7f12ae642b08301710e4484f28660f6a05c1583ffb0c63e10dccf07a8a3e0aa9c060001b62000e86565b84600160008673ffffffffffffffffffffffffffffffffffffffff1673ffffffffffffffffffffffffffffffffffffffff16815260200190815260200160002060008573ffffffffffffffffffffffffffffffffffffffff1673ffffffffffffffffffffffffffffffffffffffff16815260200190815260200160002060006101000a81548173ffffffffffffffffffffffffffffffffffffffff021916908373ffffffffffffffffffffffffffffffffffffffff16021790555062000b977f9d76c10dc9a647fa464f2867c2a51594ddb53d9bb496bd83f6f67902a57212b560001b62000e86565b62000bc57f282457b23a3c0a3580f468386122c63bcfbce15c35238fcc4df081f4940a2c9760001b62000e86565b84600160008573ffffffffffffffffffffffffffffffffffffffff1673ffffffffffffffffffffffffffffffffffffffff16815260200190815260200160002060008673ffffffffffffffffffffffffffffffffffffffff1673ffffffffffffffffffffffffffffffffffffffff16815260200190815260200160002060006101000a81548173ffffffffffffffffffffffffffffffffffffffff021916908373ffffffffffffffffffffffffffffffffffffffff16021790555062000cae7fca80f28f375cc13fe5f4f2b995e93cc358158b334a4a72311e3df18fc706478560001b62000e86565b62000cdc7fa490625b1c92abbca0f9841ff9ae57f6cac2efc6586cc3a573e454c4ffc72ad760001b62000e86565b6000859080600181540180825580915050600190039060005260206000200160009091909190916101000a81548173ffffffffffffffffffffffffffffffffffffffff021916908373ffffffffffffffffffffffffffffffffffffffff16021790555062000d6d7f2db9e8dc18d92a8bc073d80ddd4a013f25df81dfdcfa2a33fc0543cde625947760001b62000e86565b62000d9b7f3dea35f53f37a0bb9834afb6147a0821eb9fd6e831d04177e9c5ae854607e68160001b62000e86565b8273ffffffffffffffffffffffffffffffffffffffff168473ffffffffffffffffffffffffffffffffffffffff167f0d3648bd0f6ba80134a33ba9275ac585d9d315f0ad8355cddefde31afa28d0e98760008054905060405162000e0192919062001257565b60405180910390a35050505092915050565b60016020528160005260406000206020528060005260406000206000915091509054906101000a900473ffffffffffffffffffffffffffffffffffffffff1681565b62000e837f89737f9235e5957f892527fe6c2ce7276227dc17b79896c2f71eb0eff24dc2f660001b62000e86565b50565b50565b6179c8806200128583390190565b600073ffffffffffffffffffffffffffffffffffffffff82169050919050565b600062000ec48262000e97565b9050919050565b62000ed68162000eb7565b82525050565b600060208201905062000ef3600083018462000ecb565b92915050565b600080fd5b6000819050919050565b62000f138162000efe565b811462000f1f57600080fd5b50565b60008135905062000f338162000f08565b92915050565b60006020828403121562000f525762000f5162000ef9565b5b600062000f628482850162000f22565b91505092915050565b62000f768162000efe565b82525050565b600060208201905062000f93600083018462000f6b565b92915050565b62000fa48162000eb7565b811462000fb057600080fd5b50565b60008135905062000fc48162000f99565b92915050565b60006020828403121562000fe35762000fe262000ef9565b5b600062000ff38482850162000fb3565b91505092915050565b6000806040838503121562001016576200101562000ef9565b5b6000620010268582860162000fb3565b9250506020620010398582860162000fb3565b9150509250929050565b600082825260208201905092915050565b7f746f6b656e2073686f756c64206e6f742062652073616d650000000000000000600082015250565b60006200108c60188362001043565b9150620010998262001054565b602082019050919050565b60006020820190508181036000830152620010bf816200107d565b9050919050565b7f616464726573732073686f756c64206e6f74206265207a65726f000000000000600082015250565b6000620010fe601a8362001043565b91506200110b82620010c6565b602082019050919050565b600060208201905081810360008301526200113181620010ef565b9050919050565b7f6164647265737320616c72656164792065786974730000000000000000000000600082015250565b60006200117060158362001043565b91506200117d8262001138565b602082019050919050565b60006020820190508181036000830152620011a38162001161565b9050919050565b60008160601b9050919050565b6000620011c482620011aa565b9050919050565b6000620011d882620011b7565b9050919050565b620011f4620011ee8262000eb7565b620011cb565b82525050565b6000620012088285620011df565b6014820191506200121a8284620011df565b6014820191508190509392505050565b600060408201905062001241600083018562000ecb565b62001250602083018462000ecb565b9392505050565b60006040820190506200126e600083018562000ecb565b6200127d602083018462000f6b565b939250505056fe60806040523480156200001157600080fd5b50620000467f626b15004d536174361d8d617f16ec425fb376df0925b9c1042da74be878468e60001b6200026060201b60201c565b6200007a7f149b0adbe97a9a6071eaca420c94e7c2db92bd27697a3a9502c4e67bc07e587d60001b6200026060201b60201c565b620000ae7f41f06e5f5272fd95cac67797785e01520f499b352fd79bfd795c606f1b13d07f60001b6200026060201b60201c565b7f8b73c3c69bb8fe3d512ecc4cf759cc79239f7b179b0ffacaa9a75d522b39400f6040518060400160405280600781526020017f556e697377617000000000000000000000000000000000000000000000000000815250805190602001206040518060400160405280600181526020017f310000000000000000000000000000000000000000000000000000000000000081525080519060200120463060405160200162000161959493929190620002e1565b60405160208183030381529060405280519060200120600381905550620001b17fb5143ede86865e59d59dd57bbcbb6c96fbe82d82df68b4903600d4329d38824560001b6200026360201b60201c565b620001e57fdae71e579825b0b373714ed1b136e69f050e2b5dc781edf621ec05ec60736f3b60001b6200026360201b60201c565b620002197f5234c8ed956359033d0659d961b0e9424675d615f7f787dd19978ffc73f96c8060001b6200026360201b60201c565b33600860006101000a81548173ffffffffffffffffffffffffffffffffffffffff021916908373ffffffffffffffffffffffffffffffffffffffff1602179055506200033e565b50565b50565b6000819050919050565b6200027b8162000266565b82525050565b6000819050919050565b620002968162000281565b82525050565b600073ffffffffffffffffffffffffffffffffffffffff82169050919050565b6000620002c9826200029c565b9050919050565b620002db81620002bc565b82525050565b600060a082019050620002f8600083018862000270565b62000307602083018762000270565b62000316604083018662000270565b6200032560608301856200028b565b620003346080830184620002d0565b9695505050505050565b61767a806200034e6000396000f3fe608060405234801561001057600080fd5b50600436106101e55760003560e01c80636a6278421161010f578063bc25cf77116100a2578063d505accf11610071578063d505accf1461058f578063dd62ed3e146105ab578063f9e8cf33146105db578063fff6cae91461060b576101e5565b8063bc25cf7714610519578063c45a015514610535578063c5700a0214610553578063d21220a714610571576101e5565b806389afcb44116100de57806389afcb441461047c57806395d89b41146104ad578063a9059cbb146104cb578063ba9a7a56146104fb576101e5565b80636a627842146103ce57806370a08231146103fe5780637464fc3d1461042e57806383e7d7c71461044c576101e5565b806330adf81f11610187578063485cc95511610156578063485cc955146103585780635909c0d5146103745780635a3d5493146103925780635a76f25e146103b0576101e5565b806330adf81f146102e0578063313ce567146102fe5780633644e5151461031c578063443cb4bc1461033a576101e5565b8063095ea7b3116101c3578063095ea7b3146102445780630dfe16811461027457806318160ddd1461029257806323b872dd146102b0576101e5565b8063022c0d9f146101ea57806306fdde03146102065780630902f1ac14610224575b600080fd5b61020460048036038101906101ff9190616270565b610615565b005b61020e611939565b60405161021b9190616388565b60405180910390f35b61022c611972565b60405161023b939291906163f2565b60405180910390f35b61025e60048036038101906102599190616429565b611a53565b60405161026b9190616484565b60405180910390f35b61027c611d34565b60405161028991906164ae565b60405180910390f35b61029a611d5a565b6040516102a791906164d8565b60405180910390f35b6102ca60048036038101906102c591906164f3565b611d60565b6040516102d79190616484565b60405180910390f35b6102e8611dfa565b6040516102f5919061655f565b60405180910390f35b610306611e21565b6040516103139190616596565b60405180910390f35b610324611e26565b604051610331919061655f565b60405180910390f35b610342611e2c565b60405161034f91906165b1565b60405180910390f35b610372600480360381019061036d91906165cc565b611e4c565b005b61037c612103565b60405161038991906164d8565b60405180910390f35b61039a612109565b6040516103a791906164d8565b60405180910390f35b6103b861210f565b6040516103c591906165b1565b60405180910390f35b6103e860048036038101906103e3919061660c565b61212f565b6040516103f591906164d8565b60405180910390f35b6104186004803603810190610413919061660c565b612b40565b60405161042591906164d8565b60405180910390f35b610436612b58565b60405161044391906164d8565b60405180910390f35b6104666004803603810190610461919061660c565b612b5e565b60405161047391906164d8565b60405180910390f35b6104966004803603810190610491919061660c565b612b76565b6040516104a4929190616639565b60405180910390f35b6104b56134e1565b6040516104c29190616388565b60405180910390f35b6104e560048036038101906104e09190616429565b61351a565b6040516104f29190616484565b60405180910390f35b6105036135b3565b60405161051091906164d8565b60405180910390f35b610533600480360381019061052e919061660c565b6135b9565b005b61053d6135e8565b60405161054a91906164ae565b60405180910390f35b61055b61360e565b6040516105689190616662565b60405180910390f35b610579613624565b60405161058691906164ae565b60405180910390f35b6105a960048036038101906105a491906166d5565b61364a565b005b6105c560048036038101906105c091906165cc565b613b05565b6040516105d291906164d8565b60405180910390f35b6105f560048036038101906105f0919061660c565b613b2a565b60405161060291906164d8565b60405180910390f35b610613613bf7565b005b6106417fecd238e9cf9792ba857d5dcf2a0acd009a53b97cfc171dd96db15c0cb0b4114660001b613c25565b61066d7f88e8bc3414c277878442f6c7aade170d1395d764d0cfd220fdbb74b58baebc9760001b613c25565b6106997f7f24599e377c08ae4ce15d0b2d5c5f9d6f5b095abc57794af856c714ac31ee4360001b613c25565b6106c57f1e9a5f1f18fc916c167322df03c9666ff902006ca37213267442df28447ff81a60001b613c25565b6000600e541461070a576040517f08c379a0000000000000000000000000000000000000000000000000000000008152600401610701906167c3565b60405180910390fd5b6107367fa91b5ef35e16130db0589957d07a1460cb4339a43caa341055a459d33151f66e60001b613c25565b6107627fe0df8d13ded48443a370d05e29851d2f1fa6a6d8a980847b76ee6edcf993ec7260001b613c25565b61078e7ff9a492f8964ea84e0a83789d84f4afc97df524fb25a10b0c14bd6c332d7fac0d60001b613c25565b6001600e819055506107c27fb9bc6f1470e3eb603acdd3ba13ef7018e969d0b3a945c80c914f748c1fde2b0f60001b613c25565b6107ee7fe55ce04b464edb01a6e8e7186485bafbbf36cce6f552df2d97636c79920e774f60001b613c25565b61081a7f11d3be1450a9c49fb66843ecade0e2701a1b1a2f4f7519579148ed76eb92dcd760001b613c25565b6108467f5083e3503eb908993a313ea4cbd6c134653f410a779006e6764a4e085df1833b60001b613c25565b6108727f09f02450c37942c1a1ba501ef29c5a014d4093b9e2a8edac165d14cc70e832f460001b613c25565b60008514806108815750600084145b8015610898575060008511806108975750600084115b5b6108d7576040517f08c379a00000000000000000000000000000000000000000000000000000000081526004016108ce90616855565b60405180910390fd5b6109037ff98f0bfd2d37cfc9669c202a1e82b5b9189e55d1b4c9028ba4f3ac85dcc4767360001b613c25565b61092f7fae32c31258623ebbda8e1c71cd4847f068ada94b6a5a244933f1f1c5ad8c7d7360001b613c25565b61095b7f6d8a5f4e898fd54c9c668bacd48fb69e5f232df5d397b6f401301fddaacbcb4760001b613c25565b600080610966611972565b50915091506109977f233d54a7604a071a030136c42e98df4e8e63bd8a8e4d1aeb25a65dc3562fc22260001b613c25565b6109c37f07fe96f97308c86bda0f338533c15ea27ca2259d1db4cea3bdb4ce55d149ead060001b613c25565b6109ef7feeb7d4931b7dcadd3aa43c1902c2d5cb6cdf8190da86fe45d4f6c51cd76e9b5960001b613c25565b816dffffffffffffffffffffffffffff1687108015610a1d5750806dffffffffffffffffffffffffffff1686105b610a5c576040517f08c379a0000000000000000000000000000000000000000000000000000000008152600401610a53906168c1565b60405180910390fd5b610a887f48fbef7d422834db5e75dfc7fd230dfb0283dd4fe25141b20581012ec753cb5c60001b613c25565b610ab47f69d9e91ea848c6155a69c73d0e2010fa4084b070e87349e2d97c31b3a0578aee60001b613c25565b610ae07f52699de5bad55c3c00d359eb02bef43d9c71301e9af1605a7a7bc8348f59387e60001b613c25565b6000610b0e7fc77b05d6cd99cf9423c1d7e01a82ce26e90b94818ca6d3f0c7f616ad27dbad2c60001b613c25565b610b3a7fbf0c66de19f12b145f11f6dd5bea8f4398bd7cc8b089d5f6947ac63f211d2c3960001b613c25565b6000610b687f1e4fb064762166eb890cb52336d546c09832900b16856daf111489f1c1f3dccd60001b613c25565b610b947f6c22bd774862d99f0d08266c6d9161b7723f6f891502c44f8a0b99ce5a35c4cc60001b613c25565b610bc07fb28aed2945f68da734980b5c6c17a61db4065744b59dcd6a6c9ca1dbdd0f215060001b613c25565b6000891115610c5357610bf57fe4725673c1b6f9924f3843f11bf47b1f9f63223fdd440ee93370b8930fcade4660001b613c25565b610c217f636abf19e303e53742a3bdd381ccc4fad876b69df568dcb9354666040c1f525660001b613c25565b610c4e600660009054906101000a900473ffffffffffffffffffffffffffffffffffffffff16888b613c28565b610c80565b610c7f7f49febf8ea08b9cb8345c4a6fbe85ccd5d85aecaea4157f80432dad23b6794b9860001b613c25565b5b610cac7fb1ee1f01f2b1a021da8ddea42e060ec33eeb05346a904c515bf6c1ad55f0b6a160001b613c25565b610cd87fa7ea48dbeb05aced8220ee535b35e6f7b934aa63cb35f2a7b272fcbd2f1e916f60001b613c25565b6000881115610d6b57610d0d7f6751bc7cb58bb3d72ab17e8b37c890b7952eefb704f05c21e739f2eaf820b16560001b613c25565b610d397f6b053c4d2b4f97f2e9f3e60cca4fafc73628c32a5c717f60896a84ef875b5cc560001b613c25565b610d66600760009054906101000a900473ffffffffffffffffffffffffffffffffffffffff16888a613c28565b610d98565b610d977f0e70dd30dd9b94090c1b67c5673c310e40a42819ba27bb07cdd52d876cecc3a560001b613c25565b5b610dc47fb50159426164217b47bf15be2800488176860345f6f710f88f112fca524826d660001b613c25565b610df07fae0eb0abaaf197584f9bbac08da91bbe4ce967eee41614e38a8e167113190b0860001b613c25565b6000868690501115610ecc57610e287ff46e1574f9e31f6646d8df15b55d0894c150bbae8a1c8f0481aabad6d984a1a360001b613c25565b610e547f16b4b653abdb115cd1eb4cb23fb3f5a9db40698cd12108b6a6f585be7ec60bf360001b613c25565b8673ffffffffffffffffffffffffffffffffffffffff166310d1e85c338b8b8a8a6040518663ffffffff1660e01b8152600401610e9595949392919061692e565b600060405180830381600087803b158015610eaf57600080fd5b505af1158015610ec3573d6000803e3d6000fd5b50505050610ef9565b610ef87f5ce7b23cec02f2604dd1547e98eb3ff00a062774752228ef3ac3af376c9ceaa960001b613c25565b5b610f257f4e2cfb0b0dca56512a20048f532faca63056adf21caa1ab5ca0afd9085b7089360001b613c25565b610f517f73f7a96204b794dff5952bbd32dadcab983b567b31acb3703dc976847c22e3a060001b613c25565b600660009054906101000a900473ffffffffffffffffffffffffffffffffffffffff1673ffffffffffffffffffffffffffffffffffffffff166370a08231306040518263ffffffff1660e01b8152600401610fac91906164ae565b602060405180830381865afa158015610fc9573d6000803e3d6000fd5b505050506040513d601f19601f82011682018060405250810190610fed9190616991565b915061101b7fc6d8b16cf5b4d39cf0a32e6e24b044dfdd26fc5300792ab88a2b43e535a49c0560001b613c25565b6110477f4236227cd3ebefd98353bfdcac81079a0ec92b6fce8297475b9200e24bfcff8860001b613c25565b600760009054906101000a900473ffffffffffffffffffffffffffffffffffffffff1673ffffffffffffffffffffffffffffffffffffffff166370a08231306040518263ffffffff1660e01b81526004016110a291906164ae565b602060405180830381865afa1580156110bf573d6000803e3d6000fd5b505050506040513d601f19601f820116820180604052508101906110e39190616991565b90506111117f60cbae470c0f39f39d78a58df8ea03ffe5660f9ad816d8ba09bf101a217001f760001b613c25565b61113d7ffe892853a677ee5590cbdd7fdfaf3d17a6ac7ac887e1e2a3ead61dc10cde297360001b613c25565b600061116b7f551097b6209186ee11dab6124add2f258da34b69969099bbb4c585474a73d43360001b613c25565b6111977ffd216d5b6851bdb555d708daa6a2b8103e37202ef773d810523be2aa67ee5f9160001b613c25565b60006111c57fe8fe7f3ae11525afb84a78adbdfd306b2528dd683e82f6b489520dd38b2d2a0660001b613c25565b6111f17f294dc79ef079a9b06f7de1d2338dd54296feaa44437f337dba0b72b4cbf9094d60001b613c25565b60008b036112a0576112257f7ac446405949582f3ebe11a0701fba206612ef76156e3afe762d3a90e71ec42860001b613c25565b6112517fb6cc5b4cb1c4256fca024c93f573da2ab0dc7b78ec19e7432d748bf4d403107d60001b613c25565b61127d7f280f342c2153ea3f9689ec8444dd1758a2039df7f6e111561fbb8eb2402e86cf60001b613c25565b856dffffffffffffffffffffffffffff168461129991906169ed565b91506112cd565b6112cc7f886f2835ffb036418286b6aa05c64a12d2668555190e9b789877dbe796e1671e60001b613c25565b5b6112f97fdecf4216465802823ae9854933a2e94d3d204a72c36cb501888745341f15962060001b613c25565b6113257fc5fbd50a9a35a31beacd7c2517962d1da3ab05b0bd21f4654992e8be6cfb68ba60001b613c25565b60008a036113d4576113597f5a76fd9b07cac53b65a51b9107dfa1639f0f13faa2cf90d220898b3b21e3022060001b613c25565b6113857fabe0c14445dc0e060eba483ea4b18d8691c288a6a887f2e6c6a71fabdd4e4f9760001b613c25565b6113b17f3b01833b5059beb1e8481e4adf3e55dcdd1cbc45b2b58568f1bf202a4851d21060001b613c25565b846dffffffffffffffffffffffffffff16836113cd91906169ed565b9050611401565b6114007f0f6dde4b8e3b3fa21570a4a06e5dd32ca8164340e18486a3f9e1ea34f37d3d4360001b613c25565b5b61142d7f890633f0e63661f90323681227bcb9e684e7f774e0043660e6661bf4dfdf710360001b613c25565b6114597ff51870c3f0dff856cb98738f88f313f5d41b81c4d224245c4052959aec1cedc360001b613c25565b6114857fcc6f3e5ba0ca0f8636c68503f08e43d47b7b4b1b0227da2b8314615d49c0235f60001b613c25565b60008211806114945750600081115b6114d3576040517f08c379a00000000000000000000000000000000000000000000000000000000081526004016114ca90616a93565b60405180910390fd5b6114ff7f927ed539e4537618f96a2671405fcb2bd03c5e27bc3d9950053af1d4133ff2eb60001b613c25565b61152b7f8aa57639517e74448b232f46ce01d8f921a598bc2eb96993cf4e12dfc5fb936c60001b613c25565b6115577fc06b8da9057e8d559713c622df09bcefa625a72fa792a8fd29c8814fb5beb6ed60001b613c25565b6115837f7eaba1c08503d08a704e9dab9799e7025a7f7678c220fe5552a29d50810fc5b760001b613c25565b60006115bf61159c600385613ee690919063ffffffff16565b6115b16103e888613ee690919063ffffffff16565b61403090919063ffffffff16565b90506115ed7f9a5ab2913721b2aa4f959252268cc3b8a3c7e3d240d91065011d12760633689d60001b613c25565b6116197f23aa515fe626d2119b9d5e8c3fbca9910800a3160a63b006de84426ad3835c7560001b613c25565b6000611655611632600385613ee690919063ffffffff16565b6116476103e888613ee690919063ffffffff16565b61403090919063ffffffff16565b90506116837f6c933fba6f492eaac32ab72bf6e8a4bd09d45ae88e2279a7acb3c7f6d0327e7860001b613c25565b6116af7fb118bd0416e88c9ddeea0ea681fb2895cec76adcf3abfbd6daaefc001a38a6de60001b613c25565b6116db7faeee9521c76563af1d48538649657b61d1554a4d74617f1db4c59565e3458bd960001b613c25565b611723620f4240611715896dffffffffffffffffffffffffffff168b6dffffffffffffffffffffffffffff16613ee690919063ffffffff16565b613ee690919063ffffffff16565b6117368284613ee690919063ffffffff16565b1015611777576040517f08c379a000000000000000000000000000000000000000000000000000000000815260040161176e90616aff565b60405180910390fd5b6117a37fde8996c56e515ce76fd899fd76b58264e3de637cffa0f0e54bd2a73740a122f060001b613c25565b50506117d17f21ae6768a703e77a6294baaf8feaa998802308bcc2a0ee74b748fb8035dea26260001b613c25565b6117fd7f66a7d60bbc0849037a4f7de92a5b39e1b9bc7836804aebc6684beac473be9bca60001b613c25565b61180984848888614165565b6118357fb74dbe550066f0a3acf6ed5e88939dd2c8f10d7749119202624e16966518329d60001b613c25565b6118617feb6aa626f90b06cee746f178c25ece930039d0d9db4e3469973442fbffd898b660001b613c25565b8873ffffffffffffffffffffffffffffffffffffffff163373ffffffffffffffffffffffffffffffffffffffff167fd78ad95fa46c994b6551d0da85fc275fe613ce37657fb8d5e3d130840159d82284848f8f6040516118c49493929190616b1f565b60405180910390a35050505050506118fe7fb7cb605d180d92c7f3fd4e8c0c84b9d1473ebd8c640037244cea7d59b59000dd60001b613c25565b61192a7fa17805909996f23baae27cc4745bdbbb06ca1a1f1ec7e8a2c262090557245f9060001b613c25565b6000600e819055505050505050565b6040518060400160405280600781526020017f556e69737761700000000000000000000000000000000000000000000000000081525081565b60008060006119a37f1604bc63eeeba78122d62514ec13dd6387d59676c2da0755a668287632ce3ed860001b613c25565b6119cf7f981b6924a8eb0b45997a07ae6c12557dd6484b1a7f1f6f1199958a9c52981bde60001b613c25565b6119fb7fb357c59382ab23a760b64ec0a3fef497f4e782d411d88f332cf0340d75ec03a960001b613c25565b600560009054906101000a90046dffffffffffffffffffffffffffff166005600e9054906101000a90046dffffffffffffffffffffffffffff16600b60009054906101000a900463ffffffff16925092509250909192565b6000611a817faec699c6fcb304ecbeb93dc2e983a98aaaf6eb4aadde1874f06dec0f5a54a56260001b61478a565b611aad7fe4bc6380c59f8ac2caab64f873961847a6e69f43ae84a777de655ad692ef36dc60001b61478a565b611ad97fb01d147aedcefe4f8f323ed71b75afe46597f8b67ef13267ff9944cf0af8df5f60001b61478a565b611b057fc75c992d1e7f7cd011c6cf3cd13d27a271515d59e45b9eeb0f34cdc9c797109860001b61478a565b816000803373ffffffffffffffffffffffffffffffffffffffff1673ffffffffffffffffffffffffffffffffffffffff168152602001908152602001600020541015611b86576040517f08c379a0000000000000000000000000000000000000000000000000000000008152600401611b7d90616bb0565b60405180910390fd5b611bb27ff9a1b890d867db45cb470714ec545d3dff2ad33c3d4289e851edc648f0cfa36560001b61478a565b611bde7f72a0828ac88fa2402102bccd8e7d06899df9baf35c90aacdb367d7c8e0f5280a60001b61478a565b611c0a7fcb0bfa650cc4ea0db6ba35209d911992ffb5bc952c7708b836d23164e36655dd60001b61478a565b611c1583338461478d565b611c417f0ced4847ddcc8f2bfaec54bf14807d07cb424e5cf0252bb31a8914147784fc0360001b61478a565b611c6d7f88232ff4c47b12cda018f221731a35e02efe984d718b60da7b5d8a5152bcf17e60001b61478a565b8273ffffffffffffffffffffffffffffffffffffffff163373ffffffffffffffffffffffffffffffffffffffff167f8c5be1e5ebec7d5bd14f71427d1e84f3dd0314c0f7b2291e5b200ac8c7c3b92584604051611cca91906164d8565b60405180910390a3611cfe7fae088a7f15b0143482412b89f9e3a9cdc3fc50fc323cd199807cca33d4c4ff7360001b61478a565b611d2a7f91a04e8d85a7fd6f344d4d125034aaadb4b0b65e051b6c0e7c94da85c5117d3860001b61478a565b6001905092915050565b600660009054906101000a900473ffffffffffffffffffffffffffffffffffffffff1681565b60025481565b6000611d8e7fccc762c58940db907f8bb1177b278fe05555ff1b17b0cd38395f47b91ac1969360001b61478a565b611dba7fddc1caf81a2c687aa8f2a3a9d73983fd56ad2e1166dbed27ddfbdef67a22de7860001b61478a565b611de67f207e867637db0aca451ad39f934de43c47d5621fc3186e9affd1c0e729df7ecb60001b61478a565b611df1848484614ad5565b90509392505050565b7f6e71edae12b1b97f4d1f60370fef10105fa2faae0126114a169c64845d6126c960001b81565b601281565b60035481565b600560009054906101000a90046dffffffffffffffffffffffffffff1681565b611e787fb5d727e6366e2c9ae34f2046e1de6d538e61814e21f9c5b9ad6d9b7b73c5b5a860001b613c25565b611ea47f06b4bb88595d048ba0a2678117c243c249c4b8eab6590f93f2d8bb9ceadfd6eb60001b613c25565b611ed07f3c4ad290652b3c1e8e9d02a7e85fbf7b27fc79e3a9318031c3f00fb1dcafe2c860001b613c25565b611efc7f04a8260f279737efe0e19ce6036b99c57f84b5bb3bcfba19d9da1b21262408f760001b613c25565b6000600a5414611f41576040517f08c379a0000000000000000000000000000000000000000000000000000000008152600401611f3890616c1c565b60405180910390fd5b611f6d7f9c7e08b08f50f6669ef01a9ef46e2b80c45d1678711689ccfbd1c8912039306e60001b613c25565b611f997f81026adca4c83f6be23e8d14894e1272a383ba5ad7b9f71288c9887ababe927060001b613c25565b611fc57fb1a1107271cd3be7dd82e502f7655a1fdd6f608111b329c934ffda2c7fc4471a60001b613c25565b81600660006101000a81548173ffffffffffffffffffffffffffffffffffffffff021916908373ffffffffffffffffffffffffffffffffffffffff1602179055506120327f5006f0c985bedd1920b615a0cf64dc007c07daea02582bd3cd9320591f27522160001b613c25565b61205e7f178b6031470020a4d49b160b74f6ceb38ddd22e54b22287639f95e2bf052679f60001b613c25565b80600760006101000a81548173ffffffffffffffffffffffffffffffffffffffff021916908373ffffffffffffffffffffffffffffffffffffffff1602179055506120cb7f052d5e4fd3679438fdd918af2cc62c379c3759dfefbbcb8184883d3b9becf41b60001b613c25565b6120f77f33d72a76243b25a83901278f24877da6c9e62c54cc62b0cd1231175b71be74b760001b613c25565b6001600a819055505050565b600c5481565b600d5481565b6005600e9054906101000a90046dffffffffffffffffffffffffffff1681565b600061215d7fecd238e9cf9792ba857d5dcf2a0acd009a53b97cfc171dd96db15c0cb0b4114660001b613c25565b6121897f88e8bc3414c277878442f6c7aade170d1395d764d0cfd220fdbb74b58baebc9760001b613c25565b6121b57f7f24599e377c08ae4ce15d0b2d5c5f9d6f5b095abc57794af856c714ac31ee4360001b613c25565b6121e17f1e9a5f1f18fc916c167322df03c9666ff902006ca37213267442df28447ff81a60001b613c25565b6000600e5414612226576040517f08c379a000000000000000000000000000000000000000000000000000000000815260040161221d906167c3565b60405180910390fd5b6122527fa91b5ef35e16130db0589957d07a1460cb4339a43caa341055a459d33151f66e60001b613c25565b61227e7fe0df8d13ded48443a370d05e29851d2f1fa6a6d8a980847b76ee6edcf993ec7260001b613c25565b6122aa7ff9a492f8964ea84e0a83789d84f4afc97df524fb25a10b0c14bd6c332d7fac0d60001b613c25565b6001600e819055506122de7fb9bc6f1470e3eb603acdd3ba13ef7018e969d0b3a945c80c914f748c1fde2b0f60001b613c25565b61230a7fc62922e09f588df17f3c2828e139ac05ca0abbb7c4dcc5fc7442d5aeb3b7448b60001b613c25565b6123367fcb93aac11e22a2e30f427f64a7e130fd7f16fabfe1ff0bf302e9f87c109f446060001b613c25565b6123627fa75a4c78615a3ecdd00b6e4aa6f6b6350273bfe5901fad459a72ab1a4ac988a760001b613c25565b60008061236d611972565b509150915061239e7fb4b4f90a56243a99bafd5cc90630ed47ddf2b92b334165cb03599eb7ef232e6260001b613c25565b6123ca7f402e3891bdda11c17d563a7612d14ec40c92bb7013223630e907e0dc1920d58960001b613c25565b6000600660009054906101000a900473ffffffffffffffffffffffffffffffffffffffff1673ffffffffffffffffffffffffffffffffffffffff166370a08231306040518263ffffffff1660e01b815260040161242791906164ae565b602060405180830381865afa158015612444573d6000803e3d6000fd5b505050506040513d601f19601f820116820180604052508101906124689190616991565b90506124967f886306e2af8f6388b83c8cc8ef8bc79536ad55e4a598f265dd0903dea4129d7260001b613c25565b6124c27fd6c20a126f810d5b59f16ca00f0d398c5f935cc2eea63eee6721b1c348e0f8c560001b613c25565b6000600760009054906101000a900473ffffffffffffffffffffffffffffffffffffffff1673ffffffffffffffffffffffffffffffffffffffff166370a08231306040518263ffffffff1660e01b815260040161251f91906164ae565b602060405180830381865afa15801561253c573d6000803e3d6000fd5b505050506040513d601f19601f820116820180604052508101906125609190616991565b905061258e7f44b443424801de5dc90e2fd28027e8ee6ee6b6332387fb161f9af6459cec6ae060001b613c25565b6125ba7f57364462f56dc57e1d90a8c9379bc86b50f7b586eaf46460984805bb576c2e1460001b613c25565b6000846dffffffffffffffffffffffffffff16836125d891906169ed565b90506126067f47a0a1f0469fbd85302b99ac0786e752b50402ec5ced610d1f7c10c347c1b4ac60001b613c25565b6126327fc0d0db238a7116414577ff1723b70afd9d450d87feddf87fe085d717c0d769ab60001b613c25565b6000846dffffffffffffffffffffffffffff168361265091906169ed565b905061267e7f7ebaba5b13b086f9e9fbb62317999f8928e82fc10e0a49f1387764aec25feed260001b613c25565b6126aa7f2ec54157059f8e9aeeaab289268f47ad952cac4c5f89a5f88bb30366bd8d662660001b613c25565b600060025490506126dd7f1654b03fb18cf991c13f5164d981d9921fbedda43ee2bf16f0bd56958ceb0f7560001b613c25565b6127097fc3ff4ed792ca81e8b74e7b41609230c6a132d0f646e16e30b69a93eeaf4fc27460001b613c25565b600081036128305761273d7fd5995c41db74e6e3f192a6d7520136df9a97dbd55221daa4531c1630eb14386760001b613c25565b6127697f100e631428747f2d739600d3ab82356933d3ecc4ffeb5ab875b4c63323eb65fd60001b613c25565b6127957fc62fced52b1ef273320ce8c78e5d6111e91b0c0c0da2f904a37071b3da6240e360001b613c25565b6127c46103e86127b66127b18587613ee690919063ffffffff16565b6150b4565b61403090919063ffffffff16565b97506127f27f9e6d964b35981f322b61a861663503ebecd86e0e65ac9b08efb591c05d4b0ac560001b613c25565b61281e7f6b174cf2fedd3080e91081e60bbbc4276a721659131daa3fdf6c4e9cf06908fc60001b613c25565b61282b60006103e86154a3565b61291b565b61285c7f09dd2b225e7be72121aaeb75544459e59dc27d67b585f5e8a319169477ad785660001b613c25565b6128887f2fae0f66ef72545f7500781dbe5edb7506031d5e2679b2ea46ab1a4da78aaa9d60001b613c25565b6128b47f991adb09003b2a68f27b69f4d35264bd2e50683ccce095b703a51e5e8c3b993960001b613c25565b612918876dffffffffffffffffffffffffffff166128db8386613ee690919063ffffffff16565b6128e59190616c6b565b876dffffffffffffffffffffffffffff166129098486613ee690919063ffffffff16565b6129139190616c6b565b6156d2565b97505b6129477fe80212b62d990bb1a4540a0f6e3c979d89d5b479b56aa72adfadc1cf966adb8a60001b613c25565b6129737f78a3a041cac12acde6e2fe0b3dbbef759c7cfc7cd9f82acee14cafa4ecb1143a60001b613c25565b61299f7fd854227b38a693672be885ca798bdc99f52c37693d75e29cd91976ca7133201a60001b613c25565b600088116129e2576040517f08c379a00000000000000000000000000000000000000000000000000000000081526004016129d990616d0e565b60405180910390fd5b612a0e7f3ab463bde98a3c66b4f57a2c04441a3460b2c73612d1ff2059a07ca8cfaa893860001b613c25565b612a3a7f52ada6073610b3463b5428260eaebf4db8cfb568468822a82e0a32e275d3f15760001b613c25565b612a667ffc77b11e309daac5ab1266911f1313cbef26b2dcefce0c0cc27c184cce61bccd60001b613c25565b612a7089896154a3565b612a9c7fa5b52ef9071076194b12580957283e98a8be5bce6163e5e3d11a5177dcacc53560001b613c25565b612ac87f89f7362380a402eb5e8a059cd6db7800e087191cdd2e57a121705433ced4a99460001b613c25565b612ad485858989614165565b50505050505050612b077fb7cb605d180d92c7f3fd4e8c0c84b9d1473ebd8c640037244cea7d59b59000dd60001b613c25565b612b337fa17805909996f23baae27cc4745bdbbb06ca1a1f1ec7e8a2c262090557245f9060001b613c25565b6000600e81905550919050565b60006020528060005260406000206000915090505481565b60095481565b60046020528060005260406000206000915090505481565b600080612ba57f531ea461de712c3c395d108745fe48cf837ecaae7a4f997d4c345e165df08b9360001b613c25565b612bd17f2aa5e8ccbabbaef83900fd07980f12a8269b477149a57321a9296c1c349360cd60001b613c25565b612bfd7fc075b749809f3cb5883a64e18598d99c881215a2917c8a5078b31b42d89dbd4960001b613c25565b600080612c08611972565b5091509150612c397f159ca06a9f5606dcfd6bcd2418ba53beba26c0ed9509f7929a9e76f9821ab61760001b613c25565b612c657fd9ccc41207abdf90d710b4821507017e7124d749b97c811579c7d61c3cf96ebf60001b613c25565b6000600660009054906101000a900473ffffffffffffffffffffffffffffffffffffffff169050612cb87f8c6285d5cce2c755304e236adc24eef5b6e224c3077ca3773c9cd10e478770f260001b613c25565b612ce47ff8665f7415c21c6209ef8340bff395dee4ce12f1ea348d0c0693c06f209ed8e760001b613c25565b6000600760009054906101000a900473ffffffffffffffffffffffffffffffffffffffff169050612d377f9c013240cffc57c9072a4aaacb47a0d7ff383597f3f4f20943b726bc1e892fb060001b613c25565b612d637f80a02d55eb77d2b948e13ab3bd0699fab631051531203744a38178f2292d4f0a60001b613c25565b60008273ffffffffffffffffffffffffffffffffffffffff166370a08231306040518263ffffffff1660e01b8152600401612d9e91906164ae565b602060405180830381865afa158015612dbb573d6000803e3d6000fd5b505050506040513d601f19601f82011682018060405250810190612ddf9190616991565b9050612e0d7f65cd40ae09b8285cce686cda70c98fdce7c8c9f9b0e3a1a00c39e4dc7730c7c060001b613c25565b612e397f70795a709c02635f841aaacf7f970bfd866007723049c0cbad497e016795543960001b613c25565b60008273ffffffffffffffffffffffffffffffffffffffff166370a08231306040518263ffffffff1660e01b8152600401612e7491906164ae565b602060405180830381865afa158015612e91573d6000803e3d6000fd5b505050506040513d601f19601f82011682018060405250810190612eb59190616991565b9050612ee37f8c70b762f1d29cf0f7242ecd8bb7c5b923d127e52caf43f97434b5c4dd3b97c260001b613c25565b612f0f7fee0f7cbdd464c5a167b7641ef8e021a918613f8154c309c1210140cb4372de6660001b613c25565b60008060003073ffffffffffffffffffffffffffffffffffffffff1673ffffffffffffffffffffffffffffffffffffffff168152602001908152602001600020549050612f7e7f0145a978395c4848d2039436ae32fac8e6edf97ac59790c3f65b241f343d903560001b613c25565b612faa7f7e213b48a0af79904423225f87909d62e90745b71cab8f8e7f6a539c8443f00f60001b613c25565b60006002549050612fdd7f6860f68c9746c73473cc3f330701dff6a87d942e49b818ab7a9de2734d88d7c160001b613c25565b6130097f45041eec3bf69ea6aba820e762b240239e07af8a39d6415da0ca18efcf4c1add60001b613c25565b8061301d8584613ee690919063ffffffff16565b6130279190616c6b565b99506130557f4d6b969d7c4576ea317a125616b6ee379f804b4011359131216f9a94b43b04b060001b613c25565b6130817fe12f0dcac2e4f0d4b1ef180787ba100aacd25c23b3c11e386ae57c00e68db80360001b613c25565b806130958484613ee690919063ffffffff16565b61309f9190616c6b565b98506130cd7f0623fba7b6d07e38be207cac9a5c7584b16d5acf7d2398c9016cc6b439ad9ebb60001b613c25565b6130f97fade2108a4b774b4535bf21864f7146cb5fb9451c4d62147b86249bb2679a952b60001b613c25565b6131257f6ec8e908f69bc37dc4773719354f4f37dc7c5b32e306470f170ce48738f2063e60001b613c25565b60008a1180156131355750600089115b613174576040517f08c379a000000000000000000000000000000000000000000000000000000000815260040161316b90616da0565b60405180910390fd5b6131a07f6dd5b1f922f8b3550ae9ece09a8fc6a61d2d0133b78bb182bedbbd4af8966fa560001b613c25565b6131cc7f61d8962d37b7dcdfde8c307562c29bc862b328e8f07a524cfe613e4d61471eef60001b613c25565b6131f87fbb6b0c6a4e1b8c6f99f6eea7e60e7902973a92209d4a2ecdd6e9dea5842494ed60001b613c25565b613202308361576f565b61322e7f50cc07155534ab358e41d760c567efa332d55f3b7af3837eab4cd96a7ddc906e60001b613c25565b61325a7f7ceb48e510bdf558c73134fa0f84b3c4637729ebeba67aa3959332b73d367c8260001b613c25565b613265868c8c613c28565b6132917f2d91d47303e028d876691927ed9af885ba400a9b51b7d72ac2d4888d2c7eddbe60001b613c25565b6132bd7fe16e2ce9e5de2821e8aca506b87d7dfe1394a6994b0215be0a3c44398d4a3aac60001b613c25565b6132c8858c8b613c28565b6132f47f697f122093069ff67e2f38aa364b1003d02a90301759502356ef8a73bfa15b7e60001b613c25565b6133207f6237f19dc83bdbc5792750bff34058a6c487675b1724f68e917127a5565f111860001b613c25565b8573ffffffffffffffffffffffffffffffffffffffff166370a08231306040518263ffffffff1660e01b815260040161335991906164ae565b602060405180830381865afa158015613376573d6000803e3d6000fd5b505050506040513d601f19601f8201168201806040525081019061339a9190616991565b93506133c87fa228701b9364c80bfe56234f979680b2a8cd31d00161e0ecaec109c26e7e786b60001b613c25565b6133f47fbb824fbc099d253dd1a34fc12549265ba34c1cd436350c67c5d2b0e7a431564560001b613c25565b8473ffffffffffffffffffffffffffffffffffffffff166370a08231306040518263ffffffff1660e01b815260040161342d91906164ae565b602060405180830381865afa15801561344a573d6000803e3d6000fd5b505050506040513d601f19601f8201168201806040525081019061346e9190616991565b925061349c7ffe581f61f0fc8682ddbc2d6b1b83520431b2656a409ecaf49451b09e317c500460001b613c25565b6134c87f163f22b3d6d521d3083dbf113a7160524a4b0bc55acdc20137dbeba1c26ce82460001b613c25565b6134d484848a8a614165565b5050505050505050915091565b6040518060400160405280600381526020017f554e49000000000000000000000000000000000000000000000000000000000081525081565b60006135487f96598d1aee3ec31764853afa3917808ecc00e9c26bb3173770c3107500ea42d260001b61478a565b6135747fb0435a69b85113382ff2b2f793ae2ff9186e331072bae93cee15794dd9499bb660001b61478a565b6135a07f9c27af010abf36d2b7629e2d5de42d6ca9b638c0f9b2ae8c966cda1f7905136f60001b61478a565b6135ab338484614ad5565b905092915050565b6103e881565b6135e57fc2ffdc54a7e068d6e11fd1b70e3105b2225001c788b5053f267a5c85e17c785c60001b613c25565b50565b600860009054906101000a900473ffffffffffffffffffffffffffffffffffffffff1681565b600b60009054906101000a900463ffffffff1681565b600760009054906101000a900473ffffffffffffffffffffffffffffffffffffffff1681565b6136767fbb8e951769395890a0cae6873ebb9ef3a0a52a711fe1f4fdea4c0beb6b1613f460001b61478a565b6136a27f7f73897cf4800eb549d045cacc8bcedd370ff101e9f95848b43dff47de26e71260001b61478a565b6136ce7f7c6d1704019c16b82ba5c4a47d66c417e94879f7fa69de6f2ffacbe8e9245ab660001b61478a565b6136fa7faf8399bd50fd7c634cf0c487685c96c103f81d228ff18c552a3fdd49a53746b660001b61478a565b8342101561373d576040517f08c379a000000000000000000000000000000000000000000000000000000000815260040161373490616e0c565b60405180910390fd5b6137697ff4f7c1fc7c4c50b729bc02e335a96c15b71273f34b1a63a362ffc7b70736fc8360001b61478a565b6137957fe0cd1ce355b0f3542194956c4cbc58e021ad9e6b5e309dc969b2e9ec6171b0a560001b61478a565b6137c17f2e70a91b07f79c2f2b1201cc7097b2fcc05b339dc3d5f909b804dc0d8c0425ff60001b61478a565b60006003547f6e71edae12b1b97f4d1f60370fef10105fa2faae0126114a169c64845d6126c960001b898989600460008e73ffffffffffffffffffffffffffffffffffffffff1673ffffffffffffffffffffffffffffffffffffffff168152602001908152602001600020600081548092919061383d90616e2c565b919050558a60405160200161385796959493929190616e74565b6040516020818303038152906040528051906020012060405160200161387e929190616f4d565b6040516020818303038152906040528051906020012090506138c27f607ee69bfb56bd4f04db1859eba4eada60cafe930df0a9512cdc2a775fe1ecd360001b61478a565b6138ee7fc2dd3c2e0e0e451e5ca7523836f590c32e7cd340f4737ca3bc7c633055be8adf60001b61478a565b6000600182868686604051600081526020016040526040516139139493929190616f84565b6020604051602081039080840390855afa158015613935573d6000803e3d6000fd5b50505060206040510351905061396d7f55421fc598c2da3579b4faea00337711f648dc38f97c0b70e71e2c248350000360001b61478a565b6139997fc3d0786795bef9e9c73ebaa27ae2f5fb46535a9ce9136c312548f89e222e716f60001b61478a565b6139c57f2b7da3bb56ce2c2b28fc199048cccc9111888ee0f7a4364906102c57dd9bab3b60001b61478a565b600073ffffffffffffffffffffffffffffffffffffffff168173ffffffffffffffffffffffffffffffffffffffff1614158015613a2d57508873ffffffffffffffffffffffffffffffffffffffff168173ffffffffffffffffffffffffffffffffffffffff16145b613a6c576040517f08c379a0000000000000000000000000000000000000000000000000000000008152600401613a6390617015565b60405180910390fd5b613a987f75b2ec5b16af0f11e1c8d3b8cec65bbdb6299aa461eb2428fb6cc9518f83584b60001b61478a565b613ac37ec93aa50a5d5ae19bb068f804b10ebf1b52e8944b624373ca6d84047d2fa77060001b61478a565b613aef7fda6bd9ad044919a764537bd6b915f358a90215216220af110e350bd9ec827e1360001b61478a565b613afa888a8961478d565b505050505050505050565b6001602052816000526040600020602052806000526040600020600091509150505481565b6000613b587f355272cfc3ee3714aed5fc705660563d9b819f3bd2a875804e69fc34a6fe696d60001b61478a565b613b847f0a86b82546797121d24d56e433a97300f6ad9b6ae23fda5f784f5658468d49c260001b61478a565b613bb07f8745bb7283b1eb5577a9f77c9d53836fc755eb0077a37a6e107fe72a087902c060001b61478a565b600460008373ffffffffffffffffffffffffffffffffffffffff1673ffffffffffffffffffffffffffffffffffffffff168152602001908152602001600020549050919050565b613c237f674149b8f0cf1c34e21595898050b1b432a5b717201c846bc6d77eb932e8560760001b613c25565b565b50565b613c547f853de4d2e71d5b331eeee45be0632098daf435bd753a751b1cda1bfff8249caf60001b613c25565b613c807f2e849dce107ad10abdd9fd1ca2f175e33889c53f8cd58cc7b53eb4fc753f2e3860001b613c25565b613cac7f4bd76b6e74fc5fb4b34b6122dac9074bdda93564738dca3931b169a10c1035ae60001b613c25565b6000808473ffffffffffffffffffffffffffffffffffffffff166040518060400160405280601981526020017f7472616e7366657228616464726573732c75696e743235362900000000000000815250805190602001208585604051602401613d16929190617035565b604051602081830303815290604052907bffffffffffffffffffffffffffffffffffffffffffffffffffffffff19166020820180517bffffffffffffffffffffffffffffffffffffffffffffffffffffffff8381831617835250505050604051613d8091906170a5565b6000604051808303816000865af19150503d8060008114613dbd576040519150601f19603f3d011682016040523d82523d6000602084013e613dc2565b606091505b5091509150613df37f39794ef05a72e7e1bdfd1c3ab9c1559826c59742d1e5031481dba9e7531a3b3360001b613c25565b613e1f7fa41c7135bac56dddc7ade006950b7141d6d34cbb3887270f6b7b1f1dedf2fa3060001b613c25565b613e4b7f40b56a1e5520da28b362f4083b796c297d003e4b4b62ea9a52280057ff1f162860001b613c25565b818015613e745750600081511480613e73575080806020019051810190613e7291906170e8565b5b5b613eb3576040517f08c379a0000000000000000000000000000000000000000000000000000000008152600401613eaa90617161565b60405180910390fd5b613edf7f12876b5e1c804b296582d33ae80426de3d236dfcfe5167f8e767a4f997becc7b60001b613c25565b5050505050565b6000613f147fe2d966d392ab478e407122f84a310040e15aed30771548c539078d9c560b7c2760001b615c37565b613f407f534aa230e8775e3f9a3c63606e10e3dd4501ae49abfe8f6d39457db52d5057d260001b615c37565b613f6c7fe2e52d594995912cf1e237d1ad5002841f579146336d793e43542c66e6c23e3260001b615c37565b613f987fb8178f53b23c3fb0d5b22ff6f97e72666e0b757a03335d2c71dba25e28e0abbc60001b615c37565b6000821480613fbf575082828385613fb09190617181565b925082613fbd9190616c6b565b145b613ffe576040517f08c379a0000000000000000000000000000000000000000000000000000000008152600401613ff590617227565b60405180910390fd5b61402a7f877708902d0373d2a8bf04d16963971f45fc8650ef0893bcd4c6e024177b003a60001b615c37565b92915050565b600061405e7ff9462e2946628777cf3f2c3a53addab1c7eeda19565d3ff90690e305a7e6594360001b615c37565b61408a7f249914a413d90547d21b39e2064dc3e615234d376222c95054e1bee3c1293f7d60001b615c37565b6140b67f6f8897041ac63bcba63042cbc9f5159b57856a7f2c39b16aa515b5fce017af9160001b615c37565b6140e27f4a07db7649423caffc57c990dbba2d111c53aa554b628fd0b820f2f639d5b40a60001b615c37565b8282846140ef91906169ed565b9150811115614133576040517f08c379a000000000000000000000000000000000000000000000000000000000815260040161412a90617293565b60405180910390fd5b61415f7f5e85eef731132f4fbc85560dd821d3a87aac3930d6ea68abc4bdae3a85de8d8d60001b615c37565b92915050565b6141917fb0f0c5044866fe9afc82d5bc3d9de170136cf6c74fddee9a4925fe8e05f56bfe60001b613c25565b6141bd7f80b0850e748a0c0318fa70c8c9d03b20e80b3e970753d7b04d71469ecf5c4d1760001b613c25565b6141e97f9f915910e76c08ecc095442a2209ea1cf0b04a0585538e55812d0961a9913da760001b613c25565b6000640100000000426141fc91906172b3565b905061422a7fa5c82405ca7bb219d15add470896ccdb4ece5fcee85c19a276ebecbbe1a8d12960001b613c25565b6142567f6890e446974f9883117362f9daa311c7130ddc07fc5efa8c0bd79f96cbd4b21860001b613c25565b6000600b60009054906101000a900463ffffffff168261427691906172e4565b90506142a47fa1af1431ef8d6f3d9c24d78b6b2a6d292d2cbfe363a0c876b6011cb0c967515960001b613c25565b6142d07fb7f50d8c6393fc0b525de34b8df8fbaccec37b824484c83a200afdc004ea355b60001b613c25565b60008163ffffffff161180156142f757506000846dffffffffffffffffffffffffffff1614155b801561431457506000836dffffffffffffffffffffffffffff1614155b156144fa576143457fdabef4edba092d372ad2594b41cbcf706f0856cbdd215fbe38ba762322b7413460001b613c25565b6143717f037db21ab18daea6ef955717e557fde9ebae22b5d3afae46f8c9dd90e52c99b460001b613c25565b61439d7f4665df21baf5f5c0c03caac3f66d58240c104edd6212c5ff71955db61b6c656160001b613c25565b8063ffffffff166143dd856143b186615c3a565b7bffffffffffffffffffffffffffffffffffffffffffffffffffffffff16615cf290919063ffffffff16565b7bffffffffffffffffffffffffffffffffffffffffffffffffffffffff166144059190617181565b600c6000828254614416919061731c565b925050819055506144497f8271ea892a37b48cc884d7ed828b09e57062cca89d63fd4e3fbe1ef222daad8560001b613c25565b6144757f70bb4cdfe91de853bae91fb0a905c389a8210e13d574c4ed62c5b151ac406dc560001b613c25565b8063ffffffff166144b58461448987615c3a565b7bffffffffffffffffffffffffffffffffffffffffffffffffffffffff16615cf290919063ffffffff16565b7bffffffffffffffffffffffffffffffffffffffffffffffffffffffff166144dd9190617181565b600d60008282546144ee919061731c565b92505081905550614527565b6145267f6c91341d015adfbd4d12af9c0865a08e49756fd683765e6d251baddb2fbf76bd60001b613c25565b5b6145537f5148f6ed252751f2dfcd5049b819a8412d78f53f7cf8c1590005db222aac448d60001b613c25565b61457f7f59c72498534d08b44c9a9852ac6b405498127519b0c728c2e4953e94dc6d56af60001b613c25565b85600560006101000a8154816dffffffffffffffffffffffffffff02191690836dffffffffffffffffffffffffffff1602179055506145e07fb930c4c65987994f4e0435485cce1364e68e1d9152ccfd79b1f220b5f0173f7560001b613c25565b61460b7ec14e084ae29755aa46949f0dfd34ab1a604f1544c2f9839ecaeb70fa7730c660001b613c25565b846005600e6101000a8154816dffffffffffffffffffffffffffff02191690836dffffffffffffffffffffffffffff16021790555061466c7f810f1fd4d157023d0668da1287153cc405d472a8c57dc8252c780949a0b7793460001b613c25565b6146987f953f570a41b89cb2e8f7f3c57a1f8e387a424298d026a771af0a09943e39c8ec60001b613c25565b81600b60006101000a81548163ffffffff021916908363ffffffff1602179055506146e57f2999d0bca2fd55596ce8e2e1c977650181ca99204b0044391ddd2a05bf73355160001b613c25565b6147117fbee27fd0a2dd27a878ed47a6359a971ea060deaabb579ebe7f171bebc909b42860001b613c25565b7f1c411e9a96e071241c2f21f7726b17ae89e3cab4c78be50e062b03a9fffbbad1600560009054906101000a90046dffffffffffffffffffffffffffff166005600e9054906101000a90046dffffffffffffffffffffffffffff1660405161477a929190617350565b60405180910390a1505050505050565b50565b6147b97fb16f831e87fa675ccd14f392c0f3abf51c6c6e946b5ad39fcf838a78885abb3060001b61478a565b6147e57f9fbb08705f2a1ac092414f8cbbb798f1621d913059a2470b9c6dc9768e91803d60001b61478a565b6148117f44756026621cf5c949c2f2563844cd48ae066108103f4fff6e3d132b261a714360001b61478a565b61483d7f275008bcaec8493324484d8ee948631983539efc70f0030f54454ee668a7e84b60001b61478a565b600073ffffffffffffffffffffffffffffffffffffffff168373ffffffffffffffffffffffffffffffffffffffff16036148ac576040517f08c379a00000000000000000000000000000000000000000000000000000000081526004016148a3906173c5565b60405180910390fd5b6148d87f3177b5abb10538cf12519e1bd8dd34c44bd2121a9f3ba6293a8041daf104dd4c60001b61478a565b6149047f273d5174a1096a123ef80967560fbcb2d7d73c10704a4e3e38d32c7bce41973c60001b61478a565b6149307fa83c2339df8062d2a0ec0bdd98ffa124c5050333ea86955ba179f46056121d3e60001b61478a565b61495c7f6b4a953136efe596f4867c5263b2f42947921c3fe4ae621a2e304fa95b02012a60001b61478a565b600073ffffffffffffffffffffffffffffffffffffffff168273ffffffffffffffffffffffffffffffffffffffff16036149cb576040517f08c379a00000000000000000000000000000000000000000000000000000000081526004016149c290617431565b60405180910390fd5b6149f77fe794b8378ae9b77836166399acb4f3e7fabcdfddee4a65c38181be20fed9f2b760001b61478a565b614a237f7319a9940b2b8835b02a1b69d6aafe70e415b854d5f20b582b18f6deecafc6fc60001b61478a565b614a4f7f79e1eff6f76b3dc0c774d5be6d0a87eb5cf29053a08f759950a79220749fd34b60001b61478a565b80600160008473ffffffffffffffffffffffffffffffffffffffff1673ffffffffffffffffffffffffffffffffffffffff16815260200190815260200160002060008573ffffffffffffffffffffffffffffffffffffffff1673ffffffffffffffffffffffffffffffffffffffff16815260200190815260200160002081905550505050565b6000614b037f696d99d3bf906160dba7e97c69bcd48cef0eb68b5556ed19f106643087f0708d60001b61478a565b614b2f7f3619a96abe241224a8dca9d69e32d7238c62aaf35435c3482fe5a26bb2dc7c9560001b61478a565b614b5b7fd2900df9ad403e0629bf44a98054066c4e73107cbfeec2382487af69830a9abb60001b61478a565b3373ffffffffffffffffffffffffffffffffffffffff168473ffffffffffffffffffffffffffffffffffffffff1614614d9157614bba7f51318712010ad81432c406010c204672e211628c24cf5ef8eafb983125627d3e60001b61478a565b614be67f8764283ca6d537bef539917474bbdab1c2a091890902fba26d6368d4f1af019460001b61478a565b614c127f606467ef6be66a867ebad8b92abadbd81bccee18550041d8c0d5ddbfe524ff4160001b61478a565b614c3e7f80991cb9bd886a67e10234cc6f3f9da0f7c83512739a4b1e7beed8cd924c69b960001b61478a565b81600160008673ffffffffffffffffffffffffffffffffffffffff1673ffffffffffffffffffffffffffffffffffffffff16815260200190815260200160002060003373ffffffffffffffffffffffffffffffffffffffff1673ffffffffffffffffffffffffffffffffffffffff168152602001908152602001600020541015614cfd576040517f08c379a0000000000000000000000000000000000000000000000000000000008152600401614cf49061749d565b60405180910390fd5b614d297ff8ab7b70ddbe11758cde9863f9c2a99054346bf90227658cf0b81b6f64a8ff9160001b61478a565b614d557fe98ad8ba0f5bd3d4851618748c50bba7348ce628345a758977ca1df4bc09e3b060001b61478a565b614d817fd3d3e112e3ff13b80be5ce0e14973aafc36f8820ca5d7c693066b7e86237faa160001b61478a565b614d8c338584615d9b565b614dbe565b614dbd7f6ab6baee84681da61bfa2ae55d4c8efc2689c53556d3d125e8e5e1f9818b4c6160001b61478a565b5b614dea7f752bf4ae4cc494683f19ea05f1f25877e637553b12b5fba71a4a725e8889484360001b61478a565b614e167fda3b7cf43ba91860a1cc79e93285ecc5f53f49579eaae3370bf291a76700da6a60001b61478a565b614e67826000808773ffffffffffffffffffffffffffffffffffffffff1673ffffffffffffffffffffffffffffffffffffffff1681526020019081526020016000205461403090919063ffffffff16565b6000808673ffffffffffffffffffffffffffffffffffffffff1673ffffffffffffffffffffffffffffffffffffffff16815260200190815260200160002081905550614ed57fe2d0105626ff1e79ce486833a5a43e0cc65d14c2b6d6bb8f30c7fa549b73b01160001b61478a565b614f017fcb63a12cf024e0126c01e624249825cd3273b6f2e9906e0f386f555f189bc75360001b61478a565b614f52826000808673ffffffffffffffffffffffffffffffffffffffff1673ffffffffffffffffffffffffffffffffffffffff1681526020019081526020016000205461603290919063ffffffff16565b6000808573ffffffffffffffffffffffffffffffffffffffff1673ffffffffffffffffffffffffffffffffffffffff16815260200190815260200160002081905550614fc07f22796deb680639b174822a375c797600bc92d6fdb0d6b54a712e32c22a4ddfca60001b61478a565b614fec7f662c03c72dd5084d51a5fccd04688525755a72a5dad776dcb35e218b6a6a4fe960001b61478a565b8273ffffffffffffffffffffffffffffffffffffffff168473ffffffffffffffffffffffffffffffffffffffff167fddf252ad1be2c89b69c2b068fc378daa952ba7f163c4a11628f55a4df523b3ef8460405161504991906164d8565b60405180910390a361507d7fcb2515abba4396440414bb2ea4599ee742edf680db4952160349d0f5015415d260001b61478a565b6150a97ff688bec386584cfb677c60bb5a992b4b5ca7e34366f523fae444a82e2e359aa160001b61478a565b600190509392505050565b60006150e27f823ed2ab82a985390163e9c564459b40705041f8f9b0bfa5ff4f284ec5cbdb1260001b616167565b61510e7fd6e0da58f5678cad73f197f201066477a361d239388f24addc43c569c5a5b44f60001b616167565b61513a7fbaae5996b72b9f5b87a42d18ea19339fbc622fa2400032b7f8438979074a1ea460001b616167565b60038211156153835761516f7ffb422fcb407df15a7e35a23eaf0ecdfaace49c4131c239f5b76662421be1ea9b60001b616167565b61519b7f87755d247f9086f8fca573991f56708af2cd6951843881b12403beca9c92cf8f60001b616167565b6151c77fb5e5bd8dc18b5d5295ada9ef4faecb63bfd78a2c1f7bc0808d7554990f0f345f60001b616167565b8190506151f67f020711bba64bc7baa81c20f398c5c5cc886fea6536144d51d213ed3717a2b5d860001b616167565b6152227ff05e3895bfb7ec8bba8ac25cadb5af8a329051076574c3453e356b25f703bbf460001b616167565b600060016002846152339190616c6b565b61523d919061731c565b905061526b7fa410c0605f1c469e2e155b1e94aa2d9444413b88cfd8ca3145beb7b3fef6957c60001b616167565b6152977f58a6cb9b14f52a629dcf63bb91c124aca7af5a463665eb71bae102fb3864a8f460001b616167565b5b8181101561537d576152cc7f3d9ca420bb698851583416aa4441160711fa7f6148909379e3acbd1699ef055b60001b616167565b6152f87f1f9d33d02c545a7a222146500581fd6edfdc8982e8a8c9613e06f1b7348d560260001b616167565b8091506153277f923d2c89feab3c32dc7257ccf98b762ed3135f151c9f8ac4f27617710224807960001b616167565b6153537f0f73a1672858956c48f38e3ef147b0a3539eec27522ecace36dccb1f6a3b4c0860001b616167565b60028182856153629190616c6b565b61536c919061731c565b6153769190616c6b565b9050615298565b5061549e565b6153af7ff6e88b4acc1323eb0027010fbf071071f16e2642e983332687625bd3626f6a7360001b616167565b6153db7f47d2270325a7ced597848f66bbb3c3918cd3a8690c6b133417f2ef8654e7b4ed60001b616167565b600082146154705761540f7ff3fc5899faa0feb8a94a8d2205d8e5926c5d4a01cb257c6c6570546364cd03ef60001b616167565b61543b7fc0b77e431beb92cd2aeb39cff1f7d33fde81096509f19c449a47cf988029fa1760001b616167565b6154677f7399fb433b996654195f55ec5a0b80bf17dc820a55a10453be550e6222d59e3b60001b616167565b6001905061549d565b61549c7f75900085156f83ef6d633cb247335ec959e9abaae3573c98b9d9c417ea31f6dd60001b616167565b5b5b919050565b6154cf7fd720b2bed6569ccc510b11e72e9a972c219375c85d0b0a6466f5b4c7162b2e6860001b61478a565b6154fb7fff8532b253ccc6bd7960f4ab527c01a08e202d7ac8ba9fdeacfca7c31dc903cc60001b61478a565b6155277fdf52d18d5e93a29f74b18fcf188ec9c675bdaed26266f29e296f868d2304b56460001b61478a565b8060026000828254615539919061731c565b9250508190555061556c7f4d493e5ce06fc882f277ce5ba1452b2c9828243589c054cb25fdfbcee4de7a0060001b61478a565b6155987fb5e89b7c11c919ee816716fe3eb17ff08d245a2ddfefb633f2b82fbc8765370860001b61478a565b6155c47fe09e3f544c72fa8574ceff0c5dd5304d085d10c800c6954e5838176e4d3215e560001b61478a565b806000808473ffffffffffffffffffffffffffffffffffffffff1673ffffffffffffffffffffffffffffffffffffffff1681526020019081526020016000206000828254019250508190555061563c7fe18e68b7080861c225ac36987272ef33388d4adf2182a56d51550ca4e444215660001b61478a565b6156687f55af3e0019b06494e905d95f350ac6c73e34bff778eeb455361b300bba83a6f060001b61478a565b8173ffffffffffffffffffffffffffffffffffffffff16600073ffffffffffffffffffffffffffffffffffffffff167fddf252ad1be2c89b69c2b068fc378daa952ba7f163c4a11628f55a4df523b3ef836040516156c691906164d8565b60405180910390a35050565b60006157007fa8bd98e2bd4228a3b4abda546c84912cb3ac3fa3a2a0f93bd5f359aade447ed960001b616167565b61572c7fcba48898275c65843b8a76746f682469eb5dda7dfaf63d2c0ac0e6809099772460001b616167565b6157587f98213827cc415e285f3a3ca8f1fa699b52bd2ddc95cba2758c36a67b4dac777b60001b616167565b8183106157655781615767565b825b905092915050565b61579b7fc7ad25cfe5d975f4618470e3d041bc9fd3514947f5e3c7a3631460dc82a1d12960001b61478a565b6157c77f070d323b79e881396086e2e44897d39e1b9bd533f79847fc6a11626b8214352260001b61478a565b6157f37fa338d7091ad8ddaca6b9f99e6cc1a8354aa61705bf9dc84c89a8759a79ffd46760001b61478a565b61581f7f7227de7ac8d4dba082f2bb29faae0d38049e03b88f3ab5a02edad320013e134960001b61478a565b600073ffffffffffffffffffffffffffffffffffffffff168273ffffffffffffffffffffffffffffffffffffffff160361588e576040517f08c379a000000000000000000000000000000000000000000000000000000000815260040161588590617509565b60405180910390fd5b6158ba7fa25201d3722b4f586b9b9083b6ca4e0b227dd7855014b5c870d193b58ebbb39a60001b61478a565b6158e67fb7b7b2afa01d0d1a54823b909bcde949ce3d0b64fe28e4ef7f872a503153824e60001b61478a565b6159127fe86ef79da68d508f8ed0ec72a49bbc1d58de95bae305e37f2ea5e9c9350cd87a60001b61478a565b61593e7ff5da4f070e4e32a6752b61c0f34a8cd7055d623c6b39a0c62ca2c484acd1183b60001b61478a565b806000808473ffffffffffffffffffffffffffffffffffffffff1673ffffffffffffffffffffffffffffffffffffffff1681526020019081526020016000205410156159bf576040517f08c379a00000000000000000000000000000000000000000000000000000000081526004016159b690616bb0565b60405180910390fd5b6159eb7faf54c420a662201b056f617a70236d1d7165a13581ae0405e4958225d51cde8c60001b61478a565b615a177f134a30154d037386ed05fe8bbe2140aaf76e31a11cd63f8c427a08016a25fad360001b61478a565b615a437f3935677bb0dbf766373631c5158c37d9e278605e973bba34e8403cc81c1c447d60001b61478a565b615a6f7f9c99611727edb51e9180c4ec63526e86915025a64cabff3b35ffa3fa3094406760001b61478a565b615ac0816000808573ffffffffffffffffffffffffffffffffffffffff1673ffffffffffffffffffffffffffffffffffffffff1681526020019081526020016000205461403090919063ffffffff16565b6000808473ffffffffffffffffffffffffffffffffffffffff1673ffffffffffffffffffffffffffffffffffffffff16815260200190815260200160002081905550615b2e7f2476b6ee69adbb592a8c2ad65be84dda677f7526e0b4d9b58e33fa609b75eefc60001b61478a565b615b5a7fb304865c9bf250edf3884b13e37f2dee7ed4e34e11f47b93e46bd44afdbfab7560001b61478a565b615b6f8160025461403090919063ffffffff16565b600281905550615ba17f42899138580dacefe2be3c9086f8b081760c650060fe9074848831bf1d3cfbba60001b61478a565b615bcd7fe3f71eb79c535aed43576b87ed6a395ce63937c845c6b8de85448989b206a00a60001b61478a565b600073ffffffffffffffffffffffffffffffffffffffff168273ffffffffffffffffffffffffffffffffffffffff167fddf252ad1be2c89b69c2b068fc378daa952ba7f163c4a11628f55a4df523b3ef83604051615c2b91906164d8565b60405180910390a35050565b50565b6000615c687f8a3a7fadda8dca01a3e20d0731b3078c926623f80b60b525f79d4f65801eabba60001b61616a565b615c947f103dfd3211a790254ed90307f9392f12f57881327652711530ac9568d8873fde60001b61616a565b615cc07f44ea24d74843f8e179db2f38f2e2a70468a9bba94ebcb458db969971c5f06faa60001b61616a565b6e010000000000000000000000000000826dffffffffffffffffffffffffffff16615ceb9190617551565b9050919050565b6000615d207fa4b9ef0273b9acb088aedd053386d2bfc20c0b3efe01cad7a8771bda4e8c2b0460001b61616a565b615d4c7f23c744710324a2beb5f316c104cb128e0675d372be3e4c681b5e4b1c70c98db360001b61616a565b615d777ec4bdb7afb3a2e90f91a295c14c21aa816649fad256b95bbcbe15434a192a6a60001b61616a565b816dffffffffffffffffffffffffffff1683615d9391906175a7565b905092915050565b615dc77f352dfc3a08877dce5b5d048b1a5056b3a53fd94460349b03fea16a4a752dc4e860001b61478a565b615df37f43296cf935e9253b75fad4a6dddf98d3f2a179bb1f33c4e98e8beb768057e2c960001b61478a565b615e1f7ff0d31c8a23c53e2bbfa6c721a474f403693a0250292ea52cd4e5d336bf54d2c960001b61478a565b7fffffffffffffffffffffffffffffffffffffffffffffffffffffffffffffffff600160008473ffffffffffffffffffffffffffffffffffffffff1673ffffffffffffffffffffffffffffffffffffffff16815260200190815260200160002060008573ffffffffffffffffffffffffffffffffffffffff1673ffffffffffffffffffffffffffffffffffffffff168152602001908152602001600020541461600057615eee7f103431c60e5ad7857e923097a881a976d8582172bc414da07a49b2625f92b74060001b61478a565b615f1a7f87011c039fd4d467167bfc83f31608f2196510a679a0f0e74d7a62211469ff7760001b61478a565b615f467fab00a4b6693524bdfc1865b341751717c2633dc65750884d591dfa9b8ba7321e60001b61478a565b615f727fc271436bb121fd3596cc9978e2658621bf8a076275e30bc60e60db33ae64bc4560001b61478a565b615ffb838383600160008773ffffffffffffffffffffffffffffffffffffffff1673ffffffffffffffffffffffffffffffffffffffff16815260200190815260200160002060008873ffffffffffffffffffffffffffffffffffffffff1673ffffffffffffffffffffffffffffffffffffffff168152602001908152602001600020540361478d565b61602d565b61602c7f148a9c5a65eb17c816d8fbb579f7e14ef5519a9974ed6e7507547d7d750cabb960001b61478a565b5b505050565b60006160607fe976e3b1ab5b47948b7b46c0060d3100aa9612bddbac51056ac80c13b62f562360001b615c37565b61608c7fb5003e0703deb9dd46e647e50fb026cc459f247098c770bef51c28c5a4f1380c60001b615c37565b6160b87fa839dfec5ba3a44553d1035b15d26e1cb3437717b20133e5ffd4c0a2f612710f60001b615c37565b6160e47f28d00b99a2aec99189e90bd77f23c1e61f333033b2050820a8eb2e6487a7a33960001b615c37565b8282846160f1919061731c565b9150811015616135576040517f08c379a000000000000000000000000000000000000000000000000000000000815260040161612c90617624565b60405180910390fd5b6161617ffd851a76596272214ad39c7cba275683ad441a9fa07837f147c91694d425bba960001b615c37565b92915050565b50565b50565b600080fd5b600080fd5b6000819050919050565b61618a81616177565b811461619557600080fd5b50565b6000813590506161a781616181565b92915050565b600073ffffffffffffffffffffffffffffffffffffffff82169050919050565b60006161d8826161ad565b9050919050565b6161e8816161cd565b81146161f357600080fd5b50565b600081359050616205816161df565b92915050565b600080fd5b600080fd5b600080fd5b60008083601f8401126162305761622f61620b565b5b8235905067ffffffffffffffff81111561624d5761624c616210565b5b60208301915083600182028301111561626957616268616215565b5b9250929050565b60008060008060006080868803121561628c5761628b61616d565b5b600061629a88828901616198565b95505060206162ab88828901616198565b94505060406162bc888289016161f6565b935050606086013567ffffffffffffffff8111156162dd576162dc616172565b5b6162e98882890161621a565b92509250509295509295909350565b600081519050919050565b600082825260208201905092915050565b60005b83811015616332578082015181840152602081019050616317565b60008484015250505050565b6000601f19601f8301169050919050565b600061635a826162f8565b6163648185616303565b9350616374818560208601616314565b61637d8161633e565b840191505092915050565b600060208201905081810360008301526163a2818461634f565b905092915050565b60006dffffffffffffffffffffffffffff82169050919050565b6163cd816163aa565b82525050565b600063ffffffff82169050919050565b6163ec816163d3565b82525050565b600060608201905061640760008301866163c4565b61641460208301856163c4565b61642160408301846163e3565b949350505050565b600080604083850312156164405761643f61616d565b5b600061644e858286016161f6565b925050602061645f85828601616198565b9150509250929050565b60008115159050919050565b61647e81616469565b82525050565b60006020820190506164996000830184616475565b92915050565b6164a8816161cd565b82525050565b60006020820190506164c3600083018461649f565b92915050565b6164d281616177565b82525050565b60006020820190506164ed60008301846164c9565b92915050565b60008060006060848603121561650c5761650b61616d565b5b600061651a868287016161f6565b935050602061652b868287016161f6565b925050604061653c86828701616198565b9150509250925092565b6000819050919050565b61655981616546565b82525050565b60006020820190506165746000830184616550565b92915050565b600060ff82169050919050565b6165908161657a565b82525050565b60006020820190506165ab6000830184616587565b92915050565b60006020820190506165c660008301846163c4565b92915050565b600080604083850312156165e3576165e261616d565b5b60006165f1858286016161f6565b9250506020616602858286016161f6565b9150509250929050565b6000602082840312156166225761662161616d565b5b6000616630848285016161f6565b91505092915050565b600060408201905061664e60008301856164c9565b61665b60208301846164c9565b9392505050565b600060208201905061667760008301846163e3565b92915050565b6166868161657a565b811461669157600080fd5b50565b6000813590506166a38161667d565b92915050565b6166b281616546565b81146166bd57600080fd5b50565b6000813590506166cf816166a9565b92915050565b600080600080600080600060e0888a0312156166f4576166f361616d565b5b60006167028a828b016161f6565b97505060206167138a828b016161f6565b96505060406167248a828b01616198565b95505060606167358a828b01616198565b94505060806167468a828b01616694565b93505060a06167578a828b016166c0565b92505060c06167688a828b016166c0565b91505092959891949750929550565b7f556e6973776170506169723a6c6f636b65640000000000000000000000000000600082015250565b60006167ad601283616303565b91506167b882616777565b602082019050919050565b600060208201905081810360008301526167dc816167a0565b9050919050565b7f506169723a616d6f756e7420696e2073686f756c64206772656174657220746860008201527f616e207a65726f00000000000000000000000000000000000000000000000000602082015250565b600061683f602783616303565b915061684a826167e3565b604082019050919050565b6000602082019050818103600083015261686e81616832565b9050919050565b7f506169723a696e73756666696369656e74206c69717569646974790000000000600082015250565b60006168ab601b83616303565b91506168b682616875565b602082019050919050565b600060208201905081810360008301526168da8161689e565b9050919050565b600082825260208201905092915050565b82818337600083830152505050565b600061690d83856168e1565b935061691a8385846168f2565b6169238361633e565b840190509392505050565b6000608082019050616943600083018861649f565b61695060208301876164c9565b61695d60408301866164c9565b8181036060830152616970818486616901565b90509695505050505050565b60008151905061698b81616181565b92915050565b6000602082840312156169a7576169a661616d565b5b60006169b58482850161697c565b91505092915050565b7f4e487b7100000000000000000000000000000000000000000000000000000000600052601160045260246000fd5b60006169f882616177565b9150616a0383616177565b9250828203905081811115616a1b57616a1a6169be565b5b92915050565b7f756e69737761703a696e73756666696369656e7420696e70757420616d6f756e60008201527f7400000000000000000000000000000000000000000000000000000000000000602082015250565b6000616a7d602183616303565b9150616a8882616a21565b604082019050919050565b60006020820190508181036000830152616aac81616a70565b9050919050565b7f556e697377617056323a204b0000000000000000000000000000000000000000600082015250565b6000616ae9600c83616303565b9150616af482616ab3565b602082019050919050565b60006020820190508181036000830152616b1881616adc565b9050919050565b6000608082019050616b3460008301876164c9565b616b4160208301866164c9565b616b4e60408301856164c9565b616b5b60608301846164c9565b95945050505050565b7f45524332303a696e73756666696369656e742062616c616e6365000000000000600082015250565b6000616b9a601a83616303565b9150616ba582616b64565b602082019050919050565b60006020820190508181036000830152616bc981616b8d565b9050919050565b7f616c726561647920696e74696c697a6564000000000000000000000000000000600082015250565b6000616c06601183616303565b9150616c1182616bd0565b602082019050919050565b60006020820190508181036000830152616c3581616bf9565b9050919050565b7f4e487b7100000000000000000000000000000000000000000000000000000000600052601260045260246000fd5b6000616c7682616177565b9150616c8183616177565b925082616c9157616c90616c3c565b5b828204905092915050565b7f556e6973776170506169723a696e73756666696369656e74206c69717569646960008201527f7479206d696e7465640000000000000000000000000000000000000000000000602082015250565b6000616cf8602983616303565b9150616d0382616c9c565b604082019050919050565b60006020820190508181036000830152616d2781616ceb565b9050919050565b7f556e697377617056323a20494e53554646494349454e545f4c4951554944495460008201527f595f4255524e4544000000000000000000000000000000000000000000000000602082015250565b6000616d8a602883616303565b9150616d9582616d2e565b604082019050919050565b60006020820190508181036000830152616db981616d7d565b9050919050565b7f556e69737761705632506169723a74696d652065787069726564000000000000600082015250565b6000616df6601a83616303565b9150616e0182616dc0565b602082019050919050565b60006020820190508181036000830152616e2581616de9565b9050919050565b6000616e3782616177565b91507fffffffffffffffffffffffffffffffffffffffffffffffffffffffffffffffff8203616e6957616e686169be565b5b600182019050919050565b600060c082019050616e896000830189616550565b616e96602083018861649f565b616ea3604083018761649f565b616eb060608301866164c9565b616ebd60808301856164c9565b616eca60a08301846164c9565b979650505050505050565b600081905092915050565b7f1901000000000000000000000000000000000000000000000000000000000000600082015250565b6000616f16600283616ed5565b9150616f2182616ee0565b600282019050919050565b6000819050919050565b616f47616f4282616546565b616f2c565b82525050565b6000616f5882616f09565b9150616f648285616f36565b602082019150616f748284616f36565b6020820191508190509392505050565b6000608082019050616f996000830187616550565b616fa66020830186616587565b616fb36040830185616550565b616fc06060830184616550565b95945050505050565b7f6f776e6572206164647265737320766572696679206661696c65640000000000600082015250565b6000616fff601b83616303565b915061700a82616fc9565b602082019050919050565b6000602082019050818103600083015261702e81616ff2565b9050919050565b600060408201905061704a600083018561649f565b61705760208301846164c9565b9392505050565b600081519050919050565b600081905092915050565b600061707f8261705e565b6170898185617069565b9350617099818560208601616314565b80840191505092915050565b60006170b18284617074565b915081905092915050565b6170c581616469565b81146170d057600080fd5b50565b6000815190506170e2816170bc565b92915050565b6000602082840312156170fe576170fd61616d565b5b600061710c848285016170d3565b91505092915050565b7f7472616e73666572206661696c65640000000000000000000000000000000000600082015250565b600061714b600f83616303565b915061715682617115565b602082019050919050565b6000602082019050818103600083015261717a8161713e565b9050919050565b600061718c82616177565b915061719783616177565b9250817fffffffffffffffffffffffffffffffffffffffffffffffffffffffffffffffff04831182151516156171d0576171cf6169be565b5b828202905092915050565b7f64732d6d6174682d6d756c2d6f766572666c6f77000000000000000000000000600082015250565b6000617211601483616303565b915061721c826171db565b602082019050919050565b6000602082019050818103600083015261724081617204565b9050919050565b7f64732d6d6174682d7375622d756e646572666c6f770000000000000000000000600082015250565b600061727d601583616303565b915061728882617247565b602082019050919050565b600060208201905081810360008301526172ac81617270565b9050919050565b60006172be82616177565b91506172c983616177565b9250826172d9576172d8616c3c565b5b828206905092915050565b60006172ef826163d3565b91506172fa836163d3565b9250828203905063ffffffff811115617316576173156169be565b5b92915050565b600061732782616177565b915061733283616177565b925082820190508082111561734a576173496169be565b5b92915050565b600060408201905061736560008301856163c4565b61737260208301846163c4565b9392505050565b7f45524332303a20696e76616c6964207370656e64657220616464726573730000600082015250565b60006173af601e83616303565b91506173ba82617379565b602082019050919050565b600060208201905081810360008301526173de816173a2565b9050919050565b7f45524332303a20696e76616c6964206f776e6572206164647265737300000000600082015250565b600061741b601c83616303565b9150617426826173e5565b602082019050919050565b6000602082019050818103600083015261744a8161740e565b9050919050565b7f45524332303a696e73756666696369656e7420616c6c6f77616e636500000000600082015250565b6000617487601c83616303565b915061749282617451565b602082019050919050565b600060208201905081810360008301526174b68161747a565b9050919050565b7f45524332303a20696e76616c6964206d696e7420616464720000000000000000600082015250565b60006174f3601883616303565b91506174fe826174bd565b602082019050919050565b60006020820190508181036000830152617522816174e6565b9050919050565b60007bffffffffffffffffffffffffffffffffffffffffffffffffffffffff82169050919050565b600061755c82617529565b915061756783617529565b9250817bffffffffffffffffffffffffffffffffffffffffffffffffffffffff048311821515161561759c5761759b6169be565b5b828202905092915050565b60006175b282617529565b91506175bd83617529565b9250826175cd576175cc616c3c565b5b828204905092915050565b7f64732d6d6174682d6164642d6f766572666c6f77000000000000000000000000600082015250565b600061760e601483616303565b9150617619826175d8565b602082019050919050565b6000602082019050818103600083015261763d81617601565b905091905056fea264697066735822122054e02e8ee995fec0fe81edb89c13667814f65bf57e66a233c094ed952f6b418664736f6c63430008100033a2646970667358221220c2dbd01ea292054d123de6c7fe9103f251e3896eaa1e8416af1796bff42b905c64736f6c63430008100033",
  "linkReferences": {},
  "deployedLinkReferences": {}
}